:020000022000DC
:1060000000000420499A0800899A0800B5A90800F0
:106010008D9A08008F9A0800919A080000000000ED
:10602000000000000000000000000000ED980800E3
:10603000959A0800000000000D990800999A080040
:106040007D9C08009B9A0800B1770800ED6308006A
:106050009B9A08009B9A0800C57908009B9A080043
:106060009B9A08009B9A08009B9A08009B9A08003C
:106070009B9A08009B9A08009B9A08009B9A08002C
:106080009B9A08007D9608009B9A08009B9A08003E
:106090009B9A08009B9A0800556A08009B9A080082
:1060A0009B9A08009B9A08009B9A08009B9A0800FC
:1060B0009B9A08009B9A0800000000000000000066
:1060C0009B9A08009B9A08009B9A080021A108004F
:1060D0009B9A08009B9A08009B9A08008D5F080015
:1060E000BD7708009B9A08009B9A080000000000FA
:1060F000000000009B9A08000000000051A1080069
:10610000000000000000000000000000000000008F
:10611000000000000000000000000000000000007F
:10612000000000000000000000000000000000006F
:10613000000000000000000000000000000000005F
:10614000000000000000000000000000000000004F
:10615000000000000000000000000000000000003F
:10616000000000000000000000000000000000002F
:10617000000000000000000000000000000000001F
:10618000000000000000000000000000000000000F
:1061900000000000000000000000000000000000FF
:1061A00000000000000000000000000000000000EF
:1061B00000000000000000000000000000000000DF
:1061C00000000000000000000000000000000000CF
:1061D00000000000000000000000000000000000BF
:1061E00000000000000000000000000000000000AF
:1061F000000000000000000000000000000000009F
:1062000010B5054C237833B9044B13B10448AFF3F0
:1062100000800123237010BDB04500200000000065
:10622000A4670B0008B5034B1BB103490348AFF348
:10623000008008BD00000000B4450020A4670B00EA
:10624000A3F5803A704700BF174B002B08BF134BD4
:106250009D46FFF7F5FF00218B460F461348144A71
:10626000121A6EF02BFC0E4B002B00D098470D4BF2
:10627000002B00D098470020002104000D000D489D
:10628000002802D00C48AFF300806EF0DDFA200049
:10629000290063F01BFC6DF0EFFF00BF0000080059
:1062A000000000000000000000000420B0450020B5
:1062B0004CA3012000000000000000007047022AEB
:1062C00006D0032A02D0012A00D1016000207047C5
:1062D0000B680360FAE7F2E7F1E7F0E77047704711
:1062E000008A704741827047817270477047402032
:1062F0007047202070471020704770476FF01800DB
:1063000070476FF0180070476FF0180070477047C3
:10631000002070476FF01800704700207047BBEEF8
:10632000090A704784B004A800E90E006FF0180055
:1063300004B070476FF0180070476FF01800704796
:106340000368D3F8E03018470368D3F8DC30184707
:10635000806D70474AB116290B466FF00800A8BF40
:1063600016238342B8BF034613700931C9B22029EE
:106370002CBF6FF00C000020704783684160194407
:10638000C160704700207047808B70473220704793
:10639000012070477047084A8B8992F8300108B194
:1063A000422B08D0012B05D00A3B012B8CBF0020CB
:1063B0000120704718467047C0870020006A431EBE
:1063C0005842584170470020704747F2305070479C
:1063D0002038704790F84000831E5842584170475B
:1063E0002038704790F83C00831E5842584170474F
:1063F0000020704700207047007B704700207047E6
:10640000006A431E584258417047024B93F85801A6
:10641000704700BFC0870020014B93F849017047C7
:10642000C087002000207047203870470020704748
:1064300001207047704700207047024B93F86201BB
:10644000704700BFC0870020704770474B6A032B1E
:1064500001BF034B1B68B3F85030838300207047A3
:10646000ACF90020F2E7F1E70020704727E7012AA6
:1064700003D0022A03D0002070470160FBE70B68BD
:106480000360F8E7F3E70068096803689B6818474A
:1064900000207047C0F88011704780ED5F0A704798
:1064A000002070470068096803689B681847006807
:1064B000096803689B6818470068096803689B6857
:1064C00018477047704720387047203870470120C0
:1064D0007047007B704701207047704770477047D6
:1064E00070477047012044F036BAFBE7FAE7F9E756
:1064F00010B50C21044663F031FB204610BD10B5E9
:106500003421044663F02AFB204610BD024B0348A9
:10651000198860F05EBA00BFEC570020E84A0120FD
:10652000024B0348198860F054BA00BFEC570020B2
:10653000E84A012070B505460C464CB1E168284692
:10654000FFF7F8FFA668204661F044FD3446F4E703
:1065500070BD70B505460C464CB1E1682846FFF7A2
:10656000F8FFA668204661F035FD3446F4E770BDBB
:1065700070B505460C464CB1E1682846FFF7F8FFB8
:10658000A668204661F026FD3446F4E770BD70B57C
:1065900005460C464CB1E1682846FFF7F8FFA668AF
:1065A000204661F017FD3446F4E770BD11B10830A4
:1065B00061F0BDBB7047034607B59A680191013A87
:1065C00008469A6069F08AF9019803B05DF804EB17
:1065D00061F000BDF0B501F1200C00254FF0000E78
:1065E00051F8043B05F001055E1B52F8043B6EEBCD
:1065F0004E07F41A67F10005614540F8044BEFD1EE
:1066000005F00100F0BD70B5046805460E46A542D0
:1066100007D0A068036831469B68984710B9246882
:10662000F5E7002070BD034610B41B685C6808469F
:1066300011462CB1A4469B685DF8044B01226047CB
:1066400002205DF8044B7047034610B41B681C68B9
:10665000084611462CB1A4469B685DF8044B012204
:10666000604702205DF8044B704713B504460021D3
:1066700034F05AFC01AA06212046FFF7D4FF50B996
:106680009DF8043001AA60F34513062120468DF8D9
:106690000430FFF7D9FF02B010BD13B50446002146
:1066A00034F042FC01AA06212046FFF7BCFF50B996
:1066B0009DF8043001AA60F38613062120468DF868
:1066C0000430FFF7C1FF02B010BD10B548B1046936
:1066D00054B184680123A047002818BF6FF002005E
:1066E00010BD6FF00A00FBE76FF00400F8E720B17F
:1066F000024B800143F001031847704730A709009F
:10670000A4DF7047A3DF7047B2DF7047B1DF704787
:10671000B0DF704711DF70473DDF70473CDF7047E7
:1067200063DF704762DF7047A8DF704786DF70471E
:1067300085DF704781DF704746DF70478ADF70472B
:106740007ADF7047A0DF7047007D7047407C70475C
:10675000007D7047B5DF704790DF70478FDF70476F
:10676000AEDF7047ADDF7047ACDF7047ABDF70471F
:10677000AADF704775DF704774DF704700231A4641
:10678000194661F081BD4FF0FF3161F0E9BE30B5CF
:10679000294C05469DB0206DFFF7F5FF94F84C306D
:1067A000019525467BB1254801AB02AA06A908F050
:1067B0008FFA044678B1286DFFF7E0FFB4FA84F051
:1067C00040091DB030BD04F10C0007F0FDFE044689
:1067D0000028E8D0EFE79DF80C30222B16D01748A0
:1067E00002AA06A908F036F904460028E3D19DF86C
:1067F0000C30222BDFD1114806AA12A907F050FE57
:10680000041ED8DB0BD10E4844F042F90B4804AA11
:1068100011A907F080F904460028E0D0CBE71A9BC5
:106820000F931B9B1093002304481A4606A907F0F8
:1068300095FF0446BFE700BF904E00209C4E00200D
:106840000AA3090012DF70474B1E062B88BF0A46B9
:10685000817A98BF08220231D208C9B237F06ABCE7
:106860004B1E062B88BF0A46417A98BF0822023188
:10687000D208C9B237F05EBC4B1E062B88BF0A4651
:10688000017A98BF08220231D208C9B237F052BC4F
:1068900030B5044685B00A200D4661F054FB0A4B22
:1068A000009303210023CDE901130393207923688A
:1068B0006A462EF0DDFA00B220B92946684632F069
:1068C00086FB00B205B030BDC0FB002030B50446E9
:1068D00085B001200D4661F036FB0A4B0093032181
:1068E0000023CDE901130393207923686A462EF033
:1068F000BFFA00B220B92946684632F068FB00B200
:1069000005B030BDD00C012038B5437A04460D46A1
:106910000BB939F0ECFD20460322802139F080FDCF
:10692000E27A20462A43812139F07AFD25732046F8
:10693000BDE8384039F08BBD38B5437A04460D4682
:106940000BB939F0D4FD20460322802139F068FDCF
:10695000227B20462A43812139F062FDE5722046E0
:10696000BDE8384039F073BD38B515461A4650B108
:10697000C368AB420AD344682B46A047002818BF1F
:106980006FF0020038BD6FF00A00FBE76FF0040003
:10699000F8E738B5437C04460D4673B1204630F025
:1069A0009BFF227A657220462A43A12130F038FFEE
:1069B0002046BDE8384030F044BF034930F054FF72
:1069C0000028EBD138BD00BFAC2A012038B5437C8C
:1069D00004460D4673B1204630F07EFF627A257280
:1069E00020462A43A12130F01BFF2046BDE8384055
:1069F00030F027BF024930F037FF0028EBD138BD17
:106A0000AC2A01201FB504688DF80C10ACB103232B
:106A10000021CDE9003103AB01221946204609F0DF
:106A200084F99DF80D309DF80C001B0243EA0043E9
:106A30009DF80E00184304B010BD0323FF22CDE9DA
:106A4000003203AB01221946406835F0B7FFE8E792
:106A50001FB504688DF80C108CB102230021CDE91C
:106A6000003103AB01221946204609F05EF99DF87A
:106A70000C009DF80D3043EA002004B010BD022345
:106A8000FF22CDE9003203AB01221946406835F000
:106A900095FFECE708B5FFF7DBFF40BA80B208BD11
:106AA0001FB504688DF80C1064B100230122CDE9F4
:106AB000002303AB1946204609F037F99DF80C0076
:106AC00004B010BD0122FF23CDE9002303AB19461A
:106AD000406835F073FFF1E71FB504688DF80D20AD
:106AE00064B10023CDE900338DF80C10012302229C
:106AF00003A9204609F0E9F804B010BD01F07F01B8
:106B000000948DF80C102346022203A9406835F04A
:106B100079FFF1E70078C0F3C20300F007029B00A1
:106B200043EA421343EA901070471FB544688DF85A
:106B30000C10ACB103230021CDE9003103AB0122DD
:106B40001946204609F0F1F89DF80D309DF80C002B
:106B50001B0243EA00439DF80E00184304B010BD29
:106B60000323FF22CDE9003203AB012219468068DE
:106B700035F024FFE8E71FB544688DF80C109CB190
:106B800002230021CDE9003103AB01221946204642
:106B900009F0CBF89DF80C309DF80D0040EA032079
:106BA00040BA80B204B010BD0223FF22CDE900320A
:106BB00003AB01221946806835F000FFEAE71FB5F4
:106BC00044688DF80C1064B100230122CDE9002344
:106BD00003AB1946204609F0A8F89DF80C0004B054
:106BE00010BD0122FF23CDE9002303AB19468068C5
:106BF00035F0E4FEF1E71FB544688DF80D2064B16F
:106C00000023CDE900338DF80C100123022203A9E3
:106C1000204609F05AF804B010BD01F07F0100943D
:106C20008DF80C102346022203A9806835F0EAFE95
:106C3000F1E7836903B11847184670470378642267
:106C400023F0020303704068B0FBF2F0B0FBF2F3F4
:106C500002FB1300C0B27047037C0BB9037070478E
:106C6000836843600378C16043F00303037000232B
:106C700003747047037819B143F00403037070473D
:106C800003F0FB03FAE770474BDF704733DF7047D1
:106C900032DF7047BFF34F8F0549064BCA6802F4D5
:106CA000E0621343CB60BFF34F8F00BFFDE700BF2F
:106CB00000ED00E00400FA0538B50446006884429F
:106CC00004D0056861F086F92846F8E738BD10B5AC
:106CD000044614F091F808B12388838110BD425C0A
:106CE0000144487840EA022070470B4B10B51C68FD
:106CF0000EF006FF236801461B68204698470446AD
:106D000040B10BF04FFF28B194F82D3013B104F1CE
:106D10002D0010BD0148FCE7E09500200EA30900FE
:106D2000034B1A79062A0CBF93F89800002070478D
:106D3000A8920020064B187900F0FB03022B04D028
:106D4000A0F10B035842584170470120704700BF23
:106D5000A8920020094B10B51C6864B160680EF061
:106D6000B9FE38B194F8640194F86E3198422CBFA2
:106D70000020012010BD2046FCE700BF3CF40020AD
:106D800010B50446006868F015FE2060204610BD6E
:106D900038B5044608200D4662F0DAFE2B684360E1
:106DA00023680360206038BD70B505460C464CB1C1
:106DB000E1682846FFF7F8FFA668204661F00AF967
:106DC0003446F4E770BD10B50446006868F0CCFDA9
:106DD0002060204610BD8B6873B5164604460D1D15
:106DE00001225BB130681A69904234BF9868D86854
:106DF0001D4634BF012200220346F2E7019552B13D
:106E0000CA68AA4204D1C4E90035204602B070BD68
:106E100001A8FFF7B5FF019A3368116999424FF055
:106E20000003F0D3C4E90023EFE770B505460C4634
:106E30004CB1E1682846FFF7F8FFA668204661F0EC
:106E4000C9F83446F4E770BD38B504460C200D4649
:106E500062F07EFE2B688360214668F038FDA368EF
:106E60000133A36038BD38B504460C200D4662F0EE
:106E70006FFE2B688360214668F029FDA36801330B
:106E8000A36038BD70B5046805460E46AC4207D015
:106E9000A068036831469B68984710B92468F5E7F5
:106EA000002070BD8B6873B5164604460D1D012287
:106EB0005BB130881A8A904234BF9868D8681D4602
:106EC00034BF012200220346F2E7019552B1CA689D
:106ED000AA4204D1C4E90035204602B070BD01A821
:106EE000FFF74EFF019A3388118A99424FF0000351
:106EF000F0D3C4E90023EFE78B6873B51646044668
:106F00000D1D01225BB130881A8A904234BF986807
:106F1000D8681D4634BF012200220346F2E70195DE
:106F200052B1CA68AA4204D1C4E90035204602B071
:106F300070BD01A8FFF724FF019A3388118A994296
:106F40004FF00003F0D3C4E90023EFE770B5054626
:106F50000C464CB1E1682846FFF7F8FFA6682046CA
:106F600061F038F83446F4E770BD10B50C4650B106
:106F700021F0C2FD38B1043050E8003F234440E81E
:106F80000032002AF8D110BD10B50138029C0F283C
:106F900000F28480DFE800F05E8236281A14580878
:106FA0004A6D7073797D8044DFED427A9FED427ABD
:106FB000002908BFF0EE477AC2ED007A052261E0B1
:106FC000DFED3E7A9FED3E7A0029F2E7DFED3B7A76
:106FD0009FED3B7A002908BFF0EE477AC2ED007AB8
:106FE00005222270082242E0DFED347A9FED347AE8
:106FF000002908BFF0EE477AC2ED007A0522227020
:10700000092234E0DFED2D7A9FED2D7A002908BFAB
:10701000F0EE477AC2ED007A052222700A2226E0BD
:10702000DFED247A9FED247A0029E2E7DFED217A73
:107030009FED217A002908BFF0EE477AC2ED007A71
:10704000082222700B2212E0DFED1E7A9FED1E7ADD
:107050000029F0E7DFED1B7A9FED1B7A002908BFBE
:10706000F0EE477AC2ED007A082222700C221A70E4
:1070700010BD16491160C1E714491160CCE71449ED
:107080001160062222700722F1E7114911600622E1
:10709000A7E71049116091E70E49F7E7DFED077A9E
:1070A0009FED077A002908BFF0EE477AC2ED007A1B
:1070B0000522C6E70020CB440000FA4300204B44E1
:1070C00000007A430020CB430000FA420000FA425D
:1070D00000007A429A997941F8B50D460168044654
:1070E00006468C420FD08A682B680F689A4208D1F6
:1070F00001F108039D4203D02046FFF75CFA00E04F
:107100000E463946EDE7B44205D031462046BDE88B
:10711000F840FFF750BAF8BDF8B50D4601680446CF
:1071200006468C420FD08A682B680F689A4208D1B5
:1071300001F108039D4203D02046FFF73CFA00E02E
:107140000E463946EDE7B44205D031462046BDE84B
:10715000F840FFF730BAF8BD2DE9F047D0E90487D1
:10716000436AD0E902A904463D1D1E1DAE4204D962
:1071700055F8040B60F02EFFF8E7C4E906A9C4E94E
:107180000887BDE8F0872DE9F047D0E90487436A16
:10719000D0E902A904463D1D1E1DAE4204D955F892
:1071A000040B60F017FFF8E7C4E906A9C4E90887F3
:1071B000BDE8F087036870B5044663B1436A45696A
:1071C0001E1DAE4204D955F8040B60F003FFF8E72A
:1071D000206860F0FFFE204670BD036870B504466D
:1071E00063B1436A45691E1DAE4204D955F8040BCC
:1071F00060F0F0FEF8E7206860F0ECFE204670BD1D
:1072000050F8183B834202D0184660F0E3BE704746
:1072100010B50446FFF750FD0023C4E90044A36005
:1072200010BDD0E90032934218BF43607047B0F1FF
:10723000005F08B501D368F0FFFCBDE8084080009E
:1072400062F086BC08B160F0C5BE7047026962B1E9
:10725000836850F82310013303F0010348BF5B42F9
:10726000013A83600261084670471146FBE7826A73
:1072700010B582B1036A50F823400133594201F03E
:10728000070103F0070302F1FF3258BF4B420362CC
:107290008262204610BD1446FBE7026962B1836832
:1072A00050F82310013303F0010348BF5B42013A59
:1072B00083600261084670471146FBE7826C10B597
:1072C00082B1036C50F823400133594201F00F01A1
:1072D00003F00F0302F1FF3258BF4B420364826494
:1072E000204610BD1446FBE70146014813F0AABD35
:1072F000189C00202DE9F347CB68DFF864900193D8
:107300000E1D07460C4635464FF0FF38DDF804A049
:10731000564510D0DAF81010D9F80430994206D04A
:1073200038460EF0BBFA804584BF5546804601A81A
:10733000FFF749FDEAE7AE4210D001A80195FFF73B
:1073400042FD3146284668F093FB60F043FE6369D6
:10735000013B6361012002B0BDE8F0870020FAE73D
:10736000888B00202DE9F347CB68DFF86490019308
:107370000E1D07460C4635464FF0FF38DDF804A0D9
:10738000564510D0DAF81010D9F80430994206D0DA
:1073900038460EF083FA804584BF5546804601A8E2
:1073A000FFF711FDEAE7AE4210D001A80195FFF703
:1073B0000AFD3146284668F05BFB60F00BFE63690E
:1073C000013B6361012002B0BDE8F0870020FAE7CD
:1073D000888B00202DE9F347CB68DFF86490019398
:1073E0000E1D07460C4635464FF0FF38DDF804A069
:1073F000564510D0DAF81010D9F80430994206D06A
:1074000038460EF04BFA804584BF5546804601A8A9
:10741000FFF7D9FCEAE7AE4210D001A80195FFF7CB
:10742000D2FC3146284668F023FB60F0D3FD636947
:10743000013B6361012002B0BDE8F0870020FAE75C
:10744000888B00202DE9F347CB68DFF86490019327
:107450000E1D07460C4635464FF0FF38DDF804A0F8
:10746000564510D0DAF81010D9F80430994206D0F9
:1074700038460EF013FA804584BF5546804601A871
:10748000FFF7A1FCEAE7AE4210D001A80195FFF793
:107490009AFC3146284668F0EBFA60F09BFD636980
:1074A000013B6361012002B0BDE8F0870020FAE7EC
:1074B000888B00208B6873B5164604460D1D01228B
:1074C0005BB130681A69904234BF9868D8681D462D
:1074D00034BF012200220346F2E7019552B1CA6887
:1074E000AA4204D1C4E90035204602B070BD01A80B
:1074F000FFF746FC019A3368116999424FF0000387
:10750000F0D3C4E90023EFE78B6873B51646044651
:107510000D1D01225BB130681A69904234BF986832
:10752000D8681D4634BF012200220346F2E70195C8
:1075300052B1CA68AA4204D1C4E90035204602B05B
:1075400070BD01A8FFF71CFC019A336811699942CC
:107550004FF00003F0D3C4E90023EFE78B6873B565
:10756000164604460D1D01225BB130681A6990422F
:1075700034BF9868D8681D4634BF012200220346F4
:10758000F2E7019552B1CA68AA4204D1C4E90035B4
:10759000204602B070BD01A8FFF7F2FB019A3368E4
:1075A000116999424FF00003F0D3C4E90023EFE7DB
:1075B0008B6873B5164604460D1D01225BB1306819
:1075C0001A69904234BF9868D8681D4634BF0122BA
:1075D00000220346F2E7019552B1CA68AA4204D1DB
:1075E000C4E90035204602B070BD01A8FFF7C8FB12
:1075F000019A3368116999424FF00003F0D3C4E94E
:107600000023EFE730B5031D826818463AB11569CB
:107610000C68A5422ABF1046D2689268F6E78342FA
:1076200004D009680269914238BF184630BD30B5B0
:10763000031D826818463AB115690C68A5422ABF35
:107640001046D2689268F6E7834204D0096802695E
:10765000914238BF184630BD30B5031D82681846C8
:107660003AB115690C68A5422ABF1046D2689268E3
:10767000F6E7834204D009680269914238BF184690
:1076800030BD30B5031D826818463AB115690C68E3
:10769000A5422ABF1046D2689268F6E7834204D01A
:1076A00009680269914238BF184630BD37B54B6949
:1076B0000192272B05460C460AD901A92046FFF75F
:1076C000E0FF231D834203D121462846FFF7BAFE7F
:1076D00003B030BD10B581680446FEF72BFF0023D0
:1076E000221DC4E90322A360636110BD10B5816847
:1076F0000446FEF72EFF0023221DC4E90322A360E7
:10770000636110BD10B581680446FEF731FF0023A8
:10771000221DC4E90322A360636110BD10B5816816
:107720000446FEF734FF0023221DC4E90322A360B0
:10773000636110BD2DE9F84300F104098468054632
:107740004E46ECB123690868834204D2E3683446AC
:1077500026461C46F5E7A368FAD8E26843B11969E2
:1077600088428ABFD968996823461C460B46F5E7CC
:107770003AB11369984236BF1646D2689268F7E765
:107780003446EB68D5F81480A34209D1B14507D13E
:107790002846FFF7C3FF6869A8EB0000BDE8F8833F
:1077A000A642F8D0204668F0F2F84946074620463F
:1077B00068F05EF960F00EFC6B69013B6B613C4662
:1077C000EEE708B160F006BC7047B0F1005F13B59A
:1077D00001D368F031FA82001046019262F0B8F9E4
:1077E000019A002104466DF069F9204602B010BDEF
:1077F00042680B4604318A4210B5044604D018464C
:10780000521A6DF041F903466268043A6260184604
:1078100010BD10B103685B681847704710B103686A
:107820005B681847704710B103681B6918477047B9
:1078300010B103685B681847704770B505460C4681
:107840004CB1E1682846FFF7F8FFA668204660F0D3
:10785000C1FB3446F4E770BD70B5046805460E46BA
:10786000AC4207D0A068036831469B68984710B9BE
:107870002468F5E7002070BD10B50378DB070446E7
:1078800004D560F055FBE368C01A10BD4FF0FF301F
:10789000FBE773B5044616460D4619B912B10D48FB
:1078A00068F0CDF9731B0F2B019307D9002201A9B2
:1078B000204668F0C9FB019B2060A3603246294640
:1078C000206868F000FC019B226863600021D154AD
:1078D00002B070BD12A30900FFF7DBBF08B5064B6D
:1078E000064A1868064900F61C7009F0CBFBBDE893
:1078F00008400E200AF018BCE41F01203CA3090038
:1079000055A3090070B5046805460E46AC4207D081
:10791000A068036831469B68984710B92468F5E76A
:10792000002070BD10B50B4904460B48FFF7EAFF75
:1079300068B123681D2B0BD801332360074B084A1D
:107940001868084900F61C7009F09CFB012010BD66
:107950000020FCE7CCD60900840D0120E41F0120A3
:107960005BA3090078A3090070B5046805460E46BC
:10797000AC4207D0A068036831469B68984710B9AD
:107980002468F5E7002070BD44DF704743DF70478F
:1079900042DF7047064B1868043B1B68082B04D174
:1079A00003288CBF0020012070470020704700BFD3
:1079B00034010010024B1B68DB0700D500BE704786
:1079C000F0ED00E0034B1B68DB0700D500BE002094
:1079D000704700BFF0ED00E0014B93F8580170478D
:1079E000C0870020014B93F849017047C0870020F1
:1079F000014B93F862017047C08700202DE9F041E8
:107A0000C84EC94BC94DDFF8DC83304686B04422EE
:107A100040F80C3B002100246DF050F8C44BB360DB
:107A2000347106F15401012060F0B2FCC14B3065A5
:107A30003360C14AC149304667F044FF23462246BD
:107A400021460094BE485FF07FF923462246214636
:107A50000094BC485FF078F9234622462146009402
:107A6000B9485FF071F92346224621460094B74891
:107A70005FF06AF92346224621460094B4485FF03D
:107A800063F92346224621460094B2485FF05CF930
:107A90002346224621460094AF485FF055F923461D
:107AA000224621460094AD485FF04EF9AC485FF0A5
:107AB00043F92346224621460094AA485FF044F940
:107AC0002346224621460094A7485FF03DF9A74887
:107AD000994AA749C0F884404FF40053A0F8803079
:107AE000A44BC0F88830A0F89C4067F0EBFEA24B96
:107AF000A248DC600822C3E901441A701C82A04B32
:107B0000A04A1C705C70A04B01271A609F4A1F712D
:107B1000D2F8B4101973D2F8AC109973D2F8B0102F
:107B20005973DC731C829C60994B9A491C711960D3
:107B3000516F1973D1689973926F9C605A73DC739B
:107B40001C8222462346214600945FF0FDF819234B
:107B50002B614FF47A732B62C5E90C44AC60AC81A5
:107B6000AC73AC82EC61C5F81880AE6285F82C402D
:107B70002146C5E90055802205F17C0085F8384092
:107B800085F878406CF09AFF2146882205F1FC00C8
:107B90006CF094FF684A8049284667F093FE2346BC
:107BA0002246214600947D485FF0CEF823462246C7
:107BB000214600947A485FF0C7F87A485E4A7A49CD
:107BC0008460C0E9000067F07DFE78485A4A764933
:107BD0008460C0E9000067F075FE7548564A724936
:107BE0008460C0E9000067F06DFE2346224621460E
:107BF000009470485FF0A8F823462246214600947E
:107C00006D485FF0A1F823462246214600946B4858
:107C10005FF09AF8234622462146009468485FF0B8
:107C200093F8234622462146009466485FF08CF87C
:107C3000234622462146009463485FF085F8234698
:107C400022462146009461485FF07EF82346224692
:107C5000214600945E485FF077F82346224621468D
:107C600000945C485FF070F85B485CF0E9FB324AD6
:107C70005A49594867F026FE234622462146009479
:107C800057485FF061F84FF4A47061F061FF08F1AC
:107C900024030546214640F8043B20226CF00EFFE9
:107CA0006C622146102205F128006CF007FF214686
:107CB000212205F138006CF001FF2146202205F158
:107CC00059006CF0FBFE2146202205F179006CF092
:107CD000F5FE2146C5F89C40202205F1A0006CF07D
:107CE000EDFE85F8C04005F1C4005CF0A9FB21461B
:107CF000202205F1C8006CF0E1FE2146202205F1AA
:107D0000E8006CF0DBFE2146202205F584706CF063
:107D1000D5FE2146202205F594706CF0CFFE08F1C7
:107D2000680361E0904E00201CDB090040F4002055
:107D3000644000202CDB0900004000205DF80200B8
:107D400088FB002078FA0020600C012074FB0020E2
:107D5000680C0120800C0120880C0120FCFA002016
:107D600080FA0020900C012024830020E49500205C
:107D70001DA3030080EE360040FC0020C4F5002067
:107D8000480D012000F00240540D0120C0350B00C9
:107D9000680D012000300240D3CB03007C0D012090
:107DA0009C0D0120840D01202DA90600900D0120BD
:107DB000A40D0120B00D0120B80D0120C00D01203F
:107DC000C80D0120E00D0120EC0D0120F40D012073
:107DD000FC0D0120040E01200C0E0120334408008C
:107DE000100E012098A309002B60BD4BBD481D60FB
:107DF000224623462146009408F1AC065EF0A4FF1B
:107E0000B94BBA48049302A902968DF80E40ADF81A
:107E10000C40059435F0F4F9B54AB649B348B64D6F
:107E200067F050FDB54BB648049302A902968DF851
:107E30000E40ADF80C40059405F014FBAC4AB14976
:107E4000AF4867F03FFDB04BB048049302A90296DB
:107E50008DF80E40ADF80C40059405F003FBA44AE4
:107E6000A849AA4867F02EFDA94BAA48049302A985
:107E700002968DF80E40ADF80C40059405F0F2FA2C
:107E80009B4AA049A34867F01DFDA34BA348049358
:107E900002A902968DF80E40ADF80C40059405F04D
:107EA000E1FA934A97499D4867F00CFD41F60A03B1
:107EB00002A92846CDE904440296ADF80C308DF8AD
:107EC0000E7035F09DF9284608F1BC03214640F8B4
:107ED000183B24226CF0F2FD914BEB611523C5E9B0
:107EE0000F4485F83D308F4BEB62052385F8413018
:107EF0008D4B2B63132385F8444085F84230284688
:107F00008A4D7B4A8A4967F0DDFC41F60F0302A9DE
:107F10002846CDE904440296ADF80C308DF80E7079
:107F200035F06EF9284608F1D00340F8183B02A955
:107F300042F61923ADF80C30CDE9044402968DF8D1
:107F40000E7005F08FFA28467A4D694A7A4967F033
:107F5000B9FC7A4B029602A9284604938DF80E408C
:107F6000ADF80C40059435F04BF9284608F1E403D0
:107F700040F8183B02A9724B049302968DF80E400C
:107F8000ADF80C40059405F06DFA594A6D496E4EF6
:107F9000284667F097FC23462246214600946B480A
:107FA0006B4D5EF0D1FE234622462146009469487F
:107FB0005EF0CAFE234622462146009466485EF0E3
:107FC000C3FE234622462146009464485EF0BCFE70
:107FD000234622462146009461485EF0B5FE2346C2
:107FE0002246214600945F485EF0AEFE23462246BC
:107FF000214600945C485EF0A7FE234622462146B7
:1080000000945A485EF0A0FE234622462146009482
:1080100057485EF099FE2346224621460094554873
:108020005EF092FE234622462146009452485EF0BE
:108030008BFE234622462146009450485EF084FE83
:1080400023462246214600944D485EF07DFE23469D
:108050002246214600944B485EF076FE4A485CF08A
:10806000EFF9234A4949484867F02CFC2346224649
:108070002146009446485EF067FE2346224621468C
:10808000009444485EF060FE234622462146009458
:1080900041485EF059FE23462246214600943F485F
:1080A0005EF052FE23462246214600943C485EF094
:1080B0004BFE23462246214600943A485EF044FE99
:1080C000234622462146009437485EF03DFE234673
:1080D00022462146009435485EF036FE234667E08E
:1080E000180E0120845B002043350B0064580020EB
:1080F00000400020A31A0300EC58002054350B0068
:10810000E052002089D4020064350B00945700200F
:1081100032350B003459002021350B003853002034
:10812000D5360B001CA2090022A20900F05700203E
:10813000A11A03007C580020A51A030049A00A00D8
:1081400059A00A00A71A03007817012018FB002085
:10815000F81601201C0E0120240E01202C0E0120F7
:10816000340E01203C0E0120440E01204C0E012053
:10817000540E01205C0E012048850020640E012071
:108180006C0E0120D0F90020D8F9002033440800FB
:10819000740E01207C0E0120840E01208C0E012023
:1081A000940E0120A00E0120AC0E0120B80E01207B
:1081B000224621460094C6485EF0C6FD234622466C
:1081C00021460094C3485EF0BFFD23462246214667
:1081D0000094C1485EF0B8FD234622462146009433
:1081E000BE485EF0B1FD2346224621460094BC48BD
:1081F0005EF0AAFD2346224621460094B9485EF06F
:10820000A3FD2346224621460094B7485EF09CFD1C
:108210002346224621460094B4485EF095FD23464D
:10822000224621460094B2485EF08EFD2346224647
:1082300021460094AF485EF087FD23462246214642
:108240000094AD485EF080FD23462246214600940E
:10825000AA485EF079FD2346224621460094A848AC
:108260005EF072FD2346224621460094A5485EF04A
:108270006BFD2346224621460094A3485EF064FD30
:108280002346224621460094A0485EF05DFD234629
:108290002246214600949E485EF056FD2346224623
:1082A000214600949B485EF04FFD2346224621461E
:1082B000009499485EF048FD2346224621460094EA
:1082C00096485EF041FD234622462146009494489C
:1082D0005EF03AFD234622462146009491485EF026
:1082E00033FD23462246214600948F485EF02CFD44
:1082F00023462246214600948C485EF025FD234605
:108300002246214600948A485EF01EFD23462246FE
:108310002146009487485EF017FD234622462146F9
:10832000009485485EF010FD2346224621460094C5
:1083300082485EF009FD234622462146009480488B
:108340005EF002FD23462246214600947D485EF001
:10835000FBFC23462246214600947B485EF0F4FC59
:10836000234622462146009478485EF0EDFC2346E1
:1083700022462146009476485EF0E6FC23462246DB
:108380002146009473485EF0DFFC234622462146D6
:10839000009471485EF0D8FC2346224621460094A2
:1083A0006E485EF0D1FC23462246214600946C487C
:1083B0005EF0CAFC234622462146009469485EF0DE
:1083C000C3FC234622462146009467485EF0BCFC6D
:1083D000234622462146009464485EF0B5FC2346BD
:1083E00022462146009462485EF0AEFC23462246B7
:1083F000214600945F485EF0A7FC234622462146B2
:1084000000945D485EF0A0FC23462246214600947D
:108410005A485EF099FC234622462146009458486B
:108420005EF092FC234622462146009455485EF0B9
:108430008BFC234622462146009453485EF084FC80
:10844000234622462146009450485EF07DFC234698
:108450002246214600944E485EF076FC2346224692
:10846000214600944B485EF06FFC2346224621468D
:10847000009449485EF068FC234622462146009459
:1084800046485EF061FC234622462146009444485B
:108490005EF05AFC234622462146009441485EF095
:1084A00053FC23462246214600943F485EF04CFC94
:1084B00023462246214600943C485EF045FC234674
:1084C0002246214600943A485EF03EFC72E000BF2E
:1084D000C00E0120C80E0120D00E0120D80E0120B0
:1084E000E00E0120E80E0120F00E0120F80E012020
:1084F00034FC002028FC0020000F01200C0F01207C
:10850000140F01201C0F0120240F01202C0F01202B
:10851000340F01203C0F0120440F01204C0F01209B
:10852000E8F50020540F01205C0F0120640F0120AA
:108530006C0F0120740F01207C0F0120840F01209B
:108540008C0F01209C0F0120A40F0120AC0F0120F3
:10855000B40F0120BC0F0120C80F0120D00F012053
:10856000D80F0120E00F0120E80F0120F00F0120BB
:10857000F80F01200010012008FC00200810012045
:108580001010012018100120201001202C100120B3
:10859000341001203C100120441001204C10012017
:1085A000541001205C1001206410012010FC0020F8
:1085B0006C1001202346224621460094C2485EF0FA
:1085C000C3FB2346224621460094C0485EF0BCFB14
:1085D000BF48C04AC049046067F074F92346224688
:1085E00021460094BD485EF0AFFB2346224621465B
:1085F0000094BB485EF0A8FBBA48B64AB64904608E
:1086000067F060F92346224621460094B6485EF0A2
:108610009BFB2346224621460094B4485EF094FB1F
:108620002346224621460094B1485EF08DFB234646
:10863000224621460094AF485EF086FB2346224640
:1086400021460094AC485EF07FFB2346224621463B
:108650000094AA485EF078FB234622462146009407
:10866000A7485EF071FB2346224621460094A548A8
:108670005EF06AFB2346224621460094A2485EF043
:1086800063FB2346224621460094A0485EF05CFB33
:1086900023462246214600949D485EF055FB234622
:1086A0002246214600949B485EF04EFB234622461C
:1086B0002146009498485EF047FB23462246214617
:1086C000009496485EF040FB2346224621460094E3
:1086D00093485EF039FB2346224621460094914898
:1086E0005EF032FB23462246214600948E485EF01F
:1086F0002BFB23462246214600948C485EF024FB47
:10870000234622462146009489485EF01DFB2346FD
:1087100022462146009487485EF016FB23462246F7
:108720002146009484485EF00FFB234622462146F2
:10873000009482485EF008FB2346224621460094BE
:108740007F485EF001FB23462246214600947D4887
:108750005EF0FAFA23462246214600947A485EF0FB
:10876000F3FA234622462146009478485EF0ECFA5C
:10877000234622462146009475485EF0E5FA2346DA
:1087800022462146009473485EF0DEFA23462246D4
:108790002146009470485EF0D7FA224621462346CF
:1087A00000946E485EF0D0FA304650F0F5FE6C4B07
:1087B0002C71AB6005F10C005EF0BEFA40F239534B
:1087C000C5E905344EF66023C5E907342E60654BD4
:1087D000654EAB606C62654D304650F0DDFE28465C
:1087E0005EF0AAFA624A45F8046CC5E904224FF427
:1087F0007F02AC60AC81AA612346224621460094E8
:108800005C485D4D5EF0A0FA234622462146009466
:108810005A485EF099FA2346224621460094584869
:108820005EF092FA234622462146009455485EF0B7
:108830008BFA234622462146009453485EF084FA80
:10884000234622462146009450485EF07DFA234696
:108850002246214600944E485EF076FA2346224690
:10886000214600944B485EF06FFA2346224621468B
:10887000009449485EF068FA234622462146009457
:1088800046485EF061FA2346224621460094444859
:108890005EF05AFA234622462146009441485EF093
:1088A00053FA23462246214600943F485EF04CFA94
:1088B00023462246214600943C485EF045FA234672
:1088C00022462146009473E074100120FCFB002036
:1088D000F8FB00200040002067420500F0FB00206C
:1088E000B8FB0020B4FB00207C1001208810012080
:1088F000901001209C100120EC1201208496002091
:10890000F4120120FC120120041301200C13012099
:10891000141301202CFB00201C1301202413012020
:10892000A8FB002030130120241601209CFB00200E
:108930008C16012098160120A016012090FB002023
:10894000BC160120C41601207CFB0020D01601209B
:10895000D8160120E0160120E8160120701701202A
:108960002CF20900CF9300209C17012054170120FE
:108970007E670B00C4170120189C0020CC17012033
:10898000D4170120DC170120E8170120F01701207F
:10899000F8170120001801200818012010180120E4
:1089A0001C180120241801202C1801203418012043
:1089B000C2485EF0C9F92346224621460094C048C9
:1089C0005EF0C2F92346224621460094BD485EF07F
:1089D000BBF92346224621460094BB485EF0B4F919
:1089E000BA4B2B612846BA4BEB6008F1F806B94B3D
:1089F0006B61214640F8186B6D6045F2C0726CF0F7
:108A00005DF821463622B4486CF058F82846B34D3C
:108A1000B34AB44966F056FF2846214600F8044B95
:108A20004FF4D0726CF04AF821464FF4D07205F53D
:108A3000D2706CF043F82346224621460094AA489F
:108A4000AA4D5EF081F92346224621460094A848AB
:108A50005EF07AF92346224621460094A5485EF04E
:108A600073F92346224621460094A3485EF06CF930
:108A7000A2489B4AA2498460C0E9000066F022FF38
:108A800023462246214600949E485EF05DF9234627
:108A90002246214600949C485EF056F92346224621
:108AA0002146009499485EF04FF92346224621461C
:108AB000009497485EF048F92346224621460094E8
:108AC00094485EF041F9234622462146009492489C
:108AD0005EF03AF923462246214600948F485EF024
:108AE00033F98F487E4A8F49C463C0E90144C0E925
:108AF0000344C0E90544C0E90744C0E90944C0E9AA
:108B00000B44C0E90D4466F0DDFE234622462146B3
:108B1000009485485EF018F92346224621460094C9
:108B200082485EF011F9824B2B612846814BEB6045
:108B300008F5887340F8183B6C6121466D604FF46E
:108B4000FB526BF0BBFF214610227B486BF0B6FF57
:108B5000634A7A4928467A4D66F0B4FE794B2B6118
:108B60002846794BEB6008F5947340F8183B6C612C
:108B700021466D6020226BF0A1FFAC63584A734917
:108B80002846734D66F09EFE724B2B612846724B51
:108B9000EB6008F5A07340F8183B6C6121466D60EE
:108BA0004FF4F0626BF08AFFC5F898474C4A6B4966
:108BB000284666F087FE23462246214600946848F0
:108BC0005EF0C2F8234622462146009465485EF0D6
:108BD000BBF8234622462146009463485EF0B4F871
:108BE000234622462146009460485EF0ADF82346B5
:108BF0002246214600945E485EF0A6F823462246AF
:108C0000214600945B485EF09FF8234622462146A9
:108C1000009459485EF098F8234622462146009475
:108C200056485EF091F82346224621460094544867
:108C30005EF08AF8234622462146009451485EF0B1
:108C400083F823462246214600944F485EF07CF884
:108C500023462246214600944C485EF075F8234690
:108C60002246214600944A485EF06EF8234622468A
:108C70002146009447485EF067F823462246214685
:108C8000009445485EF060F84448214620F8024BC5
:108C900010226BF013FF23462246214600944048E1
:108CA0005EF052F823462246214600943D485EF08D
:108CB0004BF8234622462146009475E03C180120DB
:108CC000441801204C180120109C002087640200E9
:108CD000DB62020036A20900F0F30020C8980020F1
:108CE0000040002045AB0300541801209C63002085
:108CF0005C180120681801207819012080190120D2
:108D00002DA906009019012098190120A019012011
:108D1000AC19012010FB0020B4190120D8950020C7
:108D200058920020FF580300BC19012090630020D6
:108D3000B9640200BF62020014830020192C0300F2
:108D4000B05B0020AF640200D7620200EF2B03008B
:108D5000F05B0020A5640200D9620200C12B030071
:108D600020FB002030F40020C4190120CC19012080
:108D7000D4190120DC190120E4190120EC1901208B
:108D8000F4190120FC190120041A012008FB00201D
:108D90000C1A01201C1B0120A85B0020945B002002
:108DA00070FA0020281B0120C3485DF0CDFFC349A5
:108DB000C34AC44866F086FD5C2060F0C9FE0546E3
:108DC00007F037FB2B46C04A43F8382BC5E90E3372
:108DD00008F5AC736B63BD4B2C64C5E912344FF4DA
:108DE00000734FF00208A5F85830B94B6C656D64FC
:108DF00085F8508085F85A806F62CC201D6060F045
:108E0000A7FE054607F015FB2B46B24A43F8382B60
:108E1000C5E90E3306F174036B63AF4B2C64214636
:108E2000C5E9123474222C656D6405F154006BF0B1
:108E300045FEAA4BC5F8C840C5F8248058201D60DF
:108E400060F086FE054607F0F4FA2B46A44A43F884
:108E5000382BC5E90E33A34B2C64C5E91234032328
:108E60006B628836A04B2C65A5F8544085F85640B7
:108E70006E636D646C201D6060F06AFE054607F04D
:108E8000D8FA2B46994A43F8382BC5E90E33984B4C
:108E90006B63984B2C64C5E9123405F15C03C5E99A
:108EA000153404236B62944B2C651D6085F85C407F
:108EB0006D64924D924A2B881380924A29781380D0
:108EC000914A92481380924A1380924A1380924B9F
:108ED0006A781C7059709A70214623462246009485
:108EE0005DF032FF23462246214600948B485DF018
:108EF0002BFF234622462146009489485DF024FF3B
:108F0000234622462146009486485DF01DFF2346F5
:108F100022462146009484485DF016FF23462246EF
:108F20002146009481485DF00FFF234622462146EA
:108F300000947F485DF008FF2346224621460094B6
:108F40007C485DF001FF23462246214600947A4882
:108F50005DF0FAFE234622462146009477485DF0F4
:108F6000F3FE234622462146009475485DF0ECFE50
:108F7000234622462146009472485DF0E5FE2346D2
:108F800022462146009470485DF0DEFE23462246CC
:108F9000214600946D485DF0D7FE234622462146C7
:108FA00000946B485DF0D0FE234622462146009493
:108FB00068485DF0C9FE2346224621460094664873
:108FC0005DF0C2FE234622462146009463485DF0D0
:108FD000BBFE234622462146009461485DF0B4FE64
:108FE00023462246214600945E485DF0ADFE2346AE
:108FF0002246214600945C485DF0A6FE23462246A8
:109000002146009459485DF09FFE234622462146A2
:10901000009457485DF098FE23462246214600946E
:1090200054485DF091FE2346224621460094524862
:109030005DF08AFE23462246214600944F485DF0AB
:1090400083FE23462246214600944D485DF07CFE77
:1090500023462246214600944A485DF075FE234689
:1090600022462146009448485DF06EFE2346224683
:109070002146009445485DF067FE2346224621467E
:10908000009443485DF060FE23462246214600944A
:1090900040485DF059FE23462246214600943E4852
:1090A0005DF052FE23462246214600943B485DF087
:1090B0004BFE2346224673E0B4F90020D961040038
:1090C00000400020BCF9002044DD090081FF0200BF
:1090D00060F90020E0410A00C5150400A8F900204D
:1090E00094540A004B590400ACF9002084540A003F
:1090F0000C550A0041620400C0F900208B1F0120BA
:10910000C4F900209AF9002094F90020341B0120B2
:1091100096F9002098F900209DF900203C1B0120C1
:10912000441B01204C1B0120541B0120601B01200B
:10913000681B0120701B0120781B0120801B01206F
:10914000881B0120901B0120981B0120A01B0120DF
:10915000A81B0120B41B0120BC1B012090F700209C
:10916000C41B0120CC1B0120D41B0120E41B0120C7
:10917000F01B0120F81B012088F70020001C0120B3
:10918000081C0120101C0120181C0120201C01209B
:10919000281C0120301C0120381C0120401C01200B
:1091A0002146009468485DF0CFFD234622462146C3
:1091B000009466485DF0C8FD23462246214600948F
:1091C00063485DF0C1FD2346224621460094614874
:1091D0005DF0BAFD23462246009421465E485DF0CC
:1091E000B3FD5E4B30240022013C1A7303F10E03E1
:1091F000FAD1234622462146594800945DF0A4FD49
:109200005848594A59498460C0E9004466F05AFBFD
:109210005748554A5749047200F10803C0E9003421
:1092200066F050FB234622462146534800945DF0E9
:109230008BFD234622462146504800945DF084FD74
:109240002346224621464E4800945DF07DFD23468C
:10925000224621464B4800945DF076FD2346224687
:109260002146494800945DF06FFD23462246214681
:10927000464800945DF068FD234622462146444856
:1092800000945DF061FD234622462146414800944A
:109290005DF05AFD2346224621463F4800945DF08A
:1092A00053FD2346224621463C4800945DF04CFD88
:1092B0002346224621463A4800945DF045FD234668
:1092C00022462146374800945DF03EFD264A364945
:1092D000364866F0F7FA2346224621463448009481
:1092E0005DF032FD3348204A3349046066F0EAFA03
:1092F000324B2C701C705C709C70224623462146B9
:109300006C702F4800945DF01FFD2E4813F06CFF29
:10931000154A2D492B4866F0D5FA2C4813F064FF06
:10932000114A2949294866F0CDFA03222146012035
:109330005EF084FF264B1860002851D1254B264A49
:1093400026480C2141F00EFC481C0120501C012035
:10935000581C0120601C0120681C0120701C012089
:10936000101F0120181F012000400020414108006B
:10937000241F0120C90109003C1F0120441F0120B6
:109380004C1F0120541F01205C1F0120641F01207D
:109390006C1F012080F70020741F01207C1F01201A
:1093A00054F700204CF700209B210400F0F500202A
:1093B000E0F50020841F012067420500881F01207E
:1093C0004851002074500020250B0300505100200C
:1093D0002052002044A209004EA209008EA20900DA
:1093E000AE4AAF49AF4DB04F184666F06BFA234610
:1093F000224621460094AD485DF0A6FC2346224655
:1094000021460094AA485DF09FFC2346224621464F
:109410000094A8485DF098FC23462246214600941B
:10942000A5485DF091FC2346224621460094A348BE
:109430005DF08AFC2346224621460094A0485DF058
:1094400083FC23462246214600949E485DF07CFC26
:1094500023462246214600949B485DF075FC234636
:1094600022462146009499485DF06EFC2346224630
:109470002146009496485DF067FC2346224621462B
:10948000009494485DF060FC2346224621460094F7
:1094900091485DF059FC23462246214600948F48AE
:1094A0005DF052FC23462246214600948C485DF034
:1094B0004BFC23462246214600948A485DF044FC3A
:1094C000894B8A4A9C60C3E90024894ADA60894B47
:1094D000894A9C60C3E90024884ADA608849894B3C
:1094E0008948C3E90242C3E90014884B884A1A60DC
:1094F000884A5A60884A9A60884ADA60884B894A62
:109500009C60C3E90024884ADA60884B884A9C60E2
:10951000C3E90024874ADA60874B884A8849C3E94F
:109520000024884A9A60884ADA60884B884A9C609E
:10953000C3E90024874ADA60874A1160874984605A
:10954000C2E901148649D160864A8749116087497A
:109550005160874991608749D160C0E900344F4A22
:109560008549C0F8EC4080F8F04066F0ABF923463E
:1095700022462146009481485DF0E6FB8048814BFD
:1095800003610523037105F14C0300264FF04008E9
:10959000036205F15803C0E90934404A7A4904736B
:1095A0000475846104778460056080F82D804463CD
:1095B000866366F087F97548754B03612223037152
:1095C00005F16403036005F1B003036205F1BC0318
:1095D000436242F21073314A6E4904730475846128
:1095E0000477846080F82880C762C663A0F84030A2
:1095F00080F842804764066386634663846466F04D
:1096000061F96548654B03610423037105F1C803E3
:10961000036005F58873214A614904730475846108
:1096200004778460036266F04DF95E485E4B036127
:109630000E23037105F58E73036005F5B4730362A1
:1096400005F5BA734362422380F83430574B134A0E
:109650005749047304758461047784608763836267
:10966000C3620363C46366F02DF95248524B036131
:109670001C23037105F5C073036005F5E473C0E9AD
:109680000834064A4D490473047584610477846084
:1096900066F018F923462246214691E0004000205A
:1096A000814408002CA50900AC2A0120D8F500202F
:1096B000901F0120981F0120A01F0120A81F01203A
:1096C0008C5B0020B41F0120BC1F0120CCF50020C2
:1096D000DC1F0120E81F0120F01F0120D8520020CC
:1096E000FC1F01209820012088200120494D0800FE
:1096F000BAA20900A02001202D4D0800C3A2090034
:109700000F4D080078200120B020012058200120B2
:10971000CD4C0800E1640200DF640200B41E0A00C0
:1097200028200120DD640200C7A2090038200120A2
:10973000EB640200CAA2090068200120DB64020079
:10974000EF640200ED640200CFA20900482001206E
:10975000BD620200D6A2090018200120FB4C0800BF
:10976000DBA2090008200120E14C0800CF4C0800D2
:10977000E5640200DEA209000D2203003C50002037
:109780003C4F0020E4A209006D040300784F002044
:10979000EBA20900AB040300C44F0020F2A20900B1
:1097A000A9040300F84F0020F9A20900CDCCCC3D5C
:1097B000A70403004450002001A30900A5040300EE
:1097C000009421485DF0C0FA2346224621460094C9
:1097D0001E485DF0B9FA23462246214600941C48F3
:1097E0005DF0B2FA234622462146009419485DF006
:1097F000ABFA234622462146009417485DF0A4FAAE
:10980000234622462146009414485DF09DFA2346E3
:1098100022460094214612485DF096FA114B83F8D7
:10982000E44083F8E840104B4FF47A729A6005F5F3
:10983000EA721A6005F5FE754FF47F425C601D61A7
:109840009A8206B0BDE8F081A4210120AC2101205C
:10985000B4210120344F0020884E0020804E00208B
:10986000BC210120944D0020CC45002007B50368A1
:109870008DF807105B6801220DF10701984703B0CE
:109880005DF804FBA0F1100000F032B9407DFF2824
:1098900001D05CF0E1B9704710B5437DFF2B0CD0CF
:1098A000074A4FF4567000FB032001F011FC0446F8
:1098B00008B960F099FD204610BD0020FCE700BF0C
:1098C000642701202DE9F74F437DFF2B06460F4605
:1098D00014462FD015464FF4567A4FF6FE7B15B33B
:1098E000707D5CF0F7F9F0B1737D134A01930AFBC8
:1098F00003294FF6FF7209F124095D4598BF2A46F6
:1099000092B23946484601F047FB8046484601F08E
:10991000DFFB3F28019B02D918465CF09DF9B5EBAF
:109920000805474403D1601B03B0BDE8F08F60F029
:109930005BFDD4E70020F7E75427012008B5437DFD
:10994000FF2B07D0044A4FF4567000FB032001F0B0
:10995000ADFB08BD0020FCE77827012073B5437DEF
:10996000FF2B14D04FF456745C430A4E04F11000E0
:1099700001220DF10701304401F03EFA054630198D
:109980005CF0BEF91DB19DF8070002B070BD4FF04C
:10999000FF30FAE75427012073B5457DFF2D03D131
:1099A0004FF0FF3002B070BD254E4FF4567303FBED
:1099B0000563186A18B14FF0FF315EF0D1FD4FF426
:1099C000567202FB0562118B538B908A89B29BB24F
:1099D000994236BFC3EB4002CA1A521894B2E4B19E
:1099E000A04209D281424FF456722CBF0B1A0B18B9
:1099F00002FB05629BB2538398421ED94FF4567105
:109A000001FB05610DF10700CA8A0969C2F30E0264
:109A100002FB03116BF02AF801244FF4567303FB89
:109A20000565286A20B100231A4619465EF02CFC11
:109A3000002CB5D09DF80700B4E71B1A9BB2DBE7FA
:109A40005427012010B5194B5A7DFF2A2CD11A7EBC
:109A500052BB174C5A750121197694F850110B29F5
:109A600008D84A1C84F8502101F14802114844F8F2
:109A700022000A461A75B4F81821B4F81A3161693F
:109A80000A489B1A9BB20A4494F81C1100F030F863
:109A900050B1B4F818311844636980B2A4F81801C1
:109AA000588094F81C211A7110BD00BFCC450020CD
:109AB000E8450020F4D5090010B5407DFF2807D007
:109AC0005CF008F9044608B960F08EFC204610BD31
:109AD0000024FBE7034B9B68B3F5966F01D15CF064
:109AE0006BBA70475427012009B900B9F2E77047F3
:109AF0002DE9F047074692B098461546002A00F037
:109B000090804B4B93F81C6193F81D1193F81EA1A4
:109B1000B21C83F81C214C1C8A1C83F81D2164F0A4
:109B20007F040AF1010241F08009E4B283F81E21AA
:109B30004222002101A86AF0C1FF002D6DD0B8F1CA
:109B4000410F73D940F20220ADF8080040F20940FD
:109B5000ADF80C0040F20120ADF8100024208DF883
:109B6000160034480690731C0120DBB28DF80660A5
:109B70008DF80E608DF81C008DF826602E48397D1A
:109B80008DF81E30032640F6083208908DF82730F5
:109B900040F224608DF82B608DF8313008260A23BE
:109BA0000427ADF804208DF8141002220521ADF829
:109BB00024008DF82C6040F207508DF834304FF4BB
:109BC000116640238DF807208DF812208DF81510AE
:109BD000ADF828008DF83320ADF838008DF83B2023
:109BE0008DF81F708DF82A90ADF82E608DF83070CA
:109BF0008DF83AA08DF83C3007238DF83F308DF872
:109C0000401044F2020342220DEB070128468DF872
:109C10004140ADF842306AF029FF422012B0BDE861
:109C2000F087924614469146164681E70020F5E7F4
:109C3000E845002020010524240202057FB5204BC1
:109C4000204A03F11006144618685968154603C5E2
:109C50000833B3422A46F7D11B4A1B881068516863
:109C60002B8001AB03C3127A1A7004AA12E9070011
:109C7000164B03C3194603F5887001F80829144AE6
:109C8000C4F818214FF48072A4F81C2101226161EC
:109C900084F81E21002120226AF010FF40F20943BF
:109CA000C4F820310B4BC4F824310B4BC4F82831D5
:109CB0000023C4F82C31042384F8503104B070BD63
:109CC0000FD60900E845002021D6090000460020F3
:109CD0000900000103D60900D5360B00F0B5054692
:109CE000002004462B5D2E19002B68D003F14002A2
:109CF000D2B2012A3DD9F42B3BD81A061BD401223B
:109D0000A3F55846B6F5006F33D3B3F5803F14443E
:109D10004FD31E2853DCA3F5803342009E0A0A4429
:109D2000C3F30903A6F52056A3F5105321F81060DC
:109D300002305380D6E703F0E002C02A1BD103F0C3
:109D40001F03022206F1010C16441CF8017B07F0E8
:109D5000C00EBEF1800F0CD107F03F07664547EA01
:109D60008313F2D1022A16D1A3F18006B6F5F06F63
:109D7000C6D30134B6E703F0F002E02A03D103F0C2
:109D80000F030322DEE703F0F802F02AF1D103F01B
:109D900007030422D6E7032A04D1A3F50066B6F52B
:109DA000784FE5E7A3F58032B2F5801FE1D20422B7
:109DB000A6E7202803D021F81030013092E7F0BD4B
:109DC0000B6802490B610121184700BFC421012023
:109DD0002DE9F041174C184F8046002518262279AE
:109DE000EBB2511D994212DA3822002113486AF071
:109DF00065FE1022FF2104F109006AF05FFE04F104
:109E000019001222BDE8F041FF216AF057BE9A42C4
:109E100007D9226806FB032333B9BDE8F041FDF7FB
:109E2000C9BD9B1A06FB03735B6840469847013522
:109E3000D5E700BF7C47002038D6090081470020C5
:109E4000F8B5124C266C00F07F07C5094FF0FF31C2
:109E500030465EF085FB04EB47032B4425339A79AB
:109E6000C2F38004520708D59A7912F0010103BFAA
:109E70009A7961F382029A71002400231A461946E6
:109E800030465EF001FA2046F8BD00BF7C47002056
:109E9000F8B5194A00F07F0302EB430303EBD0103F
:109EA00000F1250490F82B5015F0010521D190F810
:109EB0002B305907C3F3800717D4166C4FF0FF31CE
:109EC00030465EF04DFBA57915F001050FD1A37961
:109ED0005B0704D4A37943F00403A3710125002395
:109EE0001A46194630465EF0CFF92846F8BD3D4681
:109EF000F5E70025F9E700BF7C47002070B48278C1
:109F000002F07F03082B07D9524B1B68DB0700D5F3
:109F100000BE002070BC70474F49C478CD7981885D
:109F200004F00304022CC1F30A010BD0032C45D02A
:109F3000012C11D1022D40F2FF3408BF4FF4806490
:109F4000A1420DE0022D0AD1B1F5007F09D0414BAD
:109F50001B68DA0700D500BE70BCFDF733BD402991
:109F6000F5D83E4E5C0004EBD21406EB0414D50980
:109F70002181C17801F0030101292FD00120384946
:109F800000FA03F405BB03F10C06B040C1F804036A
:109F9000D1F8140503F594730443C1F8144541F84E
:109FA00023502F4BC3F8182542F48072C3F80C25B8
:109FB000BFF36F8FBFF34F8F0120ABE7022D0CBFB4
:109FC0004FF480644024BBE702339840C1F8040397
:109FD000D1F810351C43C1F81045E2E7082B93D1A6
:109FE0001F4BDDB9B6F8182112B18022C3F81C2529
:109FF0000022C3F85021D3F8002312F4001208BF46
:10A00000C3F85421164B4FF44012C3F80423D3F87D
:10A01000142542F48072C3F81425C9E70022C3F85E
:10A020002C21B6F8082112B18022C3F81C250C4B54
:10A03000D3F8002312F4001208BFC3F85421094AD0
:10A04000C3F80423D3F8102542F48072C3F8102516
:10A05000AEE700BFF0ED00E07C470020D4480020D0
:10A06000007002400008200010B50B4B00F07F028A
:10A0700003EB420303EBD0142534A3799B0709D4E7
:10A0800001F07AFAA37943F00203A371A37943F0B4
:10A090000103A37110BD00BF7C47002010B5104B19
:10A0A00004460146187801F023F80E4B04F07F01B6
:10A0B00003EB410303EBD41090F82B306FF3410313
:10A0C00080F82B3090F82B306FF3000380F82B30A2
:10A0D00090F82B306FF3820380F82B3010BD00BF57
:10A0E000044000207C4700202DE9F843DDE9088981
:10A0F0000C4616461F460025AE4201DC01200EE04C
:10A100006378052B04D1E37803F00303BB4208D046
:10A110000D4B186810F0010001D000BE0020BDE812
:10A12000F8832046FFF7EAFE18B9BDE8F843FDF7CB
:10A1300049BCA378DA0914BF89F8003088F80030E8
:10A14000237801351C44D7E7F0ED00E01FB5CDE9D9
:10A1500002011149002308240193486C8DF8054041
:10A160003AB9134601A94FF0FF325EF08DF804B002
:10A1700010BD6A4601A900935EF01FF9009B002BF9
:10A18000F5D0064B4FF080525A6040BFBFF34F8F5F
:10A19000BFF36F8FEBE700BF7C47002000ED00E0CE
:10A1A0002DE9FF414378484C023B0546042B12D869
:10A1B000DFE803F003291B22710063796FF30003CA
:10A1C0006371637900226FF341036371A271637954
:10A1D00062F382036371606C002961D10B464FF01A
:10A1E000FF3229465EF050F82FE06379D8072CD56E
:10A1F000637943F00403EDE76379DA0725D56379E2
:10A200006FF38203E6E763795B0715D563796FF334
:10A21000820363710278606C0023CDE901338DF80D
:10A220000420052203938DF8052089B90B464FF0D1
:10A23000FF3201A95EF028F8DFF894800026182785
:10A240002279F3B2511D994214DA04B0BDE8F081CD
:10A250006A4601A900935EF0B0F8009B002BEBD09A
:10A260001A4B4FF080525A6040BFBFF34F8FBFF37D
:10A270006F8FE1E79A420AD9226807FB032323B1D3
:10A280005B6913B16968287898470136D8E79B1A4B
:10A2900007FB0383F4E7237A0133DBB223729AE7E7
:10A2A000002301AA294601935EF087F8019B002B49
:10A2B000CBD0064B4FF080525A6040BFBFF34F8F58
:10A2C000BFF36F8FC1E700BF7C47002000ED00E0C7
:10A2D00038D609002DE9FF47474D074600F07F00BB
:10A2E00005EB400606EBD7162536B47914F00104C9
:10A2F0004FEAD71E4FEA400306D0FDF763FB044642
:10A30000204604B0BDE8F08796F806C0DFF800816B
:10A310004CF0010C86F806C003EB0E0C4FEA0C194A
:10A3200008EB0C1C46469CF80BA0BAF1000F17D0A6
:10A33000324A1168C90700D500BE2B44734493F814
:10A340002B106FF3000183F82B1093F82B106FF391
:10A35000820183F82B101368DB07D1D500BECFE74D
:10A3600048F80910ACF80420ACF8064008BB02BB62
:10A37000234BD3F88034C3F3C0139E4519D0214832
:10A3800000F02EFF204B59680394C1F308010039F7
:10A390004FF4E06318BF012101A8CDE90144ADF8F5
:10A3A00004308DF808708DF80940FFF7F9FE01249C
:10A3B000A6E70125BEF1000F1AD106EB4012D572B7
:10A3C00018B9124800F00CFFF1E7BFF36F8FBFF32D
:10A3D0004F8F937A03F0FF0443B1D37A03F0FF0564
:10A3E000002B8DD082F80AE001F062F82C4687E756
:10A3F00001F0E8F8FAE700BF7C470020F0ED00E04C
:10A40000007002405070024000ED00E04C700240CD
:10A41000D44800202DE9F04FB54B1B78FF2B93B0AB
:10A42000834600F029844FF47A72002380024FEAB9
:10A430009B5169F04BFC012838BF01200390AD4CC3
:10A44000BBF1FF3F606C26461BD0039BBBF1000FA6
:10A4500014BF1A46002207A95EF008F8002800F091
:10A460000B849DF81D30013B072B00F2B283DFE81F
:10A4700013F00A001C00B003170426042B008D0300
:10A4800032045A46E7E79DF81C00FFF7A1FC9A4802
:10A49000142200216AF012FB9DF82030E371606CF9
:10A4A0005EF0F4F80028CAD1E6E39DF81C00FFF73F
:10A4B0008FFC9148142200216AF000FB8F4B002B87
:10A4C000EDD0AFF30080EAE7237A013BDBB22372E1
:10A4D000227A02F0FF03002AE1D16279DFF81882C4
:10A4E0009DF81C50C8F8103042F00102627194F8D7
:10A4F0002B2063F3000284F82B2094F82B2063F3C5
:10A50000820284F82B2094F82C2063F3000284F854
:10A510002C2094F82C2063F382029DF8203084F8DC
:10A520002C2003F06002602A06D1754B1B68DD0702
:10A5300040F1DF8200BEDCE2402A0AD1714BC8F84C
:10A54000103008AA012128465BF0C8FC0028A6D1DB
:10A55000CFE203F01F03012B00F03E82022B00F03C
:10A560008882002BE1D1202A20D19DF824300F2BA6
:10A5700000F2BF821E442379717A99420CD223687B
:10A5800001EB410113EBC10100F0B38208AA0C31C9
:10A590002846FFF715FCD9E75A1D8A42C0F2A98266
:10A5A000594AC91A182303FB0121EFE7002ABCD13D
:10A5B0009DF82130092BB8D801A252F823F000BF32
:10A5C000C3A90200B1A902002BA502009DA90200A7
:10A5D0002BA50200E9A502004FA802002BA502004E
:10A5E0001DA6020031A60200DDE90801474BC8E9BB
:10A5F0000001D3F80014D3F8000400220143C8E995
:10A600000222C3F80014C3F858214FF48002C3F8A3
:10A610000423637943F00203637140E7A3798DF863
:10A62000383001230EAA08A928465AF03FFE36E723
:10A630009DF822300193019AA3799A4200F08A8012
:10A64000A379002B42D0324B8022C3F88420BFF381
:10A650004F8FBFF36F8F0127DFF8B080DFF8C0A006
:10A66000B94607F10C03BA1C09FA02F209FA03F31E
:10A670001343C8F80833BB0003F1804303F51C33D0
:10A68000002159600AEB47109962202201376AF0D5
:10A6900015FA082F4FF00001E3D11E4BC8F808331C
:10A6A0002022C8F81C151C48C8F82410C8F8481007
:10A6B0006AF004FAC8F81495C8F81095144B802273
:10A6C0005A60E7792846FFF783FBE771019B002B6F
:10A6D00000F0B780114B5A6912B15378022B21D088
:10A6E000074B1B68DA077FF520AF00BE1DE700BFF0
:10A6F000044000207C470020C4210120000000000D
:10A70000F0ED00E0DD5E080038D609000070024080
:10A7100000E100E000083000D4490020E8450020B6
:10A72000D4480020D379C3F38011C3F340131B0135
:10A7300043EA4113617921F030010B43637153887F
:10A74000D31802F109010293029B8B4209D8B74B3F
:10A75000002B73D1019BA37108A928465AF062FD12
:10A760009DE64B780B2B03BF0B7891F80390C9182B
:10A770004FF001094B78042BB2D1029B5A1A92B2C6
:10A780004FF0000A37795FFA8AF87B1D9845A7DCFD
:10A7900047452ED93768182303FB0877002F9FD031
:10A7A000BB682846CDE9041298470828DDE9041261
:10A7B00041D982423FD3B9F1010F0AD1BB689C4A0B
:10A7C000934208BF4FF002099A4A934208BF4FF0E4
:10A7D00002090022D3B2994512D8974A0844884208
:10A7E0001AD8954B1B79053398453FF779AF014649
:10A7F000AAE7924BA8EB0707182000FB0737CFE723
:10A800008F783B4456FA83F301325F7AFF2F7FF44F
:10A8100067AF83F80980DDE74B78052B08D18F7887
:10A8200007F07F0302EB430303EBD71383F8198090
:10A830000B781944D3E70AF1010AA3E7AFF30080CC
:10A8400088E77F4B002B85D0AFF3008082E7BDF80F
:10A850002200030A5A1EC0B20E2A00F24A81DFE823
:10A8600012F00F001A002B004801480191001A0055
:10A8700048014801480148014801480148011600C3
:10A88000704A122308A928465AF010FD5EE66E4A67
:10A8900032F80239F6E7022B06D16A4B5A69002AD0
:10A8A0003FF443AE5388EDE7684B002B00F0218165
:10A8B000AFF300800246F2E7624E60B1032819D080
:10A8C00096F85031834240F21481483006F5AA715F
:10A8D00056F8200053E0D6F82031A6F85431012074
:10A8E0000130430043F44072A6F8522103F0FE0306
:10A8F000574AC7E7D6F82C71002F3DD10AA85BF064
:10A900005DFB0DF1280C0346B6463A46D1B28B42A8
:10A910000EF1040E2DD94F4F0DF1380907F1100A31
:10A9200038687968C846A8E8030008375745C14623
:10A93000F6D11CF8018B474F08F00F0112A8014413
:10A940000DF1380A11F8101CAEF852117968386808
:10A95000D146A9E80300404908378F42CA46F5D1DD
:10A9600012A901EB1818013218F8101CAEF850119A
:10A97000CCE75800C0B2B3E706F5AA713846FFF736
:10A98000ADF9F7E7354B002B00F0B380AFF3008053
:10A990000246002800F0AD80037873E7BDF822304E
:10A9A000012B40F0A680637943F008036371D3E67E
:10A9B000BDF82230012B40F09C8063796FF3C30314
:10A9C000F4E76379C3F340129B0803F002031343D7
:10A9D000ADF83830022325E69DF824300F2B00F225
:10A9E00088801E442379717A994239D2236801EB19
:10A9F000410113EBC1017CD008AA0C312846FFF7B6
:10AA0000DFF900287FF44BAD9DF8203013F0600390
:10AA10006FD19DF82120A2F10A01012969D80A2AE3
:10AA2000C8F810307FF498AEF9E500BF00000000D0
:10AA3000315E0800915608007C47002038D6090096
:10AA400000000000E845002076350B000000000003
:10AA50003A4700205C620B006C620B0000000000B3
:10AA60005A1D8A4245DBA24AC91A182303FB012159
:10AA7000C2E79DF8240000F07F0CBCF1080F3FF600
:10AA800054AD06EB4C0707EBD01794F804E07F7E3B
:10AA900077454FEAD0114FEA4C0A16D2236807EBEC
:10AAA000470703EBC70712BB9DF8212002F0FD0EFC
:10AAB000BEF1010F24D0002A7FF437AD5644314453
:10AAC00091F82B30C3F3400382E70EF10509B94535
:10AAD000C0F20981864BA7EB0E074FF0180E0EFB54
:10AAE0000737002AE0D008AA07F10C0150E5002F33
:10AAF000F9D1002000F040FD802000F03DFDCEE4C3
:10AB0000BDF822E0BEF1000F2BD1012A3BD106EBAC
:10AB10000A020A4425329279930722D510F0770F62
:10AB200011D0744A40F4807EC2F80C05C2F80CE5DE
:10AB3000C2F8180519B90CF5947C42F82C10BFF333
:10AB40006F8FBFF34F8F5644314491F82B306FF322
:10AB5000410381F82B3091F82B306FF3000381F81B
:10AB60002B30002F3FF49BAC08AA07F10C012846BC
:10AB7000FFF726F90023C8F8103094F82C30DE07D0
:10AB80003FF58DACE8E5FFF76FFAEAE79DF8201096
:10AB900001F07F0706EB470606EBD116CA0996F8C7
:10ABA0002B006FF3000086F82B0096F82B006FF354
:10ABB000820086F82B00002F4FD14F4D9DF81C606E
:10ABC0002B78DDF82480B2EBD31F12D0B8F1000F40
:10ABD00006D04A4B1B68DB077FF561AC00BE5EE424
:10ABE0002B69002B3FF45BAC2A4603213046984783
:10ABF00055E495F90030002B07DBA86800283FF4E6
:10AC00004EAC3F49424669F031FFAA68EB894244A5
:10AC10004344AA60EA889BB29A42EB8102D0B8F121
:10AC20003F0F16D82B696BB995F900300022002B25
:10AC30001146B4BF38468020FFF74CFB00287FF454
:10AC40002EACC6E72C4A0221304698470028EBD1AB
:10AC500050E730465AF0FEFAF0E7737E22799342CD
:10AC60000DD2226803EB430312EBC3030FD1234B36
:10AC70001B68D80700D500BE13B0BDE8F08F501D8B
:10AC80009842F4DB1A489B1A182202FB03031D6941
:10AC90009DF82120099B9DF81C00A847FFF7FFBBEA
:10ACA0006379D9077FF5FBAB164B002B3FF4F7AB6D
:10ACB0006079C0F3C000AFF30080FFF7F0BB6379A9
:10ACC000DA077FF5ECAB104B002B3FF4E8ABAFF3AA
:10ACD0000080FFF7E4BB089B002B3FF4E0AB099832
:10ACE0009847FFF7DCBB002A7FF403AF1746DBE68B
:10ACF00038D6090000700240C4210120F0ED00E0C8
:10AD0000D821012000000000000000002DE9F743D9
:10AD1000DFF8D88098F80030FF2B0646474648D128
:10AD2000DFF8CC903822002109F1050069F0C6FE59
:10AD300009F1480101205DF02BFB4D46C9F84000A8
:10AD400040B9274B1B6813F0010F46D1002003B018
:10AD5000BDE8F08300230093D8F80820B8F8061067
:10AD6000B8F8040008F110035DF052FAD8F80C109E
:10AD700004465DF0A3FCC9F844402CB9184B1B688D
:10AD8000DB07E3D500BEE1E7164B23B1281DAFF387
:10AD90000080C9F80000DFF85C9000244FF018082C
:10ADA0002879E3B2421D934205DD3E700E4B8022AE
:10ADB0005A600120CBE7984208D9286808FB0300B5
:10ADC00038B9074A126812F0010FBEE71B1A08FBD8
:10ADD0000390036898470134E2E700BEB7E700BF7D
:10ADE000F0ED00E00000000000E100E00440002081
:10ADF0007C47002038D609002DE9F0470646006957
:10AE00008846914618B14FF0FF315DF0A9FB3389B8
:10AE10007489B7889BB2A4B2A34236BFC4EB47057E
:10AE20001D1BED18ADB2F5B1AF4206D2BB422CBF2F
:10AE3000DC1BDC19A4B274813D464D4528BF4D464C
:10AE4000A74229D9F2883168A7EB04091FFA89F9CA
:10AE5000C2F30E0A4D4552460AFB04111FD86A433D
:10AE6000404669F003FE7389B28899B215FA83F3FC
:10AE70009BB299424FEA420201D8934201DB9B1AEE
:10AE80009BB23069738120B100231A4619465DF0E8
:10AE9000FBF92846BDE8F087E41BA4B2D0E719FB14
:10AEA0000AF91FFA89F94A46404669F0DFFDEA1BB4
:10AEB000224412FB0AF2316892B208EB0900D0E793
:10AEC000F8B50446C0680F4616461D4618B14FF047
:10AED000FF315DF045FB206918B14FF0FF315DF0A7
:10AEE0003FFBED03E0682760002345F00105638127
:10AEF000A680E580238118B11A4619465DF0C4F991
:10AF0000206920B100231A4619465DF0BDF90120E1
:10AF1000F8BD38B50446C0680D4618B14FF0FF3192
:10AF20005DF01EFB206918B14FF0FF315DF018FB9A
:10AF3000E379E06865F3C713E37120B100231A4693
:10AF400019465DF0A1F9206920B100231A4619467F
:10AF50005DF09AF9012038BD10B50446C06818B1FB
:10AF60004FF0FF315DF0FCFA206918B14FF0FF316E
:10AF70005DF0F6FAE06800236381238118B11A4678
:10AF800019465DF081F9206920B100231A4619465F
:10AF90005DF07AF9012010BD2DE9F84F074688468B
:10AFA000164642B3C06818B14FF0FF315DF0D8FAD1
:10AFB000FA793D897B89B7F80490D209ADB29BB28A
:10AFC0001CD19D4239BFC3EB49046419EB1A9CB2F2
:10AFD00038BFA4B2A14586BFA9EB0404A4B20024E3
:10AFE000A64228BF264656BBF86820B100231A4661
:10AFF00019465DF049F93046BDE8F88FF9884E45AD
:10B00000C1F30E0106D3A6EB090601FB06881D4617
:10B010004E46E8E79D424FEA490136BFCA1AEA1A8E
:10B02000521992B232448A4209DB09EB0305AD1B87
:10B03000ADB2AB4201D8A94201DC6D1AADB22C46CB
:10B04000A1451DD9FA883868A9EB040A1FFA8AFAC3
:10B05000C2F30E0BB2455A460BFB040014D37243E5
:10B06000414669F003FD7319BA889BB2AB424FEABF
:10B07000420201D3934201DB9B1A9BB23B81B3E7AF
:10B08000A4EB0904A4B2DBE71AFB0BFA1FFA8AFA55
:10B090005246414669F0EAFCA6EB0903234413FB40
:10B0A0000BF2386892B208EB0A01DAE7828803896A
:10B0B00040899BB280B2834236BFC0EB4200181A6F
:10B0C000C01880B2824286BF101A80B2002070473A
:10B0D0000389428981889BB292B2934236BFC2EB08
:10B0E00041029B1A9B1898B2884228BF08467047B5
:10B0F00070B501F07F05082D2A4B2B4C4FEAD1117A
:10B1000023D0012202FA05F0C043A1B905F10C06D3
:10B11000B240C3F80823D3F814251040C3F814052F
:10B1200001EB450104EB01110023CB72BFF36F8FDC
:10B13000BFF34F8F70BDAE1CB240C3F80823D3F8E5
:10B1400010251040C3F81005EAE704EB01120020B7
:10B15000A2F80801D1B94FF48012C3F80823D3F83C
:10B16000142522F48072C3F81425C3F850110D4B36
:10B17000B4F808010022C3F81C25B4F81821C24213
:10B1800004BF4FF40012C3F80823C9E74FF400626C
:10B19000C3F80823D3F8102522F48072C3F81025D1
:10B1A000E5E700BF00700240D4480020012303609F
:10B1B000BFF36F8FBFF34F8F074B984202D0043B12
:10B1C000984207D1BFF35B8F044B002283F8202104
:10B1D000BFF35B8F704700BF50700240D44800201F
:10B1E00010B40D4BBFF35B8F01464FF00104D3E861
:10B1F0004F2FC3E84C4FBCF1000FF8D1BFF35B8F6A
:10B2000012F0FF0F05D005485DF8044B0122FEF750
:10B210009DBF5DF8044BC9E7F4490020E1B102008D
:10B2200043F2040307B51A68094B9A424FF0000035
:10B230000AD18DF807000DF10700FBF703FB9DF81D
:10B240000700003818BF012003B05DF804FB00BF01
:10B25000DBE5B15107B5FFF7E3FF58B1002301A8C3
:10B260000193FCF791FB0198003818BF012003B04F
:10B270005DF804FB4FF08043D3F80C24D3F80C04A2
:10B2800010F4803018BF02F00100F0E701281FB56C
:10B29000044600F0B980022853D0002842D1774BF1
:10B2A000D3F80025002A3DD14FF48002C3F80823CB
:10B2B0004FF40062C3F80024BFF36F8FBFF34F8FCA
:10B2C0006F4B1B68082B10D16E4B1B68032B0CD8DF
:10B2D0006D4AD35C4BB16D4B6D4A1868032118BBA6
:10B2E00049F27530186011601860FCF753FB48B1E3
:10B2F000664B684A1868C021C0B949F275301860B9
:10B30000116018605D4B0124C3F80045BFF36F8FD7
:10B31000BFF34F8FFFF79EFF20B9FFF781FF38B1D2
:10B32000FCF736FB04B010BD1160DEE71160E9E701
:10B33000594B18601B680193019B4FF080431C60C0
:10B34000F0E74E4CD4F804351BB1FFF783FF00281B
:10B35000E8D1D4F800341B05FBD54FF40063C4F8E2
:10B360000034BFF36F8FBFF34F8FFCF713FB48B16F
:10B37000464B484A1868002840D149F27531196097
:10B38000106019603E4B1B68082B0FD13D4B1B68AA
:10B39000032B0BD83C4AD35C43B13C4B3C4A186866
:10B3A00078BB49F27531196010601960FCF7F2FA48
:10B3B00048B13A4B40F2E3721A6040225A60BFF340
:10B3C0006F8FBFF34F8F2D4C354880220121C4F879
:10B3D0001C25C4F804133349C1F884210078FF28E0
:10B3E00000D04A60FFF736FF0028FBD00123C4F8E5
:10B3F0000435BFF36F8FBFF34F8F93E700231360C4
:10B40000C0E700231360D1E71C4BD3F80025002AC6
:10B4100088D00022C3F80425BFF36F8FBFF34F8F8E
:10B4200020498020C1F88400BFF34F8FBFF36F8F96
:10B43000D3F80013C3F80813C3F80025BFF36F8FC8
:10B44000BFF34F8FFFF7ECFEA0B1FCF79FFA164B4E
:10B450005968C1F3080100230039CDE90133039392
:10B4600018BF01214FF4007301A8ADF80430FEF7B6
:10B4700097FE57E70D4B1C60E9E700BF00700240E4
:10B480003001001034010010C8D6090000EC06405D
:10B4900014ED064014EC0640000100400078024024
:10B4A0000440002000E100E000ED00E00400004066
:10B4B000F0B42B4ABFF35B8F02F590734FF0010499
:10B4C000D3E84F1FC3E8454F002DF9D1BFF35B8F81
:10B4D00011F0FF0F14460BD0224B5A68C2F308023A
:10B4E000003A0146F0BC204818BF0122FEF72EBEEC
:10B4F00008281E4919D1D1F8C034D80308D5BFF3A4
:10B500005B8F002384F82031BFF35B8FF0BC704762
:10B5100092F80B010028F2D0D2F800211448C1F8AB
:10B52000A027C1F8A437F0BC40E602EB401500F5B7
:10B530009473460151F82340EF88AB88DB1B9BB224
:10B54000A4B2A34228BF23469459142202FB00113F
:10B55000C1F80047C1F80437064B03EB8000E2E76F
:10B56000D448002000ED00E0C1B5020000700240A8
:10B57000487002402870024010F07F0108B507D1E2
:10B580000D4B01225A65BFF36F8FBFF34F8F08BD7C
:10B590000829F8D0084B40F48072C3F81825C30975
:10B5A000F1D1064A02EB4112907A0028EBD0937257
:10B5B0000846FFF77DFFE6E700700240D448002010
:10B5C000C0B275E70C4B03EB4013D98A9A8A521A22
:10B5D000198B92B28A4228BF0A4619691423434341
:10B5E00003F1804303F51C33C3F80016C3F80426A7
:10B5F000024B03EB8000F3E5D448002004700240C6
:10B600002DE9F04FC34BC44AD3F80013002385B093
:10B610001C4601201D4621FA03F6F6070BD552F809
:10B62000236046B100FA03F6344342F82350BFF3D7
:10B630006F8FBFF34F8F0133192BECD1E7073BD549
:10B64000B44B0122C3F81425C3F810250022154677
:10B65000930003F1804303F51C330132082A5D6037
:10B660009D62F5D1AB4B5D629D64C3F85851D3F830
:10B670000024D3F800140A43C3F80024D3F80023AD
:10B68000C3F80823A54AC3F80423A54B4FF49272CC
:10B690000021184669F012FA4022028302814FF419
:10B6A0008073012101A8CDE901550395ADF804305F
:10B6B0008DF80850FEF774FD14F4006F984D08D013
:10B6C000944BD3F8A8369BB2A5F81631012385F820
:10B6D0001C31A60204F4800736D58E4ED6F81435F8
:10B6E00013F4807308D01FB1D6F80034D80702D401
:10B6F0000820FFF7DDFE0123D6F81025D10540F123
:10B700005D8195F81C319BB1B5F8163100229BB2D2
:10B71000CDE9012285F81C2103934FF4E0628823D0
:10B72000012101A8ADF80420ADF80830FEF738FD7E
:10B730000023CDE90133039301214FF4407301A8A5
:10B74000ADF80430FEF72CFD002F37D0714BD3F845
:10B75000006440F201723240C3F80024F2050DD5B6
:10B760000121C3F82C150023CDE90133039301A86F
:10B770004FF48063ADF80430FEF712FD77050FD566
:10B78000644B0122C3F808259A65D3F8002312F40C
:10B79000001208BFC3F854214FF40012C3F8042369
:10B7A000B0050BD50023CDE90133039301214FF4FC
:10B7B000A06301A8ADF80430FEF7F2FC21023BD5EE
:10B7C000544BD3F880E4D3F88424D3F88814D3F806
:10B7D0008C74D3F89064D3F894045FFA81FCD3F8A6
:10B7E0009814D3F89C341EF07F0F5FFA8EF8D2B213
:10B7F000FFB2F6B2C0B2C9B2DBB201D1052A1BD08A
:10B800004FF0000EADF806E08DF80D004FF4C06E5D
:10B810008DF80E1001A80121ADF804E08DF8088024
:10B820008DF809208DF80AC08DF80B708DF80C602A
:10B830008DF80F30FEF7B4FC3A4B23406BB1BFF3E9
:10B840005B8F95F82031BFF35B8F002B40F0BE80FB
:10B85000354B1B68DA0700D500BEDFF8C480DFF87F
:10B86000B490DFF8CCB0474600264FF0140A06F13A
:10B870000C0324FA03F3DB07F1B224D50AFB069389
:10B880003A68D3F8083705EB461C12FA83F23A609F
:10B89000BCF806E098B273449BB2082E4FEA4612F9
:10B8A000ACF8063000F09A803B89834240F09680E5
:10B8B000BCF80630B8889BB2984240F28F8011B92C
:10B8C0005846FFF78DFC0136092E07F12007CED12F
:10B8D000164B2340002B00F089800E4BD3F86C747C
:10B8E000C3F86C74BFF36F8FBFF34F8F14F4806491
:10B8F00008D0D3F88044D3F880341906C4F3C014B8
:10B9000040F18D804FF00009DFF808A000264FF0CD
:10B91000140B0FE000700240007102400514C001DA
:10B92000D4480020FCFB1F00F0ED00E00004000103
:10B930004C70024027FA06F3DA07F0B201D4D6B908
:10B94000CCB10BFB06A3D8F81020D3F8083652FA76
:10B9500083F2C8F8102005EB4612D18A89B251FA59
:10B9600083F39BB2D382D38AB8F814109BB2994266
:10B9700058D9FFF727FE0136082E08F12008D9D143
:10B980000024012604F1100327FA03F3DB07E0B2D9
:10B9900003D47CB9B9F1000F0CD005EB441163015D
:10B9A000CA7A002A53D0CA88898892B291424ED965
:10B9B000FFF77EFD0134082CE4D117E0002B7FF463
:10B9C000B7AE4FF40013C6F80833B1E60023BFF357
:10B9D0005B8F85F82031BFF35B8F3EE72A44D37A33
:10B9E0003BB91C4B1B68D80700D500BE05B0BDE8AD
:10B9F000F08FD388BB800023D372D2884FF4E060ED
:10BA0000CDE9013392B2ADF804008DF8081001A819
:10BA1000012103928DF80930FEF7C2FB53E74FF086
:10BA2000010971E7D28A00234FF4E06160F07F00E2
:10BA3000CDE9013392B2ADF804108DF80800012170
:10BA400001A803928DF80930FEF7AAFB93E72B4477
:10BA50009E72AFE7F0ED00E0034B43F602229A87B7
:10BA6000002283F83E207047F849002010B4114BA3
:10BA700002209A6B83F82C10996883F8300093F8B1
:10BA80003C008A1A9A6220B942F205049C8783F826
:10BA90003E0059B152B11A7B5DF8044BD20914BF74
:10BAA00093F82E0093F82F00FEF7DEBA5DF8044BF2
:10BAB000704700BFF849002038B5134C0546607B3D
:10BAC0005AF00EFA48B942F2077384F83E00A38791
:10BAD00028460121BDE83840C8E7A268A36B94F866
