:020000022000DC
:106000000000042021EB090061EB090091FA09006E
:1060100065EB090067EB090069EB0900000000006F
:10602000000000000000000000000000C5E90900B9
:106030006DEB090000000000E5E9090071EB0900C3
:1060400059ED090073EB0900A9C70900E9B309007C
:1060500073EB090073EB0900BDC9090073EB09007C
:1060600073EB090073EB090073EB090073EB090094
:1060700073EB090073EB090073EB090073EB090084
:1060800073EB090055E7090073EB090073EB090096
:1060900073EB090073EB090051BA090073EB0900B7
:1060A00073EB090073EB090073EB090073EB090054
:1060B00073EB090073EB0900000000000000000012
:1060C00073EB090073EB090073EB0900FDF10900A4
:1060D00073EB090073EB090073EB090089AF09004A
:1060E000B5C7090073EB090073EB0900000000005D
:1060F0000000000073EB0900000000002DF2090011
:10610000000000000000000000000000000000008F
:10611000000000000000000000000000000000007F
:10612000000000000000000000000000000000006F
:10613000000000000000000000000000000000005F
:10614000000000000000000000000000000000004F
:10615000000000000000000000000000000000003F
:10616000000000000000000000000000000000002F
:10617000000000000000000000000000000000001F
:10618000000000000000000000000000000000000F
:1061900000000000000000000000000000000000FF
:1061A00000000000000000000000000000000000EF
:1061B00000000000000000000000000000000000DF
:1061C00000000000000000000000000000000000CF
:1061D00000000000000000000000000000000000BF
:1061E00000000000000000000000000000000000AF
:1061F000000000000000000000000000000000009F
:1062000010B5054C237833B9044B13B10448AFF3F0
:1062100000800123237010BDB84900200000000059
:10622000A4D90D0008B5034B1BB103490348AFF3D4
:10623000008008BD00000000BC490020A4D90D006A
:10624000A3F5803A704700BF174B002B08BF134BD4
:106250009D46FFF7F5FF00218B460F461348144A71
:10626000121A8EF0DBF80E4B002B00D098470D4B26
:10627000002B00D098470020002104000D000D489D
:10628000002802D00C48AFF300808DF08FFF200073
:10629000290078F087FC8DF0A1FC00BF0000080009
:1062A000000000000000000000000420B8490020A9
:1062B000D4CE0120000000000000000070477047AD
:1062C000704770477047F0B59DF820C0BDF9186061
:1062D0009DF81C709DF824E0BDF9145004680595E4
:1062E000CDE908CECDE906676469A446BDE8F04073
:1062F00060478172704770472DE9F3411D4603687E
:10630000BDF820801B69044617460E469847CDE924
:10631000007822686B1E3344556A20461BB23A4609
:106320003146A84723689B6A204602B0BDE8F04189
:1063300018472DE9F3411C460368BDF820801B690E
:1063400005461646013C34440F4624B298472B6854
:10635000CDF8048000945C6A28463B4632463946B4
:10636000A0472B689B6A284602B0BDE8F041184759
:1063700070474020704720207047102070477047BA
:106380006FF0180070476FF0180070476FF018003A
:10639000704770476FF01800704700207047BBEEE1
:1063A000090A704784B004A800E90E006FF01800D5
:1063B00004B070476FF0180070476FF01800704716
:1063C0000368D3F8E03018470368D3F8DC30184787
:1063D0004AB116290B466FF00800A8BF1623834266
:1063E000B8BF034613700931C9B220292CBF6FF022
:1063F0000C0000207047836841601944C1607047F9
:106400000020704700207047183070470120704707
:10641000704720307047084A8B8992F8300108B1E4
:10642000422B08D0012B05D00A3B012B8CBF00204A
:106430000120704718467047B05B0020006A431E79
:106440005842584170470020704790F83C00831E26
:1064500058425841704790F83800831E58425841BE
:10646000704700207047006A431E584258417047E9
:10647000007B704700207047007B7047014B93F80A
:1064800058017047B05B0020014B93F849017047F9
:10649000B05B00200020704701207047002070474B
:1064A0000020704700207047014B93F8620170474D
:1064B000B05B0020B0F876008A89131A5842584120
:1064C0007047704770474B6A032B01BF034B1B6833
:1064D000B3F8503083830020704700BF1C44012074
:1064E000F1E7F0E71830704700207047006809684E
:1064F00003689B681847C0F88011704780ED5F0AF9
:106500007047002070470068096803689B68184757
:106510000068096803689B68184700680968036891
:106520009B681847C08A8A89131A58425841704795
:106530007047022A06D0032A02D0012A00D1016046
:10654000002070470B680360FAE7F2E7012A08BFF2
:10655000016000207047F9E7F8E7F7E7F6E7F5E7AD
:10656000F4E7F3E7F2E7F1E7F0E7EFE7EEE7EDE76F
:10657000ECE7EBE7EAE7E9E7E8E7E7E7E6E7E5E79F
:10658000E4E7E3E7E2E7E1E7E0E7DFE7DEE7DDE7CF
:10659000DCE7DBE7DAE7D9E7D8E7D7E7D6E7D5E7FF
:1065A000D4E7D3E7D2E7D1E7D0E7CFE7CEE7CDE72F
:1065B000CCE7CBE7CAE7C9E7022A06D0032A02D014
:1065C000012A00D10160002070470B680360FAE7E0
:1065D000F2E7F1E7F0E7EFE7EEE7EDE7ECE770472A
:1065E00001207047704770477047012050F009BF85
:1065F000FBE72DE9F04F2DED028B87B008EE100A76
:10660000BDF94870BDF94C809DF850909DF854A09C
:106610009DF858B0CDE900370C4615461E46CDE929
:1066200004AB1346CDE902890A46262143F099FEC0
:10663000CDE904ABCDE90289CDE9006718EE100A77
:106640002B462246242143F08CFE07B0BDEC028B82
:10665000BDE8F08F10B50C21044678F0EBFA204627
:1066600010BD10B53421044678F0E4FA204610BD80
:10667000024B0348198875F0AAB900BF3A390120C6
:10668000D8720120024B0348198875F0A0B900BFE9
:106690003A390120D872012070B505460C464CB13C
:1066A000E1682846FFF7F8FFA668204676F0FEFC72
:1066B0003446F4E770BD70B505460C464CB1E16850
:1066C0002846FFF7F8FFA668204676F0EFFC344630
:1066D000F4E770BD70B505460C464CB1E16828463C
:1066E000FFF7F8FFA668204676F0E0FC3446F4E7B2
:1066F00070BD70B505460C464CB1E1682846FFF701
:10670000F8FFA668204676F0D1FC3446F4E770BD69
:1067100010B50446006808B176F0C8FC204610BDEC
:1067200011B1083076F016BB704713B50A4C2068DB
:10673000403050F093F8206800210AF001FC074B2C
:1067400001221A7000230193054B01A9186876F005
:10675000CFFE02B010BD00BF50440120D84301203D
:1067600050560020E1E7E0E710B5044673F09AFCCC
:10677000204610BD10B5046844B1201D73F092FC92
:1067800020461421BDE8104078F054BA10BD07B57A
:1067900000680B680168019301EB0311C3680BB932
:1067A00085F0ABFF036901AA0430984703B05DF898
:1067B00004FBECE707B500680B680168019301EB87
:1067C0000311C3680BB985F098FF036901AA04306F
:1067D000984703B05DF804FB07B500680B680268D2
:1067E00001930C2101FB0321C3680BB985F085FFE0
:1067F000036901AA0430984703B05DF804FBEBE796
:1068000007B500680B68026801930C2101FB0321A6
:10681000C3680BB985F071FF036901AA043098477A
:1068200003B05DF804FBEBE7EAE7E9E7034607B5E9
:106830009A680191013A08469A6085F085FD0198B1
:1068400003B05DF804EB76F031BC2DE9F047064665
:1068500000698846914618B14FF0FF3176F0ECFEA2
:1068600033897489B7889BB2A4B2A34236BFC4EB04
:1068700047051D1BED18ADB2F5B1AF4206D2BB42C4
:106880002CBFDC1BDC19A4B274813D464D4528BFEA
:106890004D46A74229D9F2883168A7EB04091FFAAF
:1068A00089F9C2F30E0A4D4552460AFB04111FD85E
:1068B0006A4340468DF08AFD7389B28899B215FA11
:1068C00083F39BB299424FEA420201D8934201DB23
:1068D0009B1A9BB23069738120B100231A46194676
:1068E00076F03EFD2846BDE8F087E41BA4B2D0E771
:1068F00019FB0AF91FFA89F94A4640468DF066FDF0
:10690000EA1B224412FB0AF2316892B208EB09003A
:10691000D0E7F8B50446C0680F4616461D4618B1C4
:106920004FF0FF3176F088FE206918B14FF0FF314B
:1069300076F082FEED03E0682760002345F0010554
:106940006381A680E580238118B11A46194676F046
:1069500007FD206920B100231A46194676F000FD94
:106960000120F8BDF0B501F1200C00254FF0000E1C
:1069700051F8043B05F001055E1B52F8043B6EEB39
:106980004E07F41A67F10005614540F8044BEFD15A
:1069900005F00100F0BD08B5D0E900031B1A6FF047
:1069A0000040834202D1074885F082FE012B1A463F
:1069B00038BF01229B1804D2002BACBF18466FF0E1
:1069C000004008BD1F9D0B0008B5D0E900031B1A4D
:1069D0009810094B43430948834202D1084885F087
:1069E00067FE012B1A4638BF01229A1802D2904244
:1069F00028BF104608BD00BFABAAAAAAAAAAAA0A25
:106A00001F9D0B00034610B41B681C680846114606
:106A10002CB1A4469B685DF8044B0122604702201C
:106A20005DF8044B704710B548B1046954B18468EF
:106A30000123A047002818BF6FF0020010BD6FF0BF
:106A40000A00FBE76FF00400F8E720B1024B800179
:106A500043F001031847704760A10B00F5E7F4E726
:106A6000A4DF7047A3DF7047B2DF7047B1DF704724
:106A7000B0DF704711DF70473DDF70473CDF704784
:106A800063DF704762DF7047A8DF704786DF7047BB
:106A900085DF704781DF704746DF70478ADF7047C8
:106AA0007ADF7047A0DF7047007D7047407C7047F9
:106AB000007D7047B5DF704790DF70478FDF70470C
:106AC000AEDF7047ADDF7047ACDF7047ABDF7047BC
:106AD000AADF704775DF704774DF704700231A46DE
:106AE000194676F03DBC4FF0FF3176F0A5BD30B5CC
:106AF000294C05469DB0206DFFF7F5FF94F84C300A
:106B0000019525467BB1254801AB02AA06A907F0ED
:106B1000D7FC044678B1286DFFF7E0FFB4FA84F0A3
:106B200040091DB030BD04F10C0007F044F90446E3
:106B30000028E8D0EFE79DF80C30222B16D017483C
:106B400002AA06A907F07EFB04460028E3D19DF8BF
:106B50000C30222BDFD1114806AA12A907F058F8F1
:106B6000041ED8DB0BD10E4850F0D8FC0B4804AA09
:106B700011A906F0E4FB04460028E0D0CBE71A9BFD
:106B80000F931B9B1093002304481A4606A907F095
:106B9000DDF90446BFE700BF885200209452002070
:106BA000399D0B0012DF70474B1E062B88BF0A462B
:106BB000817A98BF08220231D208C9B243F05AB88C
:106BC0004B1E062B88BF0A46417A98BF0822023125
:106BD000D208C9B243F04EB84B1E062B88BF0A46F6
:106BE000017A98BF08220231D208C9B243F042B8F4
:106BF00030B5044685B00A200D4676F010FA0A4BEF
:106C0000009303210023CDE9011303932079236826
:106C10006A463BF013F900B220B9294668463EF0B7
:106C200044FF00B205B030BD200F012030B504464E
:106C300085B001200D4676F0F2F90A4B009303214E
:106C40000023CDE901130393207923686A463BF0C2
:106C5000F5F800B220B9294668463EF026FF00B29A
:106C600005B030BDB02F012038B5437A04460D463B
:106C70000BB945F024FB20460322802145F0B8FAE9
:106C8000E27A20462A43812145F0B2FA2573204654
:106C9000BDE8384045F0C3BA38B5437A04460D46DE
:106CA0000BB945F00CFB20460322802145F0A0FAE9
:106CB000227B20462A43812145F09AFAE57220463C
:106CC000BDE8384045F0ABBA38B515461A4650B164
:106CD000C368AB420AD344682B46A047002818BFBC
:106CE0006FF0020038BD6FF00A00FBE76FF00400A0
:106CF000F8E710B40446084611461A4623685C6853
:106D000024B1A4469B685DF8044B604702205DF8FF
:106D1000044B704713B5044600213FF05CFF01238C
:106D200001AA06212046FFF7E4FF50B99DF8043080
:106D300001AA60F34513062120468DF80430FFF7C1
:106D400061FE02B010BD37B504460D4600213FF08C
:106D500042FF012301AA06212046FFF7CAFF50B9CE
:106D60009DF8043001AA65F38613062120468DF8AC
:106D70000430FFF747FE03B030BD38B5437C04460E
:106D80000D4673B120463DF059FF227A65722046C8
:106D90002A43A1213DF0F6FE2046BDE838403DF0F3
:106DA00002BF03493DF012FF0028EBD138BD00BF00
:106DB0009C52012038B5437C04460D4673B12046F1
:106DC0003DF03CFF627A257220462A43A1213DF026
:106DD000D9FE2046BDE838403DF0E5BE02493DF011
:106DE000F5FE0028EBD138BD9C5201201FB5046888
:106DF0008DF80C10ACB103230022CDE9003203ABB7
:106E000001221946204609F054F99DF80D309DF8ED
:106E10000C001B0243EA00439DF80E00184304B027
:106E200010BD0323009303AB01221946406809F00B
:106E300049F8EAE71FB504688DF80C108CB10223FD
:106E40000022CDE9003203AB01221946204609F0A9
:106E500030F99DF80C009DF80D3043EA002004B095
:106E600010BD0223009303AB01221946406809F0CC
:106E700029F8EEE708B5FFF7DDFF40BA80B208BD9C
:106E80001FB504688DF80C1064B100230122CDE910
:106E9000002303AB1946204609F00BF99DF80C00BE
:106EA00004B010BD0122009203AB1946406809F0FE
:106EB00009F8F3E71FB504688DF80D2064B10023CD
:106EC000CDE900338DF80C100123022203A92046DE
:106ED00009F0BFF804B010BD01F07F0100948DF8F7
:106EE0000C102346022203A9406809F00BF8F1E7D1
:106EF0000078C0F3C20300F007029B0043EA42138C
:106F000043EA901070471FB544688DF80C10ACB17F
:106F100003230022CDE9003203AB012219462046AB
:106F200009F0C7F89DF80D309DF80C001B0243EAEC
:106F300000439DF80E00184304B010BD03230093D6
:106F400003AB01221946806808F0BCFFEAE71FB5D1
:106F500044688DF80C109CB102230022CDE9003268
:106F600003AB01221946204609F0A3F89DF80C3026
:106F70009DF80D0040EA032040BA80B204B010BD75
:106F80000223009303AB01221946806808F09AFFA0
:106F9000ECE71FB544688DF80C1064B100230122A2
:106FA000CDE9002303AB1946204609F082F89DF88D
:106FB0000C0004B010BD0122009203AB194680689A
:106FC00008F080FFF3E71FB544688DF80D2064B129
:106FD0000023CDE900338DF80C100123022203A910
:106FE000204609F036F804B010BD01F07F0100948E
:106FF0008DF80C102346022203A9806808F082FF56
:10700000F1E7836903B11847184670470378642293
:1070100023F0020303704068B0FBF2F0B0FBF2F320
:1070200002FB1300C0B27047037C0BB903707047BA
:10703000836843600378C16043F003030370002357
:1070400003747047037819B143F004030370704769
:1070500003F0FB03FAE74BDF704733DF704732DFA3
:107060007047BFF34F8F0549054BCA6802F4E062D1
:107070001343CB60BFF34F8F00BFFDE700ED00E08F
:107080000400FA0508B176F011B8704710B504464F
:1070900014F0F2FD2388838110BD0B4B10B51C68E2
:1070A0000DF0B8FC236801461B682046984704464B
:1070B00040B118F0B7F828B194F82D3013B104F1AD
:1070C0002D0010BD0148FCE7BC6900203D9D0B0070
:1070D000034B1A79062A0CBF93F8980000207047DA
:1070E00088660020064B187900F0FB03022B04D0C1
:1070F000A0F10B035842584170470120704700BF70
:1071000088660020094B10B51C6864B160680DF0FA
:107110006BFC38B194F8600194F86A3198422CBF46
:107120000020012010BD2046FCE700BF5CEC0020E1
:1071300010B50446006885F073F92060204610BD44
:1071400038B5044608200D4677F06EFD2B68436085
:1071500023680360206038BD70B505460C464CB10D
:10716000E1682846FFF7F8FFA668204675F09EFF05
:107170003446F4E770BD10B50446006885F02AF97E
:107180002060204610BD044B93F8693013B1034BC7
:10719000D86870470068704788660020386900200A
:1071A000044B93F8693013B1034B5868704700687B
:1071B000704700BF88660020386900202DE9F04143
:1071C00006468846154617460446444509D02146DA
:1071D000384685F07BFD204685F08EFC1834183744
:1071E000F3E7A01BC4080448444324F0604418207B
:1071F00000FB0450BDE8F081ABAAAA0A08B175F003
:1072000055BF7047836810B504462BB10322014671
:1072100098470023C4E90233204610BD8B6873B53C
:10722000164604460D1D01225BB130681A69904272
:1072300034BF9868D8681D4634BF01220022034637
:10724000F2E7019552B1CA68AA4204D1C4E90035F7
:10725000204602B070BD01A8FFF76AFF019A3368AB
:10726000116999424FF00003F0D3C4E90023EFE71E
:1072700070B505460C464CB1E1682846FFF7F8FFAB
:10728000A668204675F012FF3446F4E770BD38B5A5
:1072900004460068844204D0056875F007FF28465C
:1072A000F8E738BD70B5046805460E46AC4207D015
:1072B000A068036831469B68984710B92468F5E7D1
:1072C000002070BD70B5046805460E46AC4207D07C
:1072D000A068036831469B68984710B92468F5E7B1
:1072E000002070BD08B5054B984201D985F0DAF948
:1072F0000C235843BDE8084077F096BCAAAAAA0A16
:1073000008B175F0D3BE70478B6873B51646044656
:107310000D1D01225BB130881A8A904234BF9868F3
:10732000D8681D4634BF012200220346F2E70195CA
:1073300052B1CA68AA4204D1C4E90035204602B05D
:1073400070BD01A8FFF7F4FE019A3388118A9942B3
:107350004FF00003F0D3C4E90023EFE78B6873B567
:10736000164604460D1D01225BB130881A8A9042F0
:1073700034BF9868D8681D4634BF012200220346F6
:10738000F2E7019552B1CA68AA4204D1C4E90035B6
:10739000204602B070BD01A8FFF7CAFE019A3388EB
:1073A000118A99424FF00003F0D3C4E90023EFE7BC
:1073B00070B505460C464CB1E1682846FFF7F8FF6A
:1073C000A668204675F072FE3446F4E770BD10B52D
:1073D0000C4650B131F036FE38B1043050E8003F71
:1073E000234440E80032002AF8D110BD0368013B75
:1073F00013F8012FFF2A03D08A42F9D101207047E8
:107400000020704710B50138029C0F2800F28480DC
:10741000DFE800F05E8236281A1458084A6D70734F
:10742000797D8044DFED427A9FED427A002908BFE2
:10743000F0EE477AC2ED007A052261E0DFED3E7A98
:107440009FED3E7A0029F2E7DFED3B7A9FED3B7A34
:10745000002908BFF0EE477AC2ED007A05222270BB
:10746000082242E0DFED347A9FED347A002908BF2C
:10747000F0EE477AC2ED007A05222270092234E04C
:10748000DFED2D7A9FED2D7A002908BFF0EE477AC7
:10749000C2ED007A052222700A2226E0DFED247A6E
:1074A0009FED247A0029E2E7DFED217A9FED217A32
:1074B000002908BFF0EE477AC2ED007A0822227058
:1074C0000B2212E0DFED1E7A9FED1E7A0029F0E715
:1074D000DFED1B7A9FED1B7A002908BFF0EE477A9B
:1074E000C2ED007A082222700C221A7010BD1649D3
:1074F0001160C1E714491160CCE7144911600622FC
:1075000022700722F1E7114911600622A7E710490E
:10751000116091E70E49F7E7DFED077A9FED077AF3
:10752000002908BFF0EE477AC2ED007A0522C6E7CF
:107530000020CB440000FA4300204B4400007A4373
:107540000020CB430000FA420000FA4200007A42D9
:107550009A9979411FB50023039300238DF80B30CE
:107560008DF80A300DF10A03009303AA0DF10B0305
:10757000FFF748FF9DED030A05B05DF804FB38B541
:1075800004460C200D4677F04FFB2B6883602146A4
:1075900084F0D3FEA3680133A36038BD38B5044638
:1075A0000C200D4677F040FB2B688360214684F069
:1075B000C4FEA3680133A36038BDF8B50D46016869
:1075C000044606468C420FD08A682B680F689A42A0
:1075D00008D101F108039D4203D02046FFF726F9A8
:1075E00000E00E463946EDE7B44205D0314620466C
:1075F000BDE8F840FFF71AB9F8BDF8B50D460168C7
:10760000044606468C420FD08A682B680F689A425F
:1076100008D101F108039D4203D02046FFF706F987
:1076200000E00E463946EDE7B44205D0314620462B
:10763000BDE8F840FFF7FAB8F8BD2DE9F047D0E90A
:107640000487436AD0E902A904463D1D1E1DAE42CF
:1076500004D955F8040B75F029FDF8E7C4E906A92B
:10766000C4E90887BDE8F0872DE9F047D0E9048731
:10767000436AD0E902A904463D1D1E1DAE4204D94D
:1076800055F8040B75F012FDF8E7C4E906A9C4E942
:107690000887BDE8F087036870B5044663B1436AA4
:1076A00045691E1DAE4204D955F8040B75F0FEFC69
:1076B000F8E7206875F0FAFC204670BD036870B5E5
:1076C000044663B1436A45691E1DAE4204D955F8AC
:1076D000040B75F0EBFCF8E7206875F0E7FC20463A
:1076E00070BD50F8183B834202D0184675F0DEBCDE
:1076F000704710B50446FFF7CAFD0023C4E90044F3
:10770000A36010BDB0F1005F08B501D384F0CAFFDB
:10771000BDE80840800077F087BA08B175F0C6BCB4
:107720007047026962B1836850F82310013303F097
:10773000010348BF5B42013A83600261084670471B
:107740001146FBE7826A10B582B1036A50F8234004
:107750000133594201F0070103F0070302F1FF3240
:1077600058BF4B4203628262204610BD1446FBE7BD
:10777000026962B1836850F82310013303F00103FA
:1077800048BF5B42013A8360026108467047114678
:10779000FBE7826C10B582B1036C50F823400133D3
:1077A000594201F00F0103F00F0302F1FF3258BFFD
:1077B0004B4203648264204610BD1446FBE7014639
:1077C000014814F081BA00BF189500202DE9F34755
:1077D000CB68DFF8649001930E1D07460C463546D2
:1077E0004FF0FF38DDF804A0564510D0DAF810103D
:1077F000D9F80430994206D038460CF0DFFE8045B7
:1078000084BF5546804601A8FFF7B5FCEAE7AE42C3
:1078100010D001A80195FFF7AEFC3146284684F050
:107820005DFE75F043FC6369013B6361012002B0BA
:10783000BDE8F0870020FAE7785F00202DE9F347E4
:10784000CB68DFF8649001930E1D07460C46354661
:107850004FF0FF38DDF804A0564510D0DAF81010CC
:10786000D9F80430994206D038460CF0A7FE80457E
:1078700084BF5546804601A8FFF77DFCEAE7AE428B
:1078800010D001A80195FFF776FC3146284684F018
:1078900025FE75F00BFC6369013B6361012002B0BA
:1078A000BDE8F0870020FAE7785F00202DE9F34774
:1078B000CB68DFF8649001930E1D07460C463546F1
:1078C0004FF0FF38DDF804A0564510D0DAF810105C
:1078D000D9F80430994206D038460CF06FFE804546
:1078E00084BF5546804601A8FFF745FCEAE7AE4253
:1078F00010D001A80195FFF73EFC3146284684F0E0
:10790000EDFD75F0D3FB6369013B6361012002B0BB
:10791000BDE8F0870020FAE7785F00202DE9F34703
:10792000CB68DFF8649001930E1D07460C46354680
:107930004FF0FF38DDF804A0564510D0DAF81010EB
:10794000D9F80430994206D038460CF037FE80450D
:1079500084BF5546804601A8FFF70DFCEAE7AE421A
:1079600010D001A80195FFF706FC3146284684F0A7
:10797000B5FD75F09BFB6369013B6361012002B0BB
:10798000BDE8F0870020FAE7785F00208B6873B5C8
:10799000164604460D1D01225BB130681A699042FB
:1079A00034BF9868D8681D4634BF012200220346C0
:1079B000F2E7019552B1CA68AA4204D1C4E9003580
:1079C000204602B070BD01A8FFF7B2FB019A3368F0
:1079D000116999424FF00003F0D3C4E90023EFE7A7
:1079E0008B6873B5164604460D1D01225BB13068E5
:1079F0001A69904234BF9868D8681D4634BF012286
:107A000000220346F2E7019552B1CA68AA4204D1A6
:107A1000C4E90035204602B070BD01A8FFF788FB1D
:107A2000019A3368116999424FF00003F0D3C4E919
:107A30000023EFE78B6873B5164604460D1D01223F
:107A40005BB130681A69904234BF9868D8681D46A7
:107A500034BF012200220346F2E7019552B1CA6801
:107A6000AA4204D1C4E90035204602B070BD01A885
:107A7000FFF75EFB019A3368116999424FF00003EA
:107A8000F0D3C4E90023EFE78B6873B516460446CC
:107A90000D1D01225BB130681A69904234BF9868AD
:107AA000D8681D4634BF012200220346F2E7019543
:107AB00052B1CA68AA4204D1C4E90035204602B0D6
:107AC00070BD01A8FFF734FB019A33681169994230
:107AD0004FF00003F0D3C4E90023EFE730B5031DF6
:107AE000826818463AB115690C68A5422ABF10464B
:107AF000D2689268F6E7834204D00968026991422D
:107B000038BF184630BD30B5031D826818463AB1FB
:107B100015690C68A5422ABF1046D2689268F6E73C
:107B2000834204D009680269914238BF184630BDCB
:107B300030B5031D826818463AB115690C68A54234
:107B40002ABF1046D2689268F6E7834204D00968DB
:107B50000269914238BF184630BD30B5031D8268B6
:107B600018463AB115690C68A5422ABF1046D2687A
:107B70009268F6E7834204D009680269914238BFEF
:107B8000184630BD37B54B690192272B05460C4688
:107B90000AD901A92046FFF7E0FF231D834203D144
:107BA00021462846FFF7BAFE03B030BD10B5816804
:107BB0000446FEF771FD0023221DC4E90322A360E1
:107BC000636110BD10B581680446FEF774FD0023A3
:107BD000221DC4E90322A360636110BD10B5816852
:107BE0000446FEF777FD0023221DC4E90322A360AB
:107BF000636110BD10B581680446FEF77AFD00236D
:107C0000221DC4E90322A360636110BD2DE9F8437E
:107C100000F10409846805464E46ECB12369086802
:107C2000834204D2E368344626461C46F5E7A3683F
:107C3000FAD8E26843B1196988428ABFD96899685D
:107C400023461C460B46F5E73AB11369984236BF06
:107C50001646D2689268F7E73446EB68D5F8148088
:107C6000A34209D1B14507D12846FFF7C3FF686990
:107C7000A8EB0000BDE8F883A642F8D0204684F0C7
:107C8000BCFB49460746204684F028FC75F00EFAF6
:107C90006B69013B6B613C46EEE710B50446002082
:107CA00023F066FFA368C01A20EAE07010BD08B197
:107CB00075F0FCB97047B0F1005F13B501D384F0E3
:107CC000F1FC82001046019276F0AEFF019A00218D
:107CD00004468CF0A3FB204602B010BD42680B4660
:107CE00004318A4210B5044604D01846521A8CF06A
:107CF0007BFB03466268043A6260184610BD81420D
:107D000010B51346A1EB000405D0014622461846E3
:107D10008CF06AFB0346181910BD38B50346D3E949
:107D20000035ED1A6FF06043AC10A3EBA5058D4252
:107D3000104601D284F0BCFCA14238BF2146601835
:107D400003D2984228BF184638BD1846FCE708B150
:107D500075F0ACB9704710B504460068FFF7F7FF3F
:107D6000204610BD08281BD00A281CD010281DD082
:107D700015281ED01F281FD02A2820D03E2821D009
:107D8000C82822D0B0F5C87F22D0B0F5487F22D0D5
:107D9000B0F5C86F22D007EE900AB8EE670A7047B8
:107DA0009FED100A70479FED100A70479FED0F0A74
:107DB00070479FED0F0A70479FED0E0A70479FEDC9
:107DC0000E0A70479FED0D0A70479FED0D0A704730
:107DD0009FED0C0A70479FED0C0A70479FED0B0A50
:107DE000704700BF9A99F940666626419A99794191
:107DF0006666A6410000FA41CDCC264200007A42D8
:107E000000204B430020CB4300204B440020CB44B8
:107E100010B103685B681847704710B103685B686E
:107E20001847704710B103681B691847704710B1B5
:107E300003685B681847704770B505460C464CB13F
:107E4000E1682846FFF7F8FFA668204675F02EF98E
:107E50003446F4E770BD70B5046805460E46AC4282
:107E600007D0A068036831469B68984710B924681A
:107E7000F5E7002070BD2DE9F84FD0E90087A7EBAA
:107E80000804A310234C5C43234B9C4206468946BE
:107E9000934602D1214884F00BFC012C224638BFC6
:107EA0000122A418A1EB080531D244B19C4228BF9D
:107EB0001C460C20604376F0B7FE824600E0A246E6
:107EC0009BE807000AEB0503002D83E8070004DDAB
:107ED0002A46414650468CF087FAA7EB09070C3535
:107EE000002F554404DD3A46494628468CF06EFA88
:107EF0003D44B8F1000F02D0404675F0D7F80C2091
:107F000000FB04A4C6E900A5B460BDE8F88F1C46D8
:107F1000CFE700BFABAAAAAAAAAAAA0A1F9D0B0074
:107F20002DE9F84F064689469346FEF734FDD6E91B
:107F300000A8071EA9EB0A0428D001DA84F0B2FBDE
:107F400076F072FE05469BF800302B55002C04DDC0
:107F50002246514628468CF047FAA8EB090801341E
:107F6000B8F1000F2C4404DD4246494620468CF00F
:107F70002DFA4444BAF1000F02D0504675F096F83D
:107F8000C6E900543D44B560BDE8F88F3D46DAE7E8
:107F900010B50C1A002C134605DD01462246184682
:107FA0008CF022FA0346181910BDB0F1005F08B535
:107FB00001D384F077FBBDE80840800076F034BE42
:107FC00008B175F073B87047B1F1005FF8B50446B9
:107FD0000E4602D3104884F06BFB026883689B1A3C
:107FE000B1EBA30F14D94768BF1A91B10846FFF748
:107FF000DCFF05462A46D4E90001FFF7C9FF2068E7
:10800000FFF7DEFF2F44256005EB86056760A5605E
:10801000F8BD0D46EEE700BF419D0B002DE9F8438A
:10802000D0E901439C420746894607D00B6844F8D3
:10803000043B446078680438BDE8F883D0F80080D9
:108040006FF06042A4EB0804B2EBA40F4FEAA40364
:1080500002D1164884F02CFB012B1D4638BF0125A8
:10806000ED1821D23DB1954228BF1546A80076F003
:10807000DBFD064600E02E46D9F800303351002CD7
:1080800004DD2246414630468CF0AEF904343444D7
:10809000B8F1000F02D0404675F008F806EB8505F0
:1080A000C7E90064BD60C5E71546DFE71F9D0B000B
:1080B00038B50346D3E90035ED1A6FF06043AC10D4
:1080C000A3EBA5058D42104601D284F0F1FAA1423E
:1080D00038BF2146601803D2984228BF184638BDE1
:1080E0001846FCE72DE9F84F05460F469146012159
:1080F000134AFFF7DDFFD5E9008A0646A7EB080B18
:10810000D8B1FFF752FF0446D9F8003044F80B30DD
:10811000224639464046FFF73BFF5146021D38468E
:10812000FFF736FF07464046FFF74AFFC5E900471D
:1081300004EB8604AC60BDE8F88F0446E4E700BFBA
:108140001F9D0B00D0E90032934218BF4360704777
:1081500010B504460068FFF733FF204610BD30B568
:108160000D68836885B0D0E9004205604D684560C0
:1081700003938D6885600023C1E900338B6001A8FB
:10818000CDE90142FFF7E4FF05B030BDD0E900239F
:108190009A4209D1C3681A1F53F8043C436003F59F
:1081A000FC73C2608360036003681C3B036070471C
:1081B00008B5054B984201D984F074FA1823584346
:1081C000BDE8084076F030BD5555550513B50B4652
:1081D0000246D0E900016C4684E8030093E80300FE
:1081E00082E8030094E8030083E80300986891683C
:1081F00090609960D168D868D060D96002B010BD35
:1082000010B50378DB07044604D574F0FDFEE3687F
:10821000C01A10BD4FF0FF30FBE708B5064B074A08
:108220001868074900F61C7071F01CFBBDE8084097
:108230000E2011F031BA00BF74470120519D0B0090
:108240006A9D0B0070B5046805460E46AC4207D027
:10825000A068036831469B68984710B92468F5E721
:10826000002070BD10B50B4904460B48FFF7EAFF2C
:1082700068B123681D2B0BD801332360074B084AD4
:108280001868084900F61C7071F0ECFA012010BD66
:108290000020FCE770D00B0058300120744701200B
:1082A000709D0B008D9D0B0070B5046805460E4651
:1082B000AC4207D0A068036831469B68984710B964
:1082C0002468F5E7002070BD10B5D0E90043144ADA
:1082D000E31A9B1002FB0312002A1BDB112A04DCA9
:1082E0001C2303FB0141016010BD122392FBF3F339
:1082F000C16801EB830451F82310C46001F5FC74DC
:108300008460122404FB13231C2202FB031341602C
:108310000360E9E7D3431221B3FBF1F3DB43E7E763
:10832000B76DDBB6CA68C3689B1AD0E90020121A81
:1083300007489B109210424310B5013B122404FBE6
:1083400003238A680968521A921000FB023010BD9C
:10835000B76DDBB62DE9F04704460F4600F1080182
:108360001830FFF7DFFF3C4B984202D13B4884F0C6
:108370009FF9626A20686368111AA3EBA1010129C1
:1083800025D86169A2EB01084FEAA806B51CB3EB3A
:10839000450F3CD95D1B6D0800EB8505131DA942F7
:1083A000A3EB01022CD9994202D028468CF01CF88C
:1083B0002B68E36003F5FC73236105EB080363623C
:1083C00055F80830E36103F5FC73656123624FF4EF
:1083D000FC70656A76F028FC68603D460FCDA669A2
:1083E0000FC695E80700636A86E807001A1D5B68F8
:1083F000626203F5FC72E3612262A361BDE8F0876B
:108400009942D5D008F10400801A2844CEE703F140
:108410000209012B2CBF994409F10109B9F1005F50
:1084200001D384F03FF94FEA890076F0FDFB626AE0
:108430006169A9EB050504326D089142824600EBA3
:10844000850503D0521A28468BF0CEFF206874F0C1
:108450002DFEC4E900A9ABE724499204939D0B00CB
:1084600073B5044616460D4619B912B10D4884F08D
:108470001CF9731B0F2B019307D9002201A9204679
:1084800084F018FB019B2060A360324629462068D7
:1084900084F0A0FB019B226863600021D15402B0EC
:1084A00070BD00BFC39D0B00FFF7DABF036870B556
:1084B000044663B1436A45691E1DAE4204D955F8AE
:1084C000040B74F0F3FDF8E7206874F0EFFD20462C
:1084D00070BD036882681C339342036008D1C3688F
:1084E0001A1D5B68C26003F5FC7243608260036022
:1084F000704744DF704743DF704742DF7047064BE9
:108500001868043B1B68082B04D103288CBF00208B
:10851000012070470020704734010010024B1B6897
:10852000DB0700D500BE7047F0ED00E0034B1B6891
:10853000DB0700D500BE0020704700BFF0ED00E073
:1085400038B50446C0680D4618B14FF0FF3175F0DC
:1085500073F8206918B14FF0FF3175F06DF8E379C9
:10856000E06865F3C713E37120B100231A4619468A
:1085700074F0F6FE206920B100231A46194674F003
:10858000EFFE012038BD10B50446C06818B14FF0A9
:10859000FF3175F051F8206918B14FF0FF3175F0D7
:1085A0004BF8E06800236381238118B11A4619460D
:1085B00074F0D6FE206920B100231A46194674F0E3
:1085C000CFFE012010BD2DE9F84F0746884616461C
:1085D00042B3C06818B14FF0FF3175F02DF8FA7949
:1085E0003D897B89B7F80490D209ADB29BB21CD10A
:1085F0009D4239BFC3EB49046419EB1A9CB238BFE2
:10860000A4B2A14586BFA9EB0404A4B20024A642EB
:1086100028BF264656BBF86820B100231A461946E3
:1086200074F09EFE3046BDE8F88FF9884E45C1F3E0
:108630000E0106D3A6EB090601FB06881D464E4631
:10864000E8E79D424FEA490136BFCA1AEA1A5219B1
:1086500092B232448A4209DB09EB0305AD1BADB28D
:10866000AB4201D8A94201DC6D1AADB22C46A1453E
:108670001DD9FA883868A9EB040A1FFA8AFAC2F3EE
:108680000E0BB2455A460BFB040014D3724341460D
:108690008BF09CFE7319BA889BB2AB424FEA420240
:1086A00001D3934201DB9B1A9BB23B81B3E7A4EB5E
:1086B0000904A4B2DBE71AFB0BFA1FFA8AFA524646
:1086C00041468BF083FEA6EB0903234413FB0BF218
:1086D000386892B208EB0A01DAE782880389408998
:1086E0009BB280B2834236BFC0EB4200181AC0185A
:1086F00080B2824286BF101A80B200207047038980
:10870000428981889BB292B2934236BFC2EB41024A
:108710009B1A9B1898B2884228BF0846704737B505
:1087200004461420019176F07FFA0199054616F06F
:10873000ADFE256003B030BD022A70B5054607D0F6
:10874000032A13D0012A01D10B680360002070BDF9
:108750000C68142076F068FA2146064651F8043B6E
:1087600040F8043B15F032FB2E60EFE7FEF702F80D
:10877000ECE7E1E7022A70B5054607D0032A13D0DB
:10878000012A01D10B680360002070BD0C68142021
:1087900076F04AFA2146064651F8043B40F8043B7D
:1087A00015F014FB2E60EFE7FDF7E4FFECE7022A7B
:1087B00070B5054607D0032A13D0012A01D10B68F2
:1087C0000360002070BD0C68142076F02DFA21465D
:1087D000064651F8043B40F8043B15F0F7FA2E60CA
:1087E000EFE7FDF7C7FFECE7E1E7022A70B50546C2
:1087F00007D0032A13D0012A01D10B68036000209F
:1088000070BD0C68142076F00FFA2146064651F828
:10881000043B40F8043B15F0D9FA2E60EFE7FDF772
:10882000A9FFECE7E1E7E0E7DFE71FB504466846AC
:1088300015F0CCFA21466846FFF7C8FC684671F08F
:1088400031FC204604B010BD1FB500F11801684688
:1088500015F0CBFA6846FFF799FC009805B05DF873
:1088600004FB00BF014B93F858017047B05B002038
:10887000014B93F849017047B05B0020014B93F81E
:1088800062017047B05B00202DE9F041DFF8C8833A
:10889000C64BC74DC74E404694B0442240F80C3BEF
:1088A000002100248BF0BAFDC34BC8F8083008F152
:1088B000540188F80440012074F0D6FDBF4BC8F87D
:1088C0005000C8F80030BE4ABE49404683F030FD33
:1088D000BD48BB4ABD49C0F884404FF40053A0F8DE
:1088E0008030BB4BC0F88830A0F89C4083F020FD5E
:1088F000B84B0822DC60C3E901441A701C82B64BF5
:10890000B64A1C705C70B64B01271A60B54A1F71DD
:10891000D2F8B4101973D2F8AC109973D2F8B01021
:108920005973DC731C829C60AF4BB0491C71196099
:10893000516F1973D1689973926F5A739C60DC738D
:108940001C821923C5E90055AC60AC812B614FF442
:108950007A732B62AE61C5F82880C5E90C44AC730C
:10896000AC82EC6185F82C408022214605F17C0028
:1089700085F8384085F878408BF050FD88222146F4
:1089800005F1FC008BF04AFD8D4A9949284683F099
:10899000CFFC98488A4A98498460C0E9000083F077
:1089A000C7FC9648864A94498460C0E9000083F079
:1089B000BFFC9348824A90498460C0E9000083F07C
:1089C000B7FC904870F062F87D4A8F498D4883F07B
:1089D000AFFC4FF48E7076F027F905462022214631
:1089E00004308BF01BFD6C621022214605F128003B
:1089F0008BF014FD2122214605F138008BF00EFD8D
:108A00002022214605F159008BF008FD2022214645
:108A100005F179008BF002FD2022214605F1990035
:108A20008BF0FCFC2022214605F1B9008BF0F6FC0E
:108A30002022214605F1D9008BF0F0FC20222146AE
:108A400005F1F9008BF0EAFC06F124032B606F4B73
:108A50006F481D6006F168086E4B10930EA9CDF8A3
:108A600038808DF83E40ADF83C40119440F080F9DC
:108A7000534A69496648694D83F05AFC684B694816
:108A800010930EA9CDF838808DF83E40ADF83C40EB
:108A9000119404F043F94A4A6349624883F048FC60
:108AA000624B634810930EA9CDF838808DF83E4094
:108AB000ADF83C40119404F031F9414A5A495C4800
:108AC00083F036FC5B4B5C4810930EA9CDF83880E0
:108AD0008DF83E40ADF83C40119404F01FF9384A3F
:108AE0005149554883F024FC544B554810930EA926
:108AF000CDF838808DF83E40ADF83C40119404F03C
:108B00000DF92F4A48494E4883F012FC41F60A03FA
:108B10000EA92846CDF83880ADF83C30CDE9104498
:108B20008DF83E7040F024F9284606F1780340F8AD
:108B3000183B242221468BF071FC424BEB6115233C
:108B4000C5E90F4485F83D303F4BEB62052385F8BE
:108B500041303E4B2B63132385F8423085F8444067
:108B600028463B4D164A3B4983F0E2FB41F60F0392
:108B70000EA92846CDF83880ADF83C30CDE9104438
:108B80008DF83E7040F0F4F8284606F18C0340F86A
:108B9000183B0EA942F61923ADF83C30CDF83880C9
:108BA000CDE910448DF83E7058E000BF40D50B0071
:108BB00024060120089E0B006440002050D50B00C5
:108BC000004000204DF002006893002071B50300C2
:108BD00080EE36005C0F01202830012000F00240BA
:108BE00030300120C09E0D00443001200030024092
:108BF0004350040058300120D9730700643001202D
:108C000070300120903001207F8A090094300120CB
:108C100050330120469E0D006B840700D83301209D
:108C2000579E0D009830012041CD0200679E0D0037
:108C300090340120359E0D00E8360120249E0D0061
:108C4000F0300120DC9F0D00209C0B00269C0B00C7
:108C500020340120698407008852002004F05EF867
:108C60002846BB4DBB4ABC4983F062FBBB4BCDF8E9
:108C700038800EA9284610938DF83E40ADF83C4050
:108C8000119440F075F8284606F1A00340F8183B0F
:108C90000EA9B34B1093CDF838808DF83E40ADF857
:108CA0003C40119404F03AF8AA4AAE49284683F0B1
:108CB0003FFB234622462146AB48009473F042F81E
:108CC000AA48AB4D6FF0E2FEA24AAA49A74883F03A
:108CD0002FFBA9489F4AA949046083F029FBA848B3
:108CE0009C4AA649046083F023FBA64B2B61A64B4C
:108CF000EB602846A54B6B6106F1B40340F8183BC6
:108D00006D6045F2E86221468BF088FB36222146F1
:108D100005F5AE408BF082FB8E4A9D49284683F0D4
:108D200007FB9C488B4A9C498460C0E9000083F0A3
:108D3000FFFA9A489A4D874A9A49C463C0E90144A8
:108D4000C0E90344C0E90544C0E90744C0E9094457
:108D5000C0E90B44C0E90D4483F0EAFA924B2B6161
:108D60002846924BEB6006F1CC0340F8183B6D604F
:108D70006C614FF4FB5221468BF050FB10222146D0
:108D80008B488BF04BFB734A8A4928468A4D83F007
:108D9000CFFA8A4B2B612846894BEB6006F1E4033E
:108DA00040F8183B6D606C61202221468BF036FB49
:108DB000684A8449AC632846834D83F0B9FA834BF3
:108DC0002B612846824BEB6006F1FC0340F8183B10
:108DD0006D606C614FF4F06221468BF01FFB5D4AC1
:108DE0007C49C5F89847284683F0A2FA7A4821467C
:108DF000102220F8024B8BF011FB5C2075F014FF61
:108E0000054607F062FD2B46744A43F8382BC5E946
:108E10000E3306F58A736B63714B2C64C5E912340B
:108E20004FF400734FF00208A5F858306D4B6D6495
:108E300085F850806C6585F85A806F62CC201D6083
:108E400075F0F2FE054607F040FD2B46664A43F8F2
:108E5000382BC5E90E3306F594736B63634B2C64B2
:108E600021467422C5E912346D64A5F8504085F896
:108E7000524005F154008BF0D1FA5D4BC5F8C84063
:108E8000C5F8248058201D6075F0CEFE054607F019
:108E90001CFD2B46574A43F8382BC5E90E33564B79
:108EA0002C64C5E9123403236B6206F59E76534B9E
:108EB0006E636D642C65A5F8544085F856406C20AF
:108EC0001D6075F0B1FE054607F0FFFC2B464C4ACD
:108ED00043F8382BC5E90E334A4B6B634A4B4B4E74
:108EE0004B4A4C4831782C64C5E9123405F15C03D7
:108EF000C5E9153404236B62474B6D641D603388EC
:108F00001380464A2C651380454A85F85C401380DF
:108F1000444A84601380444A1380444B72785970E9
:108F20009A701C700B4A4249C0E9004483F000FA71
:108F30004048084A4049846083F0FAF93F48054AAE
:108F40003F49846083F0F4F93E48024A7CE000BF68
:108F500068330120004000206D840700D1AA0C0076
:108F6000E1AA0C006F8407005C930020F00C012044
:108F7000189500207F8A0900500F0120011006007B
:108F80001C0F0120ED640200D76502003A9C0B0023
:108F9000D5B90300900C0120D97307003C6600206E
:108FA000BC710020374803001B650200D165020038
:108FB00034910020CDA00300D86900201165020083
:108FC000D3650200A3A00300186A00200765020011
:108FD000D565020075A00300C269002004D80B000B
:108FE00029030300D0430120C8440C00018204007F
:108FF0001844012050200C001DD603001C44012001
:1090000088760D0000770D007D12090027470120AA
:1090100000440120140601202444012003440120BF
:10902000F4430120F6430120F843012006440120C7
:1090300011670200F45800206967020030590020CF
:1090400069670200A80C012043498460C0E900441C
:1090500083F06EF94148424A42498460C0E90044C5
:1090600083F066F940483E4A3E498460C0E90044C6
:1090700083F05EF93D483A4A3D498460C0E90044C6
:1090800083F056F93B4B3025013D1C7303F10E0371
:10909000FAD13948324A30498560C0E9005583F039
:1090A00047F936482E4A3649057200F10803C0E9EF
:1090B000003583F03DF93348334C294A3349856004
:1090C000C0E9005583F034F9012714222946C4E988
:1090D0000055A56004F10C008BF0A0F9204A2C4942
:1090E0002C4884F85070C4E90855C4E90A55C4E90D
:1090F0000C55C4E90E55C4E91055C4E9125583F066
:1091000017F92548164A2549056083F011F9244BC3
:1091100024481D705D709D70357075701CF052F89C
:109120000F4A21491F4883F003F920481CF04AF8F0
:109130000B4A1D491D4883F0FBF803222946384697
:1091400074F0E8F81A4B1860002839D1194B1A4A04
:109150001A480C214EF03EFAE1660900B40C0120D9
:109160000040002031F40300C80C0120D40C012081
:1091700031F403005C440120FC4601200847012033
:1091800001CD0A003C0901206C090120577D020035
:10919000DB8D0400A80701202047012001100600F4
:1091A00024470120AC540020A50F03008055002067
:1091B00050560020489C0B00529C0B00929C0B00C8
:1091C000974A9849984C994F184683F0B1F8984BB4
:1091D000984A9D60C3E90025974ADA60974B984A00
:1091E0009D60C3E90025974ADA609749974B9848F4
:1091F000C3E90252C3E90015964B974A1A60974A91
:109200005A60974A9A60974ADA60974B974A9D60EE
:10921000C3E90025964ADA60964B974A9D60C3E9F8
:109220000025964ADA60964B964A9749C3E900258D
:10923000964A9A60964ADA60964B974A9D60C3E9CF
:109240000025964ADA60964A116096498560C2E91F
:1092500001159549D160954A95491160954951602C
:10926000954991609549D160C0E900356C4A9449AF
:10927000C0F8EC5080F8F05083F05AF89148924BC7
:1092800003610523037104F14C0300264FF04008ED
:10929000036204F15803C0E90935614A8B4905733B
:1092A0000575856105778560046080F82D804563CC
:1092B000866383F03DF88648864B03612223037161
:1092C00004F16403036004F1B003036204F1BC031E
:1092D000436242F21073524A7F49057305758561F6
:1092E0000577856080F82880C762C663A0F84030A3
:1092F00080F842804764066386634663856483F032
:1093000017F87648764B03610423037104F1C80310
:10931000036004F58873424A7249057305758561D7
:1093200005778560036283F003F86F486F4B036134
:109330000E23037104F58E73036004F5B4730362A6
:1093400004F5BA734362422380F83430684B344AE0
:109350006849057305758561057785608763836254
:10936000C3620363C56382F0E3FF6348634B036139
:109370001C23037104F5C073036004F5E473604EAD
:10938000274A60490573C0E9083505758561057789
:10939000856082F0CDFF5C4902A806F0A3F9304653
:1093A00006F082F806F13003C6E90A3502AA0EA8D3
:1093B000564986F8305006F0A1F855490EA883F0BA
:1093C0008FFE014608A883F081FC08A906F1280059
:1093D00083F09CFC08A883F08FFB0EA883F08CFB25
:1093E00006F0BAF802A883F087FB0D4A49493046D7
:1093F00082F09EFF484B83F8E45083F8E850474BD7
:109400004FF47A729A6004F5EA721A6004F5FE74F9
:109410004FF47F425D601C619A8214B0BDE8F08118
:1094200000400020CD8A0900589F0B009C5201206B
:10943000A04801200D9C0900BE9C0B00B0480120F3
:10944000F19B0900C79C0B00D39B090090480120A9
:10945000C04801207048012089A10900E765020089
:10946000E565020030320C004048012065A109008A
:10947000CB9C0B00504801203DA10900CE9C0B0065
:109480008048012019A10900EDA00900F165020042
:10949000D39C0B0060480120BD620200DA9C0B00E7
:1094A00030480120BF9B0900DF9C0B0020480120B1
:1094B000B7A00900AD9B0900EB650200E29C0B0020
:1094C0007D9703007C530020E89C0B0005090300F6
:1094D000B8530020EF9C0B00430903000454002004
:1094E000F69C0B004109030038540020FD9C0B0042
:1094F000CDCCCC3D3F0903007C540020059D0B00E2
:109500002C5300203D0903009AE60B000E9D0B0032
:10951000199D0B0075FA02009C510020D4490020CF
:1095200007B503688DF807105B6801220DF107018C
:10953000984703B05DF804FBA0F1100000F032B9C9
:10954000407DFF2801D071F085BB704710B5437D89
:10955000FF2B0CD0074A4FF4567000FB0320FFF797
:10956000CEF8044608B975F0ADFF204610BD0020C6
:10957000FCE700BF544F01202DE9F74F437DFF2B3F
:1095800006460F4614462FD015464FF4567A4FF62E
:10959000FE7B15B3707D71F09BFBF0B1737D134AB8
:1095A00001930AFB03294FF6FF7209F124095D4577
:1095B00098BF2A4692B239464846FFF704F88046DB
:1095C0004846FFF79CF83F28019B02D9184671F0E6
:1095D00041FBB5EB0805474403D1601B03B0BDE870
:1095E000F08F75F06FFFD4E70020F7E7444F0120BC
:1095F00008B5437DFF2B07D0044A4FF4567000FB9B
:109600000320FFF76AF808BD0020FCE7684F01203F
:1096100073B5437DFF2B14D04FF456745C430A4E50
:1096200004F1100001220DF107013044FDF70DF99E
:109630000546301971F062FB1DB19DF8070002B0BC
:1096400070BD4FF0FF30FAE7444F012073B5457D00
:10965000FF2D03D14FF0FF3002B070BD254E4FF407
:10966000567303FB0563186A18B14FF0FF3173F0AE
:10967000E3FF4FF4567202FB0562118B538B908A05
:1096800089B29BB2994236BFC3EB4002CA1A521844
:1096900094B2E4B1A04209D281424FF456722CBF79
:1096A0000B1A0B1802FB05629BB2538398421ED91A
:1096B0004FF4567101FB05610DF10700CA8A096973
:1096C000C2F30E0202FB03118AF080FE01244FF464
:1096D000567303FB0565286A20B100231A46194614
:1096E00073F03EFE002CB5D09DF80700B4E71B1ABE
:1096F0009BB2DBE7444F012010B5194B5A7DFF2A7E
:109700002CD11A7E52BB174C5A750121197694F848
:1097100050110B2908D84A1C84F8502101F1480245
:10972000114844F822000A461A75B4F81821B4F812
:109730001A3161690A489B1A9BB20A4494F81C11B9
:1097400000F030F850B1B4F818311844636980B2B1
:10975000A4F81801588094F81C211A7110BD00BF9C
:10976000D4490020F049002098CF0B0010B5407D6F
:10977000FF2807D071F0ACFA044608B975F0A2FED4
:10978000204610BD0024FBE7034B9B68B3F5966FA2
:1097900001D171F00FBC7047444F012009B900B9E5
:1097A000F2E770472DE9F047074692B09846154614
:1097B000002A00F090804B4B93F81C6193F81D1128
:1097C00093F81EA1B21C83F81C214C1C8A1C83F840
:1097D0001D2164F07F040AF1010241F08009E4B226
:1097E00083F81E214222002101A88AF017FE002DD5
:1097F0006DD0B8F1410F73D940F20220ADF80800E6
:1098000040F20940ADF80C0040F20120ADF8100024
:1098100024208DF8160034480690731C0120DBB21A
:109820008DF806608DF80E608DF81C008DF82660AE
:109830002E48397D8DF81E30032640F608320890F8
:109840008DF8273040F224608DF82B608DF8313090
:1098500008260A230427ADF804208DF814100222EC
:109860000521ADF824008DF82C6040F207508DF8EA
:1098700034304FF4116640238DF807208DF8122004
:109880008DF81510ADF828008DF83320ADF83800AC
:109890008DF83B208DF81F708DF82A90ADF82E6062
:1098A0008DF830708DF83AA08DF83C3007238DF894
:1098B0003F308DF8401044F2020342220DEB0701C5
:1098C00028468DF84140ADF842308AF07FFD4220B5
:1098D00012B0BDE8F087924614469146164681E7DD
:1098E0000020F5E7F04900202001052424020205AC
:1098F0007FB5204B204A03F11006144618685968BA
:10990000154603C50833B3422A46F7D11B4A1B88C4
:10991000106851682B8001AB03C3127A1A7004AA35
:1099200012E90700164B03C3194603F5887001F8C6
:109930000829144AC4F818214FF48072A4F81C2195
:109940000122616184F81E21002120228AF066FD37
:1099500040F20943C4F820310B4BC4F824310B4BBF
:10996000C4F828310023C4F82C31042384F8503182
:1099700004B070BDB3CF0B00F0490020C5CF0B0081
:10998000084A002009000001A7CF0B00DC9F0D0052
:10999000F0B50546002004462B5D2E19002B68D03B
:1099A00003F14002D2B2012A3DD9F42B3BD81A066A
:1099B0001BD40122A3F55846B6F5006F33D3B3F597
:1099C000803F14444FD31E2853DCA3F5803342005C
:1099D0009E0A0A44C3F30903A6F52056A3F51053C3
:1099E00021F8106002305380D6E703F0E002C02A6D
:1099F0001BD103F01F03022206F1010C16441CF8D0
:109A0000017B07F0C00EBEF1800F0CD107F03F07BD
:109A1000664547EA8313F2D1022A16D1A3F18006E4
:109A2000B6F5F06FC6D30134B6E703F0F002E02AD2
:109A300003D103F00F030322DEE703F0F802F02A5C
:109A4000F1D103F007030422D6E7032A04D1A3F5DA
:109A50000066B6F5784FE5E7A3F58032B2F5801FD2
:109A6000E1D20422A6E7202803D021F810300130EB
:109A700092E7F0BD0B6802490B610121184700BF56
:109A8000B44901202DE9F041174C184F80460025BC
:109A900018262279EBB2511D994212DA38220021A0
:109AA00013488AF0BBFC1022FF2104F109008AF060
:109AB000B5FC04F119001222BDE8F041FF218AF043
:109AC000ADBC9A4207D9226806FB032333B9BDE82F
:109AD000F041FEF723BD9B1A06FB03735B6840460B
:109AE00098470135D5E700BF844B0020DCCF0B0041
:109AF000894B0020F8B5124C266C00F07F07C50991
:109B00004FF0FF31304673F097FD04EB47032B44D1
:109B100025339A79C2F38004520708D59A7912F056
:109B2000010103BF9A7961F382029A710024002334
:109B30001A461946304673F013FC2046F8BD00BFA4
:109B4000844B0020F8B5194A00F07F0302EB430371
:109B500003EBD01000F1250490F82B5015F001050F
:109B600021D190F82B305907C3F3800717D4166C16
:109B70004FF0FF31304673F05FFDA57915F0010518
:109B80000FD1A3795B0704D4A37943F00403A37135
:109B9000012500231A461946304673F0E1FB28469A
:109BA000F8BD3D46F5E70025F9E700BF844B0020EE
:109BB00070B4827802F07F03082B07D9524B1B68E0
:109BC000DB0700D500BE002070BC70474F49C47849
:109BD000CD79818804F00304022CC1F30A010BD073
:109BE000032C45D0012C11D1022D40F2FF3408BFC7
:109BF0004FF48064A1420DE0022D0AD1B1F5007F3F
:109C000009D0414B1B68DA0700D500BE70BCFEF7D7
:109C10008DBC4029F5D83E4E5C0004EBD21406EB17
:109C20000414D5092181C17801F0030101292FD045
:109C30000120384900FA03F405BB03F10C06B040DB
:109C4000C1F80403D1F8140503F594730443C1F873
:109C5000144541F823502F4BC3F8182542F4807265
:109C6000C3F80C25BFF36F8FBFF34F8F0120ABE715
:109C7000022D0CBF4FF480644024BBE702339840B0
:109C8000C1F80403D1F810351C43C1F81045E2E7D0
:109C9000082B93D11F4BDDB9B6F8182112B18022E1
:109CA000C3F81C250022C3F85021D3F8002312F476
:109CB000001208BFC3F85421164B4FF44012C3F8EA
:109CC0000423D3F8142542F48072C3F81425C9E79D
:109CD0000022C3F82C21B6F8082112B18022C3F863
:109CE0001C250C4BD3F8002312F4001208BFC3F854
:109CF0005421094AC3F80423D3F8102542F4807292
:109D0000C3F81025AEE700BFF0ED00E0844B002063
:109D1000DC4C0020007002400008200010B50B4B06
:109D200000F07F0203EB420303EBD0142534A37948
:109D30009B0709D401F0FEF8A37943F00203A37155
:109D4000A37943F00103A37110BD00BF844B002031
:109D500010B5104B04460146187800F0A7FE0E4BD4
:109D600004F07F0103EB410303EBD41090F82B3098
:109D70006FF3410380F82B3090F82B306FF3000322
:109D800080F82B3090F82B306FF3820380F82B3063
:109D900010BD00BF04400020844B00202DE9F84393
:109DA000DDE908890C4616461F460025AE4201DC57
:109DB00001200EE06378052B04D1E37803F0030360
:109DC000BB4208D00D4B186810F0010001D000BE56
:109DD0000020BDE8F8832046FFF7EAFE18B9BDE889
:109DE000F843FEF7A3BBA378DA0914BF89F8003063
:109DF00088F80030237801351C44D7E7F0ED00E007
:109E00001FB5CDE902011149002308240193486CD4
:109E10008DF805403AB9134601A94FF0FF3273F0AF
:109E20009FFA04B010BD6A4601A9009373F031FB9C
:109E3000009B002BF5D0064B4FF080525A6040BF7C
:109E4000BFF34F8FBFF36F8FEBE700BF844B002052
:109E500000ED00E02DE9FF414378484C023B054608
:109E6000042B12D8DFE803F003291B227100637969
:109E70006FF300036371637900226FF34103637131
:109E8000A271637962F382036371606C002961D10E
:109E90000B464FF0FF32294673F062FA2FE06379E8
:109EA000D8072CD5637943F00403EDE76379DA072B
:109EB00025D563796FF38203E6E763795B0715D5F0
:109EC00063796FF3820363710278606C0023CDE9DC
:109ED00001338DF80420052203938DF8052089B9FC
:109EE0000B464FF0FF3201A973F03AFADFF8948085
:109EF000002618272279F3B2511D994214DA04B0D2
:109F0000BDE8F0816A4601A9009373F0C2FA009B94
:109F1000002BEBD01A4B4FF080525A6040BFBFF37A
:109F20004F8FBFF36F8FE1E79A420AD9226807FB90
:109F3000032323B15B6913B1696828789847013618
:109F4000D8E79B1A07FB0383F4E7237A0133DBB2DC
:109F500023729AE7002301AA2946019373F099FA24
:109F6000019B002BCBD0064B4FF080525A6040BF74
:109F7000BFF34F8FBFF36F8FC1E700BF844B00204B
:109F800000ED00E0DCCF0B002DE9FF47474D074611
:109F900000F07F0005EB400606EBD7162536B479B6
:109FA00014F001044FEAD71E4FEA400306D0FEF733
:109FB000BDFA0446204604B0BDE8F08796F806C016
:109FC000DFF800814CF0010C86F806C003EB0E0CA4
:109FD0004FEA0C1908EB0C1C46469CF80BA0BAF192
:109FE000000F17D0324A1168C90700D500BE2B44B4
:109FF000734493F82B106FF3000183F82B1093F840
:10A000002B106FF3820183F82B101368DB07D1D577
:10A0100000BECFE748F80910ACF80420ACF80640C1
:10A0200008BB02BB234BD3F88034C3F3C0139E4557
:10A0300019D0214800F0B2FD204B59680394C1F3B8
:10A04000080100394FF4E06318BF012101A8CDE9F0
:10A050000144ADF804308DF808708DF80940FFF721
:10A06000F9FE0124A6E70125BEF1000F1AD106EB87
:10A070004012D57218B9124800F090FDF1E7BFF315
:10A080006F8FBFF34F8F937A03F0FF0443B1D37AFE
:10A0900003F0FF05002B8DD082F80AE000F0E6FE09
:10A0A0002C4687E700F06CFFFAE700BF844B0020E6
:10A0B000F0ED00E0007002405070024000ED00E062
:10A0C0004C700240DC4C00202DE9F04FB54B1B7862
:10A0D000FF2B93B0834600F029844FF47A7200235B
:10A0E00080024FEA9B5189F07BFB012838BF012099
:10A0F0000390AD4CBBF1FF3F606C26461BD0039B29
:10A10000BBF1000F14BF1A46002207A973F01AFA18
:10A11000002800F00B849DF81D30013B072B00F256
:10A12000B283DFE813F00A001C00B0031704260412
:10A130002B008D0332045A46E7E79DF81C00FFF719
:10A14000A1FC9A48142200218AF068F99DF8203079
:10A15000E371606C73F006FB0028CAD1E6E39DF85A
:10A160001C00FFF78FFC9148142200218AF056F959
:10A170008F4B002BEDD0AFF30080EAE7237A013B51
:10A18000DBB22372227A02F0FF03002AE1D1627966
:10A19000DFF818829DF81C50C8F8103042F0010218
:10A1A000627194F82B2063F3000284F82B2094F85A
:10A1B0002B2063F3820284F82B2094F82C2063F385
:10A1C000000284F82C2094F82C2063F382029DF87E
:10A1D000203084F82C2003F06002602A06D1754BF1
:10A1E0001B68DD0740F1DF8200BEDCE2402A0AD1B5
:10A1F000714BC8F8103008AA0121284670F06CFE97
:10A200000028A6D1CFE203F01F03012B00F03E820D
:10A21000022B00F08882002BE1D1202A20D19DF86A
:10A2200024300F2B00F2BF821E442379717A9942A9
:10A230000CD2236801EB410113EBC10100F0B382A2
:10A2400008AA0C312846FFF715FCD9E75A1D8A42A7
:10A25000C0F2A982594AC91A182303FB0121EFE76A
:10A26000002ABCD19DF82130092BB8D801A252F8A0
:10A2700023F000BF77A6020065A60200DFA102005E
:10A2800051A60200DFA102009DA2020003A5020068
:10A29000DFA10200D1A20200E5A20200DDE908016F
:10A2A000474BC8E90001D3F80014D3F8000400229A
:10A2B0000143C8E90222C3F80014C3F858214FF43F
:10A2C0008002C3F80423637943F00203637140E71B
:10A2D000A3798DF8383001230EAA08A928466FF01B
:10A2E000E3FF36E79DF822300193019AA3799A4261
:10A2F00000F08A80A379002B42D0324B8022C3F831
:10A300008420BFF34F8FBFF36F8F0127DFF8B0803A
:10A31000DFF8C0A0B94607F10C03BA1C09FA02F233
:10A3200009FA03F31343C8F80833BB0003F1804371
:10A3300003F51C33002159600AEB47109962202273
:10A3400001378AF06BF8082F4FF00001E3D11E4B64
:10A35000C8F808332022C8F81C151C48C8F8241077
:10A36000C8F848108AF05AF8C8F81495C8F810953B
:10A37000144B80225A60E7792846FFF783FBE77188
:10A38000019B002B00F0B780114B5A6912B1537832
:10A39000022B21D0074B1B68DA077FF520AF00BEE8
:10A3A0001DE700BF04400020844B0020B449012079
:10A3B00000000000F0ED00E0D9AE0900DCCF0B009A
:10A3C0000070024000E100E000083000DC4D002099
:10A3D000F0490020DC4C0020D379C3F38011C3F393
:10A3E00040131B0143EA4113617921F030010B4313
:10A3F00063715388D31802F109010293029B8B42C7
:10A4000009D8B74B002B73D1019BA37108A928462B
:10A410006FF006FF9DE64B780B2B03BF0B7891F88E
:10A420000390C9184FF001094B78042BB2D1029B5D
:10A430005A1A92B24FF0000A37795FFA8AF87B1DF8
:10A440009845A7DC47452ED93768182303FB0877C2
:10A45000002F9FD0BB682846CDE9041298470828F2
:10A46000DDE9041241D982423FD3B9F1010F0AD18B
:10A47000BB689C4A934208BF4FF002099A4A934234
:10A4800008BF4FF002090022D3B2994512D8974A6B
:10A49000084488421AD8954B1B79053398453FF7F5
:10A4A00079AF0146AAE7924BA8EB0707182000FBFB
:10A4B0000737CFE78F783B4456FA83F301325F7A50
:10A4C000FF2F7FF467AF83F80980DDE74B78052B1A
:10A4D00008D18F7807F07F0302EB430303EBD71318
:10A4E00083F819800B781944D3E70AF1010AA3E72E
:10A4F000AFF3008088E77F4B002B85D0AFF300805F
:10A5000082E7BDF82200030A5A1EC0B20E2A00F2EA
:10A510004A81DFE812F00F001A002B0048014801C1
:10A5200091001A00480148014801480148014801CA
:10A5300048011600704A122308A928466FF0B4FE9D
:10A540005EE66E4A32F80239F6E7022B06D16A4B14
:10A550005A69002A3FF443AE5388EDE7684B002B5D
:10A5600000F02181AFF300800246F2E7624E60B155
:10A57000032819D096F85031834240F214814830B4
:10A5800006F5AA7156F8200053E0D6F82031A6F857
:10A59000543101200130430043F44072A6F85221A7
:10A5A00003F0FE03574AC7E7D6F82C71002F3DD1C0
:10A5B0000AA870F001FD0DF1280C0346B6463A4694
:10A5C000D1B28B420EF1040E2DD94F4F0DF1380947
:10A5D00007F1100A38687968C846A8E80300083708
:10A5E0005745C146F6D11CF8018B474F08F00F01C3
:10A5F00012A801440DF1380A11F8101CAEF85211DE
:10A6000079683868D146A9E80300404908378F4285
:10A61000CA46F5D112A901EB1818013218F8101C1E
:10A62000AEF85011CCE75800C0B2B3E706F5AA71F6
:10A630003846FFF7ADF9F7E7354B002B00F0B38054
:10A64000AFF300800246002800F0AD80037873E786
:10A65000BDF82230012B40F0A680637943F0080357
:10A660006371D3E6BDF82230012B40F09C80637902
:10A670006FF3C303F4E76379C3F340129B0803F05D
:10A6800002031343ADF83830022325E69DF8243049
:10A690000F2B00F288801E442379717A994239D2B7
:10A6A000236801EB410113EBC1017CD008AA0C31F6
:10A6B0002846FFF7DFF900287FF44BAD9DF82030E6
:10A6C00013F060036FD19DF82120A2F10A01012946
:10A6D00069D80A2AC8F810307FF498AEF9E500BFAF
:10A6E000000000002DAE09008DA60900844B00205B
:10A6F000DCCF0B0000000000F0490020799E0D0027
:10A7000000000000424B002004D40D0014D40D00C2
:10A71000000000005A1D8A4245DBA24AC91A1823CC
:10A7200003FB0121C2E79DF8240000F07F0CBCF17F
:10A73000080F3FF654AD06EB4C0707EBD01794F823
:10A7400004E07F7E77454FEAD0114FEA4C0A16D2DB
:10A75000236807EB470703EBC70712BB9DF82120CF
:10A7600002F0FD0EBEF1010F24D0002A7FF437ADB8
:10A770005644314491F82B30C3F3400382E70EF185
:10A780000509B945C0F20981864BA7EB0E074FF0CA
:10A79000180E0EFB0737002AE0D008AA07F10C01BB
:10A7A00050E5002FF9D1002000F0C4FB802000F01C
:10A7B000C1FBCEE4BDF822E0BEF1000F2BD1012A8F
:10A7C0003BD106EB0A020A4425329279930722D53F
:10A7D00010F0770F11D0744A40F4807EC2F80C0557
:10A7E000C2F80CE5C2F8180519B90CF5947C42F8CA
:10A7F0002C10BFF36F8FBFF34F8F5644314491F845
:10A800002B306FF3410381F82B3091F82B306FF32D
:10A81000000381F82B30002F3FF49BAC08AA07F10E
:10A820000C012846FFF726F90023C8F8103094F8E9
:10A830002C30DE073FF58DACE8E5FFF76FFAEAE76D
:10A840009DF8201001F07F0706EB470606EBD116B6
:10A85000CA0996F82B006FF3000086F82B0096F8D3
:10A860002B006FF3820086F82B00002F4FD14F4D45
:10A870009DF81C602B78DDF82480B2EBD31F12D03A
:10A88000B8F1000F06D04A4B1B68DB077FF561ACBF
:10A8900000BE5EE42B69002B3FF45BAC2A4603212B
:10A8A0003046984755E495F90030002B07DBA8683F
:10A8B00000283FF44EAC3F49424689F087FDAA6824
:10A8C000EB8942444344AA60EA889BB29A42EB81F6
:10A8D00002D0B8F13F0F16D82B696BB995F900304B
:10A8E0000022002B1146B4BF38468020FFF74CFBF6
:10A8F00000287FF42EACC6E72C4A02213046984748
:10A900000028EBD150E730466FF0A2FCF0E7737EF1
:10A91000227993420DD2226803EB430312EBC30367
:10A920000FD1234B1B68D80700D500BE13B0BDE87C
:10A93000F08F501D9842F4DB1A489B1A182202FB34
:10A9400003031D699DF82120099B9DF81C00A84761
:10A95000FFF7FFBB6379D9077FF5FBAB164B002BE5
:10A960003FF4F7AB6079C0F3C000AFF30080FFF7AE
:10A97000F0BB6379DA077FF5ECAB104B002B3FF4AB
:10A98000E8ABAFF30080FFF7E4BB089B002B3FF47C
:10A99000E0AB09989847FFF7DCBB002A7FF403AFD0
:10A9A0001746DBE6DCCF0B0000700240B449012003
:10A9B000F0ED00E0C84901200000000000000000A8
:10A9C0002DE9F743DFF8D88098F80030FF2B0646D2
:10A9D000474648D1DFF8CC903822002109F1050024
:10A9E00089F01CFD09F14801012072F03DFD4D4642
:10A9F000C9F8400040B9274B1B6813F0010F46D13E
:10AA0000002003B0BDE8F08300230093D8F80820AD
:10AA1000B8F80610B8F8040008F1100372F064FCEE
:10AA2000D8F80C10044672F0B5FEC9F844402CB9B1
:10AA3000184B1B68DB07E3D500BEE1E7164B23B1DB
:10AA4000281DAFF30080C9F80000DFF85C900024F7
:10AA50004FF018082879E3B2421D934205DD3E709D
:10AA60000E4B80225A600120CBE7984208D9286813
:10AA700008FB030038B9074A126812F0010FBEE75D
:10AA80001B1A08FB0390036898470134E2E700BEF5
:10AA9000B7E700BFF0ED00E00000000000E100E0DB
:10AAA00004400020844B0020DCCF0B0070B501F087
:10AAB0007F05082D2A4B2B4C4FEAD11123D00122C0
:10AAC00002FA05F0C043A1B905F10C06B240C3F883
:10AAD0000823D3F814251040C3F8140501EB4501F1
:10AAE00004EB01110023CB72BFF36F8FBFF34F8FC5
:10AAF00070BDAE1CB240C3F80823D3F81025104037
:10AB0000C3F81005EAE704EB01120020A2F80801DF
:10AB1000D1B94FF48012C3F80823D3F8142522F4D6
:10AB20008072C3F81425C3F850110D4BB4F8080116
:10AB30000022C3F81C25B4F81821C24204BF4FF408
:10AB40000012C3F80823C9E74FF40062C3F80823D2
:10AB5000D3F8102522F48072C3F81025E5E700BF72
:10AB600000700240DC4C002001230360BFF36F8FB4
:10AB7000BFF34F8F074B984202D0043B984207D156
:10AB8000BFF35B8F044B002283F82021BFF35B8F60
:10AB9000704700BF50700240DC4C002010B40D4BD9
:10ABA000BFF35B8F01464FF00104D3E84F2FC3E89A
:10ABB0004C4FBCF1000FF8D1BFF35B8F12F0FF0FC9
:10ABC00005D005485DF8044B0122FFF719B95DF87F
:10ABD000044BC9E7FC4D00209DAB020043F2040387
:10ABE00007B51A68094B9A424FF000000AD18DF858
:10ABF00007000DF10700FBF7D5FF9DF807000038AF
:10AC000018BF012003B05DF804FB00BFDBE5B151C4
:10AC100007B5FFF7E3FF58B1002301A80193FDF743
:10AC200068FC0198003818BF012003B05DF804FBF0
:10AC30004FF08043D3F80C24D3F80C0410F4803088
:10AC400018BF02F00100F0E701281FB5044600F02C
:10AC5000B980022853D0002842D1774BD3F8002581
:10AC6000002A3DD14FF48002C3F808234FF400625C
:10AC7000C3F80024BFF36F8FBFF34F8F6F4B1B6878
:10AC8000082B10D16E4B1B68032B0CD86D4AD35C7C
:10AC90004BB16D4B6D4A1868032118BB49F27530F2
:10ACA000186011601860FDF72AFC48B1664B684ACD
:10ACB0001868C021C0B949F2753018601160186079
:10ACC0005D4B0124C3F80045BFF36F8FBFF34F8F77
:10ACD000FFF79EFF20B9FFF781FF38B1FDF70DFCAC
:10ACE00004B010BD1160DEE71160E9E7594B186050
:10ACF0001B680193019B4FF080431C60F0E74E4CB2
:10AD0000D4F804351BB1FFF783FF0028E8D1D4F84D
:10AD100000341B05FBD54FF40063C4F80034BFF3C7
:10AD20006F8FBFF34F8FFDF7EAFB48B1464B484AA0
:10AD30001868002840D149F2753119601060196017
:10AD40003E4B1B68082B0FD13D4B1B68032B0BD8C8
:10AD50003C4AD35C43B13C4B3C4A186878BB49F24F
:10AD60007531196010601960FDF7C9FB48B13A4BA5
:10AD700040F2E3721A6040225A60BFF36F8FBFF354
:10AD80004F8F2D4C354880220121C4F81C25C4F872
:10AD900004133349C1F884210078FF2800D04A60A9
:10ADA000FFF736FF0028FBD00123C4F80435BFF3BA
:10ADB0006F8FBFF34F8F93E700231360C0E700232B
:10ADC0001360D1E71C4BD3F80025002A88D000225D
:10ADD000C3F80425BFF36F8FBFF34F8F2049802046
:10ADE000C1F88400BFF34F8FBFF36F8FD3F8001308
:10ADF000C3F80813C3F80025BFF36F8FBFF34F8F5D
:10AE0000FFF7ECFEA0B1FDF776FB164B5968C1F3D6
:10AE1000080100230039CDE90133039318BF012154
:10AE20004FF4007301A8ADF80430FFF713F857E7AB
:10AE30000D4B1C60E9E700BF0070024030010010BC
:10AE4000340100106CD00B0000EC064014ED0640FD
:10AE500014EC06400001004000780240044000204D
:10AE600000E100E000ED00E004000040F0B42B4AF7
:10AE7000BFF35B8F02F590734FF00104D3E84F1FCF
:10AE8000C3E8454F002DF9D1BFF35B8F11F0FF0FE1
:10AE900014460BD0224B5A68C2F30802003A01460E
:10AEA000F0BC204818BF0122FEF7AABF08281E499F
:10AEB00019D1D1F8C034D80308D5BFF35B8F002374
:10AEC00084F82031BFF35B8FF0BC704792F80B0120
:10AED0000028F2D0D2F800211448C1F8A027C1F808
:10AEE000A437F0BC40E602EB401500F59473460130
:10AEF00051F82340EF88AB88DB1B9BB2A4B2A3427E
:10AF000028BF23469459142202FB0011C1F80047C0
:10AF1000C1F80437064B03EB8000E2E7DC4C00206D
:10AF200000ED00E07DAF020000700240487002407A
:10AF30002870024010F07F0108B507D10D4B0122A7
:10AF40005A65BFF36F8FBFF34F8F08BD0829F8D044
:10AF5000084B40F48072C3F81825C309F1D1064AA2
:10AF600002EB4112907A0028EBD093720846FFF76B
:10AF70007DFFE6E700700240DC4C0020C0B275E7C0
:10AF80000C4B03EB4013D98A9A8A521A198B92B24E
:10AF90008A4228BF0A4619691423434303F18043B8
:10AFA00003F51C33C3F80016C3F80426024B03EB69
:10AFB0008000F3E5DC4C0020047002402DE9F04FE6
:10AFC000C34BC44AD3F80013002385B01C460120AC
:10AFD0001D4621FA03F6F6070BD552F8236046B159
:10AFE00000FA03F6344342F82350BFF36F8FBFF3E8
:10AFF0004F8F0133192BECD1E7073BD5B44B01221E
:10B00000C3F81425C3F8102500221546930003F158
:10B01000804303F51C330132082A5D609D62F5D13F
:10B02000AB4B5D629D64C3F85851D3F80024D3F84C
:10B0300000140A43C3F80024D3F80023C3F80823FC
:10B04000A54AC3F80423A54B4FF492720021184679
:10B0500089F0E4F94022028302814FF480730121D8
:10B0600001A8CDE901550395ADF804308DF80850DD
:10B07000FEF7F0FE14F4006F984D08D0944BD3F80F
:10B08000A8369BB2A5F81631012385F81C31A6021B
:10B0900004F4800736D58E4ED6F8143513F4807339
:10B0A00008D01FB1D6F80034D80702D40820FFF723
:10B0B000DDFE0123D6F81025D10540F15D8195F81C
:10B0C0001C319BB1B5F8163100229BB2CDE90122AB
:10B0D00085F81C2103934FF4E0628823012101A825
:10B0E000ADF80420ADF80830FEF7B4FE0023CDE93A
:10B0F0000133039301214FF4407301A8ADF80430EC
:10B10000FEF7A8FE002F37D0714BD3F8006440F251
:10B1100001723240C3F80024F2050DD50121C3F8B5
:10B120002C150023CDE90133039301A84FF480636C
:10B13000ADF80430FEF78EFE77050FD5644B012283
:10B14000C3F808259A65D3F8002312F4001208BF4B
:10B15000C3F854214FF40012C3F80423B0050BD5F3
:10B160000023CDE90133039301214FF4A06301A82B
:10B17000ADF80430FEF76EFE21023BD5544BD3F8F8
:10B1800080E4D3F88424D3F88814D3F88C74D3F8EB
:10B190009064D3F894045FFA81FCD3F89814D3F840
:10B1A0009C341EF07F0F5FFA8EF8D2B2FFB2F6B277
:10B1B000C0B2C9B2DBB201D1052A1BD04FF0000EDC
:10B1C000ADF806E08DF80D004FF4C06E8DF80E104E
:10B1D00001A80121ADF804E08DF808808DF8092060
:10B1E0008DF80AC08DF80B708DF80C608DF80F305B
:10B1F000FEF730FE3A4B23406BB1BFF35B8F95F8FF
:10B200002031BFF35B8F002B40F0BE80354B1B68B5
:10B21000DA0700D500BEDFF8C480DFF8B490DFF8AD
:10B22000CCB0474600264FF0140A06F10C0324FA6E
:10B2300003F3DB07F1B224D50AFB06933A68D3F88F
:10B24000083705EB461C12FA83F23A60BCF806E0B8
:10B2500098B273449BB2082E4FEA4612ACF80630FF
:10B2600000F09A803B89834240F09680BCF806301B
:10B27000B8889BB2984240F28F8011B95846FFF7C8
:10B280008DFC0136092E07F12007CED1164B234045
:10B29000002B00F089800E4BD3F86C74C3F86C74EB
:10B2A000BFF36F8FBFF34F8F14F4806408D0D3F8CF
:10B2B0008044D3F880341906C4F3C01440F18D8063
:10B2C0004FF00009DFF808A000264FF0140B0FE044
:10B2D00000700240007102400514C001DC4C0020E7
:10B2E000FCFB1F00F0ED00E0000400014C70024088
:10B2F00027FA06F3DA07F0B201D4D6B9CCB10BFBCA
:10B3000006A3D8F81020D3F8083652FA83F2C8F80A
:10B31000102005EB4612D18A89B251FA83F39BB211
:10B32000D382D38AB8F814109BB2994258D9FFF748
:10B3300027FE0136082E08F12008D9D10024012665
:10B3400004F1100327FA03F3DB07E0B203D47CB95E
:10B35000B9F1000F0CD005EB44116301CA7A002A41
:10B3600053D0CA88898892B291424ED9FFF77EFDA8
:10B370000134082CE4D117E0002B7FF4B7AE4FF472
:10B380000013C6F80833B1E60023BFF35B8F85F8DE
:10B390002031BFF35B8F3EE72A44D37A3BB91C4B85
:10B3A0001B68D80700D500BE05B0BDE8F08FD38874
:10B3B000BB800023D372D2884FF4E060CDE9013323
:10B3C00092B2ADF804008DF8081001A80121039293
:10B3D0008DF80930FEF73EFD53E74FF0010971E7A4
:10B3E000D28A00234FF4E06160F07F00CDE90133A1
:10B3F00092B2ADF804108DF80800012101A8039263
:10B400008DF80930FEF726FD93E72B449E72AFE7D7
:10B41000F0ED00E0034B43F602229A87002283F806
:10B420003E207047004E002010B4114B02209A6B52
:10B4300083F82C10996883F8300093F83C008A1A3E
:10B440009A6220B942F205049C8783F83E0059B104
:10B4500052B11A7B5DF8044BD20914BF93F82E0049
:10B4600093F82F00FEF75ABC5DF8044B704700BFFD
:10B47000004E002038B5134C0546607B6FF02EFD62
:10B4800048B942F2077384F83E00A3872846012199
:10B49000BDE83840C8E7A268A36B94F82F00D21A21
:10B4A000B2F5007F28BF4FF4007292B204F1400160
:10B4B000FEF76AFD20B9044B1B68DB0700D500BE10
:10B4C00038BD00BF004E0020F0ED00E008B5FFF7EA
:10B4D000A1FFBDE808400121A6E702484022002163
:10B4E00088F09CBF004E002002484022002188F0D6
:10B4F00095BF00BF004E00202DE9F041AC4C0D4639
:10B5000094F8301001298AB0074600F042810329DF
:10B5100000F07381002945D194F82F20AA4201D070
:10B52000012011E01F2B03D12268A24B9A420ED0BA
:10B5300094F82E00042384F83030FEF7EFFB94F8E3
:10B540002F00FEF7EBFB00200AB0BDE8F0819A4B1C
:10B5500023626368A26884F82C10C4E909310123CE
:10B5600084F83030E37BC4E90D2103F0FD01282984
:10B570003FD1E18A49BA89B23AB9002900F0038182
:10B5800002213846FFF750FF0CE0282B27D1207B03
:10B59000C009F5D0A1B38A42F2D3282B25D1384671
:10B5A000FFF794FF94F83030022BB9D194F82E00B5
:10B5B000824B00F07F0203EB420303EBD0132033F6
:10B5C0009B799B07ACD4A368A26B934240F23B816A
:10B5D000217BC90900F03781FEF7A0FBA0E72A2BE9
:10B5E000D8D1207BC009D5D0CAE73846FFF742FF43
:10B5F000D8E7A2B1217BC90911D1B2F5007F01D9E9
:10B600000121BEE76E4992B22846FEF7BDFC002834
:10B61000C8D16C4B1B68DC0795D500BE94E7252B81
:10B6200094F80D8006D8192B0ED8032B75D0122B49
:10B630003FD093B394F83C30002BE1D142F20502A5
:10B64000A28784F83E30DBE71A3B0B2BF2D801A22D
:10B6500052F823F001B7020085B6020035B60200A9
:10B6600035B6020035B6020035B6020035B6020026
:10B6700035B6020035B60200A9B6020035B60200A2
:10B680009BB60200E17C4046C1F3400301F0010299
:10B6900009096FF026FC002871D194F83C30002B8A
:10B6A000C8D1FFF7B7FEC5E70023CDE90133039307
:10B6B000F3E7454B424E0021CDE901314FF02038F0
:10B6C0001F231022202105A88DF80830CDE903881A
:10B6D00001AD88F0A3FECDF824800FCD0FC60FCDAD
:10B6E0000FC62420C6F80080A268002A88D08242B3
:10B6F00028BF02466263324994F82E0092B284E772
:10B7000040466FF0EBFB80F00103DBB2DB0543F05A
:10B710000303019323640420E6E71222002101A819
:10B7200088F07CFE94F83C0094F83D1094F83E209C
:10B730008DF81010F0238DF804304FF0000360F303
:10B7400003038DF806300A238DF80B308DF8112095
:10B7500001AD0FCD1A4E0FC62B6833801B4BB3B112
:10B760004FF40072A6F110014046AFF300800023B1
:10B770009842A38784F83E30FFF65CAFB4D1A3684B
:10B78000002B7FF43DAF022384F830300AE712200B
:10B79000EDE7A56BE27B2B44282AA36303D1626B00
:10B7A0009A42F0D9FBE62A2A12D1FFF733FEE8E6E7
:10B7B000004E00205553424355534253894B0020BD
:10B7C000404E0020F0ED00E000800202000000008A
:10B7D000237BDB0906D142F20502A28784F83E30C2
:10B7E000FFF722FED4E90D329A42CCD21C4B1B68E3
:10B7F000DA077FF5D7AE00BED4E694F82E20AA4231
:10B800007FF4D0AE0D2B7FF4CDAEE37B282B09D097
:10B810002A2B14D0134B53B1607B04F10F01AFF30B
:10B82000008004E0104B13B1607BAFF30080002375
:10B830000E4994F82F0084F830301F22E5E6607B33
:10B840006FF04EFBF3E79B1AA362094903230D2215
:10B8500084F83030FEF798FB00287FF461AED8E61C
:10B86000F0ED00E00000000000000000004E0020AD
:10B87000204E0020012973B50646154613D11378D2
:10B8800003F07F02022A42D16C78012C3FD16A88F2
:10B89000002A3CD13749A88891F83030042BC0B237
:10B8A00003D1FEF73BFA012017E091F82E209042D9
:10B8B00015D1022BF7D18A6B8B689B1A8B620323FD
:10B8C00081F830300D222031FEF75EFB0028EAD1EE
:10B8D000294B1B68DB074AD500BE02B070BD91F84A
:10B8E0002F40A042DFD1002BDDD1244A04F07F039A
:10B8F00002EB430303EBD41320339A79D107D2D45C
:10B900009B799A07CFD41B491F222046DCE703F01E
:10B910006003202B2BD16B78FE2B13D0FF2B26D16D
:10B920006B8823BBE9888AB20ABB124B30469987E1
:10B930002946C3E90D2283F8302083F83E206EF0BB
:10B940006FFCB0E76B8893B9EC88012C0FD18DF8B0
:10B9500007406FF0C8FA50B1431E8DF807300DF163
:10B9600007022346294630466EF09EFC9BE70020E6
:10B97000B3E700BF004E0020F0ED00E0894B00204F
:10B9800037B54B79082B02D0002003B030BD8B793E
:10B99000062BF9D1CB79502BF6D1162A05D8174BA7
:10B9A0001B68D907F0D500BEEEE7154C8B7884F8FC
:10B9B0002D3004F12E030D78019304F12F03009331
:10B9C00002231A462944FEF7E9F928B90B4B1B68F4
:10B9D000DA07D9D500BED8E7002394F82F0084F801
:10B9E00030301F222146FEF7CFFA20B9034B1B68E7
:10B9F000DB0700D500BE1720C7E700BFF0ED00E071
:10BA0000004E00208278884202D28378934200D090
:10BA10007047037818448142F5D94378042BF2D05B
:10BA20000B2BF6D1EFE7884202D24378934200D144
:10BA3000704703781844F6E738B514461D46884227
:10BA400001D3084638BD8378A34202D1C378AB4204
:10BA5000F8D0037804221844FFF7E5FFEFE710B5AC
:10BA60001446884201D3084610BD837803F0FD02D6
:10BA7000052A01D0112B02D1C378A342F4D0037858
:10BA800024221844FFF7CFFFEBE738B50A4D1446E0
:10BA9000884201D3084638BD8378112B06D825FA91
:10BAA00003F3DB0702D5C378A342F4D00378242242
:10BAB0001844FFF7B8FFEBE750100200C3883BB112
:10BAC000027804490B2000FB0212106818447047EA
:10BAD00018467047405000202DE9F0410C46FFF712
