:020000022000DC
:1060000000000420E9350A0029360A0059450A0033
:106010002D360A002F360A0031360A000000000033
:106020000000000000000000000000008D340A00A5
:1060300035360A0000000000AD340A0039360A0087
:1060400021380A003B360A0071120A00BDFE090021
:106050003B360A003B360A0085140A003B360A002C
:106060003B360A003B360A003B360A003B360A0044
:106070003B360A003B360A003B360A003B360A0034
:106080003B360A001D320A003B360A003B360A0046
:106090003B360A003B360A0025050A003B360A005B
:1060A0003B360A003B360A003B360A003B360A0004
:1060B0003B360A003B360A000000000000000000EA
:1060C0003B360A003B360A003B360A00C53C0A0054
:1060D0003B360A003B360A003B360A005DFA0900EF
:1060E0007D120A003B360A003B360A000000000021
:1060F000000000003B360A0000000000F53C0A00EA
:10610000000000000000000000000000000000008F
:10611000000000000000000000000000000000007F
:10612000000000000000000000000000000000006F
:10613000000000000000000000000000000000005F
:10614000000000000000000000000000000000004F
:10615000000000000000000000000000000000003F
:10616000000000000000000000000000000000002F
:10617000000000000000000000000000000000001F
:10618000000000000000000000000000000000000F
:1061900000000000000000000000000000000000FF
:1061A00000000000000000000000000000000000EF
:1061B00000000000000000000000000000000000DF
:1061C00000000000000000000000000000000000CF
:1061D00000000000000000000000000000000000BF
:1061E00000000000000000000000000000000000AF
:1061F000000000000000000000000000000000009F
:1062000010B5054C237833B9044B13B10448AFF3F0
:1062100000800123237010BD004A00200000000010
:106220004C8C0D0008B5034B1BB103490348AFF379
:10623000008008BD00000000044A00204C8C0D00C6
:10624000A3F5803A704700BF174B002B08BF134BD4
:106250009D46FFF7F5FF00218B460F461348144A71
:10626000121A89F053FE0E4B002B00D098470D4BAD
:10627000002B00D098470020002104000D000D489D
:10628000002802D00C48AFF3008089F005FD200003
:1062900029007DF0EBF989F017FA00BF0000080033
:1062A000000000000000000000000420004A002060
:1062B0008CBE012000000000000000007047704705
:1062C000704770477047F0B59DF820C0BDF9186061
:1062D0009DF81C709DF824E0BDF9145004680595E4
:1062E000CDE908CECDE906676469A446BDE8F04073
:1062F00060478172704770472DE9F3411D4603687E
:10630000BDF820801B69044617460E469847CDE924
:10631000007822686B1E3344556A20461BB23A4609
:106320003146A84723689B6A204602B0BDE8F04189
:1063300018472DE9F3411C460368BDF820801B690E
:1063400005461646013C34440F4624B298472B6854
:10635000CDF8048000945C6A28463B4632463946B4
:10636000A0472B689B6A284602B0BDE8F041184759
:1063700070474020704720207047102070477047BA
:106380006FF0180070476FF0180070476FF018003A
:10639000704770476FF01800704700207047BBEEE1
:1063A000090A704784B004A800E90E006FF01800D5
:1063B00004B070476FF0180070476FF01800704716
:1063C0000368D3F8E03018470368D3F8DC30184787
:1063D0004AB116290B466FF00800A8BF1623834266
:1063E000B8BF034613700931C9B220292CBF6FF022
:1063F0000C0000207047836841601944C1607047F9
:1064000000207047002070471C3070470120704703
:10641000704724307047084A8B8992F8300108B1E0
:10642000422B08D0012B05D00A3B012B8CBF00204A
:106430000120704718467047A8850020006A431E57
:106440005842584170470020704747F2305070471B
:106450002038704790F83C00831E584258417047DE
:106460002038704790F83800831E584258417047D2
:1064700000207047007B704700207047006A431E71
:10648000584258417047024B93F85801704700BF7B
:10649000A8850020014B93F849017047A88500208A
:1064A0000020704720387047002070470120704757
:1064B0000020704700207047014B93F8620170473D
:1064C000A8850020704770474B6A032B01BF034B20
:1064D0001B68B3F850300384002070479C370120BC
:1064E000F2E7F1E71C307047002070470068096848
:1064F00003689B68184700207047C0F880117047F8
:1065000080ED5F0A704700207047006809680368E3
:106510009B6818470068096803689B68184700680B
:10652000096803689B68184770477047022A06D0BD
:10653000032A02D0012A00D10160002070470B68B5
:106540000360FAE7F2E7012A08BF01600020704704
:10655000F9E7F8E7F7E7F6E7F5E7F4E7F3E7F2E757
:10656000F1E7F0E7EFE7EEE7EDE7ECE7EBE7EAE787
:10657000E9E7E8E7E7E7E6E7E5E7E4E7E3E7E2E7B7
:10658000E1E7E0E7DFE7DEE7DDE7DCE7DBE7DAE7E7
:10659000D9E7D8E7D7E7D6E7D5E7D4E7D3E7D2E717
:1065A000D1E7D0E7CFE7CEE7CDE7CCE7CBE7CAE747
:1065B000C9E7C8E7C7E7C6E7C5E7022A06D0032A46
:1065C00002D0012A00D10160002070470B680360EF
:1065D000FAE7F2E7F1E7F0E7EFE7EEE7EDE770471C
:1065E000203870472038704701207047007B704783
:1065F00000207047012070477047704770478278CD
:10660000884202D28378934200D0704703781844BE
:106610008142F5D94378042BF2D00B2BF6D1EFE76A
:10662000884202D24378934200D1704703781844DD
:10663000F6E738B514461D46884201D3084638BDF2
:106640008378A34202D1C378AB42F8D00378042206
:106650001844FFF7E5FFEFE710B51446884201D371
:10666000084610BD837803F0FD02052A01D0112BE6
:1066700002D1C378A342F4D0037824221844FFF750
:10668000CFFFEBE738B50B4D1446884201D30846DF
:1066900038BD8378112B06D825FA03F3DB0702D522
:1066A000C378A342F4D0037824221844FFF7B8FF3C
:1066B000EBE700BF50100200C3883BB102780449E9
:1066C0000B2000FB021210681844704718467047F0
:1066D0001C4A00202DE9F0410C46FFF7EDFF18B1F0
:1066E000A278037B9A4205D9484B1B68DB073DD54E
:1066F00000BE3BE02AB9012B01D9012037E001227D
:10670000A2706FF03F03A3766FF00303E3766FF0A0
:1067100064032377032300254FF00108A3770823A0
:1067200084F808806572A572E57284F80E80E573BE
:106730002574657484F81D8084F81F8084F8208097
:1067400084F8218084F8225084F823300378B0F84C
:106750000D10194401441844FFF794FF884206467F
:10676000C2D08778042F04D0062F05D00020BDE8C2
:10677000F08184F80C806573E27833799A42B3D85B
:106780001AB9012BB9D80122E27030783044FFF7F2
:1067900063FF8842A8D0D4F812302BB9042F25D03B
:1067A000062F2CD0C4F81230626852B9417E0129FC
:1067B000A3D8D0F81A2019B9D0F81E1091429CD154
:1067C000626042F20F718A428ED9013B42F210712F
:1067D000B2FBF1F21344B3FBF2F30233B3F5807F63
:1067E00028BF4FF48073C4F8163086E7B0F807303E
:1067F000B0F805205A43737D5343DB08D2E7B0F865
:106800000520B0F8073053431B01F6E7F0ED00E038
:10681000012057F062BBFBE70448002141600160A2
:10682000C0F8071050220C3089F070BB1C4A0020C1
:106830000448002141600160C0F8071050220C306C
:1068400089F064BB1C4A00202DE9F04F2DED028B2E
:1068500087B008EE100ABDF94870BDF94C809DF86C
:1068600050909DF854A09DF858B0CDE900370C46E3
:1068700015461E46CDE904AB1346CDE902890A460A
:1068800026214AF070FCCDE904ABCDE90289CDE9BF
:10689000006718EE100A2B46224624214AF063FCBA
:1068A00007B0BDEC028BBDE8F08F10B50C2104469B
:1068B0007CF024FF204610BD10B5342104467CF046
:1068C0001DFF204610BD024B0248198879F0E9BD32
:1068D000AA2D012028660120024B0348198879F06F
:1068E000E0BD00BFAA2D01202866012070B5054635
:1068F0000C464CB1E1682846FFF7F8FFA668204631
:106900007BF038F93446F4E770BD70B505460C46A7
:106910004CB1E1682846FFF7F8FFA66820467BF0F7
:1069200029F93446F4E770BD70B505460C464CB104
:10693000E1682846FFF7F8FFA66820467BF01AF9C1
:106940003446F4E770BD70B505460C464CB1E168BD
:106950002846FFF7F8FFA66820467BF00BF934467F
:10696000F4E770BD10B50446006808B17BF002F989
:10697000204610BD11B108307AF050BF704713B5F2
:106980000A4C2068403056F0D5FC206800210AF0FF
:1069900013FA074B01221A7000230193054B01A93A
:1069A00018687BF009FB02B010BD00BFD037012092
:1069B0005837012098560020E1E7E0E710B504467B
:1069C00078F0D8F8204610BD10B5046844B1201DF9
:1069D00078F0D0F820461421BDE810407CF08EBE3F
:1069E00010BD07B500680B680168019301EB031146
:1069F000C3680BB982F01DFF036901AA04309847F0
:106A000003B05DF804FBECE707B500680B680168AC
:106A1000019301EB0311C3680BB982F00AFF03690C
:106A200001AA0430984703B05DF804FB07B500687D
:106A30000B68026801930C2101FB0321C3680BB9A9
:106A400082F0F7FE036901AA0430984703B05DF8AD
:106A500004FBEBE707B500680B68026801930C21A3
:106A600001FB0321C3680BB982F0E3FE036901AAAD
:106A70000430984703B05DF804FBEBE7EAE7E9E789
:106A8000034607B59A680191013A08469A6082F078
:106A9000F7FC019803B05DF804EB7BF06BB82DE9CF
:106AA000F843314CA38A0E46002B54D0207B0B2296
:106AB00002FB0042126813449B788B424BD1D4E90D
:106AC00007329A423CD2304603F0E8FC002847D017
:106AD00094F85C00216AE369D4F82480471A1F44C3
:106AE000B845454628BF3D46A8420ED91F4B1D68F4
:106AF00015F0010501D000BE00251D49AAB230469F
:106B000003F0EEFEB0B101202BE0A369A5EB000974
:106B1000204419444A465C3089F0D0F9236AB845CC
:106B20004B44236222BF94F85D3043F0020384F8A3
:106B30005D30E2E70D4B1B68DA0711D500BE10E0AF
:106B40000023C4E9063323620A4B002BDBD0617BB0
:106B5000AFF30080D7E7054B1B68DB0700D500BE0D
:106B60000020BDE8F88300BF1C4A0020F0ED00E0E3
:106B7000784A0020000000002DE9F04716460B7807
:106B8000404A0C460B2101FB03231F68238963B194
:106B90003B440025987803F087FD6389258123B164
:106BA0003B44987803F080FD65814FF000096088D0
:106BB000B4F80480C4F81490C4E903993844B84484
:106BC000827833464146FFF734FD8045054602D8BA
:106BD0000020BDE8F08790F804A0BAF1020F05D9B3
:106BE000294B1B68DA07F3D500BEF1E7C31BE3802E
:106BF00066B1287804F10809054409EB4A0ACA4538
:106C00001ED10EB1022363770120E2E7637F012BDF
:106C1000EFD004F11E0331466677A6613022184694
:106C200089F074F901462046FFF754FD0028E0D1B1
:106C3000CEE76B78052B06D0042BD1D02B781D44E2
:106C4000A845F6D8CCE7EB7803F003038EB1012B0F
:106C500005D1AA88A369C2F30A029A42B8D328468A
:106C600003F052FC40B9084B1B68DB07B0D500BEEF
:106C7000AFE7022BF3D0ABE7EB1B29F8023B2B78F5
:106C80001D44BCE71C4A0020F0ED00E0F8B50F6899
:106C90000E46898813463944BA783846FFF7C9FC4E
:106CA0008142044601D80020F8BD037D012B05D99F
:106CB000114B1B68DA07F6D500BEF4E70379B3B1D0
:106CC000012BF0D10378C5891D444119407A18443D
:106CD00005222044FFF7A4FC8142E4D903F014FC10
:106CE00028B9054B1B68DB07DDD500BEDCE7E41BDC
:106CF000F4800120D8E700BFF0ED00E02DE9F04777
:106D00001378154603F01F02012A8EB00746884605
:106D10004AD1DFF80093A988D9F800205FFA81FCF6
:106D20004E46002A00F0E3809478644540F0DF800E
:106D3000C3F3411A13F0600F544603D0012C67D0FF
:106D400007230BE06B780A2B0BD00B2B25D0B04B15
:106D5000186810F001004FF0070355D189F8093089
:106D600022E0B8F1010F03D000237372012410E078
:106D7000EB88012B16D1B9F806100A442946D278BF
:106D80008DF8082002AA77F0F9FF044650B189F87F
:106D900009A020460EB0BDE8F087B8F1010FE3D19D
:106DA000EB881BB1FF2373720024F2E7F1885318BC
:106DB0001879A0B1525C587AD98910441144194409
:106DC00005221844FFF72CFC814205D8904B1B6824
:106DD000D807E7D500BEE5E7807803F065FC4FF003
:106DE000000886F8068086F807806A888949384650
:106DF000FFF74CFF04460028D4D02946384677F0E8
:106E000079FF86F80980C4E700BE89F80930C0E739
:106E10000C0A55D16B881A0A012A0AD0022A3CD0E2
:106E20007B4B186810F001004FF00703BBD000BE89
:106E3000B9E76B78812B22D0862B25D0012BEFD19F
:106E4000B8F1010F0BD1EB88012BABD1724A0123B2
:106E50002946384677F092FF002885D1A2E7B8F19D
:106E6000020F81D16D4B002B3FF47EAFB17A002031
:106E7000AFF300807072B0FA80F4640989E7B8F16A
:106E8000010F7FF471AFDEE7B8F1010F7FF46CAF53
:106E9000EB88012B86D1624ADAE76B78812B08D028
:106EA000862BBDD1B8F1010F7FF45EAF5D4A43463A
:106EB000CEE7B8F1010F7FF457AF5B4A0123C7E774
:106EC000F388D018D15CC3891944014481427FF60C
:106ED0004BAF8378023B052B03D8C378A3423FF422
:106EE00043AF037824221844FFF79AFBEEE7F089BA
:106EF00000283FF459AF337B0B2202FB03631C686D
:106F00002044837863457FF44FAF2B78C3F3411956
:106F100013F0600F484629D0012876D10C0A74D1AD
:106F20006B881A0A022A00F0C781062A63D0012A58
:106F300066D196F829300BB186F8294095F8019072
:106F4000B9F1010F00F0878009F17F03DBB2062B56
:106F500056D8A9F18103062B52D8DFE813F0B60109
:106F60008F008F008F000202A2018F006B780A2B26
:106F70000BD00B2B2AD0264B1C6814F001044FF0C9
:106F8000070334D186F8283003E7B8F1010F03D0A6
:106F9000002386F82830E9E6EB88012B40F0F881E1
:106FA0002248FFF789FB002800F0F281C3788DF8B2
:106FB000083002AA43462946384677F0DFFE0446E9
:106FC000002800F0E58186F82890E2E6B8F1010F8C
:106FD00076D16A8815493846FFF7CEFD0446002869
:106FE00000F0D6812946384677F084FEEBE700BEF4
:106FF00086F82830D8E66B78812B19D0862B24D0E0
:10700000034B1B68DB0700F1C1810723F0E700BFDA
:10701000F0ED00E01C4A0020264A0020000000009D
:1070200085590B0084590B00254A0020284A00206E
:10703000B8F1010FACD1AF4A43462946384677F044
:107040009DFE0028A4D1FF23D2E7B8F1010F9FD104
:10705000A94A0123F1E7B8F1010F02D1A74A302371
:10706000EBE7B8F1020F93D1A449A1F11E00FFF79D
:1070700031FB044600288BD1082383E7B8F1010FC8
:1070800086D1EB88002B00F083819C4B02AA03F190
:10709000300E1446186859689446ACE8030008336B
:1070A00073456246F6D19DF80A20BABBB9F1830F49
:1070B00009D0B9F1870F2FD0B9F1820F2CD0082059
:1070C00086F82800D7E68E48FFF7F6FA10B1037B62
:1070D0008DF80A304FF001130121CDE9041300238C
:1070E000ADF818304FF6C043ADF8223040F29B1394
:1070F000ADF8243040F20313ADF82630814B0A93EB
:10710000224630232946384677F038FE04460028C8
:1071100000F03E81002335E70123D9E79DF80BA05D
:107120000192BAF1000F48D17548FFF7C5FA019AEC
:1071300028B9754B1B68DA07C1D500BEBFE70378D5
:10714000B0F80D10194401441844FFF79BFAB9F147
:10715000830F804607D0B9F1870F19D0B9F1820F9C
:10716000ADD1012200E002798DF80B2098F80000E3
:107170004044FFF771FA98F80230042B11D0062B27
:107180009DD1B0F80520B0F8073053431B0110E043
:107190008378042B03D0062B91D18279E4E7827D9A
:1071A000E2E7B0F80730B0F805205A4398F81530F8
:1071B0005343DB08CDF81A30A2E7DDF80C80B8F1B4
:1071C000000F9DD14E48FFF777FA019A0028B0D002
:1071D0000378B0F80D10194401441844FFF752FA2F
:1071E000037852461844A9F18209FFF735FAB9F13C
:1071F000050F3FF664AF01A353F829F0497202006E
:107200001572020071720200BF700200BF700200AE
:1072100063720200437EA3B1053300EB8303D3F80E
:107220000280D0F81A3042F21072B3FBF2F3CDF8BC
:107230000C80B8F1000F22D1ADF81E80ADF820808F
:107240005EE7D0F81E80ECE7437E3BB1053300EBF0
:107250008303D3F80230D0F81A80E4E7D0F81E3068
:10726000F9E7D0F8158042F21073B8FBF3F3DEE7CC
:10727000437E13B9D0F82280F5E70023D7E7DDF885
:107280001A2043B9931CB3F5807F28BF4FF4807355
:10729000CDF81E3034E7013A1A44B2FBF3F302335F
:1072A000F1E7B8F1010F7FF473AEEB88012B7FF4A7
:1072B000CAAE4346154AC0E66B78852B51D00DD82F
:1072C000012B25D0812B7FF49BAEB8F1010F7FF409
:1072D0005FAEEB88002B7FF4C1AEB4E6862B7FF463
:1072E0008FAEB8F1010F7FF453AEEB88012B7FF422
:1072F000AAAEDFE7444A002084590B00464A00202A
:10730000284A002001010008F0ED00E085590B003B
:10731000B8F1010F3FF4A2AEB8F1020F7FF438AE1E
:107320001C4A1146A2F11E00FFF7D4F9194A04467F
:1073300000283FF4A1AE336C7362174B33B1717BFD
:10734000307BAFF3008000287FF422AE0023C6E933
:10735000063333620223A6F85C304FF48073338522
:1073600017E5B8F1010F7FF413AEEB88022B7FF421
:107370006AAE3022ADF80820294602AA384677F0D6
:10738000FDFC044600287FF4C5AE5CE600BE3CE68A
:10739000FF2095E6464A0020000000002DE9F04F4E
:1073A0002DED028B4B790E2B08EE100A83B00D46A3
:1073B000174605D0002003B0BDEC028BBDE8F08F6E
:1073C0008B79012BF6D1CB79012BF3D12D4CD4F84D
:1073D0000080B8F1000F4ED12160A28021464246C4
:1073E000FFF754FC0028E5D0E28823682F441344BB
:1073F0003946284693F814A0FFF701F904F1080B69
:1074000006465FFA88F9CA4503D8751BA8B2A5805D
:10741000D1E7E2897ABB731B0BF8012B3946304662
:1074200022730192E381009384F80D90FFF7E7F84F
:10743000019A009B84F82920411B06462182B9F15C
:10744000000F02D008F10108DBE7BAF1010FF9D112
:1074500015FA83F015FA81F182785346FFF7E9F8BF
:107460008142EFD1084918EE100A4A46FFF784FB23
:107470000028E7D19EE7054B1B68DB079AD500BEC5
:1074800098E700BF1C4A0020284A0020F0ED00E0E9
:10749000F0B501F1200C00254FF0000E51F8043B2F
:1074A00005F001055E1B52F8043B6EEB4E07F41A23
:1074B00067F10005614540F8044BEFD105F001008C
:1074C000F0BD08B5D0E900031B1A6FF000408342FD
:1074D00002D1074882F088F9012B1A4638BF0122F1
:1074E0009B1804D2002BACBF18466FF0004008BDBB
:1074F000AF580B0008B5D0E900031B1A9810094BD0
:1075000043430948834202D1084882F06DF9012BB8
:107510001A4638BF01229A1802D2904228BF10465C
:1075200008BD00BFABAAAAAAAAAAAA0AAF580B0014
:10753000034610B41B681C68084611462CB1A446CB
:107540009B685DF8044B0122604702205DF8044B04
:10755000704710B548B1046954B184680123A0474D
:10756000002818BF6FF0020010BD6FF00A00FBE7A3
:107570006FF00400F8E720B1024B800143F00103F3
:1075800018477047305D0B00A4DF7047A3DF7047DA
:10759000B2DF7047B1DF7047B0DF704711DF70476F
:1075A0003DDF70473CDF704763DF704762DF704745
:1075B000A8DF704786DF704785DF704781DF70473F
:1075C00046DF70478ADF70477ADF7047A0DF704779
:1075D000007D7047407C7047007D7047B5DF704785
:1075E00090DF70478FDF7047AEDF7047ADDF7047C9
:1075F000ACDF7047ABDF7047AADF704775DF7047BD
:1076000074DF704700231A4619467AF00DBC4FF01C
:10761000FF317AF075BD30B5294C05469DB0206D1F
:10762000FFF7F5FF94F84C30019525467BB12548CE
:1076300001AB02AA06A906F053FF044678B1286DF3
:10764000FFF7E0FFB4FA84F040091DB030BD04F14B
:107650000C0006F0C0FB04460028E8D0EFE79DF8D8
:107660000C30222B16D0174802AA06A906F0FAFD04
:1076700004460028E3D19DF80C30222BDFD11148BD
:1076800006AA12A906F0D4FA041ED8DB0BD10E48C4
:1076900056F0C0FC0B4804AA11A905F060FE044690
:1076A0000028E0D0CBE71A9B0F931B9B109300237D
:1076B00004481A4606A906F059FC0446BFE700BF75
:1076C000D0520020DC520020C9580B0012DF704756
:1076D0004B1E062B88BF0A46817A98BF08220231CA
:1076E000D208C9B249F0C8B94B1E062B88BF0A465A
:1076F000417A98BF08220231D208C9B249F0BCB918
:107700004B1E062B88BF0A46017A98BF0822023119
:10771000D208C9B249F0B0B930B5044685B00A20E4
:107720000D467AF0E0F90A4B009303210023CDE9DE
:1077300001130393207923686A4641F081FC00B26B
:1077400020B92946684644F0A2FA00B205B030BD1F
:107750007013012030B5044685B001200D467AF043
:10776000C2F90A4B009303210023CDE901130393CF
:10777000207923686A4641F063FC00B220B92946AB
:10778000684644F084FA00B205B030BD1C240120E4
:1077900038B5437A04460D460BB94BF0FCFA204647
:1077A000032280214BF090FAE27A20462A4381217D
:1077B0004BF08AFA25732046BDE838404BF09BBA5F
:1077C00038B5437A04460D460BB94BF0E4FA20462F
:1077D000032280214BF078FA227B20462A43812124
:1077E0004BF072FAE5722046BDE838404BF083BAA0
:1077F00038B515461A4650B1C368AB420AD344683F
:107800002B46A047002818BF6FF0020038BD6FF06C
:107810000A00FBE76FF00400F8E710B404460846DE
:1078200011461A4623685C6824B1A4469B685DF83B
:10783000044B604702205DF8044B704713B50446C3
:10784000002145F0E2FE012301AA06212046FFF7B0
:10785000E4FF50B99DF8043001AA60F345130621F6
:1078600020468DF80430FFF763FE02B010BD37B537
:1078700004460D46002145F0C8FE012301AA062159
:107880002046FFF7CAFF50B99DF8043001AA65F3FE
:107890008613062120468DF80430FFF749FE03B019
:1078A00030BD38B5437C04460D4673B1204642F0E6
:1078B00039FD227A657220462A43A12142F0D6FC86
:1078C0002046BDE8384042F0E2BC034942F0F2FCF9
:1078D0000028EBD138BD00BFEC45012038B5437C12
:1078E00004460D4673B1204642F01CFD627A2572B3
:1078F00020462A43A12142F0B9FC2046BDE8384089
:1079000042F0C5BC024942F0D5FC0028EBD138BD9D
:10791000EC4501201FB504688DF80C10ACB10323B1
:107920000021CDE9003103AB01221946204608F0C1
:1079300052FB9DF80D309DF80C001B0243EA0043FA
:107940009DF80E00184304B010BD0323FF22CDE9BB
:10795000003203AB01221946406847F0E9FCE8E732
:107960001FB504688DF80C108CB102230021CDE9FD
:10797000003103AB01221946204608F02CFB9DF88C
:107980000C009DF80D3043EA002004B010BD022326
:10799000FF22CDE9003203AB01221946406847F0CF
:1079A000C7FCECE708B5FFF7DBFF40BA80B208BDC3
:1079B0001FB504688DF80C1064B100230122CDE9D5
:1079C000002303AB1946204608F005FB9DF80C0088
:1079D00004B010BD0122FF23CDE9002303AB1946FB
:1079E000406847F0A5FCF1E71FB504688DF80D204D
:1079F00064B10023CDE900338DF80C10012302227D
:107A000003A9204608F0B7FA04B010BD01F07F01C9
:107A100000948DF80C102346022203A9406847F019
:107A2000ABFCF1E70078C0F3C20300F007029B0053
:107A300043EA421343EA901070471FB544688DF83B
:107A40000C10ACB103230021CDE9003103AB0122BE
:107A50001946204608F0BFFA9DF80D309DF80C003D
:107A60001B0243EA00439DF80E00184304B010BD0A
:107A70000323FF22CDE9003203AB012219468068BF
:107A800047F056FCE8E71FB544688DF80C109CB130
:107A900002230021CDE9003103AB01221946204623
:107AA00008F099FA9DF80C309DF80D0040EA03208B
:107AB00040BA80B204B010BD0223FF22CDE90032EB
:107AC00003AB01221946806847F032FCEAE71FB594
:107AD00044688DF80C1064B100230122CDE9002325
:107AE00003AB1946204608F076FA9DF80C0004B066
:107AF00010BD0122FF23CDE9002303AB19468068A6
:107B000047F016FCF1E71FB544688DF80D2064B10D
:107B10000023CDE900338DF80C100123022203A9C4
:107B2000204608F028FA04B010BD01F07F0100944F
:107B30008DF80C102346022203A9806847F01CFC34
:107B4000F1E7836903B11847184670470378642248
:107B500023F0020303704068B0FBF2F0B0FBF2F3D5
:107B600002FB1300C0B27047037C0BB9037070476F
:107B7000836843600378C16043F00303037000230C
:107B800003747047037819B143F00403037070471E
:107B900003F0FB03FAE770474BDF704733DF7047B2
:107BA00032DF7047BFF34F8F0549064BCA6802F4B6
:107BB000E0621343CB60BFF34F8F00BFFDE700BF10
:107BC00000ED00E00400FA0508B179F0D3BF70477A
:107BD00010B5044614F088FE08B12388838110BDD7
:107BE000425C0144487840EA022070470B4B10B5D4
:107BF0001C680FF0BFFE236801461B6820469847AB
:107C0000044640B118F052FB28B194F82D3013B15E
:107C100004F12D0010BD0248FCE700BFC493002012
:107C2000CD580B00034B1A79062A0CBF93F8980025
:107C30000020704790900020064B187900F0FB035D
:107C4000022B04D0A0F10B03584258417047012089
:107C5000704700BF90900020094B10B51C6864B1BC
:107C600060680FF071FE38B194F8640194F86E31D9
:107C700098422CBF0020012010BD2046FCE700BF29
:107C80000CF2002010B50446006881F065FC20600D
:107C9000204610BD38B5044608200D467BF028FD6F
:107CA0002B68436023680360206038BD70B50546CB
:107CB0000C464CB1E1682846FFF7F8FFA66820465D
:107CC00079F058FF3446F4E770BD10B504460068FB
:107CD00081F01CFC2060204610BD836810B504466E
:107CE0002BB10322014698470023C4E90233204602
:107CF00010BD8B6873B5164604460D1D01225BB19D
:107D000030681A69904234BF9868D8681D4634BFFD
:107D1000012200220346F2E7019552B1CA68AA4245
:107D200004D1C4E90035204602B070BD01A8FFF7B8
:107D3000A9FF019A3368116999424FF00003F0D30B
:107D4000C4E90023EFE770B505460C464CB1E16885
:107D50002846FFF7F8FFA668204679F00BFF344667
:107D6000F4E770BD38B504460068844204D0056865
:107D700079F000FF2846F8E738BD70B5046805467D
:107D80000E46AC4207D0A068036831469B6898470E
:107D900010B92468F5E7002070BD70B50468054689
:107DA0000E46AC4207D0A068036831469B689847EE
:107DB00010B92468F5E7002070BD08B5054B98425E
:107DC00001D981F00BFD0C235843BDE808407BF03E
:107DD0008FBC00BFAAAAAA0A08B179F0CBBE70472F
:107DE0008B6873B5164604460D1D01225BB13088C1
:107DF0001A8A904234BF9868D8681D4634BF012261
:107E000000220346F2E7019552B1CA68AA4204D1A2
:107E1000C4E90035204602B070BD01A8FFF732FF6B
:107E2000019A3388118A99424FF00003F0D3C4E9D4
:107E30000023EFE78B6873B5164604460D1D01223B
:107E40005BB130881A8A904234BF9868D8681D4662
:107E500034BF012200220346F2E7019552B1CA68FD
:107E6000AA4204D1C4E90035204602B070BD01A881
:107E7000FFF708FF019A3388118A99424FF00003F7
:107E8000F0D3C4E90023EFE770B505460C464CB1CA
:107E9000E1682846FFF7F8FFA668204679F06AFEF9
:107EA0003446F4E770BD10B50C4650B138F07AF89E
:107EB00038B1043050E8003F234440E80032002A43
:107EC000F8D110BD10B50138029C0F2800F2848053
:107ED000DFE800F05E8236281A1458084A6D707385
:107EE000797D8044DFED427A9FED427A002908BF18
:107EF000F0EE477AC2ED007A052261E0DFED3E7ACE
:107F00009FED3E7A0029F2E7DFED3B7A9FED3B7A69
:107F1000002908BFF0EE477AC2ED007A05222270F0
:107F2000082242E0DFED347A9FED347A002908BF61
:107F3000F0EE477AC2ED007A05222270092234E081
:107F4000DFED2D7A9FED2D7A002908BFF0EE477AFC
:107F5000C2ED007A052222700A2226E0DFED247AA3
:107F60009FED247A0029E2E7DFED217A9FED217A67
:107F7000002908BFF0EE477AC2ED007A082222708D
:107F80000B2212E0DFED1E7A9FED1E7A0029F0E74A
:107F9000DFED1B7A9FED1B7A002908BFF0EE477AD0
:107FA000C2ED007A082222700C221A7010BD164908
:107FB0001160C1E714491160CCE714491160062231
:107FC00022700722F1E7114911600622A7E7104944
:107FD000116091E70E49F7E7DFED077A9FED077A29
:107FE000002908BFF0EE477AC2ED007A0522C6E705
:107FF0000020CB440000FA4300204B4400007A43A9
:108000000020CB430000FA420000FA4200007A420E
:108010009A9979411FB50023039300238DF80B3003
:108020008DF80A300DF10A03009303AA0DF10B033A
:10803000FFF748FF9DED030A05B05DF804FB38B576
:1080400004460C200D467BF053FB2B6883602146D1
:1080500081F00FFAA3680133A36038BD38B5044638
:108060000C200D467BF044FB2B688360214681F099
:1080700000FAA3680133A36038BDF8B50D46016866
:10808000044606468C420FD08A682B680F689A42D5
:1080900008D101F108039D4203D02046FEF7F0FC11
:1080A00000E00E463946EDE7B44205D031462046A1
:1080B000BDE8F840FEF7E4BCF8BDF8B50D46016830
:1080C000044606468C420FD08A682B680F689A4295
:1080D00008D101F108039D4203D02046FEF7D0FCF1
:1080E00000E00E463946EDE7B44205D03146204661
:1080F000BDE8F840FEF7C4BCF8BD2DE9F047D0E973
:108100000487436AD0E902A904463D1D1E1DAE4204
:1081100004D955F8040B79F02DFDF8E7C4E906A958
:10812000C4E90887BDE8F0872DE9F047D0E9048766
:10813000436AD0E902A904463D1D1E1DAE4204D982
:1081400055F8040B79F016FDF8E7C4E906A9C4E96F
:108150000887BDE8F087036870B5044663B1436AD9
:1081600045691E1DAE4204D955F8040B79F002FD95
:10817000F8E7206879F0FEFC204670BD036870B512
:10818000044663B1436A45691E1DAE4204D955F8E1
:10819000040B79F0EFFCF8E7206879F0EBFC20465F
:1081A00070BD50F8183B834202D0184679F0E2BC0B
:1081B000704710B50446FFF7D5FD0023C4E900441D
:1081C000A36010BDB0F1005F08B501D381F006FBDC
:1081D000BDE8084080007BF08BBA08B179F0CABCDA
:1081E0007047026962B1836850F82310013303F0CD
:1081F000010348BF5B42013A836002610846704751
:108200001146FBE7826A10B582B1036A50F8234039
:108210000133594201F0070103F0070302F1FF3275
:1082200058BF4B4203628262204610BD1446FBE7F2
:10823000026962B1836850F82310013303F001032F
:1082400048BF5B42013A83600261084670471146AD
:10825000FBE7826C10B582B1036C50F82340013308
:10826000594201F00F0103F00F0302F1FF3258BF32
:108270004B4203648264204610BD1446FBE701466E
:10828000014814F057BB00BFF09900202DE9F347D7
:10829000CB68DFF8649001930E1D07460C46354607
:1082A0004FF0FF38DDF804A0564510D0DAF8101072
:1082B000D9F80430994206D038460FF0F3F88045DB
:1082C00084BF5546804601A8FFF7FFFCEAE7AE42AF
:1082D00010D001A80195FFF7F8FC3146284681F03F
:1082E00099F979F047FC6369013B6361012002B0B1
:1082F000BDE8F0870020FAE7708900202DE9F347F8
:10830000CB68DFF8649001930E1D07460C46354696
:108310004FF0FF38DDF804A0564510D0DAF8101001
:10832000D9F80430994206D038460FF0BBF88045A2
:1083300084BF5546804601A8FFF7C7FCEAE7AE4276
:1083400010D001A80195FFF7C0FC3146284681F006
:1083500061F979F00FFC6369013B6361012002B0B0
:10836000BDE8F0870020FAE7708900202DE9F34787
:10837000CB68DFF8649001930E1D07460C46354626
:108380004FF0FF38DDF804A0564510D0DAF8101091
:10839000D9F80430994206D038460FF083F880456A
:1083A00084BF5546804601A8FFF78FFCEAE7AE423E
:1083B00010D001A80195FFF788FC3146284681F0CE
:1083C00029F979F0D7FB6369013B6361012002B0B1
:1083D000BDE8F0870020FAE7708900202DE9F34717
:1083E000CB68DFF8649001930E1D07460C463546B6
:1083F0004FF0FF38DDF804A0564510D0DAF8101021
:10840000D9F80430994206D038460FF04BF8804531
:1084100084BF5546804601A8FFF757FCEAE7AE4205
:1084200010D001A80195FFF750FC3146284681F095
:10843000F1F879F09FFB6369013B6361012002B0B1
:10844000BDE8F0870020FAE7708900208B6873B5DB
:10845000164604460D1D01225BB130681A69904230
:1084600034BF9868D8681D4634BF012200220346F5
:10847000F2E7019552B1CA68AA4204D1C4E90035B5
:10848000204602B070BD01A8FFF7FCFB019A3368DB
:10849000116999424FF00003F0D3C4E90023EFE7DC
:1084A0008B6873B5164604460D1D01225BB130681A
:1084B0001A69904234BF9868D8681D4634BF0122BB
:1084C00000220346F2E7019552B1CA68AA4204D1DC
:1084D000C4E90035204602B070BD01A8FFF7D2FB09
:1084E000019A3368116999424FF00003F0D3C4E94F
:1084F0000023EFE78B6873B5164604460D1D012275
:108500005BB130681A69904234BF9868D8681D46DC
:1085100034BF012200220346F2E7019552B1CA6836
:10852000AA4204D1C4E90035204602B070BD01A8BA
:10853000FFF7A8FB019A3368116999424FF00003D5
:10854000F0D3C4E90023EFE78B6873B51646044601
:108550000D1D01225BB130681A69904234BF9868E2
:10856000D8681D4634BF012200220346F2E7019578
:1085700052B1CA68AA4204D1C4E90035204602B00B
:1085800070BD01A8FFF77EFB019A3368116999421B
:108590004FF00003F0D3C4E90023EFE730B5031D2B
:1085A000826818463AB115690C68A5422ABF104680
:1085B000D2689268F6E7834204D009680269914262
:1085C00038BF184630BD30B5031D826818463AB131
:1085D00015690C68A5422ABF1046D2689268F6E772
:1085E000834204D009680269914238BF184630BD01
:1085F00030B5031D826818463AB115690C68A5426A
:108600002ABF1046D2689268F6E7834204D0096810
:108610000269914238BF184630BD30B5031D8268EB
:1086200018463AB115690C68A5422ABF1046D268AF
:108630009268F6E7834204D009680269914238BF24
:10864000184630BD37B54B690192272B05460C46BD
:108650000AD901A92046FFF7E0FF231D834203D179
:1086600021462846FFF7BAFE03B030BD10B5816839
:108670000446FEF73BF90023221DC4E90322A36050
:10868000636110BD10B581680446FEF73EF9002312
:10869000221DC4E90322A360636110BD10B5816887
:1086A0000446FEF741F90023221DC4E90322A3601A
:1086B000636110BD10B581680446FEF744F90023DC
:1086C000221DC4E90322A360636110BD2DE9F843B4
:1086D00000F10409846805464E46ECB12369086838
:1086E000834204D2E368344626461C46F5E7A36875
:1086F000FAD8E26843B1196988428ABFD968996893
:1087000023461C460B46F5E73AB11369984236BF3B
:108710001646D2689268F7E73446EB68D5F81480BD
:10872000A34209D1B14507D12846FFF7C3FF6869C5
:10873000A8EB0000BDE8F883A642F8D0204680F000
:10874000F8FE49460746204680F064FF79F012FAA9
:108750006B69013B6B613C46EEE708B179F00ABA00
:108760007047B0F1005F13B501D381F037F8820094
:10877000104601927AF0BCFF019A0021044687F06E
:10878000C5FB204602B010BD42680B4604318A4248
:1087900010B5044604D01846521A87F09DFB0346D4
:1087A0006268043A6260184610BD814210B51346F3
:1087B000A1EB000405D001462246184687F08CFB49
:1087C0000346181910BD38B50346D3E90035ED1A34
:1087D0006FF06043AC10A3EBA5058D42104601D2AB
:1087E00081F002F8A14238BF2146601803D29842B6
:1087F00028BF184638BD1846FCE708B179F0BAB969
:10880000704710B504460068FFF7F7FF204610BD1B
:1088100008281BD00A281CD010281DD015281ED0CF
:108820001F281FD02A2820D03E2821D0C82822D097
:10883000B0F5C87F22D0B0F5487F22D0B0F5C86F20
:1088400022D007EE900AB8EE670A70479FED100A33
:1088500070479FED100A70479FED0F0A70479FED1C
:108860000F0A70479FED0E0A70479FED0E0A704782
:108870009FED0D0A70479FED0D0A70479FED0C0AA2
:1088800070479FED0C0A70479FED0B0A704700BFC1
:108890009A99F940666626419A9979416666A64199
:1088A0000000FA41CDCC264200007A4200204B4322
:1088B0000020CB4300204B440020CB4410B1036880
:1088C0005B681847704710B103681B691847704709
:1088D00010B50446006808B1FFF7F5FF204610BD4B
:1088E00010B103681B691847704710B103685B68D3
:1088F00018477047036801600BB11846F5E77047E9
:1089000010B103685B681847704770B505460C46A0
:108910004CB1E1682846FFF7F8FFA668204679F0D9
:1089200029F93446F4E770BD70B5046805460E4673
:10893000AC4207D0A068036831469B68984710B9DD
:108940002468F5E7002070BD2DE9F84FD0E90087D5
:10895000A7EB0804A310234C5C43234B9C42064620
:108960008946934602D1214880F03EFF012C2246E1
:1089700038BF0122A418A1EB080531D244B19C42B2
:1089800028BF1C460C2060437AF0B2FE824600E00D
:10899000A2469BE807000AEB0503002D83E80700C9
:1089A00004DD2A464146504687F096FAA7EB0907B0
:1089B0000C35002F554404DD3A464946284687F0D9
:1089C0007DFA3D44B8F1000F02D0404679F0D2F86C
:1089D0000C2000FB04A4C6E900A5B460BDE8F88F34
:1089E0001C46CFE7ABAAAAAAAAAAAA0AAF580B00AC
:1089F0002DE9F84F064689469346FEF762FDD6E913
:108A000000A8071EA9EB0A0428D001DA80F0E6FED0
:108A10007AF06EFE05469BF800302B55002C04DDE5
:108A200022465146284687F057FAA8EB0908013438
:108A3000B8F1000F2C4404DD42464946204687F039
:108A40003DFA4444BAF1000F02D0504679F092F852
:108A5000C6E900543D44B560BDE8F88F3D46DAE70D
:108A60002DE9F0410646884615461746044644451A
:108A700009D02146384681F0C5F9204681F0D8F862
:108A800018341837F3E7A01BC4080448444324F003
:108A90006044182000FB0450BDE8F081ABAAAA0A8C
:108AA00010B50C1A002C134605DD01462246184667
:108AB00087F012FA0346181910BDB0F1005F08B52F
:108AC00001D380F08BFEBDE8084080007AF010BE34
:108AD00008B179F04FB87047B1F1005FF8B50446BE
:108AE0000E4602D3104880F07FFE026883689B1A0E
:108AF000B1EBA30F14D94768BF1A91B10846FFF72D
:108B0000DCFF05462A46D4E90001FFF7C9FF2068CB
:108B1000FFF7DEFF2F44256005EB86056760A56043
:108B2000F8BD0D46EEE700BFD1580B0008B179F053
:108B300021B870472DE9F843D0E901439C4207462C
:108B4000894607D00B6844F8043B446078680438D1
:108B5000BDE8F883D0F800806FF06042A4EB080411
:108B6000B2EBA40F4FEAA40302D1164880F03CFEFA
:108B7000012B1D4638BF0125ED1821D23DB195428C
:108B800028BF1546A8007AF0B3FD064600E02E4641
:108B9000D9F800303351002C04DD224641463046DE
:108BA00087F09AF904343444B8F1000F02D04046FB
:108BB00078F0E0FF06EB8505C7E90064BD60C5E716
:108BC0001546DFE7AF580B0038B50346D3E900354B
:108BD000ED1A6FF06043AC10A3EBA5058D42104673
:108BE00001D280F001FEA14238BF2146601803D2B5
:108BF000984228BF184638BD1846FCE72DE9F84FC3
:108C000005460F4691460121134AFFF7DDFFD5E9DE
:108C1000008A0646A7EB080BD8B1FFF74EFF0446C3
:108C2000D9F8003044F80B30224639464046FFF769
:108C300037FF5146021D3846FFF732FF07464046D0
:108C4000FFF746FFC5E9004704EB8604AC60BDE8CA
:108C5000F88F0446E4E700BFAF580B00D0E90032BC
:108C6000934218BF4360704710B504460068FFF791
:108C70002FFF204610BD30B50D68836885B0D0E960
:108C8000004205604D68456003938D688560002350
:108C9000C1E900338B6001A8CDE90142FFF7E4FF91
:108CA00005B030BDD0E900239A4209D1C3681A1F2C
:108CB00053F8043C436003F5FC73C26083600360B7
:108CC00003681C3B0360704713B50B460246D0E9AE
:108CD00000016C4684E8030093E8030082E8030087
:108CE00094E8030083E803009868916890609960B5
:108CF000D168D868D060D96002B010BD10B50378D3
:108D0000DB07044604D578F0E3FEE368C01A10BD23
:108D10004FF0FF30FBE708B5064B074A18680749D4
:108D200000F61C7075F0D6FABDE808400E200BF076
:108D30004FBE00BFC43A0120E1580B00FA580B00A7
:108D400070B5046805460E46AC4207D0A0680368BB
:108D500031469B68984710B92468F5E7002070BD3C
:108D600010B50B4904460B48FFF7EAFF68B12368CA
:108D70001D2B0BD801332360074B084A186808499C
:108D800000F61C7075F0A6FA012010BD0020FCE76B
:108D900084590B00C8240120C43A012000590B005B
:108DA0001D590B0070B5046805460E46AC4207D04D
:108DB000A068036831469B68984710B92468F5E7B6
:108DC000002070BD10B5D0E90043144AE31A9B108F
:108DD00002FB0312002A1BDB112A04DC1C2303FB09
:108DE0000141016010BD122392FBF3F3C16801EB56
:108DF000830451F82310C46001F5FC7484601224CC
:108E000004FB13231C2202FB031341600360E9E708
:108E1000D3431221B3FBF1F3DB43E7E7B76DDBB6D6
:108E2000CA68C3689B1AD0E90020121A07489B1031
:108E30009210424310B5013B122404FB03238A68BD
:108E40000968521A921000FB023010BDB76DDBB6F4
:108E50002DE9F04704460F4600F108011830FFF7EE
:108E6000DFFF3C4B984202D13B4880F0BDFC626A78
:108E700020686368111AA3EBA101012925D8616953
:108E8000A2EB01084FEAA806B51CB3EB450F3CD98D
:108E90005D1B6D0800EB8505131DA942A3EB0102C4
:108EA0002CD9994202D0284687F016F82B68E36047
:108EB00003F5FC73236105EB0803636255F8083082
:108EC000E36103F5FC73656123624FF4FC70656A2E
:108ED0007AF00EFC68603D460FCDA6690FC695E896
:108EE0000700636A86E807001A1D5B68626203F583
:108EF000FC72E3612262A361BDE8F0879942D5D09C
:108F000008F10400801A2844CEE703F10209012B7E
:108F10002CBF994409F10109B9F1005F01D380F038
:108F20005DFC4FEA89007AF0E3FB626A6169A9EBB4
:108F3000050504326D089142824600EB850503D099
:108F4000521A284686F0C8FF206878F013FEC4E95C
:108F500000A9ABE72449920423590B0073B50446DA
:108F600016460D4619B912B10D4880F03AFC731B34
:108F70000F2B019307D9002201A9204680F036FE6D
:108F8000019B2060A36032462946206880F0BEFE27
:108F9000019B226863600021D15402B070BD00BF04
:108FA00053590B00FFF7DABF036870B5044663B18D
:108FB000436A45691E1DAE4204D955F8040B78F08A
:108FC000D9FDF8E7206878F0D5FD204670BD03682C
:108FD00082681C339342036008D1C3681A1D5B6822
:108FE000C26003F5FC72436082600360704744DF37
:108FF000704743DF704742DF7047064B1868043BF9
:109000001B68082B04D103288CBF00200120704767
:109010000020704734010010024B1B68DB0700D5AD
:1090200000BE7047F0ED00E0034B1B68DB0700D586
:1090300000BE0020704700BFF0ED00E037B50446E9
:10904000142001917AF054FB0199054617F0D0FBEA
:10905000256003B030BD022A70B5054607D0032A4B
:1090600013D0012A01D10B680360002070BD0C6889
:1090700014207AF03DFB2146064651F8043B40F8A7
:10908000043B15F001FF2E60EFE7FDF79DFCECE7D8
:10909000E1E7022A70B5054607D0032A13D0012A5A
:1090A00001D10B680360002070BD0C6814207AF0B9
:1090B0001FFB2146064651F8043B40F8043B15F0DF
:1090C000E3FE2E60EFE7FDF77FFCECE7022A70B5C8
:1090D000054607D0032A13D0012A01D10B6803608B
:1090E000002070BD0C6814207AF002FB2146064671
:1090F00051F8043B40F8043B15F0C6FE2E60EFE744
:10910000FDF762FCECE7E1E7022A70B5054607D0FF
:10911000032A13D0012A01D10B680360002070BD1F
:109120000C6814207AF0E4FA2146064651F8043B14
:1091300040F8043B15F0A8FE2E60EFE7FDF744FC75
:10914000ECE7E1E7E0E7DFE71FB50446684615F026
:109150009BFE21466846FFF7B7FD684675F00AFD9D
:10916000204604B010BD00BF014B93F85801704772
:10917000A8850020014B93F849017047A88500207D
:10918000014B93F862017047A88500202DE9F0415A
:10919000DFF8C883C64BC74DC74E404694B0442243
:1091A00040F80C3B0021002486F0B0FEC34BC8F809
:1091B000083008F1540188F80440012078F0B8FE26
:1091C000BF4BC8F85000C8F80030BE4ABE49404600
:1091D00080F04AF9BD48BB4ABD49C0F884404FF40D
:1091E0000053A0F88030BB4BC0F88830A0F89C40FA
:1091F00080F03AF9B84B0822DC60C3E901441A70E8
:109200001C82B64BB64A1C705C70B64B01271A60C4
:10921000B54A1F71D2F8B4101973D2F8AC10997313
:10922000D2F8B0105973DC731C829C60AF4BB0490C
:109230001C711960516F1973D1689973926F5A73C9
:109240009C60DC731C821923C5E90055AC60AC81BD
:109250002B614FF47A732B62AE61C5F82880C5E9A3
:109260000C44AC73AC82EC6185F82C408022214622
:1092700005F17C0085F8384085F8784086F046FE98
:109280008822214605F1FC0086F040FE8D4A99496E
:10929000284680F0E9F898488A4A98498460C0E9ED
:1092A000000080F0E1F89648864A94498460C0E95D
:1092B000000080F0D9F89348824A90498460C0E960
:1092C000000080F0D1F8904874F09AFA7D4A8F49F6
:1092D0008D4880F0C9F84FF4A4707AF009FA06F1CD
:1092E00024030546202240F8043B214686F00EFE6A
:1092F0006C621022214605F1280086F007FE21222B
:10930000214605F1380086F001FE2022214605F1B4
:10931000590086F0FBFD2022214605F1790086F0F8
:10932000F5FD20222146C5F89C4005F1A00086F0FD
:10933000EDFD85F8C04005F1C40074F061FA20220B
:10934000214605F1C80086F0E1FD2022214605F105
:10935000E80086F0DBFD2022214605F5847086F0CA
:10936000D5FD2022214605F5947086F0CFFD06F14B
:1093700068032B60664B67481D6006F1AC08664BBE
:1093800010930EA9CDF838808DF83E40ADF83C40E2
:10939000119446F0EFFB4B4A60495E48604D80F007
:1093A00063F8604B604810930EA9CDF838808DF8B3
:1093B0003E40ADF83C40119403F0C0FC414A5B498B
:1093C000594880F051F85A4B5A4810930EA9CDF8DD
:1093D00038808DF83E40ADF83C40119403F0AEFC6F
:1093E000384A5249534880F03FF8534B5348109342
:1093F0000EA9CDF838808DF83E40ADF83C40119470
:1094000003F09CFC2F4A49494C4880F02DF84C4B06
:109410004C4810930EA9CDF838808DF83E40ADF839
:109420003C40119403F08AFC264A4049454880F0AC
:109430001BF841F60A030EA92846CDF83880ADF88E
:109440003C30CDE910448DF83E7046F093FB284641
:1094500006F1BC0340F8183B2422214686F056FD55
:10946000394BEB611523C5E90F4485F83D30374B87
:10947000EB62052385F84130354B2B63132385F8C8
:10948000423085F844402846324D0E4A32497FF03A
:10949000EBFF41F60F030EA92846CDF83880ADF852
:1094A0003C30CDE910448DF83E7046F063FB57E048
:1094B00098930B00C80B012098590B0064400020C2
:1094C000A8930B00004000206DF00200C89300201C
:1094D00039BF030080EE3600C81301209824012014
:1094E00000F00240A024012058550D00B4240120B2
:1094F00000300240B3660400C8240120B1DE07003A
:10950000D4240120E024012000250120F3D7090004
:1095100004250120C0270120DE540D00BFEF070005
:1095200048280120EF540D000825012061CD0200DC
:10953000FF540D0000290120CD540D00582B0120AF
:10954000BC540D006025012074560D00B0570B006F
:10955000B6570B0090280120BDEF0700D052002025
:10956000284606F1D00340F8183B0EA942F619230D
:10957000ADF83C30CDF83880CDE910448DF83E7020
:1095800003F0DCFB2846BC4DBC4ABD497FF06CFFB4
:10959000BC4BCDF838800EA9284610938DF83E407C
:1095A000ADF83C40119446F0E5FA284606F1E40394
:1095B00040F8183B0EA9B44B1093CDF838808DF8C5
:1095C0003E40ADF83C40119403F0B8FBAB4AAF49C4
:1095D00028467FF049FF234622462146AC480094A6
:1095E00077F01AF9AB48AC4D74F00AF9A34AAB49CD
:1095F000A8487FF039FFAA48A04AAA4904607FF032
:1096000033FFA9489D4AA74904607FF02DFFA74B6F
:109610002B61A74BEB602846A64B6B6106F1F80364
:1096200040F8183B6D6045F2C072214686F06EFC32
:1096300036222146A04886F069FC28469F4D8F4A75
:109640009F497FF011FF28464FF4D072214600F861
:10965000044B86F05BFC4FF4D072214605F5D270C6
:1096600086F054FC9748854A97498460C0E9000019
:109670007FF0FAFE9548964D804A9649C463C0E94A
:109680000144C0E90344C0E90544C0E90744C0E916
:109690000944C0E90B44C0E90D447FF0E5FE8E4B60
:1096A0002B6128468D4BEB6006F5887340F8183B1C
:1096B0006D606C614FF4FB52214686F027FC10224E
:1096C0002146874886F022FC6C4A86492846864D0A
:1096D0007FF0CAFE854B2B612846854BEB6006F573
:1096E000947340F8183B6D606C612022214686F02F
:1096F0000DFC624A7F49AC6328467F4D7FF0B4FE83
:109700007E4B2B6128467E4BEB6006F5A07340F83C
:10971000183B6D606C614FF4F062214686F0F6FBF9
:10972000564A7849C5F8984728467FF09DFE764806
:109730001022214620F8024B86F0E8FB73494F4A7D
:1097400073487FF091FE5C2079F0D2FF054606F069
:10975000D4FF2B466F4A43F8382BC5E90E3306F584
:10976000AC736B636C4B2C64C5E912344FF400731B
:109770004FF00208A5F85830684B6D6485F85080AA
:109780006C6585F85A806F62CC201D6079F0B0FF5F
:10979000054606F0B2FF2B46614A43F8382BC5E96F
:1097A0000E3306F5B6736B635E4B2C642146742250
:1097B000C5E912346D642C6505F1540086F0A6FBF2
:1097C000594BC5F8C840C5F8248058201D6079F071
:1097D0008FFF054606F091FF2B46544A43F8382B7D
:1097E000C5E90E33524B2C64C5E9123403236B6276
:1097F00006F5C0764F4B6E636D642C65A5F854403A
:1098000085F856406C201D6079F072FF054606F021
:1098100074FF2B46484A43F8382BC5E90E33474BB3
:109820006B63474B474E484A484831782C64C5E93A
:10983000123405F15C03C5E9153404236B62444B13
:109840006D641D6033881380424A2C651380424A40
:1098500085F85C401380414A84601380404A13803D
:10986000404B727859709A701C70044A3E49C0E9A6
:1098700000447FF0F9FD79E0D82701200040002066
:10988000C1EF070039740C0049740C00C3EF0700E6
:1098900034830020B0130120F0990020F3D7090091
:1098A000F00F0120198006006C130120ED64020006
:1098B000D9650200CA570B00C8F10020A896002005
:1098C000D9C6030004110120B1DE0700409000203A
:1098D00094610020C17503001F650200D36502007A
:1098E0000C81002015540300B059002015650200BA
:1098F000D5650200EB530300F05900200B65020010
:10990000D7650200BD5303009E5900204F75090022
:1099100064370120CC950B00490203005037012029
:10992000F40B0C0069B0040098370120FCE00B0038
:1099300033E803009C370120342E0D00AC2E0D00BF
:1099400071790900A73A012080370120B80B012066
:10995000A437012083370120743701207637012096
:109960007837012086370120656902004B484C4A50
:109970004C4984607FF078FD4B48494A4B498460EC
:109980007FF072FD4A48464A4A498460C0E9004473
:109990007FF06AFD4848424A48498460C0E9004473
:1099A0007FF062FD46483E4A44498460C0E9004475
:1099B0007FF05AFD43483A4A43498460C0E9004475
:1099C0007FF052FD414B3025013D1C7303F10E0326
:1099D000FAD13F48324A37498560C0E900557FF0E7
:1099E00043FD3C482E4A3C49057200F10803C0E99A
:1099F00000357FF039FD3948394C294A39498560AD
:109A0000C0E900557FF030FD012714222946C4E942
:109A10000055A56004F10C0086F078FA204A32491E
:109A200032482565C4E90855C4E90A55C4E90C550E
:109A3000C4E90E55C4E91055C4E9125584F85470B0
:109A40007FF012FD2A48164A2A4905607FF00CFD76
:109A5000294B2A481D705D709D70357075701DF022
:109A600033F90F4A264925487FF0FEFC25481DF0B2
:109A70002BF90B4A224923487FF0F6FC03222946A2
:109A8000384678F0ABF9204B1860002844D11F4BC2
:109A90001F4A20480C2154F027FB00BFB05600207D
:109AA00000400020BD69020078590020BD69020015
:109AB0001C110120D9CF09002811012095070400AD
:109AC0003C1101204811012095070400DC370120DA
:109AD0007C3A0120883A0120399E0A00E40E0120D8
:109AE000140F012003880200D1880200500D0120CC
:109AF000A03A012019800600A43A0120F454002065
:109B00001D0E0300C855002098560020D8570B00A2
:109B1000E2570B0022580B00974A9849984C994FEE
:109B200018467FF0A1FC984B984A9D60C3E9002538
:109B3000974ADA60974B984A9D60C3E90025974A97
:109B4000DA609749974B9848C3E90252C3E9001578
:109B5000964B974A1A60974A5A60974A9A60974A72
:109B6000DA60974B974A9D60C3E90025964ADA6010
:109B7000964B974A9D60C3E90025964ADA60964B5A
:109B8000964A9749C3E90025964A9A60964ADA6050
:109B9000964B974A9D60C3E90025964ADA60964A3B
:109BA000116096498560C2E901159549D160954AD1
:109BB0009549116095495160954991609549D160E9
:109BC000C0E900356C4A9449C0F8EC5080F8F05078
:109BD0007FF04AFC9148924B03610523037104F125
:109BE0004C0300264FF04008036204F15803C0E91B
:109BF0000935614A8B49057305758561057785606F
:109C0000046080F82D80456386637FF02DFC8648D4
:109C1000864B03612223037104F16403036004F1A2
:109C2000B003036204F1BC03436242F21073524A70
:109C30007F490573057585610577856080F8288003
:109C4000C762C663A0F8403080F84280476406636C
:109C50008663466385647FF007FC7648764B036134
:109C60000423037104F1C803036004F58873424AB6
:109C700072490573057585610577856003627FF01C
:109C8000F3FB6F486F4B03610E23037104F58E7372
:109C9000036004F5B473036204F5BA7343624223AC
:109CA00080F83430684B344A68490573057585611E
:109CB0000577856087638362C3620363C5637FF052
:109CC000D3FB6348634B03611C23037104F5C0732A
:109CD000036004F5E473604E274A60490573C0E9E8
:109CE000083505758561057785607FF0BDFB5C49AA
:109CF00002A805F0B9FC304605F0D6FB06F13003AA
:109D0000C6E90A3502AA0EA8564986F8305005F071
:109D1000F5FB55490EA880F07FFA014608A880F0AF
:109D200071F808A906F1280080F08CF808A87FF0E7
:109D30007FFF0EA87FF07CFF05F03CFC02A87FF0BF
:109D400077FF0D4A494930467FF08EFB484B83F838
:109D5000E45083F8E850474B4FF47A729A6004F568
:109D6000EA721A6004F5FE744FF47F425D601C6174
:109D70009A8214B0BDE8F0810040002041D809006B
:109D80002C5B0B00EC450120F03B0120DDE60900D7
:109D90004E580B00003C0120C1E6090057580B004B
:109DA000A3E60900E03B0120103C0120C03B01205C
:109DB00059EC0900FB650200F9650200E0E80B00C0
:109DC000903B012035EC09005B580B00A03B0120C3
:109DD0000DEC09005E580B00D03B0120E9EB0900B7
:109DE000BDEB09001768020063580B00B03B01206F
:109DF000BD6202006A580B00803B01208FE609001B
:109E00006F580B00703B012087EB09007DE60900CD
:109E10001168020072580B00B54A0300C4530020B9
:109E200078580B0035070300005400207F580B00C2
:109E3000730703004C54002086580B007107030081
:109E4000805400208D580B00CDCCCC3D6F07030013
:109E5000C454002095580B00745300206D07030074
:109E600073B00B009E580B00A9580B00DDFA0200DE
:109E7000E4510020784B002007B503688DF80710E7
:109E80005B6801220DF10701984703B05DF804FB00
:109E9000A0F1100000F032B9407DFF2801D075F02C
:109EA00043BC704710B5437DFF2B0CD0074A4FF4DD
:109EB000567000FB032001F011FC044608B97AF04B
:109EC00065F8204610BD0020FCE700BFA442012039
:109ED0002DE9F74F437DFF2B06460F4614462FD042
:109EE00015464FF4567A4FF6FE7B15B3707D75F02C
:109EF00059FCF0B1737D134A01930AFB03294FF615
:109F0000FF7209F124095D4598BF2A4692B239468D
:109F1000484601F047FB8046484601F0DFFB3F28FA
:109F2000019B02D9184675F0FFFBB5EB08054744C5
:109F300003D1601B03B0BDE8F08F7AF027F8D4E7B7
:109F40000020F7E79442012008B5437DFF2B07D09E
:109F5000044A4FF4567000FB032001F0ADFB08BD2E
:109F60000020FCE7B842012073B5437DFF2B14D0DD
:109F70004FF456745C430A4E04F1100001220DF1B7
:109F80000701304401F03EFA0546301975F020FC17
:109F90001DB19DF8070002B070BD4FF0FF30FAE729
:109FA0009442012073B5457DFF2D03D14FF0FF3062
:109FB00002B070BD254E4FF4567303FB0563186A5B
:109FC00018B14FF0FF3178F09BF84FF4567202FB56
:109FD0000562118B538B908A89B29BB2994236BF2E
:109FE000C3EB4002CA1A521894B2E4B1A04209D29B
:109FF00081424FF456722CBF0B1A0B1802FB0562FC
:10A000009BB2538398421ED94FF4567101FB0561F0
:10A010000DF10700CA8A0969C2F30E0202FB03119F
:10A0200085F04CFF01244FF4567303FB0565286A45
:10A0300020B100231A46194677F0F6FE002CB5D061
:10A040009DF80700B4E71B1A9BB2DBE7944201209E
:10A0500010B5194B5A7DFF2A2CD11A7E52BB174CD2
:10A060005A750121197694F850110B2908D84A1C09
:10A0700084F8502101F14802114844F822000A46B0
:10A080001A75B4F81821B4F81A3161690A489B1A94
:10A090009BB20A4494F81C1100F030F850B1B4F8A7
:10A0A00018311844636980B2A4F81801588094F8F4
:10A0B0001C211A7110BD00BF784B0020944B00206A
:10A0C000F48D0B0010B5407DFF2807D075F06AFBBA
:10A0D000044608B979F05AFF204610BD0024FBE77A
:10A0E000034B9B68B3F5966F01D175F0CDBC7047FB
:10A0F0009442012009B900B9F2E770472DE9F04711
:10A10000074692B098461546002A00F090804B4BC7
:10A1100093F81C6193F81D1193F81EA1B21C83F8EB
:10A120001C214C1C8A1C83F81D2164F07F040AF159
:10A13000010241F08009E4B283F81E21422200218D
:10A1400001A885F0E3FE002D6DD0B8F1410F73D961
:10A1500040F20220ADF8080040F20940ADF80C00D2
:10A1600040F20120ADF8100024208DF8160034488C
:10A170000690731C0120DBB28DF806608DF80E602E
:10A180008DF81C008DF826602E48397D8DF81E3024
:10A19000032640F6083208908DF8273040F22460FC
:10A1A0008DF82B608DF8313008260A230427ADF88E
:10A1B00004208DF8141002220521ADF824008DF83A
:10A1C0002C6040F207508DF834304FF41166402374
:10A1D0008DF807208DF812208DF81510ADF82800A5
:10A1E0008DF83320ADF838008DF83B208DF81F70C6
:10A1F0008DF82A90ADF82E608DF830708DF83AA069
:10A200008DF83C3007238DF83F308DF8401044F234
:10A21000020342220DEB070128468DF84140ADF8BC
:10A22000423085F04BFE422012B0BDE8F0879246E6
:10A2300014469146164681E70020F5E7944B00202E
:10A2400020010524240202057FB5204B204A03F19A
:10A250001006144618685968154603C50833B342FA
:10A260002A46F7D11B4A1B88106851682B8001AB26
:10A2700003C3127A1A7004AA12E90700164B03C32B
:10A28000194603F5887001F80829144AC4F8182102
:10A290004FF48072A4F81C210122616184F81E2110
:10A2A0000021202285F032FE40F20943C4F820311B
:10A2B0000B4BC4F824310B4BC4F828310023C4F8ED
:10A2C0002C31042384F8503104B070BD0F8E0B0084
:10A2D000944B0020218E0B00AC4B002009000001A4
:10A2E000038E0B0074560D00F0B5054600200446A1
:10A2F0002B5D2E19002B68D003F14002D2B2012A47
:10A300003DD9F42B3BD81A061BD40122A3F558469D
:10A31000B6F5006F33D3B3F5803F14444FD31E28F6
:10A3200053DCA3F5803342009E0A0A44C3F30903B9
:10A33000A6F52056A3F5105321F810600230538083
:10A34000D6E703F0E002C02A1BD103F01F0302226C
:10A3500006F1010C16441CF8017B07F0C00EBEF19B
:10A36000800F0CD107F03F07664547EA8313F2D10F
:10A37000022A16D1A3F18006B6F5F06FC6D30134D8
:10A38000B6E703F0F002E02A03D103F00F03032243
:10A39000DEE703F0F802F02AF1D103F0070304220C
:10A3A000D6E7032A04D1A3F50066B6F5784FE5E7B2
:10A3B000A3F58032B2F5801FE1D20422A6E720285F
:10A3C00003D021F81030013092E7F0BD0B6802494C
:10A3D0000B610121184700BF043D01202DE9F04128
:10A3E000174C184F8046002518262279EBB2511DD4
:10A3F000994212DA38220021134885F087FD102295
:10A40000FF2104F1090085F081FD04F119001222F9
:10A41000BDE8F041FF2185F079BD9A4207D9226855
:10A4200006FB032333B9BDE8F041FEF7F5BD9B1AE7
:10A4300006FB03735B68404698470135D5E700BFCC
:10A44000284D0020388E0B002D4D0020F8B5124C01
:10A45000266C00F07F07C5094FF0FF31304677F0DA
:10A460004FFE04EB47032B4425339A79C2F3800453
:10A47000520708D59A7912F0010103BF9A7961F366
:10A4800082029A71002400231A461946304677F05A
:10A49000CBFC2046F8BD00BF284D0020F8B5194A76
:10A4A00000F07F0302EB430303EBD01000F125041F
:10A4B00090F82B5015F0010521D190F82B30590759
:10A4C000C3F3800717D4166C4FF0FF31304677F096
:10A4D00017FEA57915F001050FD1A3795B0704D408
:10A4E000A37943F00403A371012500231A461946FA
:10A4F000304677F099FC2846F8BD3D46F5E7002543
:10A50000F9E700BF284D002070B4827802F07F0385
:10A51000082B07D9524B1B68DB0700D500BE002073
:10A5200070BC70474F49C478CD79818804F003042A
:10A53000022CC1F30A010BD0032C45D0012C11D100
:10A54000022D40F2FF3408BF4FF48064A1420DE0B9
:10A55000022D0AD1B1F5007F09D0414B1B68DA0703
:10A5600000D500BE70BCFEF75FBD4029F5D83E4E59
:10A570005C0004EBD21406EB0414D5092181C178E8
:10A5800001F0030101292FD00120384900FA03F41A
:10A5900005BB03F10C06B040C1F80403D1F8140563
:10A5A00003F594730443C1F8144541F823502F4B2D
:10A5B000C3F8182542F48072C3F80C25BFF36F8FDF
:10A5C000BFF34F8F0120ABE7022D0CBF4FF4806427
:10A5D0004024BBE702339840C1F80403D1F810359A
:10A5E0001C43C1F81045E2E7082B93D11F4BDDB99E
:10A5F000B6F8182112B18022C3F81C250022C3F836
:10A600005021D3F8002312F4001208BFC3F85421DC
:10A61000164B4FF44012C3F80423D3F8142542F428
:10A620008072C3F81425C9E70022C3F82C21B6F8BC
:10A63000082112B18022C3F81C250C4BD3F800234B
:10A6400012F4001208BFC3F85421094AC3F80423C6
:10A65000D3F8102542F48072C3F81025AEE700BF8E
:10A66000F0ED00E0284D0020804E002000700240F8
:10A670000008200010B50B4B00F07F0203EB4203F3
:10A6800003EBD0142534A3799B0709D401F07AFA9F
:10A69000A37943F00203A371A37943F00103A371EB
:10A6A00010BD00BF284D002010B5104B04460146D8
:10A6B000187801F023F80E4B04F07F0103EB4103FF
:10A6C00003EBD41090F82B306FF3410380F82B305C
:10A6D00090F82B306FF3000380F82B3090F82B307C
:10A6E0006FF3820380F82B3010BD00BF04400020C0
:10A6F000284D00202DE9F843DDE908890C4616466F
:10A700001F460025AE4201DC01200EE06378052BD8
:10A7100004D1E37803F00303BB4208D00D4B186863
:10A7200010F0010001D000BE0020BDE8F8832046F3
:10A73000FFF7EAFE18B9BDE8F843FEF775BCA37849
:10A74000DA0914BF89F8003088F800302378013521
:10A750001C44D7E7F0ED00E01FB5CDE90201114937
:10A76000002308240193486C8DF805403AB913463C
:10A7700001A94FF0FF3277F057FB04B010BD6A46D5
:10A7800001A9009377F0E9FB009B002BF5D0064B65
:10A790004FF080525A6040BFBFF34F8FBFF36F8FAF
:10A7A000EBE700BF284D002000ED00E02DE9FF4160
:10A7B0004378484C023B0546042B12D8DFE803F0EF
:10A7C00003291B22710063796FF3000363716379BE
:10A7D00000226FF341036371A271637962F3820314
:10A7E0006371606C002961D10B464FF0FF3229463E
:10A7F00077F01AFB2FE06379D8072CD5637943F003
:10A800000403EDE76379DA0725D563796FF38203F3
:10A81000E6E763795B0715D563796FF382036371AC
:10A820000278606C0023CDE901338DF80420052205
:10A8300003938DF8052089B90B464FF0FF3201A92B
:10A8400077F0F2FADFF89480002618272279F3B225
:10A85000511D994214DA04B0BDE8F0816A4601A99D
:10A86000009377F07AFB009B002BEBD01A4B4FF054
:10A8700080525A6040BFBFF34F8FBFF36F8FE1E745
:10A880009A420AD9226807FB032323B15B6913B1FB
:10A890006968287898470136D8E79B1A07FB038335
:10A8A000F4E7237A0133DBB223729AE7002301AA8B
:10A8B0002946019377F051FB019B002BCBD0064B2F
:10A8C0004FF080525A6040BFBFF34F8FBFF36F8F7E
:10A8D000C1E700BF284D002000ED00E0388E0B00DE
:10A8E0002DE9FF47474D074600F07F0005EB400686
:10A8F00006EBD7162536B47914F001044FEAD71EBB
:10A900004FEA400306D0FEF78FFB0446204604B012
:10A91000BDE8F08796F806C0DFF800814CF0010C26
:10A9200086F806C003EB0E0C4FEA0C1908EB0C1C62
:10A9300046469CF80BA0BAF1000F17D0324A1168B6
:10A94000C90700D500BE2B44734493F82B106FF356
:10A95000000183F82B1093F82B106FF3820183F81A
:10A960002B101368DB07D1D500BECFE748F80910DC
:10A97000ACF80420ACF8064008BB02BB234BD3F86C
:10A980008034C3F3C0139E4519D0214800F02EFF38
:10A99000204B59680394C1F3080100394FF4E06378
:10A9A00018BF012101A8CDE90144ADF804308DF8AC
:10A9B00008708DF80940FFF7F9FE0124A6E701258C
:10A9C000BEF1000F1AD106EB4012D57218B9124829
:10A9D00000F00CFFF1E7BFF36F8FBFF34F8F937A57
:10A9E00003F0FF0443B1D37A03F0FF05002B8DD0B1
:10A9F00082F80AE001F062F82C4687E701F0E8F8F7
:10AA0000FAE700BF284D0020F0ED00E000700240A2
:10AA10005070024000ED00E04C700240804E00207B
:10AA20002DE9F04FB54B1B78FF2B93B0834600F018
:10AA300029844FF47A72002380024FEA9B5184F0FC
:10AA40006DFB012838BF01200390AD4CBBF1FF3FE7
:10AA5000606C26461BD0039BBBF1000F14BF1A4647
:10AA6000002207A977F0D2FA002800F00B849DF8A5
:10AA70001D30013B072B00F2B283DFE813F00A0020
:10AA80001C00B003170426042B008D0332045A4621
:10AA9000E7E79DF81C00FFF7A1FC9A48142200216B
:10AAA00085F034FA9DF82030E371606C77F0BEFBDE
:10AAB0000028CAD1E6E39DF81C00FFF78FFC9148FF
:10AAC0001422002185F022FA8F4B002BEDD0AFF33A
:10AAD0000080EAE7237A013BDBB22372227A02F09C
:10AAE000FF03002AE1D16279DFF818829DF81C503B
:10AAF000C8F8103042F00102627194F82B2063F321
:10AB0000000284F82B2094F82B2063F3820284F84F
:10AB10002B2094F82C2063F3000284F82C2094F866
:10AB20002C2063F382029DF8203084F82C2003F05F
:10AB30006002602A06D1754B1B68DD0740F1DF8299
:10AB400000BEDCE2402A0AD1714BC8F8103008AAD6
:10AB50000121284674F02AFF0028A6D1CFE203F095
:10AB60001F03012B00F03E82022B00F08882002B95
:10AB7000E1D1202A20D19DF824300F2B00F2BF8292
:10AB80001E442379717A99420CD2236801EB41016A
:10AB900013EBC10100F0B38208AA0C312846FFF77D
:10ABA00015FCD9E75A1D8A42C0F2A982594AC91A2E
:10ABB000182303FB0121EFE7002ABCD19DF82130C7
:10ABC000092BB8D801A252F823F000BFCFAF020082
:10ABD000BDAF020037AB0200A9AF020037AB0200E5
:10ABE000F5AB02005BAE020037AB020029AC0200FD
:10ABF0003DAC0200DDE90801474BC8E90001D3F88C
:10AC00000014D3F8000400220143C8E90222C3F86B
:10AC10000014C3F858214FF48002C3F80423637969
:10AC200043F00203637140E7A3798DF838300123C4
:10AC30000EAA08A9284674F0A1F836E79DF822303C
:10AC40000193019AA3799A4200F08A80A379002B9C
:10AC500042D0324B8022C3F88420BFF34F8FBFF322
:10AC60006F8F0127DFF8B080DFF8C0A0B94607F189
:10AC70000C03BA1C09FA02F209FA03F31343C8F8E9
:10AC80000833BB0003F1804303F51C3300215960F6
:10AC90000AEB471099622022013785F037F9082F17
:10ACA0004FF00001E3D11E4BC8F808332022C8F84A
:10ACB0001C151C48C8F82410C8F8481085F026F95F
:10ACC000C8F81495C8F81095144B80225A60E7799B
:10ACD0002846FFF783FBE771019B002B00F0B7804C
:10ACE000114B5A6912B15378022B21D0074B1B68C4
:10ACF000DA077FF520AF00BE1DE700BF044000204B
:10AD0000284D0020043D012000000000F0ED00E08F
:10AD1000ADF90900388E0B000070024000E100E040
:10AD200000083000804F0020944B0020804E00200F
:10AD3000D379C3F38011C3F340131B0143EA4113DA
:10AD4000617921F030010B4363715388D31802F10C
:10AD500009010293029B8B4209D8B74B002B73D198
:10AD6000019BA37108A9284673F0C4FF9DE64B78A8
:10AD70000B2B03BF0B7891F80390C9184FF0010912
:10AD80004B78042BB2D1029B5A1A92B24FF0000AB0
:10AD900037795FFA8AF87B1D9845A7DC47452ED99D
:10ADA0003768182303FB0877002F9FD0BB6828461D
:10ADB000CDE9041298470828DDE9041241D98242FE
:10ADC0003FD3B9F1010F0AD1BB689C4A934208BF37
:10ADD0004FF002099A4A934208BF4FF0020900223D
:10ADE000D3B2994512D8974A084488421AD8954B4D
:10ADF0001B79053398453FF779AF0146AAE7924B97
:10AE0000A8EB0707182000FB0737CFE78F783B44F4
:10AE100056FA83F301325F7AFF2F7FF467AF83F82E
:10AE20000980DDE74B78052B08D18F7807F07F0389
:10AE300002EB430303EBD71383F819800B78194413
:10AE4000D3E70AF1010AA3E7AFF3008088E77F4B5D
:10AE5000002B85D0AFF3008082E7BDF82200030A03
:10AE60005A1EC0B20E2A00F24A81DFE812F00F002B
:10AE70001A002B004801480191001A0048014801BE
:10AE8000480148014801480148011600704A122350
:10AE900008A9284673F072FF5EE66E4A32F802395E
:10AEA000F6E7022B06D16A4B5A69002A3FF443AEFB
:10AEB0005388EDE7684B002B00F02181AFF3008051
:10AEC0000246F2E7624E60B1032819D096F850317D
:10AED000834240F21481483006F5AA7156F82000EA
:10AEE00053E0D6F82031A6F8543101200130430058
:10AEF00043F44072A6F8522103F0FE03574AC7E715
:10AF0000D6F82C71002F3DD10AA874F0BFFD0DF1C9
:10AF1000280C0346B6463A46D1B28B420EF1040ED7
:10AF20002DD94F4F0DF1380907F1100A38687968AB
:10AF3000C846A8E8030008375745C146F6D11CF8B3
:10AF4000018B474F08F00F0112A801440DF1380A98
:10AF500011F8101CAEF8521179683868D146A9E88A
:10AF60000300404908378F42CA46F5D112A901EBC8
:10AF70001818013218F8101CAEF85011CCE7580020
:10AF8000C0B2B3E706F5AA713846FFF7ADF9F7E7A7
:10AF9000354B002B00F0B380AFF300800246002851
:10AFA00000F0AD80037873E7BDF82230012B40F04C
:10AFB000A680637943F008036371D3E6BDF82230BD
:10AFC000012B40F09C8063796FF3C303F4E763794E
:10AFD000C3F340129B0803F002031343ADF838306B
:10AFE000022325E69DF824300F2B00F288801E44B2
:10AFF0002379717A994239D2236801EB410113EB2D
:10B00000C1017CD008AA0C312846FFF7DFF90028DF
:10B010007FF44BAD9DF8203013F060036FD19DF8A5
:10B020002120A2F10A01012969D80A2AC8F81030A2
:10B030007FF498AEF9E500BF0000000001F90900B7
:10B0400061F10900284D0020388E0B00000000003F
:10B05000944B002011550D0000000000E64C00202C
:10B06000AC860D00BC860D00000000005A1D8A420F
:10B0700045DBA24AC91A182303FB0121C2E79DF848
:10B08000240000F07F0CBCF1080F3FF654AD06EB36
:10B090004C0707EBD01794F804E07F7E77454FEA22
:10B0A000D0114FEA4C0A16D2236807EB470703EB8F
:10B0B000C70712BB9DF8212002F0FD0EBEF1010F63
:10B0C00024D0002A7FF437AD5644314491F82B3018
:10B0D000C3F3400382E70EF10509B945C0F20981C7
:10B0E000864BA7EB0E074FF0180E0EFB0737002A12
:10B0F000E0D008AA07F10C0150E5002FF9D100209B
:10B1000000F040FD802000F03DFDCEE4BDF822E0DF
:10B11000BEF1000F2BD1012A3BD106EB0A020A44F3
:10B1200025329279930722D510F0770F11D0744A07
:10B1300040F4807EC2F80C05C2F80CE5C2F8180590
:10B1400019B90CF5947C42F82C10BFF36F8FBFF344
:10B150004F8F5644314491F82B306FF3410381F8FF
:10B160002B3091F82B306FF3000381F82B30002F38
:10B170003FF49BAC08AA07F10C012846FFF726F91B
:10B180000023C8F8103094F82C30DE073FF58DAC62
:10B19000E8E5FFF76FFAEAE79DF8201001F07F0776
:10B1A00006EB470606EBD116CA0996F82B006FF39B
:10B1B000000086F82B0096F82B006FF3820086F8CB
:10B1C0002B00002F4FD14F4D9DF81C602B78DDF8E0
:10B1D0002480B2EBD31F12D0B8F1000F06D04A4B37
:10B1E0001B68DB077FF561AC00BE5EE42B69002BBA
:10B1F0003FF45BAC2A4603213046984755E495F965
:10B200000030002B07DBA86800283FF44EAC3F4914
:10B21000424684F053FEAA68EB8942444344AA6044
:10B22000EA889BB29A42EB8102D0B8F13F0F16D860
:10B230002B696BB995F900300022002B1146B4BF81
:10B2400038468020FFF74CFB00287FF42EACC6E781
:10B250002C4A0221304698470028EBD150E730466F
:10B2600073F060FDF0E7737E227993420DD222687D
:10B2700003EB430312EBC3030FD1234B1B68D80727
:10B2800000D500BE13B0BDE8F08F501D9842F4DB2E
:10B290001A489B1A182202FB03031D699DF82120FE
:10B2A000099B9DF81C00A847FFF7FFBB6379D907EE
:10B2B0007FF5FBAB164B002B3FF4F7AB6079C0F387
:10B2C000C000AFF30080FFF7F0BB6379DA077FF5CA
:10B2D000ECAB104B002B3FF4E8ABAFF30080FFF773
:10B2E000E4BB089B002B3FF4E0AB09989847FFF7BD
:10B2F000DCBB002A7FF403AF1746DBE6388E0B0079
:10B3000000700240043D0120F0ED00E0183D0120F6
:10B3100000000000000000002DE9F743DFF8D880AE
:10B3200098F80030FF2B0646474648D1DFF8CC900E
:10B330003822002109F1050084F0E8FD09F14801F7
:10B34000012076F0F5FD4D46C9F8400040B9274B85
:10B350001B6813F0010F46D1002003B0BDE8F08355
:10B3600000230093D8F80820B8F80610B8F80400B5
:10B3700008F1100376F01CFDD8F80C10044676F0A6
:10B380006DFFC9F844402CB9184B1B68DB07E3D5A7
:10B3900000BEE1E7164B23B1281DAFF30080C9F8CA
:10B3A0000000DFF85C9000244FF018082879E3B221
:10B3B000421D934205DD3E700E4B80225A600120F3
:10B3C000CBE7984208D9286808FB030038B9074A38
:10B3D000126812F0010FBEE71B1A08FB0390036806
:10B3E00098470134E2E700BEB7E700BFF0ED00E0A8
:10B3F0000000000000E100E004400020284D002093
:10B40000388E0B002DE9F0470646006988469146C4
:10B4100018B14FF0FF3176F073FE33897489B78825
:10B420009BB2A4B2A34236BFC4EB47051D1BED1867
:10B43000ADB2F5B1AF4206D2BB422CBFDC1BDC196A
:10B44000A4B274813D464D4528BF4D46A74229D937
:10B45000F2883168A7EB04091FFA89F9C2F30E0AD2
:10B460004D4552460AFB04111FD86A43404684F0FA
:10B4700025FD7389B28899B215FA83F39BB299427C
:10B480004FEA420201D8934201DB9B1A9BB230691A
:10B49000738120B100231A46194676F0C5FC284670
:10B4A000BDE8F087E41BA4B2D0E719FB0AF91FFA44
:10B4B00089F94A46404684F001FDEA1B224412FB0A
:10B4C0000AF2316892B208EB0900D0E7F8B50446F9
:10B4D000C0680F4616461D4618B14FF0FF3176F092
:10B4E0000FFE206918B14FF0FF3176F009FEED0331
:10B4F000E0682760002345F001056381A680E580B0
:10B50000238118B11A46194676F08EFC206920B1C5
:10B5100000231A46194676F087FC0120F8BD38B59D
:10B520000446C0680D4618B14FF0FF3176F0E8FDD3
:10B53000206918B14FF0FF3176F0E2FDE379E06861
:10B5400065F3C713E37120B100231A46194676F05C
:10B550006BFC206920B100231A46194676F064FC82
:10B56000012038BD10B50446C06818B14FF0FF3156
:10B5700076F0C6FD206918B14FF0FF3176F0C0FDBE
:10B58000E06800236381238118B11A46194676F0DA
:10B590004BFC206920B100231A46194676F044FC82
:10B5A000012010BD2DE9F84F07468846164642B3E4
:10B5B000C06818B14FF0FF3176F0A2FDFA793D89ED
:10B5C0007B89B7F80490D209ADB29BB21CD19D42E1
:10B5D00039BFC3EB49046419EB1A9CB238BFA4B25B
:10B5E000A14586BFA9EB0404A4B20024A64228BF4B
:10B5F000264656BBF86820B100231A46194676F055
:10B6000013FC3046BDE8F88FF9884E45C1F30E01B2
:10B6100006D3A6EB090601FB06881D464E46E8E761
:10B620009D424FEA490136BFCA1AEA1A521992B22C
:10B6300032448A4209DB09EB0305AD1BADB2AB42D4
:10B6400001D8A94201DC6D1AADB22C46A1451DD925
:10B65000FA883868A9EB040A1FFA8AFAC2F30E0BBB
:10B66000B2455A460BFB040014D37243414684F0A2
:10B6700025FC7319BA889BB2AB424FEA420201D350
:10B68000934201DB9B1A9BB23B81B3E7A4EB090415
:10B69000A4B2DBE71AFB0BFA1FFA8AFA52464146BC
:10B6A00084F00CFCA6EB0903234413FB0BF238686F
:10B6B00092B208EB0A01DAE78288038940899BB2DB
:10B6C00080B2834236BFC0EB4200181AC01880B265
:10B6D000824286BF101A80B20020704703894289D7
:10B6E00081889BB292B2934236BFC2EB41029B1A51
:10B6F0009B1898B2884228BF0846704770B501F081
:10B700007F05082D2A4B2B4C4FEAD11123D0012263
:10B7100002FA05F0C043A1B905F10C06B240C3F826
:10B720000823D3F814251040C3F8140501EB450194
:10B7300004EB01110023CB72BFF36F8FBFF34F8F68
:10B7400070BDAE1CB240C3F80823D3F810251040DA
:10B75000C3F81005EAE704EB01120020A2F8080183
:10B76000D1B94FF48012C3F80823D3F8142522F47A
:10B770008072C3F81425C3F850110D4BB4F80801BA
:10B780000022C3F81C25B4F81821C24204BF4FF4AC
:10B790000012C3F80823C9E74FF40062C3F8082376
:10B7A000D3F8102522F48072C3F81025E5E700BF16
:10B7B00000700240804E002001230360BFF36F8FB2
:10B7C000BFF34F8F074B984202D0043B984207D1FA
:10B7D000BFF35B8F044B002283F82021BFF35B8F04
:10B7E000704700BF50700240804E002010B40D4BD7
:10B7F000BFF35B8F01464FF00104D3E84F2FC3E83E
:10B800004C4FBCF1000FF8D1BFF35B8F12F0FF0F6C
:10B8100005D005485DF8044B0122FEF79DBF5DF899
:10B82000044BC9E7A04F0020EDB7020043F2040328
:10B8300007B51A68094B9A424FF000000AD18DF8FB
:10B8400007000DF10700FBF741FF9DF807000038E6
:10B8500018BF012003B05DF804FB00BFDBE5B15168
:10B8600007B5FFF7E3FF58B1002301A80193FDF7E7
:10B87000BEFB0198003818BF012003B05DF804FB3F
:10B880004FF08043D3F80C24D3F80C0410F480302C
:10B8900018BF02F00100F0E701281FB5044600F0D0
:10B8A000B980022853D0002842D1774BD3F8002525
:10B8B000002A3DD14FF48002C3F808234FF4006200
:10B8C000C3F80024BFF36F8FBFF34F8F6F4B1B681C
:10B8D000082B10D16E4B1B68032B0CD86D4AD35C20
:10B8E0004BB16D4B6D4A1868032118BB49F2753096
:10B8F000186011601860FDF780FB48B1664B684A1C
:10B900001868C021C0B949F275301860116018601C
:10B910005D4B0124C3F80045BFF36F8FBFF34F8F1A
:10B92000FFF79EFF20B9FFF781FF38B1FDF763FBFA
:10B9300004B010BD1160DEE71160E9E7594B1860F3
:10B940001B680193019B4FF080431C60F0E74E4C55
:10B95000D4F804351BB1FFF783FF0028E8D1D4F8F1
:10B9600000341B05FBD54FF40063C4F80034BFF36B
:10B970006F8FBFF34F8FFDF740FB48B1464B484AEE
:10B980001868002840D149F27531196010601960BB
:10B990003E4B1B68082B0FD13D4B1B68032B0BD86C
:10B9A0003C4AD35C43B13C4B3C4A186878BB49F2F3
:10B9B0007531196010601960FDF71FFB48B13A4BF3
:10B9C00040F2E3721A6040225A60BFF36F8FBFF3F8
:10B9D0004F8F2D4C354880220121C4F81C25C4F816
:10B9E00004133349C1F884210078FF2800D04A604D
:10B9F000FFF736FF0028FBD00123C4F80435BFF35E
:10BA00006F8FBFF34F8F93E700231360C0E70023CE
:10BA10001360D1E71C4BD3F80025002A88D0002200
:10BA2000C3F80425BFF36F8FBFF34F8F20498020E9
:10BA3000C1F88400BFF34F8FBFF36F8FD3F80013AB
:10BA4000C3F80813C3F80025BFF36F8FBFF34F8F00
:10BA5000FFF7ECFEA0B1FDF7CCFA164B5968C1F325
:10BA6000080100230039CDE90133039318BF0121F8
:10BA70004FF4007301A8ADF80430FEF797FE57E7C6
:10BA80000D4B1C60E9E700BF007002403001001060
:10BA900034010010C88E0B0000EC064014ED064087
:10BAA00014EC0640000100400078024004400020F1
:10BAB00000E100E000ED00E004000040F0B42B4A9B
:10BAC000BFF35B8F02F590734FF00104D3E84F1F73
:10BAD000C3E8454F002DF9D1BFF35B8F11F0FF0F85
