:020000022000DC
:1060000000000420C1FD090001FE0900310D0A0055
:1060100005FE090007FE090009FE09000000000056
:1060200000000000000000000000000065FC090006
:106030000DFE09000000000085FC090011FE0900AA
:10604000F9FF090013FE090049DA090089C60900B1
:1060500013FE090013FE09005DDC090013FE0900B0
:1060600013FE090013FE090013FE090013FE0900C8
:1060700013FE090013FE090013FE090013FE0900B8
:1060800013FE0900F5F9090013FE090013FE0900CB
:1060900013FE090013FE0900F1CC090013FE0900EC
:1060A00013FE090013FE090013FE090013FE090088
:1060B00013FE090013FE09000000000000000000AC
:1060C00013FE090013FE090013FE09009D040A00D7
:1060D00013FE090013FE090013FE090029C209007E
:1060E00055DA090013FE090013FE09000000000044
:1060F0000000000013FE090000000000CD040A00AB
:10610000000000000000000000000000000000008F
:10611000000000000000000000000000000000007F
:10612000000000000000000000000000000000006F
:10613000000000000000000000000000000000005F
:10614000000000000000000000000000000000004F
:10615000000000000000000000000000000000003F
:10616000000000000000000000000000000000002F
:10617000000000000000000000000000000000001F
:10618000000000000000000000000000000000000F
:1061900000000000000000000000000000000000FF
:1061A00000000000000000000000000000000000EF
:1061B00000000000000000000000000000000000DF
:1061C00000000000000000000000000000000000CF
:1061D00000000000000000000000000000000000BF
:1061E00000000000000000000000000000000000AF
:1061F000000000000000000000000000000000009F
:1062000010B5054C237833B9044B13B10448AFF3F0
:1062100000800123237010BDB84900200000000059
:10622000ACF20D0008B5034B1BB103490348AFF3B3
:10623000008008BD00000000BC490020ACF20D0049
:10624000A3F5803A704700BF174B002B08BF134BD4
:106250009D46FFF7F5FF00218B460F461348144A71
:10626000121A8FF02BFA0E4B002B00D098470D4BD3
:10627000002B00D098470020002104000D000D489D
:10628000002802D00C48AFF300808FF0DFF8200028
:10629000290079F0D7FD8EF0F1FD00BF0000080065
:1062A000000000000000000000000420B8490020A9
:1062B000ACCE0120000000000000000070477047D5
:1062C000704770477047F0B59DF820C0BDF9186061
:1062D0009DF81C709DF824E0BDF9145004680595E4
:1062E000CDE908CECDE906676469A446BDE8F04073
:1062F00060478172704770472DE9F3411D4603687E
:10630000BDF820801B69044617460E469847CDE924
:10631000007822686B1E3344556A20461BB23A4609
:106320003146A84723689B6A204602B0BDE8F04189
:1063300018472DE9F3411C460368BDF820801B690E
:1063400005461646013C34440F4624B298472B6854
:10635000CDF8048000945C6A28463B4632463946B4
:10636000A0472B689B6A284602B0BDE8F041184759
:1063700070474020704720207047102070477047BA
:106380006FF0180070476FF0180070476FF018003A
:10639000704770476FF01800704700207047BBEEE1
:1063A000090A704784B004A800E90E006FF01800D5
:1063B00004B070476FF0180070476FF01800704716
:1063C0000368D3F8E03018470368D3F8DC30184787
:1063D0004AB116290B466FF00800A8BF1623834266
:1063E000B8BF034613700931C9B220292CBF6FF022
:1063F0000C0000207047836841601944C1607047F9
:106400000020704700207047183070470120704707
:10641000704720307047084A8B8992F8300108B1E4
:10642000422B08D0012B05D00A3B012B8CBF00204A
:106430000120704718467047C05B0020006A431E69
:106440005842584170470020704790F83C00831E26
:1064500058425841704790F83800831E58425841BE
:10646000704700207047006A431E584258417047E9
:10647000007B704700207047007B7047014B93F80A
:1064800058017047C05B0020014B93F849017047E9
:10649000C05B00200020704701207047002070473B
:1064A0000020704700207047014B93F8620170474D
:1064B000C05B0020B0F876008A89131A5842584110
:1064C0007047704770474B6A032B01BF034B1B6833
:1064D000B3F8503083830020704700BFF44301209D
:1064E000F1E7F0E71830704700207047006809684E
:1064F00003689B681847C0F88011704780ED5F0AF9
:106500007047002070470068096803689B68184757
:106510000068096803689B68184700680968036891
:106520009B681847C08A8A89131A58425841704795
:106530007047022A06D0032A02D0012A00D1016046
:10654000002070470B680360FAE7F2E7012A08BFF2
:10655000016000207047F9E7F8E7F7E7F6E7F5E7AD
:10656000F4E7F3E7F2E7F1E7F0E7EFE7EEE7EDE76F
:10657000ECE7EBE7EAE7E9E7E8E7E7E7E6E7E5E79F
:10658000E4E7E3E7E2E7E1E7E0E7DFE7DEE7DDE7CF
:10659000DCE7DBE7DAE7D9E7D8E7D7E7D6E7D5E7FF
:1065A000D4E7D3E7D2E7D1E7D0E7CFE7CEE7CDE72F
:1065B000CCE7CBE7CAE7C9E7C8E7022A06D0032A37
:1065C00002D0012A00D10160002070470B680360EF
:1065D000FAE7F2E7F1E7F0E7EFE7EEE7EDE770471C
:1065E00001207047704770477047034B1B68DB07FB
:1065F00000D500BE704700BFF0ED00E0034B1B6804
:10660000DB0700D500BE0020704700BFF0ED00E0C2
:106610000B6802490B610121184700BF8C4901201A
:10662000012053F086BCFBE72DE9F041164C174FD3
:106630008046002518262279EBB2511D994212DAC4
:106640003822002112488FF039F81022FF2104F17E
:1066500009008FF033F804F119001222BDE8F0416F
:10666000FF218FF02BB89A4206D9226806FB03233C
:106670002BB9BDE8F041B8E79B1A06FB03735B68D2
:10668000404698470135D6E7D4490020D0B00B00EA
:10669000D94900202DE9F04F2DED028B87B008EE8F
:1066A000100ABDF94870BDF94C809DF850909DF8D6
:1066B00054A09DF858B0CDE900370C4615461E464B
:1066C000CDE904AB1346CDE902890A46262146F0FE
:1066D000E0FBCDE904ABCDE90289CDE9006718EE16
:1066E000100A2B462246242146F0D3FB07B0BDEC0E
:1066F000028BBDE8F08F10B50C21044679F0EAFB5F
:10670000204610BD10B53421044679F0E3FB204645
:1067100010BD024B0248198876F0A9BA0A39012047
:10672000B0720120024B0348198876F0A0BA00BF6E
:106730000A390120B072012070B505460C464CB1F3
:10674000E1682846FFF7F8FFA668204677F0FEFDCF
:106750003446F4E770BD70B505460C464CB1E168AF
:106760002846FFF7F8FFA668204677F0EFFD34468D
:10677000F4E770BD70B505460C464CB1E16828469B
:10678000FFF7F8FFA668204677F0E0FD3446F4E70F
:1067900070BD70B505460C464CB1E1682846FFF760
:1067A000F8FFA668204677F0D1FD3446F4E770BDC7
:1067B00010B50446006808B177F0C8FD204610BD4A
:1067C00011B1083077F016BC704713B50A4C206839
:1067D000403052F0DBFD206800210AF091FC074BAD
:1067E00001221A7000230193054B01A9186877F064
:1067F000CFFF02B010BD00BF28440120B0430120EC
:1068000050560020E1E7E0E710B5044674F09AFD29
:10681000204610BD10B5046844B1201D74F092FDEF
:1068200020461421BDE8104079F054BB10BD07B5D7
:1068300000680B680168019301EB0311C3680BB991
:1068400087F0ABF8036901AA0430984703B05DF8FC
:1068500004FBECE707B500680B680168019301EBE6
:106860000311C3680BB987F098F8036901AA0430D3
:10687000984703B05DF804FB07B500680B68026831
:1068800001930C2101FB0321C3680BB987F085F844
:10689000036901AA0430984703B05DF804FBEBE7F5
:1068A00007B500680B68026801930C2101FB032106
:1068B000C3680BB987F071F8036901AA04309847DF
:1068C00003B05DF804FBEBE7EAE7E9E7034607B549
:1068D0009A680191013A08469A6086F085FE01980F
:1068E00003B05DF804EB77F031BDF8B5114C266CC0
:1068F00000F07F07C5094FF0FF31304677F0ECFF1D
:1069000004EB47032B4425339A79C2F380045207E2
:1069100008D59A7912F0010103BF9A7961F38202D6
:106920009A71002400231A461946304677F068FE13
:106930002046F8BDD4490020F8B5194A00F07F037D
:1069400002EB430303EBD01000F1250490F82B5029
:1069500015F0010521D190F82B305907C3F38007BA
:1069600017D4166C4FF0FF31304677F0B5FFA5799C
:1069700015F001050FD1A3795B0704D4A37943F087
:106980000403A371012500231A461946304677F007
:1069900037FE2846F8BD3D46F5E70025F9E700BF7C
:1069A000D449002070B4827802F07F03082B07D905
:1069B000514B1B68DB0700D500BE002070BC704740
:1069C0004E49C478CD79818804F00304022CC1F3C8
:1069D0000A010BD0032C44D0012C11D1022D40F21E
:1069E000FF3408BF4FF48064A1420CE0022D09D1AE
:1069F000B1F5007F08D0404B1B68DA0700D500BE18
:106A000070BCFBE54029F6D83D4E5C0004EBD21487
:106A100006EB0414D5092181C17801F00301012995
:106A20002FD00120374900FA03F405BB03F10C060F
:106A3000B040C1F80403D1F8140503F5947304437E
:106A4000C1F8144541F823502E4BC3F8182542F4E1
:106A50008072C3F80C25BFF36F8FBFF34F8F0120F7
:106A6000ACE7022D0CBF4FF480644024BCE7023336
:106A70009840C1F80403D1F810351C43C1F8104503
:106A8000E2E7082B94D11F4BDDB9B6F8182112B1FB
:106A90008022C3F81C250022C3F85021D3F800231C
:106AA00012F4001208BFC3F85421164B4FF44012E1
:106AB000C3F80423D3F8142542F48072C3F81425D4
:106AC000C9E70022C3F82C21B6F8082112B18022B0
:106AD000C3F81C250B4BD3F8002312F4001208BF97
:106AE000C3F85421084AC3F80423D3F8102542F40C
:106AF0008072C3F81025AEE7F0ED00E0D449002025
:106B0000DC4C0020007002400008200010B50B4B48
:106B100000F07F0203EB420303EBD0142534A3798A
:106B20009B0709D404F0F8F9A37943F00203A37199
:106B3000A37943F00103A37110BD00BFD449002025
:106B400010B5104B04460146187803F0A1FF0E4B18
:106B500004F07F0103EB410303EBD41090F82B30DA
:106B60006FF3410380F82B3090F82B306FF3000364
:106B700080F82B3090F82B306FF3820380F82B30A5
:106B800010BD00BF04400020D4490020F0B501F141
:106B9000200C00254FF0000E51F8043B05F00105D4
:106BA0005E1B52F8043B6EEB4E07F41A67F10005CA
:106BB000614540F8044BEFD105F00100F0BD08B588
:106BC000D0E900031B1A6FF00040834202D107484E
:106BD00086F0BEFE012B1A4638BF01229B1804D254
:106BE000002BACBF18466FF0004008BDF3AF0B00A0
:106BF00008B5D0E900031B1A9810094B4343094814
:106C0000834202D1084886F0A3FE012B1A4638BF02
:106C100001229A1802D2904228BF104608BD00BF38
:106C2000ABAAAAAAAAAAAA0AF3AF0B00034610B4F9
:106C30001B681C68084611462CB1A4469B685DF889
:106C4000044B0122604702205DF8044B704710B5E9
:106C500048B1046954B184680123A047002818BFD3
:106C60006FF0020010BD6FF00A00FBE76FF0040048
:106C7000F8E720B1024B800143F001031847704749
:106C800000B50B00F5E7F4E7A4DF7047A3DF70471A
:106C9000B2DF7047B1DF7047B0DF704711DF704778
:106CA0003DDF70473CDF704763DF704762DF70474E
:106CB000A8DF704786DF704785DF704781DF704748
:106CC00046DF70478ADF70477ADF7047A0DF704782
:106CD000007D7047407C7047007D7047B5DF70478E
:106CE00090DF70478FDF7047AEDF7047ADDF7047D2
:106CF000ACDF7047ABDF7047AADF704775DF7047C6
:106D000074DF704700231A46194677F079BC4FF0BC
:106D1000FF3177F0E1BD30B5294C05469DB0206DBF
:106D2000FFF7F5FF94F84C30019525467BB12548D7
:106D300001AB02AA06A907F0B5FB044678B1286D9D
:106D4000FFF7E0FFB4FA84F040091DB030BD04F154
:106D50000C0007F022F804460028E8D0EFE79DF881
:106D60000C30222B16D0174802AA06A907F05CFAAD
:106D700004460028E3D19DF80C30222BDFD11148C6
:106D800006AA12A906F036FF041ED8DB0BD10E4866
:106D900053F06CF90B4804AA11A906F0C2FA044694
:106DA0000028E0D0CBE71A9B0F931B9B1093002386
:106DB00004481A4606A907F0BBF80446BFE700BF1F
:106DC00088520020945200200DB00B0012DF704753
:106DD0004B1E062B88BF0A46817A98BF08220231D3
:106DE000D208C9B245F0DEBC4B1E062B88BF0A464E
:106DF000417A98BF08220231D208C9B245F0D2BC0C
:106E00004B1E062B88BF0A46017A98BF0822023122
:106E1000D208C9B245F0C6BC30B5044685B00A20D8
:106E20000D4677F04CFA0A4B009303210023CDE97D
:106E300001130393207923686A463DF071FD00B287
:106E400020B92946684641F0A2FB00B205B030BD2A
:106E5000F00E012030B5044685B001200D4677F0D4
:106E60002EFA0A4B009303210023CDE9011303936B
:106E7000207923686A463DF053FD00B220B92946C7
:106E8000684641F084FB00B205B030BD802F012080
:106E900038B5437A04460D460BB947F0A8FF2046A3
:106EA0000322802147F03CFFE27A20462A438121D9
:106EB00047F036FF25732046BDE8384047F047BF0E
:106EC00038B5437A04460D460BB947F090FF20468B
:106ED0000322802147F024FF227B20462A43812180
:106EE00047F01EFFE5722046BDE8384047F02FBF4F
:106EF00038B515461A4650B1C368AB420AD3446848
:106F00002B46A047002818BF6FF0020038BD6FF075
:106F10000A00FBE76FF00400F8E710B404460846E7
:106F200011461A4623685C6824B1A4469B685DF844
:106F3000044B604702205DF8044B704713B50446CC
:106F4000002142F0E0FB012301AA06212046FFF7C1
:106F5000E4FF50B99DF8043001AA60F345130621FF
:106F600020468DF80430FFF761FE02B010BD37B542
:106F700004460D46002142F0C6FB012301AA06216A
:106F80002046FFF7CAFF50B99DF8043001AA65F307
:106F90008613062120468DF80430FFF747FE03B024
:106FA00030BD38B5437C04460D4673B1204640F0F1
:106FB000B7FB227A657220462A43A12140F054FB98
:106FC0002046BDE8384040F060BB034940F070FB0C
:106FD0000028EBD138BD00BF7452012038B5437C86
:106FE00004460D4673B1204640F09AFB627A257242
:106FF00020462A43A12140F037FB2046BDE8384017
:1070000040F043BB024940F053FB0028EBD138BDB0
:10701000745201201FB504688DF80C10ACB1032325
:107020000022CDE9003203AB01221946204609F0C7
:1070300022F99DF80D309DF80C001B0243EA004335
:107040009DF80E00184304B010BD0323009303AB5A
:1070500001221946406809F017F8EAE71FB50468ED
:107060008DF80C108CB102230022CDE9003203AB65
:1070700001221946204609F0FEF89DF80C009DF803
:107080000D3043EA002004B010BD0223009303AB8F
:1070900001221946406808F0F7FFEEE708B5FFF750
:1070A000DDFF40BA80B208BD1FB504688DF80C1032
:1070B00064B100230122CDE9002303AB1946204629
:1070C00009F0D9F89DF80C0004B010BD012200921F
:1070D00003AB1946406808F0D7FFF3E71FB5046813
:1070E0008DF80D2064B10023CDE900338DF80C102C
:1070F0000123022203A9204609F08DF804B010BD37
:1071000001F07F0100948DF80C102346022203A9A0
:10711000406808F0D9FFF1E70078C0F3C20300F03F
:1071200007029B0043EA421343EA901070471FB5E1
:1071300044688DF80C10ACB103230022CDE9003275
:1071400003AB01221946204609F095F89DF80D3051
:107150009DF80C001B0243EA00439DF80E00184303
:1071600004B010BD0323009303AB012219468068CD
:1071700008F08AFFEAE71FB544688DF80C109CB14F
:1071800002230022CDE9003203AB0122194620463A
:1071900009F071F89DF80C309DF80D0040EA0320CD
:1071A00040BA80B204B010BD0223009303AB0122A9
:1071B0001946806808F068FFECE71FB544688DF851
:1071C0000C1064B100230122CDE9002303AB194662
:1071D000204609F050F89DF80C0004B010BD0122C3
:1071E000009203AB1946806808F04EFFF3E71FB525
:1071F00044688DF80D2064B10023CDE900338DF88B
:107200000C100123022203A9204609F004F804B05F
:1072100010BD01F07F0100948DF80C10234602226E
:1072200003A9806808F050FFF1E7836903B11847AC
:10723000184670470378642223F002030370406805
:10724000B0FBF2F0B0FBF2F302FB1300C0B27047E8
:10725000037C0BB903707047836843600378C16097
:1072600043F003030370002303747047037819B1DC
:1072700043F004030370704703F0FB03FAE74BDFAE
:10728000704733DF704732DF7047BFF34F8F0549D8
:10729000054BCA6802F4E0621343CB60BFF34F8F23
:1072A00000BFFDE700ED00E00400FA0508B177F04B
:1072B0004DB8704710B5044614F084FE23888381CE
:1072C00010BD0B4B10B51C680DF05EFC2368014629
:1072D0001B6820469847044640B118F08DF928B144
:1072E00094F82D3013B104F12D0010BD0148FCE7D6
:1072F000CC69002011B00B00034B1A79062A0CBF91
:1073000093F898000020704798660020064B187983
:1073100000F0FB03022B04D0A0F10B0358425841AC
:1073200070470120704700BF98660020094B10B5D8
:107330001C6864B160680DF011FC38B194F860010C
:1073400094F86A3198422CBF0020012010BD2046DD
:10735000FCE700BF7CED002010B50446006886F015
:10736000AFF92060204610BD38B5044608200D4610
:1073700078F0AAFD2B68436023680360206038BD65
:1073800070B505460C464CB1E1682846FFF7F8FF9A
:10739000A668204676F0DAFF3446F4E770BD10B5F3
:1073A0000446006886F066F92060204610BD044B54
:1073B00093F8693013B1034BD86870470068704781
:1073C0009866002048690020044B93F8693013B197
:1073D000034B586870470068704700BF98660020EC
:1073E00048690020836810B504462BB1032201468A
:1073F00098470023C4E90233204610BD8B6873B55B
:10740000164604460D1D01225BB130681A69904290
:1074100034BF9868D8681D4634BF01220022034655
:10742000F2E7019552B1CA68AA4204D1C4E9003515
:10743000204602B070BD01A8FFF78EFF019A3368A5
:10744000116999424FF00003F0D3C4E90023EFE73C
:1074500070B505460C464CB1E1682846FFF7F8FFC9
:10746000A668204676F072FF3446F4E770BD38B562
:1074700004460068844204D0056876F067FF284619
:10748000F8E738BD70B5046805460E46AC4207D033
:10749000A068036831469B68984710B92468F5E7EF
:1074A000002070BD70B5046805460E46AC4207D09A
:1074B000A068036831469B68984710B92468F5E7CF
:1074C000002070BD08B5054B984201D986F03AFA04
:1074D0000C235843BDE8084078F0F6BCAAAAAA0AD3
:1074E00008B176F033BF70478B6873B51646044613
:1074F0000D1D01225BB130881A8A904234BF986812
:10750000D8681D4634BF012200220346F2E70195E8
:1075100052B1CA68AA4204D1C4E90035204602B07B
:1075200070BD01A8FFF718FF019A3388118A9942AC
:107530004FF00003F0D3C4E90023EFE78B6873B585
:10754000164604460D1D01225BB130881A8A90420E
:1075500034BF9868D8681D4634BF01220022034614
:10756000F2E7019552B1CA68AA4204D1C4E90035D4
:10757000204602B070BD01A8FFF7EEFE019A3388E5
:10758000118A99424FF00003F0D3C4E90023EFE7DA
:1075900070B505460C464CB1E1682846FFF7F8FF88
:1075A000A668204676F0D2FE3446F4E770BD10B5EA
:1075B0000C4650B134F06AF938B1043050E8003F5D
:1075C000234440E80032002AF8D110BD0368013B93
:1075D00013F8012FFF2A03D08A42F9D10120704706
:1075E0000020704710B50138029C0F2800F28480FB
:1075F000DFE800F05E8236281A1458084A6D70736E
:10760000797D8044DFED427A9FED427A002908BF00
:10761000F0EE477AC2ED007A052261E0DFED3E7AB6
:107620009FED3E7A0029F2E7DFED3B7A9FED3B7A52
:10763000002908BFF0EE477AC2ED007A05222270D9
:10764000082242E0DFED347A9FED347A002908BF4A
:10765000F0EE477AC2ED007A05222270092234E06A
:10766000DFED2D7A9FED2D7A002908BFF0EE477AE5
:10767000C2ED007A052222700A2226E0DFED247A8C
:107680009FED247A0029E2E7DFED217A9FED217A50
:10769000002908BFF0EE477AC2ED007A0822227076
:1076A0000B2212E0DFED1E7A9FED1E7A0029F0E733
:1076B000DFED1B7A9FED1B7A002908BFF0EE477AB9
:1076C000C2ED007A082222700C221A7010BD1649F1
:1076D0001160C1E714491160CCE71449116006221A
:1076E00022700722F1E7114911600622A7E710492D
:1076F000116091E70E49F7E7DFED077A9FED077A12
:10770000002908BFF0EE477AC2ED007A0522C6E7ED
:107710000020CB440000FA4300204B4400007A4391
:107720000020CB430000FA420000FA4200007A42F7
:107730009A9979411FB50023039300238DF80B30EC
:107740008DF80A300DF10A03009303AA0DF10B0323
:10775000FFF748FF9DED030A05B05DF804FB38B55F
:1077600004460C200D4678F0AFFB2B688360214661
:1077700085F033FFA3680133A36038BD38B50446F4
:107780000C200D4678F0A0FB2B688360214685F025
:1077900024FFA3680133A36038BDF8B50D46016826
:1077A000044606468C420FD08A682B680F689A42BE
:1077B00008D101F108039D4203D02046FFF786F867
:1077C00000E00E463946EDE7B44205D0314620468A
:1077D000BDE8F840FFF77AB8F8BDF8B50D46016886
:1077E000044606468C420FD08A682B680F689A427E
:1077F00008D101F108039D4203D02046FFF766F847
:1078000000E00E463946EDE7B44205D03146204649
:10781000BDE8F840FFF75AB8F8BD2DE9F047D0E9C8
:107820000487436AD0E902A904463D1D1E1DAE42ED
:1078300004D955F8040B76F089FDF8E7C4E906A9E8
:10784000C4E90887BDE8F0872DE9F047D0E904874F
:10785000436AD0E902A904463D1D1E1DAE4204D96B
:1078600055F8040B76F072FDF8E7C4E906A9C4E9FF
:107870000887BDE8F087036870B5044663B1436AC2
:1078800045691E1DAE4204D955F8040B76F05EFD25
:10789000F8E7206876F05AFD204670BD036870B5A1
:1078A000044663B1436A45691E1DAE4204D955F8CA
:1078B000040B76F04BFDF8E7206876F047FD204694
:1078C00070BD50F8183B834202D0184676F03EBD9A
:1078D000704710B50446FFF7CAFD0023C4E9004411
:1078E000A36010BDB0F1005F08B501D386F02AF89F
:1078F000BDE80840800078F0E7BA08B176F026BD10
:107900007047026962B1836850F82310013303F0B5
:10791000010348BF5B42013A836002610846704739
:107920001146FBE7826A10B582B1036A50F8234022
:107930000133594201F0070103F0070302F1FF325E
:1079400058BF4B4203628262204610BD1446FBE7DB
:10795000026962B1836850F82310013303F0010318
:1079600048BF5B42013A8360026108467047114696
:10797000FBE7826C10B582B1036C50F823400133F1
:10798000594201F00F0103F00F0302F1FF3258BF1B
:107990004B4203648264204610BD1446FBE7014657
:1079A000014814F037BB00BF389600202DE9F3479B
:1079B000CB68DFF8649001930E1D07460C463546F0
:1079C0004FF0FF38DDF804A0564510D0DAF810105B
:1079D000D9F80430994206D038460CF0A9FE80450B
:1079E00084BF5546804601A8FFF7D9FCEAE7AE42BE
:1079F00010D001A80195FFF7D2FC3146284685F04A
:107A0000BDFE76F0A3FC6369013B6361012002B017
:107A1000BDE8F0870020FAE7885F00202DE9F347F2
:107A2000CB68DFF8649001930E1D07460C4635467F
:107A30004FF0FF38DDF804A0564510D0DAF81010EA
:107A4000D9F80430994206D038460CF071FE8045D2
:107A500084BF5546804601A8FFF7A1FCEAE7AE4285
:107A600010D001A80195FFF79AFC3146284685F011
:107A700085FE76F06BFC6369013B6361012002B017
:107A8000BDE8F0870020FAE7885F00202DE9F34782
:107A9000CB68DFF8649001930E1D07460C4635460F
:107AA0004FF0FF38DDF804A0564510D0DAF810107A
:107AB000D9F80430994206D038460CF039FE80459A
:107AC00084BF5546804601A8FFF769FCEAE7AE424D
:107AD00010D001A80195FFF762FC3146284685F0D9
:107AE0004DFE76F033FC6369013B6361012002B017
:107AF000BDE8F0870020FAE7885F00202DE9F34712
:107B0000CB68DFF8649001930E1D07460C4635469E
:107B10004FF0FF38DDF804A0564510D0DAF8101009
:107B2000D9F80430994206D038460CF001FE804561
:107B300084BF5546804601A8FFF731FCEAE7AE4214
:107B400010D001A80195FFF72AFC3146284685F0A0
:107B500015FE76F0FBFB6369013B6361012002B017
:107B6000BDE8F0870020FAE7885F00208B6873B5D6
:107B7000164604460D1D01225BB130681A69904219
:107B800034BF9868D8681D4634BF012200220346DE
:107B9000F2E7019552B1CA68AA4204D1C4E900359E
:107BA000204602B070BD01A8FFF7D6FB019A3368EA
:107BB000116999424FF00003F0D3C4E90023EFE7C5
:107BC0008B6873B5164604460D1D01225BB1306803
:107BD0001A69904234BF9868D8681D4634BF0122A4
:107BE00000220346F2E7019552B1CA68AA4204D1C5
:107BF000C4E90035204602B070BD01A8FFF7ACFB18
:107C0000019A3368116999424FF00003F0D3C4E937
:107C10000023EFE78B6873B5164604460D1D01225D
:107C20005BB130681A69904234BF9868D8681D46C5
:107C300034BF012200220346F2E7019552B1CA681F
:107C4000AA4204D1C4E90035204602B070BD01A8A3
:107C5000FFF782FB019A3368116999424FF00003E4
:107C6000F0D3C4E90023EFE78B6873B516460446EA
:107C70000D1D01225BB130681A69904234BF9868CB
:107C8000D8681D4634BF012200220346F2E7019561
:107C900052B1CA68AA4204D1C4E90035204602B0F4
:107CA00070BD01A8FFF758FB019A3368116999422A
:107CB0004FF00003F0D3C4E90023EFE730B5031D14
:107CC000826818463AB115690C68A5422ABF104669
:107CD000D2689268F6E7834204D00968026991424B
:107CE00038BF184630BD30B5031D826818463AB11A
:107CF00015690C68A5422ABF1046D2689268F6E75B
:107D0000834204D009680269914238BF184630BDE9
:107D100030B5031D826818463AB115690C68A54252
:107D20002ABF1046D2689268F6E7834204D00968F9
:107D30000269914238BF184630BD30B5031D8268D4
:107D400018463AB115690C68A5422ABF1046D26898
:107D50009268F6E7834204D009680269914238BF0D
:107D6000184630BD37B54B690192272B05460C46A6
:107D70000AD901A92046FFF7E0FF231D834203D162
:107D800021462846FFF7BAFE03B030BD10B5816822
:107D90000446FEF7D1FC0023221DC4E90322A360A0
:107DA000636110BD10B581680446FEF7D4FC002362
:107DB000221DC4E90322A360636110BD10B5816870
:107DC0000446FEF7D7FC0023221DC4E90322A3606A
:107DD000636110BD10B581680446FEF7DAFC00232C
:107DE000221DC4E90322A360636110BD2DE9F8439D
:107DF00000F10409846805464E46ECB12369086821
:107E0000834204D2E368344626461C46F5E7A3685D
:107E1000FAD8E26843B1196988428ABFD96899687B
:107E200023461C460B46F5E73AB11369984236BF24
:107E30001646D2689268F7E73446EB68D5F81480A6
:107E4000A34209D1B14507D12846FFF7C3FF6869AE
:107E5000A8EB0000BDE8F883A642F8D0204685F0E4
:107E60001CFC49460746204685F088FC76F06EFAF1
:107E70006B69013B6B613C46EEE710B504460020A0
:107E800024F0DAF9A368C01A20EAE07010BD08B146
:107E900076F05CBA7047B0F1005F13B501D385F09E
:107EA00051FD82001046019278F00EF8019A0021EF
:107EB00004468DF003FC204602B010BD42680B461C
:107EC00004318A4210B5044604D01846521A8DF087
:107ED000DBFB03466268043A6260184610BD8142CB
:107EE00010B51346A1EB000405D001462246184602
:107EF0008DF0CAFB0346181910BD38B50346D3E907
:107F00000035ED1A6FF06043AC10A3EBA5058D4270
:107F1000104601D285F01CFDA14238BF21466018F1
:107F200003D2984228BF184638BD1846FCE708B16E
:107F300076F00CBA704710B504460068FFF7F7FFFB
:107F4000204610BD08281BD00A281CD010281DD0A0
:107F500015281ED01F281FD02A2820D03E2821D027
:107F6000C82822D0B0F5C87F22D0B0F5487F22D0F3
:107F7000B0F5C86F22D007EE900AB8EE670A7047D6
:107F80009FED100A70479FED100A70479FED0F0A92
:107F900070479FED0F0A70479FED0E0A70479FEDE7
:107FA0000E0A70479FED0D0A70479FED0D0A70474E
:107FB0009FED0C0A70479FED0C0A70479FED0B0A6E
:107FC000704700BF9A99F940666626419A997941AF
:107FD0006666A6410000FA41CDCC264200007A42F6
:107FE00000204B430020CB4300204B440020CB44D7
:107FF00010B103685B681847704710B103685B688D
:108000001847704710B103681B691847704710B1D3
:1080100003685B681847704770B505460C464CB15D
:10802000E1682846FFF7F8FFA668204676F08EF94B
:108030003446F4E770BD70B5046805460E46AC42A0
:1080400007D0A068036831469B68984710B9246838
:10805000F5E7002070BD2DE9F84FD0E90087A7EBC8
:108060000804A310234C5C43234B9C4206468946DC
:10807000934602D1214885F06BFC012C224638BF83
:108080000122A418A1EB080531D244B19C4228BFBB
:108090001C460C20604377F017FF824600E0A246A2
:1080A0009BE807000AEB0503002D83E8070004DDC9
:1080B0002A46414650468DF0E7FAA7EB09070C35F2
:1080C000002F554404DD3A46494628468DF0CEFA45
:1080D0003D44B8F1000F02D0404676F037F90C204D
:1080E00000FB04A4C6E900A5B460BDE8F88F1C46F7
:1080F000CFE700BFABAAAAAAAAAAAA0AF3AF0B00AD
:108100002DE9F84F064689469346FEF758FDD6E915
:1081100000A8071EA9EB0A0428D001DA85F012FC9A
:1081200077F0D2FE05469BF800302B55002C04DD7D
:108130002246514628468DF0A7FAA8EB09080134DB
:10814000B8F1000F2C4404DD4246494620468DF02C
:108150008DFA4444BAF1000F02D0504676F0F6F89A
:10816000C6E900543D44B560BDE8F88F3D46DAE706
:108170002DE9F04106468846154617460446444513
:1081800009D02146384685F0F1FE204685F004FEF0
:1081900018341837F3E7A01BC4080448444324F0FC
:1081A0006044182000FB0450BDE8F081ABAAAA0A85
:1081B00010B50C1A002C134605DD01462246184660
:1081C0008DF062FA0346181910BDB0F1005F08B5D2
:1081D00001D385F0B7FBBDE80840800077F074BE9E
:1081E00008B176F0B3B87047B1F1005FF8B5044656
:1081F0000E4602D3104885F0ABFB026883689B1AD9
:10820000B1EBA30F14D94768BF1A91B10846FFF725
:10821000DCFF05462A46D4E90001FFF7C9FF2068C4
:10822000FFF7DEFF2F44256005EB86056760A5603C
:10823000F8BD0D46EEE700BF15B00B0008B176F0B3
:1082400085B870472DE9F843D0E901439C420746C1
:10825000894607D00B6844F8043B446078680438CA
:10826000BDE8F883D0F800806FF06042A4EB08040A
:10827000B2EBA40F4FEAA40302D1164885F068FBC5
:10828000012B1D4638BF0125ED1821D23DB1954285
:1082900028BF1546A80077F017FE064600E02E46D8
:1082A000D9F800303351002C04DD224641463046D7
:1082B0008DF0EAF904343444B8F1000F02D040469E
:1082C00076F044F806EB8505C7E90064BD60C5E7B4
:1082D0001546DFE7F3AF0B0038B50346D3E90035A9
:1082E000ED1A6FF06043AC10A3EBA5058D4210466C
:1082F00001D285F02DFBA14238BF2146601803D280
:10830000984228BF184638BD1846FCE72DE9F84FBB
:1083100005460F4691460121134AFFF7DDFFD5E9D7
:10832000008A0646A7EB080BD8B1FFF74EFF0446BC
:10833000D9F8003044F80B30224639464046FFF762
:1083400037FF5146021D3846FFF732FF07464046C9
:10835000FFF746FFC5E9004704EB8604AC60BDE8C3
:10836000F88F0446E4E700BFF3AF0B00D0E900321A
:10837000934218BF4360704710B504460068FFF78A
:108380002FFF204610BD30B50D68836885B0D0E959
:10839000004205604D68456003938D688560002349
:1083A000C1E900338B6001A8CDE90142FFF7E4FF8A
:1083B00005B030BDD0E900239A4209D1C3681A1F25
:1083C00053F8043C436003F5FC73C26083600360B0
:1083D00003681C3B0360704713B50B460246D0E9A7
:1083E00000016C4684E8030093E8030082E8030080
:1083F00094E8030083E803009868916890609960AE
:10840000D168D868D060D96002B010BD10B50378CB
:10841000DB07044604D575F047FFE368C01A10BDBA
:108420004FF0FF30FBE708B5064B074A18680749CD
:1084300000F61C7072F066FBBDE808400E2011F0DB
:108440004FBA00BF4C47012025B00B003EB00B00D7
:1084500070B5046805460E46AC4207D0A0680368B4
:1084600031469B68984710B92468F5E7002070BD35
:1084700010B50B4904460B48FFF7EAFF68B12368C3
:108480001D2B0BD801332360074B084A1868084995
:1084900000F61C7072F036FB012010BD0020FCE7D6
:1084A0003EE30B00283001204C47012044B00B0074
:1084B00061B00B0070B5046805460E46AC4207D0AB
:1084C000A068036831469B68984710B92468F5E7AF
:1084D000002070BD10B5D0E90043144AE31A9B1088
:1084E00002FB0312002A1BDB112A04DC1C2303FB02
:1084F0000141016010BD122392FBF3F3C16801EB4F
:10850000830451F82310C46001F5FC7484601224C4
:1085100004FB13231C2202FB031341600360E9E701
:10852000D3431221B3FBF1F3DB43E7E7B76DDBB6CF
:10853000CA68C3689B1AD0E90020121A07489B102A
:108540009210424310B5013B122404FB03238A68B6
:108550000968521A921000FB023010BDB76DDBB6ED
:108560002DE9F04704460F4600F108011830FFF7E7
:10857000DFFF3C4B984202D13B4885F0E9F9626A43
:1085800020686368111AA3EBA101012925D861694C
:10859000A2EB01084FEAA806B51CB3EB450F3CD986
:1085A0005D1B6D0800EB8505131DA942A3EB0102BD
:1085B0002CD9994202D028468DF066F82B68E360EA
:1085C00003F5FC73236105EB0803636255F808307B
:1085D000E36103F5FC73656123624FF4FC70656A27
:1085E00077F072FC68603D460FCDA6690FC695E82E
:1085F0000700636A86E807001A1D5B68626203F57C
:10860000FC72E3612262A361BDE8F0879942D5D094
:1086100008F10400801A2844CEE703F10209012B77
:108620002CBF994409F10109B9F1005F01D385F02C
:1086300089F94FEA890077F047FC626A6169A9EB22
:10864000050504326D089142824600EB850503D092
:10865000521A28468DF018F8206875F077FEC4E9A4
:1086600000A9ABE72449920467B00B0073B5044638
:1086700016460D4619B912B10D4885F066F9731BFF
:108680000F2B019307D9002201A9204685F062FB38
:10869000019B2060A36032462946206885F0EAFBF2
:1086A000019B226863600021D15402B070BD00BFFD
:1086B00097B00B00FFF7DABF036870B5044663B1EB
:1086C000436A45691E1DAE4204D955F8040B75F086
:1086D0003DFEF8E7206875F039FE204670BD03685E
:1086E00082681C339342036008D1C3681A1D5B681B
:1086F000C26003F5FC72436082600360704744DF30
:10870000704743DF704742DF7047064B1868043BF1
:108710001B68082B04D103288CBF00200120704760
:1087200000207047340100102DE9F843DDE9088985
:108730000C4616461F460025AE4201DC01200EE025
:108740006378052B04D1E37803F00303BB4208D020
:108750000D4B186810F0010001D000BE0020BDE8EC
:10876000F8832046FEF71EF918B9BDE8F843FDF777
:1087700045BFA378DA0914BF89F8003088F80030C3
:10878000237801351C44D7E7F0ED00E01FB5CDE9B3
:1087900002011149002308240193486C8DF805401B
:1087A0003AB9134601A94FF0FF3275F029FF04B022
:1087B00010BD6A4601A9009375F0BBFF009B002B1A
:1087C000F5D0064B4FF080525A6040BFBFF34F8F39
:1087D000BFF36F8FEBE700BFD449002000ED00E04E
:1087E0002DE9FF414378484C023B0546042B12D843
:1087F000DFE803F003291B22710063796FF30003A4
:108800006371637900226FF341036371A27163792D
:1088100062F382036371606C002961D10B464FF0F3
:10882000FF32294675F0ECFE2FE06379D8072CD58E
:10883000637943F00403EDE76379DA0725D56379BB
:108840006FF38203E6E763795B0715D563796FF30E
:10885000820363710278606C0023CDE901338DF8E7
:108860000420052203938DF8052089B90B464FF0AB
:10887000FF3201A975F0C4FEDFF8948000261827A6
:108880002279F3B2511D994214DA04B0BDE8F081A7
:108890006A4601A9009375F04CFF009B002BEBD0BA
:1088A0001A4B4FF080525A6040BFBFF34F8FBFF357
:1088B0006F8FE1E79A420AD9226807FB032323B1AD
:1088C0005B6913B16968287898470136D8E79B1A25
:1088D00007FB0383F4E7237A0133DBB223729AE7C1
:1088E000002301AA2946019375F023FF019B002B69
:1088F000CBD0064B4FF080525A6040BFBFF34F8F32
:10890000BFF36F8FC1E700BFD449002000ED00E046
:10891000D0B00B002DE9FF47474D074600F07F0020
:1089200005EB400606EBD7162536B47914F00104A2
:108930004FEAD71E4FEA400306D0FDF75FFE04461C
:10894000204604B0BDE8F08796F806C0DFF8008145
:108950004CF0010C86F806C003EB0E0C4FEA0C1924
:1089600008EB0C1C46469CF80BA0BAF1000F17D080
:10897000324A1168C90700D500BE2B44734493F8EE
:108980002B106FF3000183F82B1093F82B106FF36B
:10899000820183F82B101368DB07D1D500BECFE727
:1089A00048F80910ACF80420ACF8064008BB02BB3C
:1089B000234BD3F88034C3F3C0139E4519D021480C
:1089C00002F0DEF8204B59680394C1F30801003926
:1089D0004FF4E06318BF012101A8CDE90144ADF8CF
:1089E00004308DF808708DF80940FFF7F9FE012476
:1089F000A6E70125BEF1000F1AD106EB4012D57291
:108A000018B9124802F0BCF8F1E7BFF36F8FBFF35B
:108A10004F8F937A03F0FF0443B1D37A03F0FF053D
:108A2000002B8DD082F80AE002F012FA2C4687E77C
:108A300002F098FAFAE700BFD4490020F0ED00E018
:108A4000007002405070024000ED00E04C700240A7
:108A5000DC4C00202DE9F04FB54B1B78FF2B93B079
:108A6000834600F029844FF47A72002380024FEA93
:108A70009B518CF005F8012838BF01200390AD4CC4
:108A8000BBF1FF3F606C26461BD0039BBBF1000F80
:108A900014BF1A46002207A975F0A4FE002800F0B2
:108AA0000B849DF81D30013B072B00F2B283DFE8F9
:108AB00013F00A001C00B003170426042B008D03DA
:108AC00032045A46E7E79DF81C00FDF7ADFD9A48D1
:108AD000142200218CF0F2FD9DF82030E371606CCF
:108AE00075F090FF0028CAD1E6E39DF81C00FDF761
:108AF0009BFD9148142200218CF0E0FD8F4B002B50
:108B0000EDD0AFF30080EAE7237A013BDBB22372BA
:108B1000227A02F0FF03002AE1D16279DFF818829D
:108B20009DF81C50C8F8103042F00102627194F8B0
:108B30002B2063F3000284F82B2094F82B2063F39E
:108B4000820284F82B2094F82C2063F3000284F82E
:108B50002C2094F82C2063F382029DF8203084F8B6
:108B60002C2003F06002602A06D1754B1B68DD07DC
:108B700040F1DF8200BEDCE2402A0AD1714BC8F826
:108B8000103008AA0121284673F0F6FA0028A6D171
:108B9000CFE203F01F03012B00F03E82022B00F016
:108BA0008882002BE1D1202A20D19DF824300F2B80
:108BB00000F2BF821E442379717A99420CD2236855
:108BC00001EB410113EBC10100F0B38208AA0C31A3
:108BD0002846FDF71DFDD9E75A1D8A42C0F2A98239
:108BE000594AC91A182303FB0121EFE7002ABCD117
:108BF0009DF82130092BB8D801A252F823F000BF0C
:108C000003900200F18F02006B8B0200DD8F0200E7
:108C10006B8B0200298C02008F8E02006B8B02008E
:108C20005D8C0200718C0200DDE90801474BC8E948
:108C30000001D3F80014D3F8000400220143C8E96E
:108C40000222C3F80014C3F858214FF48002C3F87D
:108C50000423637943F00203637140E7A3798DF83D
:108C6000383001230EAA08A9284672F06DFC36E7B9
:108C70009DF822300193019AA3799A4200F08A80EC
:108C8000A379002B42D0324B8022C3F88420BFF35B
:108C90004F8FBFF36F8F0127DFF8B080DFF8C0A0E0
:108CA000B94607F10C03BA1C09FA02F209FA03F3F8
:108CB0001343C8F80833BB0003F1804303F51C33AA
:108CC000002159600AEB47109962202201378CF08D
:108CD000F5FC082F4FF00001E3D11E4BC8F8083314
:108CE0002022C8F81C151C48C8F82410C8F84810E1
:108CF0008CF0E4FCC8F81495C8F81095144B802249
:108D00005A60E7792846FDF78FFCE771019B002B3D
:108D100000F0B780114B5A6912B15378022B21D061
:108D2000074B1B68DA077FF520AF00BE1DE700BFC9
:108D300004400020D44900208C490120000000009C
:108D4000F0ED00E079C10900D0B00B0000700240E6
:108D500000E100E000083000DC4D0020484B00201E
:108D6000DC4C0020D379C3F38011C3F340131B0103
:108D700043EA4113617921F030010B436371538859
:108D8000D31802F109010293029B8B4209D8B74B19
:108D9000002B73D1019BA37108A9284672F090FBA8
:108DA0009DE64B780B2B03BF0B7891F80390C91805
:108DB0004FF001094B78042BB2D1029B5A1A92B2A0
:108DC0004FF0000A37795FFA8AF87B1D9845A7DCD7
:108DD00047452ED93768182303FB0877002F9FD00B
:108DE000BB682846CDE9041298470828DDE904123B
:108DF00041D982423FD3B9F1010F0AD1BB689C4AE5
:108E0000934208BF4FF002099A4A934208BF4FF0BD
:108E100002090022D3B2994512D8974A08448842E1
:108E20001AD8954B1B79053398453FF779AF014622
:108E3000AAE7924BA8EB0707182000FB0737CFE7FC
:108E40008F783B4456FA83F301325F7AFF2F7FF429
:108E500067AF83F80980DDE74B78052B08D18F7861
:108E600007F07F0302EB430303EBD71383F819806A
:108E70000B781944D3E70AF1010AA3E7AFF30080A6
:108E800088E77F4B002B85D0AFF3008082E7BDF8E9
:108E90002200030A5A1EC0B20E2A00F24A81DFE8FD
:108EA00012F00F001A002B004801480191001A002F
:108EB000480148014801480148014801480116009D
:108EC000704A122308A9284672F03EFB5EE66E4AFD
:108ED00032F80239F6E7022B06D16A4B5A69002AAA
:108EE0003FF443AE5388EDE7684B002B00F021813F
:108EF000AFF300800246F2E7624E60B1032819D05A
:108F000096F85031834240F21481483006F5AA7138
:108F100056F8200053E0D6F82031A6F8543101204D
:108F20000130430043F44072A6F8522103F0FE03DF
:108F3000574AC7E7D6F82C71002F3DD10AA873F025
:108F40008BF90DF1280C0346B6463A46D1B28B4256
:108F50000EF1040E2DD94F4F0DF1380907F1100A0B
:108F600038687968C846A8E8030008375745C146FD
:108F7000F6D11CF8018B474F08F00F0112A80144ED
:108F80000DF1380A11F8101CAEF8521179683868E2
:108F9000D146A9E80300404908378F42CA46F5D1B7
:108FA00012A901EB1818013218F8101CAEF8501174
:108FB000CCE75800C0B2B3E706F5AA71384601F015
:108FC00079FBF7E7354B002B00F0B380AFF300805F
:108FD0000246002800F0AD80037873E7BDF8223028
:108FE000012B40F0A680637943F008036371D3E658
:108FF000BDF82230012B40F09C8063796FF3C303EE
:10900000F4E76379C3F340129B0803F002031343B0
:10901000ADF83830022325E69DF824300F2B00F2FE
:1090200088801E442379717A994239D2236801EBF2
:10903000410113EBC1017CD008AA0C312846FDF791
:10904000E7FA00287FF44BAD9DF8203013F0600361
:109050006FD19DF82120A2F10A01012969D80A2ABD
:10906000C8F810307FF498AEF9E500BF00000000AA
:10907000CDC009002DB90900D4490020D0B00B00A3
:1090800000000000484B002089B70D0000000000E0
:109090009A4C00200CED0D001CED0D0000000000AE
:1090A0005A1D8A4245DBA24AC91A182303FB012133
:1090B000C2E79DF8240000F07F0CBCF1080F3FF6DA
:1090C00054AD06EB4C0707EBD01794F804E07F7E15
:1090D00077454FEAD0114FEA4C0A16D2236807EBC6
:1090E000470703EBC70712BB9DF8212002F0FD0ED6
:1090F000BEF1010F24D0002A7FF437AD564431442D
:1091000091F82B30C3F3400382E70EF10509B9450E
:10911000C0F20981864BA7EB0E074FF0180E0EFB2D
:109120000737002AE0D008AA07F10C0150E5002F0C
:10913000F9D1002001F0F0FE802001F0EDFECEE438
:10914000BDF822E0BEF1000F2BD1012A3BD106EB86
:109150000A020A4425329279930722D510F0770F3C
:1091600011D0744A40F4807EC2F80C05C2F80CE5B8
:10917000C2F8180519B90CF5947C42F82C10BFF30D
:109180006F8FBFF34F8F5644314491F82B306FF3FC
:10919000410381F82B3091F82B306FF3000381F8F5
:1091A0002B30002F3FF49BAC08AA07F10C01284696
:1091B000FDF72EFA0023C8F8103094F82C30DE07A3
:1091C0003FF58DACE8E5FDF7A1FCEAE79DF820103E
:1091D00001F07F0706EB470606EBD116CA0996F8A1
:1091E0002B006FF3000086F82B0096F82B006FF32E
:1091F000820086F82B00002F4FD14F4D9DF81C6048
:109200002B78DDF82480B2EBD31F12D0B8F1000F19
:1092100006D04A4B1B68DB077FF561AC00BE5EE4FD
:109220002B69002B3FF45BAC2A460321304698475C
:1092300055E495F90030002B07DBA86800283FF4BF
:109240004EAC3F4942468CF011FAAA68EB89424481
:109250004344AA60EA889BB29A42EB8102D0B8F1FB
:109260003F0F16D82B696BB995F900300022002BFF
:109270001146B4BF38468020FFF74CFB00287FF42E
:109280002EACC6E72C4A0221304698470028EBD185
:1092900050E7304672F02CF9F0E7737E2279934262
:1092A0000DD2226803EB430312EBC3030FD1234B10
:1092B0001B68D80700D500BE13B0BDE8F08F501D65
:1092C0009842F4DB1A489B1A182202FB03031D691B
:1092D0009DF82120099B9DF81C00A847FFF7FFBBC4
:1092E0006379D9077FF5FBAB164B002B3FF4F7AB47
:1092F0006079C0F3C000AFF30080FFF7F0BB637983
:10930000DA077FF5ECAB104B002B3FF4E8ABAFF383
:109310000080FFF7E4BB089B002B3FF4E0AB09980B
:109320009847FFF7DCBB002A7FF403AF1746DBE664
:10933000D0B00B00007002408C490120F0ED00E03D
:10934000A049012000000000000000002DE9F743C3
:10935000DFF8D88098F80030FF2B0646474648D102
:10936000DFF8CC903822002109F105008CF0A6F935
:1093700009F14801012075F0C7F94D46C9F84000D0
:1093800040B9274B1B6813F0010F46D1002003B0F2
:10939000BDE8F08300230093D8F80820B8F8061041
:1093A000B8F8040008F1100375F0EEF8D8F80C10C6
:1093B000044675F03FFBC9F844402CB9184B1B68B4
:1093C000DB07E3D500BEE1E7164B23B1281DAFF361
:1093D0000080C9F80000DFF85C9000244FF0180806
:1093E0002879E3B2421D934205DD3E700E4B802288
:1093F0005A600120CBE7984208D9286808FB03008F
:1094000038B9074A126812F0010FBEE71B1A08FBB1
:109410000390036898470134E2E700BEB7E700BF56
:10942000F0ED00E00000000000E100E0044000205A
:10943000D4490020D0B00B0037B504461420019168
:1094400076F042FD0199054616F00AFA256003B050
:1094500030BD022A70B5054607D0032A13D0012A71
:1094600001D10B680360002070BD0C68142076F0F9
:109470002BFD2146064651F8043B40F8043B14F00E
:1094800093FE2E60EFE7FDF7C5F9ECE7E1E7022A6E
:1094900070B5054607D0032A13D0012A01D10B6805
:1094A0000360002070BD0C68142076F00DFD21468D
:1094B000064651F8043B40F8043B14F075FE2E605C
:1094C000EFE7FDF7A7F9ECE7022A70B5054607D0EC
:1094D000032A13D0012A01D10B680360002070BD5C
:1094E0000C68142076F0F0FC2146064651F8043B47
:1094F00040F8043B14F058FE2E60EFE7FDF78AF9C0
:10950000ECE7E1E7022A70B5054607D0032A13D03D
:10951000012A01D10B680360002070BD0C68142083
:1095200076F0D2FC2146064651F8043B40F8043B55
:1095300014F03AFE2E60EFE7FDF76CF9ECE7E1E797
:10954000E0E7DFE71FB50446684614F02DFE21462C
:109550006846FEF741FF684671F0F4FE204604B00D
:1095600010BD00BF014B93F858017047C05B00204D
:10957000014B93F849017047C05B0020014B93F801
:1095800062017047C05B00202DE9F041DFF8C8831D
:10959000C64BC74DC74E404694B0442240F80C3BE2
:1095A000002100248CF08AF8C34BC8F8083008F179
:1095B000540188F80440012075F0A6F8BF4BC8F8A4
:1095C0005000C8F80030BE4ABE49404684F000F85A
:1095D000BD48BB4ABD49C0F884404FF40053A0F8D1
:1095E0008030BB4BC0F88830A0F89C4083F0F0FF7F
:1095F000B84B0822DC60C3E901441A701C82B64BE8
:10960000B64A1C705C70B64B01271A60B54A1F71D0
:10961000D2F8B4101973D2F8AC109973D2F8B01014
:109620005973DC731C829C60AF4BB0491C7119608C
:10963000516F1973D1689973926F5A739C60DC7380
:109640001C821923C5E90055AC60AC812B614FF435
:109650007A732B62AE61C5F82880C5E90C44AC73FF
:10966000AC82EC6185F82C408022214605F17C001B
:1096700085F8384085F878408CF020F8882221461B
:1096800005F1FC008CF01AF88D4A9949284683F0C0
:109690009FFF98488A4A98498460C0E9000083F097
:1096A00097FF9648864A94498460C0E9000083F099
:1096B0008FFF9348824A90498460C0E9000083F09C
:1096C00087FF904870F032FB7D4A8F498D4883F0C8
:1096D0007FFF4FF4A47076F0F7FB06F124030546F4
:1096E000202240F8043B21468BF0E8FF6C621022F8
:1096F000214605F128008BF0E1FF2122214605F1EA
:1097000038008BF0DBFF2022214605F159008BF059
:10971000D5FF2022214605F179008BF0CFFF2022D2
:109720002146C5F89C4005F1A0008BF0C7FF85F8E5
:10973000C04005F1C40070F0F9FA2022214605F17D
:10974000C8008BF0BBFF2022214605F1E8008BF01A
:10975000B5FF2022214605F584708BF0AFFF202253
:10976000214605F594708BF0A9FF06F168032B6084
:10977000664B67481D6006F1AC08664B10930EA956
:10978000CDF838808DF83E40ADF83C40119442F061
:1097900087F84B4A60495E48604D83F019FF604B83
:1097A000604810930EA9CDF838808DF83E40ADF892
:1097B0003C40119403F0A4FA414A5B49594883F0B4
:1097C00007FF5A4B5A4810930EA9CDF838808DF8F0
:1097D0003E40ADF83C40119403F092FA384A5249A9
:1097E000534883F0F5FE534B534810930EA9CDF820
:1097F00038808DF83E40ADF83C40119403F080FA7B
:109800002F4A49494C4883F0E3FE4C4B4C48109397
:109810000EA9CDF838808DF83E40ADF83C4011944B
:1098200003F06EFA264A4049454883F0D1FE41F6DE
:109830000A030EA92846CDF83880ADF83C30CDE9B2
:1098400010448DF83E7042F02BF8284606F1BC0318
:1098500040F8183B242221468BF030FF394BEB6156
:109860001523C5E90F4485F83D30374BEB620523DE
:1098700085F84130354B2B63132385F8423085F84A
:1098800044402846324D0E4A324983F0A1FE41F64B
:109890000F030EA92846CDF83880ADF83C30CDE94D
:1098A00010448DF83E7041F0FBFF57E010E80B00CC
:1098B0003407012068B10B006440002020E80B0051
:1098C0000040002031F002007893002019B8030016
:1098D00080EE36002C0F0120F82F012000F002400E
:1098E00000300120D0B70D001430012000300240BC
:1098F0001357040028300120099F0700343001204D
:1099000040300120603001201F9D0900643001209B
:109910002033012056B70D00BBAF0700A83301204C
:1099200067B70D006830012025CD020077B70D0024
:109930006034012045B70D00B836012034B70D0062
:10994000C0300120ECB80D00F4AE0B00FAAE0B00F5
:10995000F0330120B9AF070088520020284606F1F5
:10996000D00340F8183B0EA942F61923ADF83C305D
:10997000CDF83880CDE910448DF83E7003F0C0F981
:109980002846BB4DBB4ABC4983F022FEBB4BCDF8F9
:1099900038800EA9284610938DF83E40ADF83C4023
:1099A000119441F07DFF284606F1E40340F8183B8E
:1099B0000EA9B34B1093CDF838808DF83E40ADF82A
:1099C0003C40119403F09CF9AA4AAE49284683F022
:1099D000FFFD234622462146AB48009473F002FB6C
:1099E000AA48AB4D70F0A2F9A24AAA49A74883F051
:1099F000EFFDA9489F4AA949046083F0E9FDA84802
:109A00009C4AA649046083F0E3FDA64B2B61A64B5C
:109A1000EB602846A54B6B6106F1F80340F8183B54
:109A20006D6045F2E86221468BF048FE3622214601
:109A300005F5AE408BF042FE8E4A9D49284683F0E4
:109A4000C7FD9C488B4A9C498460C0E9000083F0B4
:109A5000BFFD9A489A4D874A9A49C463C0E90144B8
:109A6000C0E90344C0E90544C0E90744C0E909442A
:109A7000C0E90B44C0E90D4483F0AAFD924B2B6171
:109A80002846924BEB6006F5887340F8183B6D60F2
:109A90006C614FF4FB5221468BF010FE10222146E0
:109AA0008B488BF00BFE734A8A4928468A4D83F017
:109AB0008FFD8A4B2B612846894BEB6006F594732A
:109AC00040F8183B6D606C61202221468BF0F6FD5A
:109AD000684A8449AC632846834D83F079FD834B03
:109AE0002B612846824BEB6006F5A07340F8183BCB
:109AF0006D606C614FF4F06221468BF0DFFD5D4AD2
:109B00007C49C5F89847284683F062FD7A4821468B
:109B1000102220F8024B8BF0D1FD5C2076F0D4F9B6
:109B2000054606F0B2FF2B46744A43F8382BC5E9C8
:109B30000E3306F5AC736B63714B2C64C5E91234BC
:109B40004FF400734FF00208A5F858306D4B6D6468
:109B500085F850806C6585F85A806F62CC201D6056
:109B600076F0B2F9054606F090FF2B46664A43F8B8
:109B7000382BC5E90E3306F5B6736B63634B2C6463
:109B800021467422C5E912346D64A5F8504085F869
:109B9000524005F154008BF091FD5D4BC5F8C84073
:109BA000C5F8248058201D6076F08EF9054606F031
:109BB0006CFF2B46574A43F8382BC5E90E33564BFA
:109BC0002C64C5E9123403236B6206F5C076534B4F
:109BD0006E636D642C65A5F8544085F856406C2082
:109BE0001D6076F071F9054606F04FFF2B464C4A92
:109BF00043F8382BC5E90E334A4B6B634A4B4B4E47
:109C00004B4A4C4831782C64C5E9123405F15C03A9
:109C1000C5E9153404236B62474B6D641D603388BE
:109C20001380464A2C651380454A85F85C401380B2
:109C3000444A84601380444A1380444B72785970BC
:109C40009A701C700B4A4249C0E9004483F0C0FC82
:109C50004048084A4049846083F0BAFC3F48054ABE
:109C60003F49846083F0B4FC3E48024A7CE000BF78
:109C70003833012000400020BDAF0700D1C30C00E5
:109C8000E1C30C00BFAF07006C930020C00C0120A3
:109C9000389600201F9D0900200F0120E53A06009C
:109CA000EC0E0120ED640200D96502000EAF0B003E
:109CB0007DBC0300600C0120099F07004C6600205A
:109CC000CC710020AB4903001B650200D365020084
:109CD0004491002015A30300E869002011650200EB
:109CE000D5650200EBA20300286A00200765020088
:109CF000D7650200BDA20300D2690020E4EA0B0090
:109D0000E9040300A843012064580C00C58804003E
:109D1000F0430120C8330C00B3D90300F443012001
:109D200034900D00AC900D00A5400900FF460120C5
:109D3000D843012024070120FC430120DB430120FC
:109D4000CC430120CE430120D0430120DE4301203B
:109D5000B1670200F4580020096802003059002061
:109D600009680200780C012044498460C0E900447D
:109D700083F02EFC4248434A43498460C0E90044D2
:109D800083F026FC41483F4A3F498460C0E90044D3
:109D900083F01EFC3E483B4A3E498460C0E90044D3
:109DA00083F016FC3C4B3025013D1C7303F10E0380
:109DB000FAD13A48334A31498560C0E9005583F009
:109DC00007FC37482F4A3749057200F10803C0E9FC
:109DD000003583F0FDFB3448344C2A4A3449856011
:109DE000C0E9005583F0F4FB012714222946C4E999
:109DF0000055A56004F10C008BF060FC214A2D4950
:109E00002D482565C4E90855C4E90A55C4E90C552F
:109E1000C4E90E55C4E91055C4E9125584F85470CC
:109E200083F0D6FB2548174A2549056083F0D0FB0F
:109E3000244B25481D705D709D70357075701BF04A
:109E400029FD104A2149204883F0C2FB20481BF01D
:109E500021FD0C4A1D491E4883F0BAFB0322294606
:109E6000384674F0A7FB1B4B186000283AD11A4BF8
:109E70001A4A1B480C2150F055F900BF09950900FA
:109E8000840C01200040002005F80300980C0120FC
:109E9000A40C012005F8030034440120D44601201D
:109EA000E0460120A1DF0A004C0A01207C0A0120C3
:109EB000377F0200A3940400B8080120F84601206F
:109EC000E53A0600FC460120AC5400206511030071
:109ED00080550020505600201CAF0B0026AF0B0011
:109EE00066AF0B00974A9849984C994F184683F0F3
:109EF0006FFB984B984A9D60C3E90025974ADA604A
:109F0000974B984A9D60C3E90025974ADA609749C4
:109F1000974B9848C3E90252C3E90015964B974AFC
:109F20001A60974A5A60974A9A60974ADA60974B44
:109F3000974A9D60C3E90025964ADA60964B974A96
:109F40009D60C3E90025964ADA60964B964A974988
:109F5000C3E90025964A9A60964ADA60964B974A7A
:109F60009D60C3E90025964ADA60964A11609649D9
:109F70008560C2E901159549D160954A95491160FE
:109F800095495160954991609549D160C0E9003586
:109F90006C4A9449C0F8EC5080F8F05083F018FBFC
:109FA0009148924B03610523037104F14C03002691
:109FB0004FF04008036204F15803C0E90935614AD3
:109FC0008B4905730575856105778560046080F8A8
:109FD0002D804563866383F0FBFA8648864B0361D8
:109FE0002223037104F16403036004F1B0030362EC
:109FF00004F1BC03436242F21073524A7F49057375
:10A00000057585610577856080F82880C762C6631D
:10A01000A0F8403080F84280476406638663466358
:10A02000856483F0D5FA7648764B03610423037187
:10A0300004F1C803036004F58873424A724905734A
:10A040000575856105778560036283F0C1FA6F4805
:10A050006F4B03610E23037104F58E73036004F5E7
:10A06000B473036204F5BA734362422380F8343058
:10A07000684B344A684905730575856105778560C5
:10A0800087638362C3620363C56383F0A1FA634895
:10A09000634B03611C23037104F5C073036004F573
:10A0A000E473604E274A60490573C0E908350575B9
:10A0B00085610577856083F08BFA5C4902A805F01D
:10A0C000BFFA304605F0E2F906F13003C6E90A3579
:10A0D00002AA0EA8564986F8305005F001FA5549F3
:10A0E0000EA884F04DF9014608A883F03FFF08A9A7
:10A0F00006F1280083F05AFF08A883F04DFE0EA851
:10A1000083F04AFE05F048FA02A883F045FE0D4AA6
:10A110004949304683F05CFA484B83F8E45083F8B1
:10A12000E850474B4FF47A729A6004F5EA721A606D
:10A1300004F5FE744FF47F425D601C619A8214B096
:10A14000BDE8F081004000206D9D0900FCB20B00CD
:10A150007452012078480120ADAE090092AF0B0087
:10A160008848012091AE09009BAF0B0073AE090037
:10A1700068480120984801204848012029B4090076
:10A18000E7650200E5650200CC450C001848012097
:10A1900005B409009FAF0B0028480120DDB309007A
:10A1A000A2AF0B0058480120B9B309008DB30900D4
:10A1B00027660200A7AF0B0038480120BD620200ED
:10A1C000AEAF0B00084801205FAE0900B3AF0B0033
:10A1D000F847012057B309004DAE0900216602007F
:10A1E000B6AF0B00C59903007C530020BCAF0B0039
:10A1F000C50A0300B8530020C3AF0B00030B0300D4
:10A2000004540020CAAF0B00010B03003854002097
:10A21000D1AF0B00CDCCCC3DFF0A03007C54002015
:10A22000D9AF0B002C530020FD0A0300E8F90B0006
:10A23000E2AF0B00EDAF0B00B9FA02009C51002019
:10A240002C4B002007B503688DF807105B680122CE
:10A250000DF10701984703B05DF804FBA0F1100071
:10A2600000F032B9407DFF2801D071F043BE704745
:10A2700010B5437DFF2B0CD0074A4FF4567000FBFE
:10A28000032000F0F5FB044608B976F06BFA20468F
:10A2900010BD0020FCE700BF2C4F01202DE9F74F37
:10A2A000437DFF2B06460F4614462FD015464FF42C
:10A2B000567A4FF6FE7B15B3707D71F059FEF0B102
:10A2C000737D134A01930AFB03294FF6FF7209F1CC
:10A2D00024095D4598BF2A4692B23946484600F0A7
:10A2E0002BFB8046484600F0C3FB3F28019B02D968
:10A2F000184671F0FFFDB5EB0805474403D1601B1C
:10A3000003B0BDE8F08F76F02DFAD4E70020F7E730
:10A310001C4F012008B5437DFF2B07D0044A4FF4A2
:10A32000567000FB032000F091FB08BD0020FCE705
:10A33000404F012073B5437DFF2B14D04FF456746A
:10A340005C430A4E04F1100001220DF10701304474
:10A3500000F022FA0546301971F020FE1DB19DF87B
:10A36000070002B070BD4FF0FF30FAE71C4F01202C
:10A3700073B5457DFF2D03D14FF0FF3002B070BDA6
:10A38000254E4FF4567303FB0563186A18B14FF05E
:10A39000FF3174F0A1FA4FF4567202FB0562118B83
:10A3A000538B908A89B29BB2994236BFC3EB40026D
:10A3B000CA1A521894B2E4B1A04209D281424FF4B1
:10A3C00056722CBF0B1A0B1802FB05629BB253830B
:10A3D00098421ED94FF4567101FB05610DF107003B
:10A3E000CA8A0969C2F30E0202FB03118BF03EF91F
:10A3F00001244FF4567303FB0565286A20B100233E
:10A400001A46194674F0FCF8002CB5D09DF80700E8
:10A41000B4E71B1A9BB2DBE71C4F012010B5194BA8
:10A420005A7DFF2A2CD11A7E52BB174C5A75012136
:10A43000197694F850110B2908D84A1C84F8502139
:10A4400001F14802114844F822000A461A75B4F88E
:10A450001821B4F81A3161690A489B1A9BB20A4460
:10A4600094F81C1100F030F850B1B4F818311844C9
:10A47000636980B2A4F81801588094F81C211A71FD
:10A4800010BD00BF2C4B0020484B002004E30B0004
:10A4900010B5407DFF2807D071F06AFD044608B969
:10A4A00076F060F9204610BD0024FBE7034B9B6863
:10A4B000B3F5966F01D171F0CDBE70471C4F0120EE
:10A4C00009B900B9F2E770472DE9F047074692B0A5
:10A4D00098461546002A00F090804B4B93F81C617B
:10A4E00093F81D1193F81EA1B21C83F81C214C1C7B
:10A4F0008A1C83F81D2164F07F040AF1010241F0F7
:10A500008009E4B283F81E214222002101A88BF0C9
:10A51000D5F8002D6DD0B8F1410F73D940F202206B
:10A52000ADF8080040F20940ADF80C0040F20120FF
:10A53000ADF8100024208DF8160034480690731CE6
:10A540000120DBB28DF806608DF80E608DF81C00DE
:10A550008DF826602E48397D8DF81E30032640F692
:10A56000083208908DF8273040F224608DF82B6077
:10A570008DF8313008260A230427ADF804208DF821
:10A58000141002220521ADF824008DF82C6040F251
:10A5900007508DF834304FF4116640238DF80720B2
:10A5A0008DF812208DF81510ADF828008DF83320A5
:10A5B000ADF838008DF83B208DF81F708DF82A908B
:10A5C000ADF82E608DF830708DF83AA08DF83C30E3
:10A5D00007238DF83F308DF8401044F202034222E9
:10A5E0000DEB070128468DF84140ADF842308BF065
:10A5F0003DF8422012B0BDE8F087924614469146DD
:10A60000164681E70020F5E7484B0020200105248D
:10A61000240202057FB5204B204A03F110061446A0
:10A6200018685968154603C50833B3422A46F7D15E
:10A630001B4A1B88106851682B8001AB03C3127A38
:10A640001A7004AA12E90700164B03C3194603F552
:10A65000887001F80829144AC4F818214FF4807250
:10A66000A4F81C210122616184F81E21002120220E
:10A670008BF024F840F20943C4F820310B4BC4F8A6
:10A6800024310B4BC4F828310023C4F82C310423A7
:10A6900084F8503104B070BD1FE30B00484B00201C
:10A6A00031E30B00604B00200900000113E30B00B5
:10A6B000ECB80D00F0B50546002004462B5D2E19C0
:10A6C000002B68D003F14002D2B2012A3DD9F42B0D
:10A6D0003BD81A061BD40122A3F55846B6F5006FE5
:10A6E00033D3B3F5803F14444FD31E2853DCA3F576
:10A6F000803342009E0A0A44C3F30903A6F520569C
:10A70000A3F5105321F8106002305380D6E703F010
:10A71000E002C02A1BD103F01F03022206F1010C44
:10A7200016441CF8017B07F0C00EBEF1800F0CD15F
:10A7300007F03F07664547EA8313F2D1022A16D194
:10A74000A3F18006B6F5F06FC6D30134B6E703F087
:10A75000F002E02A03D103F00F030322DEE703F047
:10A76000F802F02AF1D103F007030422D6E7032A06
:10A7700004D1A3F50066B6F5784FE5E7A3F580327E
:10A78000B2F5801FE1D20422A6E7202803D021F8E9
:10A790001030013092E7F0BD2DE9F0470646006920
:10A7A0008846914618B14FF0FF3174F095F833891F
:10A7B0007489B7889BB2A4B2A34236BFC4EB4705E5
:10A7C0001D1BED18ADB2F5B1AF4206D2BB422CBF96
:10A7D000DC1BDC19A4B274813D464D4528BF4D46B3
:10A7E000A74229D9F2883168A7EB04091FFA89F931
:10A7F000C2F30E0A4D4552460AFB04111FD86A43A4
:10A8000040468AF033FF7389B28899B215FA83F310
:10A810009BB299424FEA420201D8934201DB9B1A54
:10A820009BB23069738120B100231A46194673F038
:10A83000E7FE2846BDE8F087E41BA4B2D0E719FB89
:10A840000AF91FFA89F94A4640468AF00FFFEA1BC7
:10A85000224412FB0AF2316892B208EB0900D0E7F9
:10A86000F8B50446C0680F4616461D4618B14FF0AD
:10A87000FF3174F031F8206918B14FF0FF3174F0F6
:10A880002BF8ED03E0682760002345F001056381A4
:10A89000A680E580238118B11A46194673F0B0FEF0
:10A8A000206920B100231A46194673F0A9FE012041
:10A8B000F8BD38B50446C0680D4618B14FF0FF31F9
:10A8C00074F00AF8206918B14FF0FF3174F004F801
:10A8D000E379E06865F3C713E37120B100231A46FA
:10A8E000194673F08DFE206920B100231A461946DF
:10A8F00073F086FE012038BD10B50446C06818B15B
:10A900004FF0FF3173F0E8FF206918B14FF0FF31CD
:10A9100073F0E2FFE06800236381238118B11A46D7
:10A92000194673F06DFE206920B100231A461946BE
:10A9300073F066FE012010BD2DE9F84F07468846EA
:10A94000164642B3C06818B14FF0FF3173F0C4FF30
:10A95000FA793D897B89B7F80490D209ADB29BB2F0
:10A960001CD19D4239BFC3EB49046419EB1A9CB258
:10A9700038BFA4B2A14586BFA9EB0404A4B2002449
:10A98000A64228BF264656BBF86820B100231A46C7
:10A99000194673F035FE3046BDE8F88FF9884E450C
:10A9A000C1F30E0106D3A6EB090601FB06881D467E
:10A9B0004E46E8E79D424FEA490136BFCA1AEA1AF5
:10A9C000521992B232448A4209DB09EB0305AD1BEE
:10A9D000ADB2AB4201D8A94201DC6D1AADB22C4632
:10A9E000A1451DD9FA883868A9EB040A1FFA8AFA2A
:10A9F000C2F30E0BB2455A460BFB040014D372434C
:10AA000041468AF033FE7319BA889BB2AB424FEAD3
:10AA1000420201D3934201DB9B1A9BB23B81B3E715
:10AA2000A4EB0904A4B2DBE71AFB0BFA1FFA8AFABB
:10AA3000524641468AF01AFEA6EB0903234413FB53
:10AA40000BF2386892B208EB0A01DAE782880389D0
:10AA500040899BB280B2834236BFC0EB4200181AD5
:10AA6000C01880B2824286BF101A80B200207047A0
:10AA70000389428981889BB292B2934236BFC2EB6E
:10AA800041029B1A9B1898B2884228BF084670471B
:10AA900070B501F07F05082D2A4B2B4C4FEAD111E0
:10AAA00023D0012202FA05F0C043A1B905F10C063A
:10AAB000B240C3F80823D3F814251040C3F8140596
:10AAC00001EB450104EB01110023CB72BFF36F8F43
:10AAD000BFF34F8F70BDAE1CB240C3F80823D3F84C
:10AAE00010251040C3F81005EAE704EB011200201E
:10AAF000A2F80801D1B94FF48012C3F80823D3F8A3
:10AB0000142522F48072C3F81425C3F850110D4B9C
:10AB1000B4F808010022C3F81C25B4F81821C24279
:10AB200004BF4FF40012C3F80823C9E74FF40062D2
:10AB3000C3F80823D3F8102522F48072C3F8102537
:10AB4000E5E700BF00700240DC4C002001230360F9
:10AB5000BFF36F8FBFF34F8F074B984202D0043B78
:10AB6000984207D1BFF35B8F044B002283F820216A
:10AB7000BFF35B8F704700BF50700240DC4C002079
:10AB800010B40D4BBFF35B8F01464FF00104D3E8C7
:10AB90004F2FC3E84C4FBCF1000FF8D1BFF35B8FD0
:10ABA00012F0FF0F05D005485DF8044B0122FDF7B8
:10ABB000EDBD5DF8044BC9E7FC4D002081AB020000
:10ABC00043F2040307B51A68094B9A424FF000009C
:10ABD0000AD18DF807000DF10700FCF7F7F89DF892
:10ABE0000700003818BF012003B05DF804FB00BF68
:10ABF000DBE5B15107B5FFF7E3FF58B1002301A82A
:10AC00000193FDF77CFD0198003818BF012003B0C7
:10AC10005DF804FB4FF08043D3F80C24D3F80C0408
:10AC200010F4803018BF02F00100F0E701281FB5D2
:10AC3000044600F0B980022853D0002842D1774B57
:10AC4000D3F80025002A3DD14FF48002C3F8082331
:10AC50004FF40062C3F80024BFF36F8FBFF34F8F30
:10AC60006F4B1B68082B10D16E4B1B68032B0CD845
:10AC70006D4AD35C4BB16D4B6D4A1868032118BB0C
:10AC800049F27530186011601860FDF73EFD48B15B
:10AC9000664B684A1868C021C0B949F2753018601F
:10ACA000116018605D4B0124C3F80045BFF36F8F3E
:10ACB000BFF34F8FFFF79EFF20B9FFF781FF38B139
:10ACC000FDF721FD04B010BD1160DEE71160E9E77A
:10ACD000594B18601B680193019B4FF080431C6027
:10ACE000F0E74E4CD4F804351BB1FFF783FF002882
:10ACF000E8D1D4F800341B05FBD54FF40063C4F849
:10AD00000034BFF36F8FBFF34F8FFDF7FEFC48B1E8
:10AD1000464B484A1868002840D149F275311960FD
:10AD2000106019603E4B1B68082B0FD13D4B1B6810
:10AD3000032B0BD83C4AD35C43B13C4B3C4A1868CC
:10AD400078BB49F27531196010601960FDF7DDFCC0
:10AD500048B13A4B40F2E3721A6040225A60BFF3A6
:10AD60006F8FBFF34F8F2D4C354880220121C4F8DF
:10AD70001C25C4F804133349C1F884210078FF2846
:10AD800000D04A60FFF736FF0028FBD00123C4F84B
:10AD90000435BFF36F8FBFF34F8F93E7002313602A
:10ADA000C0E700231360D1E71C4BD3F80025002A2D
:10ADB00088D00022C3F80425BFF36F8FBFF34F8FF5
:10ADC00020498020C1F88400BFF34F8FBFF36F8FFD
:10ADD000D3F80013C3F80813C3F80025BFF36F8F2F
:10ADE000BFF34F8FFFF7ECFEA0B1FDF78AFC164BC7
:10ADF0005968C1F3080100230039CDE901330393F9
:10AE000018BF01214FF4007301A8ADF80430FDF71D
:10AE1000E7FC57E70D4B1C60E9E700BF00700240FC
:10AE200030010010340100103AE30B0000EC064042
:10AE300014ED064014EC064000010040007802408A
:10AE40000440002000E100E000ED00E004000040CC
:10AE5000F0B42B4ABFF35B8F02F590734FF00104FF
:10AE6000D3E84F1FC3E8454F002DF9D1BFF35B8FE7
:10AE700011F0FF0F14460BD0224B5A68C2F30802A0
:10AE8000003A0146F0BC204818BF0122FDF77EBC05
:10AE900008281E4919D1D1F8C034D80308D5BFF30A
:10AEA0005B8F002384F82031BFF35B8FF0BC7047C9
:10AEB00092F80B010028F2D0D2F800211448C1F812
:10AEC000A027C1F8A437F0BC40E602EB401500F51E
:10AED0009473460151F82340EF88AB88DB1B9BB28B
:10AEE000A4B2A34228BF23469459142202FB0011A6
:10AEF000C1F80047C1F80437064B03EB8000E2E7D6
:10AF0000DC4C002000ED00E061AF02000070024068
:10AF1000487002402870024010F07F0108B507D148
:10AF20000D4B01225A65BFF36F8FBFF34F8F08BDE2
:10AF30000829F8D0084B40F48072C3F81825C309DB
:10AF4000F1D1064A02EB4112907A0028EBD09372BD
:10AF50000846FFF77DFFE6E700700240DC4C00206A
:10AF6000C0B275E70C4B03EB4013D98A9A8A521A88
:10AF7000198B92B28A4228BF0A46196914234343A7
:10AF800003F1804303F51C33C3F80016C3F804260D
:10AF9000024B03EB8000F3E5DC4C00200470024020
:10AFA0002DE9F04FC34BC44AD3F80013002385B0FA
:10AFB0001C4601201D4621FA03F6F6070BD552F870
:10AFC000236046B100FA03F6344342F82350BFF33E
:10AFD0006F8FBFF34F8F0133192BECD1E7073BD5B0
:10AFE000B44B0122C3F81425C3F8102500221546DE
:10AFF000930003F1804303F51C330132082A5D609E
:10B000009D62F5D1AB4B5D629D64C3F85851D3F896
:10B010000024D3F800140A43C3F80024D3F8002313
:10B02000C3F80823A54AC3F80423A54B4FF4927232
:10B03000002118468AF042FB4022028302814FF42D
:10B040008073012101A8CDE901550395ADF80430C5
:10B050008DF80850FDF7C4FB14F4006F984D08D02C
:10B06000944BD3F8A8369BB2A5F81631012385F886
:10B070001C31A60204F4800736D58E4ED6F814355E
:10B0800013F4807308D01FB1D6F80034D80702D467
:10B090000820FFF7DDFE0123D6F81025D10540F189
:10B0A0005D8195F81C319BB1B5F8163100229BB239
:10B0B000CDE9012285F81C2103934FF4E062882337
:10B0C000012101A8ADF80420ADF80830FDF788FB98
:10B0D0000023CDE90133039301214FF4407301A80C
:10B0E000ADF80430FDF77CFB002F37D0714BD3F85F
:10B0F000006440F201723240C3F80024F2050DD51D
:10B100000121C3F82C150023CDE90133039301A8D5
:10B110004FF48063ADF80430FDF762FB77050FD57F
:10B12000644B0122C3F808259A65D3F8002312F472
:10B13000001208BFC3F854214FF40012C3F80423CF
:10B14000B0050BD50023CDE90133039301214FF462
:10B15000A06301A8ADF80430FDF742FB21023BD506
:10B16000544BD3F880E4D3F88424D3F88814D3F86C
:10B170008C74D3F89064D3F894045FFA81FCD3F80C
:10B180009814D3F89C341EF07F0F5FFA8EF8D2B279
:10B19000FFB2F6B2C0B2C9B2DBB201D1052A1BD0F0
:10B1A0004FF0000EADF806E08DF80D004FF4C06EC4
:10B1B0008DF80E1001A80121ADF804E08DF808808B
:10B1C0008DF809208DF80AC08DF80B708DF80C6091
:10B1D0008DF80F30FDF704FB3A4B23406BB1BFF302
:10B1E0005B8F95F82031BFF35B8F002B40F0BE8062
:10B1F000354B1B68DA0700D500BEDFF8C480DFF8E6
:10B20000B490DFF8CCB0474600264FF0140A06F1A0
:10B210000C0324FA03F3DB07F1B224D50AFB0693EF
:10B220003A68D3F8083705EB461C12FA83F23A6005
:10B23000BCF806E098B273449BB2082E4FEA46125F
:10B24000ACF8063000F09A803B89834240F096804B
:10B25000BCF80630B8889BB2984240F28F8011B992
:10B260005846FFF78DFC0136092E07F12007CED195
:10B27000164B2340002B00F089800E4BD3F86C74E2
:10B28000C3F86C74BFF36F8FBFF34F8F14F48064F7
:10B2900008D0D3F88044D3F880341906C4F3C0141E
:10B2A00040F18D804FF00009DFF808A000264FF034
:10B2B000140B0FE000700240007102400514C00141
:10B2C000DC4C0020FCFB1F00F0ED00E0000400015E
:10B2D0004C70024027FA06F3DA07F0B201D4D6B96F
:10B2E000CCB10BFB06A3D8F81020D3F8083652FADD
:10B2F00083F2C8F8102005EB4612D18A89B251FAC0
:10B3000083F39BB2D382D38AB8F814109BB29942CC
:10B3100058D9FFF727FE0136082E08F12008D9D1A9
:10B320000024012604F1100327FA03F3DB07E0B23F
:10B3300003D47CB9B9F1000F0CD005EB44116301C3
:10B34000CA7A002A53D0CA88898892B291424ED9CB
:10B35000FFF77EFD0134082CE4D117E0002B7FF4C9
:10B36000B7AE4FF40013C6F80833B1E60023BFF3BD
:10B370005B8F85F82031BFF35B8F3EE72A44D37A99
:10B380003BB91C4B1B68D80700D500BE05B0BDE813
:10B39000F08FD388BB800023D372D2884FF4E06053
:10B3A000CDE9013392B2ADF804008DF8081001A880
:10B3B000012103928DF80930FDF712FA53E74FF09F
:10B3C000010971E7D28A00234FF4E06160F07F0049
:10B3D000CDE9013392B2ADF804108DF808000121D7
:10B3E00001A803928DF80930FDF7FAF993E72B4491
:10B3F0009E72AFE7F0ED00E0034B43F602229A871E
:10B40000002283F83E207047004E002010B4114BFC
:10B4100002209A6B83F82C10996883F8300093F817
:10B420003C008A1A9A6220B942F205049C8783F88C
:10B430003E0059B152B11A7B5DF8044BD20914BFDA
:10B4400093F82E0093F82F00FBF760BB5DF8044BD8
:10B45000704700BF004E002038B5134C0546607B96
:10B4600070F08CFE48B942F2077384F83E00A3875F
:10B4700028460121BDE83840C8E7A268A36B94F8CC
:10B480002F00D21AB2F5007F28BF4FF4007292B29B
:10B4900004F14001FDF73EFA20B9044B1B68DB07BD
:10B4A00000D500BE38BD00BF004E0020F0ED00E02A
:10B4B00008B5FFF7A1FFBDE808400121A6E7024853
:10B4C000402200218AF0FAB8004E002002484022B3
:10B4D00000218AF0F3B800BF004E00202DE9F041B2
:10B4E000AC4C0D4694F8301001298AB0074600F0A4
:10B4F0004281032900F07381002945D194F82F205F
:10B50000AA4201D0012011E01F2B03D12268A24BD7
:10B510009A420ED094F82E00042384F83030FBF7C2
:10B52000F5FA94F82F00FBF7F1FA00200AB0BDE815
:10B53000F0819A4B23626368A26884F82C10C4E9F6
:10B540000931012384F83030E37BC4E90D2103F095
:10B55000FD0128293FD1E18A49BA89B23AB90029C7
:10B5600000F0038102213846FFF750FF0CE0282B42
:10B5700027D1207BC009F5D0A1B38A42F2D3282B72
:10B5800025D13846FFF794FF94F83030022BB9D11B
:10B5900094F82E00824B00F07F0203EB420303EB92
:10B5A000D01320339B799B07ACD4A368A26B934242
:10B5B00040F23B81217BC90900F03781FBF7A6FAF5
:10B5C000A0E72A2BD8D1207BC009D5D0CAE73846BE
:10B5D000FFF742FFD8E7A2B1217BC90911D1B2F52B
:10B5E000007F01D90121BEE76E4992B22846FDF7DE
:10B5F00091F90028C8D16C4B1B68DC0795D500BEBB
:10B6000094E7252B94F80D8006D8192B0ED8032B20
:10B6100075D0122B3FD093B394F83C30002BE1D17E
:10B6200042F20502A28784F83E30DBE71A3B0B2B7F
:10B63000F2D801A252F823F0E5B6020069B6020082
:10B6400019B6020019B6020019B6020019B60200B6
:10B6500019B6020019B6020019B602008DB6020032
:10B6600019B602007FB60200E17C4046C1F34003F8
:10B6700001F00102090970F084FD002871D194F8ED
:10B680003C30002BC8D1FFF7B7FEC5E70023CDE95A
:10B6900001330393F3E7454B424E0021CDE90131DD
:10B6A0004FF020381F231022202105A88DF80830E4
:10B6B000CDE9038801AD8AF001F8CDF824800FCDE3
:10B6C0000FC60FCD0FC62420C6F80080A268002A3E
:10B6D00088D0824228BF02466263324994F82E0025
:10B6E00092B284E7404670F049FD80F00103DBB27E
:10B6F000DB0543F00303019323640420E6E71222F1
:10B70000002101A889F0DAFF94F83C0094F83D107C
:10B7100094F83E208DF81010F0238DF804304FF08F
:10B72000000360F303038DF806300A238DF80B3015
:10B730008DF8112001AD0FCD1A4E0FC62B68338046
:10B740001B4BB3B14FF40072A6F110014046AFF3AA
:10B75000008000239842A38784F83E30FFF65CAF58
:10B76000B4D1A368002B7FF43DAF022384F83030BE
:10B770000AE71220EDE7A56BE27B2B44282AA3639E
:10B7800003D1626B9A42F0D9FBE62A2A12D1FFF765
:10B7900033FEE8E6004E00205553424355534253D2
:10B7A000D9490020404E0020F0ED00E00080020268
:10B7B00000000000237BDB0906D142F20502A287CC
:10B7C00084F83E30FFF722FED4E90D329A42CCD203
:10B7D0001C4B1B68DA077FF5D7AE00BED4E694F8A1
:10B7E0002E20AA427FF4D0AE0D2B7FF4CDAEE37BAA
:10B7F000282B09D02A2B14D0134B53B1607B04F1B2
:10B800000F01AFF3008004E0104B13B1607BAFF386
:10B81000008000230E4994F82F0084F830301F2256
:10B82000E5E6607B70F0ACFCF3E79B1AA362094984
:10B8300003230D2284F83030FDF76CF800287FF4E4
:10B8400061AED8E6F0ED00E000000000000000006E
:10B85000004E0020204E0020012973B506461546F3
:10B8600013D1137803F07F02022A42D16C78012CA5
:10B870003FD16A88002A3CD13749A88891F83030F6
:10B88000042BC0B203D1FBF741F9012017E091F876
:10B890002E20904215D1022BF7D18A6B8B689B1A10
:10B8A0008B62032381F830300D222031FDF732F80E
:10B8B0000028EAD1294B1B68DB074AD500BE02B03D
:10B8C00070BD91F82F40A042DFD1002BDDD1244A7A
:10B8D00004F07F0302EB430303EBD41320339A7984
:10B8E000D107D2D49B799A07CFD41B491F22204677
:10B8F000DCE703F06003202B2BD16B78FE2B13D0F9
:10B90000FF2B26D16B8823BBE9888AB20ABB124B76
:10B91000304699872946C3E90D2283F8302083F801
:10B920003E206FF0CDFDB0E76B8893B9EC88012C19
:10B930000FD18DF8074070F026FC50B1431E8DF8F2
:10B9400007300DF107022346294630466FF0FCFD13
:10B950009BE70020B3E700BF004E0020F0ED00E0C1
:10B96000D949002037B54B79082B02D0002003B00D
:10B9700030BD8B79062BF9D1CB79502BF6D1162A15
:10B9800005D8174B1B68D907F0D500BEEEE7154C5C
:10B990008B7884F82D3004F12E030D78019304F197
:10B9A0002F03009302231A462944FCF7BDFE28B951
:10B9B0000B4B1B68DA07D9D500BED8E7002394F8F3
:10B9C0002F0084F830301F222146FCF7A3FF20B956
:10B9D000034B1B68DB0700D500BE1720C7E700BF7D
:10B9E000F0ED00E0004E00208278884202D2837899
:10B9F000934200D07047037818448142F5D94378C8
:10BA0000042BF2D00B2BF6D1EFE7884202D2437819
:10BA1000934200D1704703781844F6E738B51446CE
:10BA20001D46884201D3084638BD8378A34202D11F
:10BA3000C378AB42F8D0037804221844FFF7E5FF3F
:10BA4000EFE710B51446884201D3084610BD83784D
:10BA500003F0FD02052A01D0112B02D1C378A342C5
:10BA6000F4D0037824221844FFF7CFFFEBE738B572
:10BA70000A4D1446884201D3084638BD8378112BFD
:10BA800006D825FA03F3DB0702D5C378A342F4D026
:10BA9000037824221844FFF7B8FFEBE750100200A8
:10BAA000C3883BB1027804490B2000FB02121068E6
:10BAB0001844704718467047405000202DE9F04167
:10BAC0000C46FFF7EDFF18B1A278037B9A4205D927
:10BAD000484B1B68DB073DD500BE3BE02AB9012B74
