:020000022000DC
:1060000000000420D56508001566080041750800E9
:10601000196608001B6608001D66080000000000E5
:10602000000000000000000000000000796408008B
:106030002166080000000000996408002566080039
:1060400009680800276608003D4308006D2F080016
:1060500027660800276608005145080027660800E3
:1060600027660800276608002766080027660800DC
:1060700027660800276608002766080027660800CC
:1060800027660800096208002766080027660800DE
:106090002766080027660800D5350800276608002F
:1060A000276608002766080027660800276608009C
:1060B00027660800276608000000000000000000B6
:1060C000276608002766080027660800AD6C0800F0
:1060D0002766080027660800276608000D2B0800C1
:1060E00049430800276608002766080000000000F2
:1060F000000000002766080000000000DD6C0800BA
:10610000000000000000000000000000000000008F
:10611000000000000000000000000000000000007F
:10612000000000000000000000000000000000006F
:10613000000000000000000000000000000000005F
:10614000000000000000000000000000000000004F
:10615000000000000000000000000000000000003F
:10616000000000000000000000000000000000002F
:10617000000000000000000000000000000000001F
:10618000000000000000000000000000000000000F
:1061900000000000000000000000000000000000FF
:1061A00000000000000000000000000000000000EF
:1061B00000000000000000000000000000000000DF
:1061C00000000000000000000000000000000000CF
:1061D00000000000000000000000000000000000BF
:1061E00000000000000000000000000000000000AF
:1061F000000000000000000000000000000000009F
:1062000010B5054C237833B9044B13B10448AFF3F0
:1062100000800123237010BDC8450020000000004D
:106220001CDE0B0008B5034B1BB103490348AFF359
:10623000008008BD00000000CC4500201CDE0B00E3
:10624000A3F5803A704700BF174B002B08BF134BD4
:106250009D46FFF7F5FF00218B460F461348144A71
:10626000121A75F06BFB0E4B002B00D098470D4BAC
:10627000002B00D098470020002104000D000D489D
:10628000002802D00C48AFF3008075F023FA2000FC
:10629000290060F0E1F974F035FF00BF000008004C
:1062A000000000000000000000000420C84500209D
:1062B00064B2012000000000000000007047022AC4
:1062C00006D0032A02D0012A00D1016000207047C5
:1062D0000B680360FAE7F2E7F1E7F0E77047704711
:1062E000008A704741827047817270477047402032
:1062F0007047202070471020704770476FF01800DB
:1063000070476FF0180070476FF0180070477047C3
:10631000002070476FF01800704700207047BBEEF8
:10632000090A704784B004A800E90E006FF0180055
:1063300004B070476FF0180070476FF01800704796
:106340000368D3F8E03018470368D3F8DC30184707
:10635000806D70474AB116290B466FF00800A8BF40
:1063600016238342B8BF034613700931C9B22029EE
:106370002CBF6FF00C000020704783684160194407
:10638000C160704700207047808B70473220704793
:10639000012070477047084A8B8992F8300108B194
:1063A000422B08D0012B05D00A3B012B8CBF0020CB
:1063B0000120704718467047105E0020006A431E97
:1063C0005842584170470020704790F83C00831EA7
:1063D00058425841704790F83800831E584258413F
:1063E000704700207047006A431E5842584170476A
:1063F000007B704700207047007B70477047024B5E
:1064000093F85801704700BF105E0020014B93F8CD
:1064100049017047105E002000207047002070473F
:10642000012070470020704700207047014B93F80F
:1064300062017047105E0020B0F872008A89131A5A
:10644000584258417047704770474B6A032B01BF51
:10645000034B1B68B3F8503083830020704700BFA4
:1064600044F40020F1E7F0E70020704727E7012A15
:1064700003D0022A03D0002070470160FBE70B68BD
:106480000360F8E7F3E70068096803689B6818474A
:10649000C0F88011704780ED5F0A70470020704798
:1064A0000068096803689B68184700680968036802
:1064B0009B6818470068096803689B681847808ACA
:1064C0008A89131A58425841704770477047012013
:1064D00070477047704770477047704782788842AE
:1064E00002D28378934200D07047037818448142E7
:1064F000F5D94378042BF2D00B2BF6D1EFE7884285
:1065000002D24378934200D1704703781844F6E7EB
:1065100038B514461D46884201D3084638BD8378F5
:10652000A34202D1C378AB42F8D0037804221844C6
:10653000FFF7E5FFEFE710B51446884201D30846A0
:1065400010BD837803F0FD02052A01D0112B02D182
:10655000C378A342F4D0037824221844FFF7CFFF76
:10656000EBE738B50A4D1446884201D3084638BDDA
:106570008378112B06D825FA03F3DB0702D5C378FD
:10658000A342F4D0037824221844FFF7B8FFEBE7C6
:1065900050100200C3883BB1027804490B2000FB75
:1065A000021210681844704718467047E4450020EE
:1065B0002DE9F0410C46FFF7EDFF18B1A278037BFF
:1065C0009A4205D9484B1B68DB073DD500BE3BE02E
:1065D0002AB9012B01D9012037E00122A2706FF006
:1065E0003F03A3766FF00303E3766FF06403237732
:1065F000032300254FF00108A377082384F80880BF
:106600006572A572E57284F80E80E5732574657471
:1066100084F81D8084F81F8084F8208084F821800D
:1066200084F8225084F823300378B0F80D10194410
:1066300001441844FFF795FF88420646C2D0877888
:10664000042F04D0062F05D00020BDE8F08184F887
:106650000C806573E27833799A42B3D81AB9012B6A
:10666000B9D80122E27030783044FFF764FF8842E5
:10667000A8D0D4F812302BB9042F25D0062F2CD057
:10668000C4F81230626852B9417E0129A3D8D0F80B
:106690001A2019B9D0F81E1091429CD1626042F2C2
:1066A0000F718A428ED9013B42F21071B2FBF1F2B6
:1066B0001344B3FBF2F30233B3F5807F28BF4FF4EA
:1066C0008073C4F8163086E7B0F80730B0F80520BC
:1066D0005A43737D5343DB08D2E7B0F80520B0F886
:1066E000073053431B01F6E7F0ED00E001203FF0D7
:1066F0007ABAFBE7FAE7F9E7044800214160016054
:10670000C0F8071050220C3075F018B9E44500208D
:106710000448002141600160C0F8071050220C308D
:1067200075F00CB9E445002010B50C2104465FF06B
:10673000DBFF204610BD10B5342104465FF0D4FFC6
:10674000204610BD024B034819885CF002BF00BF11
:106750000458002068560120024B034819885CF059
:10676000F8BE00BF045800206856012070B50546E9
:106770000C464CB1E1682846FFF7F8FFA6682046B2
:106780005EF0EEF93446F4E770BD70B505460C4690
:106790004CB1E1682846FFF7F8FFA66820465EF096
:1067A000DFF93446F4E770BD70B505460C464CB1D0
:1067B000E1682846FFF7F8FFA66820465EF0D0F9AA
:1067C0003446F4E770BD70B505460C464CB1E1683F
:1067D0002846FFF7F8FFA66820465EF0C1F9344668
:1067E000F4E770BD11B108305EF067B8704703463A
:1067F00007B59A680191013A08469A606DF0FCFA73
:10680000019803B05DF804EB5EF0AAB92DE9F843F6
:10681000304CA38A0E46002B54D0207B0B2202FB67
:106820000042126813449B788B424BD1D4E9073263
:106830009A423CD2304604F0BDF8002847D094F884
:106840005C00216AE369D4F82480471A1F44B845E4
:10685000454628BF3D46A8420ED91F4B1D6815F07E
:10686000010501D000BE00251C49AAB2304604F043
:10687000C3FAB0B101202BE0A369A5EB00092044C5
:1068800019444A465C3075F031F8236AB8454B44E8
:10689000236222BF94F85D3043F0020384F85D3038
:1068A000E2E70D4B1B68DA0711D500BE10E00023AC
:1068B000C4E9063323620A4B002BDBD0617BAFF3C4
:1068C0000080D7E7044B1B68DB0700D500BE002023
:1068D000BDE8F883E4450020F0ED00E040460020EC
:1068E000000000002DE9F04716460B78404A0C46A0
:1068F0000B2101FB03231F68238963B13B4400255F
:10690000987804F05DF96389258123B13B44987838
:1069100004F056F965814FF000096088B4F80480EE
:10692000C4F81490C4E903993844B84482783346D3
:106930004146FFF7EDFD8045054602D80020BDE841
:10694000F08790F804A0BAF1020F05D9294B1B6813
:10695000DA07F3D500BEF1E7C31BE38066B1287800
:1069600004F10809054409EB4A0ACA451ED10EB1D3
:10697000022363770120E2E7637F012BEFD004F16C
:106980001E0331466677A6613022184674F0D6FFA2
:1069900001462046FFF70CFE0028E0D1CEE76B78D9
:1069A000052B06D0042BD1D02B781D44A845F6D852
:1069B000CCE7EB7803F003038EB1012B05D1AA8855
:1069C000A369C2F30A029A42B8D3284604F028F811
:1069D00040B9084B1B68DB07B0D500BEAFE7022B00
:1069E000F3D0ABE7EB1B29F8023B2B781D44BCE747
:1069F000E4450020F0ED00E0F8B50F680E46898808
:106A000013463944BA783846FFF782FD814204467E
:106A100001D80020F8BD037D012B05D9114B1B685F
:106A2000DA07F6D500BEF4E70379B3B1012BF0D154
:106A30000378C5891D444119407A18440522204431
:106A4000FFF75DFD8142E4D903F0EAFF28B9054B69
:106A50001B68DB07DDD500BEDCE7E41BF48001200A
:106A6000D8E700BFF0ED00E02DE9F04713781546B8
:106A700003F01F02012A8EB0074688464AD1DFF88C
:106A80000093A988D9F800205FFA81FC4E46002ABD
:106A900000F0E3809478644540F0DF80C3F3411A4E
:106AA00013F0600F544603D0012C67D007230BE08E
:106AB0006B780A2B0BD00B2B25D0B04B186810F03D
:106AC00001004FF0070355D189F8093022E0B8F1F1
:106AD000010F03D000237372012410E0EB88012B17
:106AE00016D1B9F806100A442946D2788DF8082044
:106AF00002AA5BF09BF9044650B189F809A0204630
:106B00000EB0BDE8F087B8F1010FE3D1EB881BB1FF
:106B1000FF2373720024F2E7F18853181879A0B1AB
:106B2000525C587AD98910441144194405221844FA
:106B3000FFF7E5FC814205D8904B1B68D807E7D5E5
:106B400000BEE5E7807804F03BF84FF0000886F8D7
:106B5000068086F807806A8889493846FFF74CFF27
:106B600004460028D4D0294638465BF01BF986F845
:106B70000980C4E700BE89F80930C0E70C0A55D186
:106B80006B881A0A012A0AD0022A3CD07B4B18686B
:106B900010F001004FF00703BBD000BEB9E76B78DF
:106BA000812B22D0862B25D0012BEFD1B8F1010FFC
:106BB0000BD1EB88012BABD1724A01232946384611
:106BC0005BF034F9002885D1A2E7B8F1020F81D13A
:106BD0006D4B002B3FF47EAFB17A0020AFF3008005
:106BE0007072B0FA80F4640989E7B8F1010F7FF49C
:106BF00071AFDEE7B8F1010F7FF46CAFEB88012BCA
:106C000086D1624ADAE76B78812B08D0862BBDD11A
:106C1000B8F1010F7FF45EAF5D4A4346CEE7B8F1AD
:106C2000010F7FF457AF5B4A0123C7E7F388D01801
:106C3000D15CC3891944014481427FF64BAF83780C
:106C4000023B052B03D8C378A3423FF443AF03783C
:106C500024221844FFF753FCEEE7F08900283FF4A4
:106C600059AF337B0B2202FB03631C6820448378FB
:106C700063457FF44FAF2B78C3F3411913F0600FD6
:106C8000484629D0012876D10C0A74D16B881A0A9B
:106C9000022A00F0C781062A63D0012A66D196F83D
:106CA00029300BB186F8294095F80190B9F1010F10
:106CB00000F0878009F17F03DBB2062B56D8A9F1DB
:106CC0008103062B52D8DFE813F0B6018F008F0046
:106CD0008F000202A2018F006B780A2B0BD00B2BC6
:106CE0002AD0264B1C6814F001044FF0070334D15E
:106CF00086F8283003E7B8F1010F03D0002386F8A7
:106D00002830E9E6EB88012B40F0F8812248FFF7B4
:106D100041FC002800F0F281C3788DF8083002AA07
:106D20004346294638465BF081F80446002800F0C7
:106D3000E58186F82890E2E6B8F1010F76D16A88FD
:106D400015493846FFF7CEFD0446002800F0D681ED
:106D5000294638465BF026F8EBE700BE86F8283077
:106D6000D8E66B78812B19D0862B24D0034B1B6877
:106D7000DB0700F1C1810723F0E700BFF0ED00E081
:106D8000E4450020EE4500200000000029110A0023
:106D900028110A00ED450020F0450020B8F1010F50
:106DA000ACD1AF4A4346294638465BF03FF800284D
:106DB000A4D1FF23D2E7B8F1010F9FD1A94A012343
:106DC000F1E7B8F1010F02D1A74A3023EBE7B8F1A0
:106DD000020F93D1A449A1F11E00FFF7E9FB04467D
:106DE00000288BD1082383E7B8F1010F86D1EB8807
:106DF000002B00F083819C4B02AA03F1300E144655
:106E0000186859689446ACE8030008337345624635
:106E1000F6D19DF80A20BABBB9F1830F09D0B9F1B8
:106E2000870F2FD0B9F1820F2CD0082086F82800C8
:106E3000D7E68E48FFF7AEFB10B1037B8DF80A3022
:106E40004FF001130121CDE904130023ADF81830F0
:106E50004FF6C043ADF8223040F29B13ADF824301A
:106E600040F20313ADF82630814B0A9322463023BB
:106E7000294638465AF0DAFF0446002800F03E81E1
:106E8000002335E70123D9E79DF80BA00192BAF161
:106E9000000F48D17548FFF77DFB019A28B9754B63
:106EA0001B68DA07C1D500BEBFE70378B0F80D1044
:106EB000194401441844FFF754FBB9F1830F80468D
:106EC00007D0B9F1870F19D0B9F1820FADD10122E6
:106ED00000E002798DF80B2098F800004044FFF79D
:106EE0002AFB98F80230042B11D0062B9DD1B0F864
:106EF0000520B0F8073053431B0110E08378042BC2
:106F000003D0062B91D18279E4E7827DE2E7B0F8E5
:106F10000730B0F805205A4398F815305343DB0882
:106F2000CDF81A30A2E7DDF80C80B8F1000F9DD142
:106F30004E48FFF72FFB019A0028B0D00378B0F835
:106F40000D10194401441844FFF70BFB0378524617
:106F50001844A9F18209FFF7EEFAB9F1050F3FF6DF
:106F600064AF01A353F829F0B56F0200816F0200EE
:106F7000DD6F02002B6E02002B6E0200CF6F02004D
:106F8000437EA3B1053300EB8303D3F80280D0F82E
:106F90001A3042F21072B3FBF2F3CDF80C80B8F164
:106FA000000F22D1ADF81E80ADF820805EE7D0F84A
:106FB0001E80ECE7437E3BB1053300EB8303D3F83F
:106FC0000230D0F81A80E4E7D0F81E30F9E7D0F8A4
:106FD000158042F21073B8FBF3F3DEE7437E13B97A
:106FE000D0F82280F5E70023D7E7DDF81A2043B96F
:106FF000931CB3F5807F28BF4FF48073CDF81E300B
:1070000034E7013A1A44B2FBF3F30233F1E7B8F183
:10701000010F7FF473AEEB88012B7FF4CAAE4346B9
:10702000154AC0E66B78852B51D00DD8012B25D0A1
:10703000812B7FF49BAEB8F1010F7FF45FAEEB883C
:10704000002B7FF4C1AEB4E6862B7FF48FAEB8F18F
:10705000010F7FF453AEEB88012B7FF4AAAEDFE77C
:107060000C46002028110A000E460020F0450020A2
:1070700001010008F0ED00E029110A00B8F1010F4C
:107080003FF4A2AEB8F1020F7FF438AE1C4A1146AD
:10709000A2F11E00FFF78CFA194A044600283FF4BB
:1070A000A1AE336C7362174B33B1717B307BAFF39E
:1070B000008000287FF422AE0023C6E90633336245
:1070C0000223A6F85C304FF48073338517E5B8F1DE
:1070D000010F7FF413AEEB88022B7FF46AAE3022EF
:1070E000ADF80820294602AA38465AF09FFE044609
:1070F00000287FF4C5AE5CE600BE3CE6FF2095E6C6
:107100000E460020000000002DE9F04F2DED028B0F
:107110004B790E2B08EE100A83B00D46174605D0AA
:10712000002003B0BDEC028BBDE8F08F8B79012B02
:10713000F6D1CB79012BF3D12D4CD4F80080B8F1E6
:10714000000F4ED12160A28021464246FFF754FC39
:107150000028E5D0E28823682F44134439462846A6
:1071600093F814A0FFF7BAF904F1080B06465FFA8A
:1071700088F9CA4503D8751BA8B2A580D1E7E28972
:107180007ABB731B0BF8012B3946304622730192F0
:10719000E381009384F80D90FFF7A0F9019A009B1A
:1071A00084F82920411B06462182B9F1000F02D044
:1071B00008F10108DBE7BAF1010FF9D115FA83F004
:1071C00015FA81F182785346FFF7A2F98142EFD197
:1071D000084918EE100A4A46FFF784FB0028E7D159
:1071E0009EE7054B1B68DB079AD500BE98E700BFFA
:1071F000E4450020F0450020F0ED00E0F0B501F19D
:10720000200C00254FF0000E51F8043B05F001055D
:107210005E1B52F8043B6EEB4E07F41A67F1000553
:10722000614540F8044BEFD105F00100F0BD70B5A9
:10723000046805460E46A54207D0A068036831469B
:107240009B68984710B92468F5E7002070BD034695
:1072500010B41B685C68084611462CB1A4469B68B4
:107260005DF8044B0122604702205DF8044B704733
:10727000034610B41B681C68084611462CB1A4468E
:107280009B685DF8044B0122604702205DF8044BC7
:10729000704713B5044600212EF084FF01AA062191
:1072A0002046FFF7D4FF50B99DF8043001AA60F3DF
:1072B0008613062120468DF80430FFF7D9FF02B06F
:1072C00010BD13B5044600212EF06CFF01AA062163
:1072D0002046FFF7BCFF50B99DF8043001AA60F3C7
:1072E0004513062120468DF80430FFF7C1FF02B098
:1072F00010BD10B548B1046954B184680123A0479A
:10730000002818BF6FF0020010BD6FF00A00FBE705
:107310006FF00400F8E720B1024B800143F0010355
:107320001847704790140A00F5E7F4E7A4DF7047A8
:10733000A3DF7047B2DF7047B1DF7047B0DF70473F
:1073400011DF70473DDF70473CDF704763DF7047F8
:1073500062DF7047A8DF704786DF704785DF7047C0
:1073600081DF704746DF70478ADF70477ADF7047FA
:10737000A0DF7047007D7047407C7047007D7047FC
:10738000B5DF704790DF70478FDF7047AEDF704723
:10739000ADDF7047ACDF7047ABDF7047AADF7047E7
:1073A00075DF704774DF704700231A4619465DF099
:1073B00031BD4FF0FF315DF099BE30B5294C054627
:1073C0009DB0206DFFF7F5FF94F84C3001952546F0
:1073D0007BB1254801AB02AA06A907F0DFFB0446F2
:1073E00078B1286DFFF7E0FFB4FA84F040091DB0D2
:1073F00030BD04F10C0007F04CF804460028E8D03A
:10740000EFE79DF80C30222B16D0174802AA06A9E8
:1074100007F086FA04460028E3D19DF80C30222BB1
:10742000DFD1114806AA12A906F060FF041ED8DBBE
:107430000BD10E483EF064FC0B4804AA11A906F0DB
:10744000ECFA04460028E0D0CBE71A9B0F931B9B75
:107450001093002304481A4606A907F0E5F80446ED
:10746000BFE700BFA84E0020B44E0020AE100A00B7
:1074700012DF70474B1E062B88BF0A46817A98BFE1
:1074800008220231D208C9B231F02ABE4B1E062BA7
:1074900088BF0A46417A98BF08220231D208C9B291
:1074A00031F01EBE4B1E062B88BF0A46017A98BFDC
:1074B00008220231D208C9B231F012BE30B50446FA
:1074C00085B00A200D465DF004FB0A4B00930321B2
:1074D0000023CDE901130393207923686A462AF03B
:1074E00067F800B220B9294668462CF0A0FF00B228
:1074F00005B030BD54F6002030B5044685B00120FB
:107500000D465DF0E6FA0A4B009303210023CDE916
:1075100001130393207923686A462AF049F800B2E0
:1075200020B9294668462CF082FF00B205B030BD74
:107530005817012038B5437A04460D460BB934F08C
:107540001EF920460322802134F0B2F8E27A204668
:107550002A43812134F0ACF825732046BDE8384039
:1075600034F0BDB838B5437A04460D460BB934F053
:1075700006F920460322802134F09AF8227B204627
:107580002A43812134F094F8E5722046BDE8384062
:1075900034F0A5B838B515461A4650B1C368AB42A9
:1075A0000AD344682B46A047002818BF6FF002009A
:1075B00038BD6FF00A00FBE76FF00400F8E738B55C
:1075C000437C04460D4673B120462CF013F9227A11
:1075D000657220462A43A1212CF0B0F82046BDE870
:1075E00038402CF0BCB803492CF0CCF80028EBD183
:1075F00038BD00BF2C36012038B5437C04460D460B
:1076000073B120462CF0F6F8627A257220462A43A0
:10761000A1212CF093F82046BDE838402CF09FB80B
:1076200002492CF0AFF80028EBD138BD2C360120F0
:107630001FB504688DF80C10ACB103230022CDE90E
:10764000003203AB01221946204608F040FC9DF8A9
:107650000D309DF80C001B0243EA00439DF80E001C
:10766000184304B010BD0323009303AB0122194655
:10767000406808F035FBEAE71FB504688DF80C1088
:107680008CB102230022CDE9003203AB012219465E
:10769000204608F01CFC9DF80C009DF80D3043EAD4
:1076A000002004B010BD0223009303AB0122194651
:1076B000406808F015FBEEE708B5FFF7DDFF40BABC
:1076C00080B208BD1FB504688DF80C1064B10023AA
:1076D0000122CDE9002303AB1946204608F0F7FB51
:1076E0009DF80C0004B010BD0122009203AB1946B6
:1076F000406808F0F5FAF3E71FB504688DF80D202F
:1077000064B10023CDE900338DF80C10012302226F
:1077100003A9204608F0ABFB04B010BD01F07F01C7
:1077200000948DF80C102346022203A9406808F04B
:10773000F7FAF1E70078C0F3C20300F007029B00FC
:1077400043EA421343EA901070471FB544688DF82E
:107750000C10ACB103230022CDE9003203AB0122AF
:107760001946204608F0B3FB9DF80D309DF80C003B
:107770001B0243EA00439DF80E00184304B010BDFD
:107780000323009303AB01221946806808F0A8FA8E
:10779000EAE71FB544688DF80C109CB10223002263
:1077A000CDE9003203AB01221946204608F08FFBD9
:1077B0009DF80C309DF80D0040EA032040BA80B2DD
:1077C00004B010BD0223009303AB01221946806868
:1077D00008F086FAECE71FB544688DF80C1064B128
:1077E00000230122CDE9002303AB1946204608F00F
:1077F0006EFB9DF80C0004B010BD0122009203AB9B
:107800001946806808F06CFAF3E71FB544688DF8F4
:107810000D2064B10023CDE900338DF80C10012355
:10782000022203A9204608F022FB04B010BD01F09B
:107830007F0100948DF80C102346022203A9806872
:1078400008F06EFAF1E7836903B1184718467047EC
:107850000378642223F0020303704068B0FBF2F067
:10786000B0FBF2F302FB1300C0B27047037C0BB90C
:1078700003707047836843600378C16043F003037B
:107880000370002303747047037819B143F00403B5
:107890000370704703F0FB03FAE74BDF704733DFF9
:1078A000704732DF7047BFF34F8F0549054BCA68F9
:1078B00002F4E0621343CB60BFF34F8F00BFFDE7DC
:1078C00000ED00E00400FA0538B504460068844283
:1078D00004D005685DF044F92846F8E738BD10B5D6
:1078E000044612F0B5FC2388838110BD0B4B10B504
:1078F0001C680BF0D3FB236801461B6820469847A1
:10790000044640B10FF0C6FF28B194F82D3013B1F2
:1079100004F12D0010BD0248FCE700BF206C0020E0
:10792000B2100A00034B1A79062A0CBF93F898008C
:1079300000207047E8680020064B187900F0FB0330
:10794000022B04D0A0F10B0358425841704701208C
:10795000704700BFE8680020094B10B51C6864B18F
:1079600060680BF085FB38B194F8600194F86A31D7
:1079700098422CBF0020012010BD2046FCE700BF2C
:10798000F4EE002010B5044600686CF0A1FA206007
:10799000204610BD38B5044608200D465EF09EFE18
:1079A0002B68436023680360206038BD70B50546CE
:1079B0000C464CB1E1682846FFF7F8FFA668204660
:1079C0005DF0CEF83446F4E770BD10B504460068AB
:1079D0006CF058FA2060204610BD8B6873B51646CF
:1079E00004460D1D01225BB130681A69904234BF14
:1079F0009868D8681D4634BF012200220346F2E78A
:107A0000019552B1CA68AA4204D1C4E900352046A2
:107A100002B070BD01A8FFF7B5FF019A3368116984
:107A200099424FF00003F0D3C4E90023EFE770B5AB
:107A300005460C464CB1E1682846FFF7F8FFA668FA
:107A400020465DF08DF83446F4E770BD38B5044645
:107A50000C200D465EF042FE2B68836021466CF0E0
:107A6000C4F9A3680133A36038BD38B504460C20BF
:107A70000D465EF033FE2B68836021466CF0B5F94D
:107A8000A3680133A36038BD70B5046805460E468F
:107A9000AC4207D0A068036831469B68984710B98C
:107AA0002468F5E7002070BD8B6873B51646044660
:107AB0000D1D01225BB130881A8A904234BF98684C
:107AC000D8681D4634BF012200220346F2E7019523
:107AD00052B1CA68AA4204D1C4E90035204602B0B6
:107AE00070BD01A8FFF74EFF019A3388118A9942B1
:107AF0004FF00003F0D3C4E90023EFE78B6873B5C0
:107B0000164604460D1D01225BB130881A8A904248
:107B100034BF9868D8681D4634BF0122002203464E
:107B2000F2E7019552B1CA68AA4204D1C4E900350E
:107B3000204602B070BD01A8FFF724FF019A3388E8
:107B4000118A99424FF00003F0D3C4E90023EFE714
:107B500070B505460C464CB1E1682846FFF7F8FFC2
:107B6000A66820465CF0FCFF3446F4E770BD10B513
:107B70000C4650B11EF044FA38B1043050E8003FD2
:107B8000234440E80032002AF8D110BD10B5013876
:107B9000029C0F2800F28480DFE800F05E82362825
:107BA0001A1458084A6D7073797D8044DFED427A6B
:107BB0009FED427A002908BFF0EE477AC2ED007AC5
:107BC000052261E0DFED3E7A9FED3E7A0029F2E783
:107BD000DFED3B7A9FED3B7A002908BFF0EE477A54
:107BE000C2ED007A05222270082242E0DFED347AED
:107BF0009FED347A002908BFF0EE477AC2ED007A93
:107C000005222270092234E0DFED2D7A9FED2D7AD6
:107C1000002908BFF0EE477AC2ED007A05222270F3
:107C20000A2226E0DFED247A9FED247A0029E2E79C
:107C3000DFED217A9FED217A002908BFF0EE477A27
:107C4000C2ED007A082222700B2212E0DFED1E7ACC
:107C50009FED1E7A0029F0E7DFED1B7A9FED1B7A7E
:107C6000002908BFF0EE477AC2ED007A08222270A0
:107C70000C221A7010BD16491160C1E71449116039
:107C8000CCE714491160062222700722F1E711495E
:107C900011600622A7E71049116091E70E49F7E746
:107CA000DFED077A9FED077A002908BFF0EE477AEB
:107CB000C2ED007A0522C6E70020CB440000FA435B
:107CC00000204B4400007A430020CB430000FA42DE
:107CD0000000FA4200007A429A997941F8B50D46BF
:107CE0000168044606468C420FD08A682B680F68EC
:107CF0009A4208D101F108039D4203D02046FEF7C5
:107D000076FD00E00E463946EDE7B44205D0314637
:107D10002046BDE8F840FEF76ABDF8BDF8B50D464F
:107D20000168044606468C420FD08A682B680F68AB
:107D30009A4208D101F108039D4203D02046FEF784
:107D400056FD00E00E463946EDE7B44205D0314617
:107D50002046BDE8F840FEF74ABDF8BD2DE9F047E2
:107D6000D0E90487436AD0E902A904463D1D1E1DDF
:107D7000AE4204D955F8040B5CF0F2FEF8E7C4E912
:107D800006A9C4E90887BDE8F0872DE9F047D0E9E6
:107D90000487436AD0E902A904463D1D1E1DAE4278
:107DA00004D955F8040B5CF0DBFEF8E7C4E906A93A
:107DB000C4E90887BDE8F087036870B5044663B17D
:107DC000436A45691E1DAE4204D955F8040B5CF0A8
:107DD000C7FEF8E720685CF0C3FE204670BD03686C
:107DE00070B5044663B1436A45691E1DAE4204D9AD
:107DF00055F8040B5CF0B4FEF8E720685CF0B0FEC8
:107E0000204670BD50F8183B834202D018465CF003
:107E1000A7BE704710B50446FFF756FD0023C4E91E
:107E20000044A36010BDD0E90032934218BF436004
:107E30007047B0F1005F08B501D36CF08BF9BDE875
:107E4000084080005EF04ABC08B15CF089BE704713
:107E5000026962B1836850F82310013303F0010313
:107E600048BF5B42013A8360026108467047114691
:107E7000FBE7826A10B582B1036A50F823400133F0
:107E8000594201F0070103F0070302F1FF3258BF26
:107E90004B4203628262204610BD1446FBE7026932
:107EA00062B1836850F82310013303F0010348BF27
:107EB0005B42013A83600261084670471146FBE766
:107EC000826C10B582B1036C50F8234001335942E3
:107ED00001F00F0103F00F0302F1FF3258BF4B42D4
:107EE00003648264204610BD1446FBE70146014846
:107EF00012F0D6B9A89700202DE9F347CB68DFF838
:107F0000649001930E1D07460C4635464FF0FF382E
:107F1000DDF804A0564510D0DAF81010D9F8043076
:107F2000994206D038460AF075FF804584BF554611
:107F3000804601A8FFF749FDEAE7AE4210D001A84C
:107F40000195FFF742FD314628466CF01FF85CF0C2
:107F500007FE6369013B6361012002B0BDE8F08761
:107F60000020FAE7D86100202DE9F347CB68DFF85D
:107F7000649001930E1D07460C4635464FF0FF38BE
:107F8000DDF804A0564510D0DAF81010D9F8043006
:107F9000994206D038460AF03DFF804584BF5546D9
:107FA000804601A8FFF711FDEAE7AE4210D001A814
:107FB0000195FFF70AFD314628466BF0E7FF5CF0BC
:107FC000CFFD6369013B6361012002B0BDE8F0872A
:107FD0000020FAE7D86100202DE9F347CB68DFF8ED
:107FE000649001930E1D07460C4635464FF0FF384E
:107FF000DDF804A0564510D0DAF81010D9F8043096
:10800000994206D038460AF005FF804584BF5546A0
:10801000804601A8FFF7D9FCEAE7AE4210D001A8DC
:108020000195FFF7D2FC314628466BF0AFFF5CF0BC
:1080300097FD6369013B6361012002B0BDE8F087F1
:108040000020FAE7D86100202DE9F347CB68DFF87C
:10805000649001930E1D07460C4635464FF0FF38DD
:10806000DDF804A0564510D0DAF81010D9F8043025
:10807000994206D038460AF0CDFE804584BF554669
:10808000804601A8FFF7A1FCEAE7AE4210D001A8A4
:108090000195FFF79AFC314628466BF077FF5CF0BC
:1080A0005FFD6369013B6361012002B0BDE8F087B9
:1080B0000020FAE7D86100208B6873B516460446A5
:1080C0000D1D01225BB130681A69904234BF986877
:1080D000D8681D4634BF012200220346F2E701950D
:1080E00052B1CA68AA4204D1C4E90035204602B0A0
:1080F00070BD01A8FFF746FC019A336811699942E7
:108100004FF00003F0D3C4E90023EFE78B6873B5A9
:10811000164604460D1D01225BB130681A69904273
:1081200034BF9868D8681D4634BF01220022034638
:10813000F2E7019552B1CA68AA4204D1C4E90035F8
:10814000204602B070BD01A8FFF71CFC019A3368FD
:10815000116999424FF00003F0D3C4E90023EFE71F
:108160008B6873B5164604460D1D01225BB130685D
:108170001A69904234BF9868D8681D4634BF0122FE
:1081800000220346F2E7019552B1CA68AA4204D11F
:10819000C4E90035204602B070BD01A8FFF7F2FB2C
:1081A000019A3368116999424FF00003F0D3C4E992
:1081B0000023EFE78B6873B5164604460D1D0122B8
:1081C0005BB130681A69904234BF9868D8681D4620
:1081D00034BF012200220346F2E7019552B1CA687A
:1081E000AA4204D1C4E90035204602B070BD01A8FE
:1081F000FFF7C8FB019A3368116999424FF00003F9
:10820000F0D3C4E90023EFE730B5031D82681846B8
:108210003AB115690C68A5422ABF1046D268926827
:10822000F6E7834204D009680269914238BF1846D4
:1082300030BD30B5031D826818463AB115690C6827
:10824000A5422ABF1046D2689268F6E7834204D05E
:1082500009680269914238BF184630BD30B5031D28
:10826000826818463AB115690C68A5422ABF1046C3
:10827000D2689268F6E7834204D0096802699142A5
:1082800038BF184630BD30B5031D826818463AB174
:1082900015690C68A5422ABF1046D2689268F6E7B5
:1082A000834204D009680269914238BF184630BD44
:1082B00037B54B690192272B05460C460AD901A90F
:1082C0002046FFF7E0FF231D834203D121462846C5
:1082D000FFF7BAFE03B030BD10B581680446FEF763
:1082E00045FA0023221DC4E90322A360636110BD87
:1082F00010B581680446FEF748FA0023221DC4E940
:108300000322A360636110BD10B581680446FEF7C7
:108310004BFA0023221DC4E90322A360636110BD50
:1083200010B581680446FEF74EFA0023221DC4E909
:108330000322A360636110BD2DE9F84300F1040935
:10834000846805464E46ECB123690868834204D22E
:10835000E368344626461C46F5E7A368FAD8E26887
:1083600043B1196988428ABFD968996823461C4677
:108370000B46F5E73AB11369984236BF1646D26804
:108380009268F7E73446EB68D5F81480A34209D128
:10839000B14507D12846FFF7C3FF6869A8EB000085
:1083A000BDE8F883A642F8D020466BF07EFD494632
:1083B000074620466BF0EAFD5CF0D2FB6B69013B9F
:1083C0006B613C46EEE708B15CF0CABB7047B0F1A8
:1083D000005F13B501D36BF0BDFE82001046019221
:1083E0005EF07CF9019A0021044673F0A7FA20465A
:1083F00002B010BD42680B4604318A4210B50446F3
:1084000004D01846521A73F07FFA03466268043AA1
:108410006260184610BD10B103685B68184770476A
:1084200010B103685B681847704710B103685B6858
:108430001847704710B103681B691847704710B19F
:1084400003685B681847704770B505460C464CB129
:10845000E1682846FFF7F8FFA66820465CF080FB3D
:108460003446F4E770BD70B5046805460E46AC426C
:1084700007D0A068036831469B68984710B9246804
:10848000F5E7002070BD10B50378DB07044604D57E
:108490005CF014FBE368C01A10BD4FF0FF30FBE73F
:1084A00073B5044616460D4619B912B10D486BF066
:1084B00054FE731B0F2B019307D9002201A92046FC
:1084C0006CF050F8019B2060A3603246294620687A
:1084D0006CF087F8019B226863600021D15402B0E0
:1084E00070BD00BFB6100A00FFF7DABF08B5064B33
:1084F000064A1868064900F61C7008F0E7FEBDE859
:1085000008400E200EF058BC642B0120E0100A0039
:10851000F9100A0070B5046805460E46AC4207D053
:10852000A068036831469B68984710B92468F5E74E
:10853000002070BD10B50B4904460B48FFF7EAFF59
:1085400068B123681D2B0BD801332360074B084A01
:108550001868084900F61C7008F0B8FE012010BD2C
:108560000020FCE728110A000C180120642B0120D0
:10857000FF100A001C110A0070B5046805460E467B
:10858000AC4207D0A068036831469B68984710B991
:108590002468F5E7002070BD44DF704743DF704773
:1085A00042DF7047064B1868043B1B68082B04D158
:1085B00003288CBF0020012070470020704700BFB7
:1085C00034010010024B1B68DB0700D500BE70476A
:1085D000F0ED00E0034B1B68DB0700D500BE002078
:1085E000704700BFF0ED00E0014B93F85801704771
:1085F000105E0020014B93F849017047105E002087
:10860000014B93F862017047105E00202DE9F041A4
:10861000C64EC74BC74DDFF8E083304686B04422D4
:1086200040F80C3B0021002473F088F9C24BB36082
:10863000347106F1540101205CF070FCBF4B3065D1
:108640003360BF4ABF4930466BF0CAFB234622461F
:1086500021460094BC485BF037F923462246214668
:108660000094BA485BF030F9234622462146009434
:10867000B7485BF029F92346224621460094B548C5
:108680005BF022F92346224621460094B2485BF073
:108690001BF92346224621460094B0485BF014F9AA
:1086A0002346224621460094AD485BF00DF923464F
:1086B000224621460094AB485BF006F9AA485BF0DD
:1086C000FBF82346224621460094A8485BF0FCF8BC
:1086D0002346224621460094A5485BF0F5F8A548BC
:1086E000974AA549C0F884404FF40053A0F8803061
:1086F000A24BC0F88830A0F89C406BF071FBA04BF7
:10870000A048DC600822C3E901441A701C829E4B19
:108710009E4A1C705C709E4B01271A609D4A1F7117
:10872000D2F8B4101973D2F8AC109973D2F8B01013
:108730005973DC731C829C60974B98491C711960BB
:10874000516F1973D1689973926F9C605A73DC737F
:108750001C8222462346214600945BF0B5F819237B
:108760002B614FF47A732B62C5E90C44AC60AC8189
:10877000AC73AC82EC61C5F81880AE6285F82C4011
:108780002146C5E90055802205F17C0085F8384076
:1087900085F8784073F0D2F82146882205F1FC0074
:1087A00073F0CCF8664A7E4928466BF019FB2346E5
:1087B0002246214600947B485BF086F823462246F9
:1087C0002146009478485BF07FF878485C4A784905
:1087D0008460C0E900006BF003FB7648584A744996
:1087E0008460C0E900006BF0FBFA7348544A70499A
:1087F0008460C0E900006BF0F3FA2346224621466C
:1088000000946E485BF060F82346224621460094AF
:108810006B485BF059F8234622462146009469488C
:108820005BF052F8234622462146009466485BF0EE
:108830004BF8234622462146009464485BF044F8F6
:10884000234622462146009461485BF03DF82346CA
:108850002246214600945F485BF036F823462246C4
:10886000214600945C485BF02FF8234622462146BF
:1088700000945A485BF028F823462246214600948B
:1088800057485BF021F8574858F01AFA2C4A5649D5
:1088900054486BF0A5FA23462246214600945348DB
:1088A0005BF012F84FF48E705DF018FF054621461C
:1088B0002022043073F042F86C622146102205F148
:1088C000280073F03BF82146212205F1380073F0AF
:1088D00035F82146202205F1590073F02FF8214682
:1088E000202205F1790073F029F82146202205F1B4
:1088F000990073F023F82146202205F1B90073F0A6
:108900001DF82146202205F1D90073F017F8214601
:10891000202205F1F90073F011F808F124032B600F
:10892000334B34481D60224668E000BFA84E00204B
:10893000FC450A00F8EE0020644000200C460A00C6
:108940000040002029F7020010F600200CF500205E
:10895000E806012008F60020F006012008070120A3
:108960001007012090F5002014F5002018070120C1
:10897000BC930020EC950020D19A030080EE3600D5
:10898000C8F600207CF00020D017012000F0024043
:10899000DC17012060A40B00F0170120003002401A
:1089A00063BA030004180120241801200C180120C8
:1089B000BD5B0600181801202C1801203818012072
:1089C0004018012048180120501801205818012093
:1089D000701801207C180120841801208C180120B7
:1089E000941801209C180120B30C0800A018012045
:1089F000A81801209C5B002038110A00234621465C
:108A0000009408F168065AF05FFFBD4BBD4804931F
:108A100002A902968DF80E40ADF80C4005942FF097
:108A2000C5FBB94AB949B748B94D6BF0D9F9B94B4B
:108A3000B948049302A902968DF80E40ADF80C4097
:108A4000059404F087FCB04AB449B3486BF0C8F908
:108A5000B34BB448049302A902968DF80E40ADF8CA
:108A60000C40059404F076FCA74AAC49AD486BF085
:108A7000B7F9AD4BAD48049302A902968DF80E40AC
:108A8000ADF80C40059404F065FC9F4AA349A74843
:108A90006BF0A6F9A64BA748049302A902968DF89D
:108AA0000E40ADF80C40059404F054FC964A9B49E6
:108AB000A0486BF095F941F60A0302A92846CDE9D2
:108AC00004440296ADF80C308DF80E702FF06EFB5A
:108AD000284608F17803214640F8183B242272F01A
:108AE0002DFF954BEB611523C5E90F4485F83D300B
:108AF000924BEB62052385F84130914B2B63132396
:108B000085F8444085F8423028468E4D7E4A8E498D
:108B10006BF066F941F60F0302A92846CDE904443B
:108B20000296ADF80C308DF80E702FF03FFB284602
:108B300008F18C0340F8183B02A942F61923ADF85E
:108B40000C30CDE9044402968DF80E7004F002FC5E
:108B500028467E4D6C4A7E496BF042F97D4B029669
:108B600002A9284604938DF80E40ADF80C400594F8
:108B70002FF01CFB284608F1A00340F8183B02A97F
:108B8000754B049302968DF80E40ADF80C40059499
:108B900004F0E0FB5C4A7149714E28466BF020F905
:108BA00023462246214600946E486F4D5AF08CFEB3
:108BB00023462246214600946C485AF085FE2346FF
:108BC0002246214600946A485AF07EFE23462246F9
:108BD0002146009467485AF077FE234622462146F4
:108BE000009465485AF070FE2346224621460094C0
:108BF00062485AF069FE23462246214600946048A6
:108C00005AF062FE23462246214600945D485AF0FF
:108C10005BFE23462246214600945B485AF054FEF0
:108C2000234622462146009458485AF04DFE2346DA
:108C300022462146009456485AF046FE23462246D4
:108C40002146009453485AF03FFE234622462146CF
:108C5000009451485AF038FE504858F031F82A4AEA
:108C60004F494E486BF0BCF82346224621460094FB
:108C70004C485AF029FE23462246214600944A4891
:108C80005AF022FE234622462146009447485AF0D5
:108C90001BFE234622462146009445485AF014FE06
:108CA000234622462146009442485AF00DFE2346B0
:108CB00022462146009440485AF006FE23462246AA
:108CC000214600943D485AF0FFFD234622462146A6
:108CD00000943B485AF0F8FD234622462146009472
:108CE00038485AF0F1FD2346224621460094364882
:108CF0005AF0EAFD234622462146009466E000BF72
:108D0000E5A30B007C580020004000204F1C03000E
:108D100004590020F6A30B00F852002079D302007A
:108D200006A40B00AC570020D4A30B004C59002024
:108D3000C3A30B005053002075A50B00C00F0A0001
:108D4000C60F0A00085800204D1C0300945800204C
:108D5000511C03002DFE0A003DFE0A00531C0300B7
:108D6000D8220120ACF5002058220120AC180120A7
:108D7000B4180120BC180120C4180120CC1801200F
:108D8000D4180120DC180120E4180120E09500200F
:108D9000EC180120F418012064F400206CF4002089
:108DA000B30C0800FC180120041901200C19012043
:108DB000141901201C19012028190120341901203F
:108DC000401901204819012050190120C3485AF0C8
:108DD0007BFD2346224621460094C1485AF074FD8B
:108DE0002346224621460094BE485AF06DFD234694
:108DF000224621460094BC485AF066FD234622468E
:108E000021460094B9485AF05FFD23462246214688
:108E10000094B7485AF058FD234622462146009454
:108E2000B4485AF051FD2346224621460094B248E8
:108E30005AF04AFD2346224621460094AF485AF094
:108E400043FD2346224621460094AD485AF03CFD9E
:108E50002346224621460094AA485AF035FD23466F
:108E6000224621460094A8485AF02EFD2346224669
:108E700021460094A5485AF027FD23462246214664
:108E80000094A3485AF020FD234622462146009430
:108E9000A0485AF019FD23462246214600949E48D8
:108EA0005AF012FD23462246214600949B485AF070
:108EB0000BFD234622462146009499485AF004FDB2
:108EC000234622462146009496485AF0FDFC23464C
:108ED00022462146009494485AF0F6FC2346224646
:108EE0002146009491485AF0EFFC23462246214641
:108EF00000948F485AF0E8FC23462246214600940D
:108F00008C485AF0E1FC23462246214600948A48C8
:108F10005AF0DAFC234622462146009487485AF04C
:108F2000D3FC234622462146009485485AF0CCFCC7
:108F3000234622462146009482485AF0C5FC234627
:108F400022462146009480485AF0BEFC2346224621
:108F5000214600947D485AF0B7FC2346224621461C
:108F600000947B485AF0B0FC2346224621460094E8
:108F700078485AF0A9FC23462246214600947648B8
:108F80005AF0A2FC234622462146009473485AF028
:108F90009BFC234622462146009471485AF094FCDB
:108FA00023462246214600946E485AF08DFC234603
:108FB0002246214600946C485AF086FC23462246FD
:108FC0002146009469485AF07FFC234622462146F8
:108FD000009467485AF078FC2346224621460094C4
:108FE00064485AF071FC23462246214600946248A8
:108FF0005AF06AFC23462246214600945F485AF004
:1090000063FC23462246214600945D485AF05CFCEE
:1090100023462246214600945A485AF055FC2346DE
:1090200022462146009458485AF04EFC23462246D8
:109030002146009455485AF047FC234622462146D3
:10904000009453485AF040FC23462246214600949F
:1090500050485AF039FC23462246214600944E4897
:109060005AF032FC23462246214600944B485AF0DF
:109070002BFC234622462146009449485AF024FC02
:109080004848494A494904606AF0AAFE23462246F4
:109090002146009446485AF017FC234622462146B2
:1090A000009444485AF010FC43483F4A3F4904604A
:1090B0006AF096FE23462246214600943F485AF025
:1090C00003FC23462246214600943D485AF0FCFB0F
:1090D000234622462146009474E000BF581901201F
:1090E000BCF60020B0F60020601901206C190120A8
:1090F000741901207C190120841901208C19012088
:10910000941901209C190120A4190120AC190120F7
:109110008CF00020B4190120BC190120C4190120D1
:10912000CC190120D4190120DC190120E4190120F7
:10913000EC190120FC190120041A01200C1A01204D
:10914000141A01201C1A0120281A0120301A0120AB
:10915000381A0120401A0120481A0120501A012013
:10916000581A0120601A0120681A0120701A012083
:10917000781A0120801A01208C1A0120941A0120EB
:109180009C1A0120A41A0120AC1A0120B41A012053
:10919000BC1A012098F60020C41A0120CC1A012024
:1091A00090F600208CF6002000400020950B050072
:1091B00084F600204CF6002048F60020D41A012046
:1091C000E01A0120C3485AF07FFB2346224621467D
:1091D0000094C1485AF078FB234622462146009469
:1091E000BE485AF071FB2346224621460094BC48F3
:1091F0005AF06AFB2346224621460094B9485AF0A9
:1092000063FB2346224621460094B7485AF05CFB94
:109210002346224621460094B4485AF055FB234683
:10922000224621460094B2485AF04EFB234622467D
:1092300021460094AF485AF047FB23462246214678
:109240000094AD485AF040FB234622462146009444
:10925000AA485AF039FB2346224621460094A848E2
:109260005AF032FB2346224621460094A5485AF084
:109270002BFB2346224621460094A3485AF024FBA8
:109280002346224621460094A0485AF01DFB23465F
:109290002246214600949E485AF016FB2346224659
:1092A000214600949B485AF00FFB23462246214654
:1092B000009499485AF008FB234622462146009420
:1092C00096485AF001FB23462246214600949448D2
:1092D0005AF0FAFA234622462146009491485AF061
:1092E000F3FA23462246214600948F485AF0ECFABE
:1092F00023462246214600948C485AF0E5FA23463C
:109300002246214600948A485AF0DEFA2346224635
:109310002146009487485AF0D7FA23462246214630
:10932000009485485AF0D0FA2346224621460094FC
:1093300082485AF0C9FA22462146234600948048C2
:109340005AF0C2FA30464BF089FC7E4B2C71AB6070
:1093500005F10C005AF0B0FA40F23953C5E9053472
:109360004EF66023C5E907342E60774B774EAB602D
:109370006C62774D30464BF071FC28465AF09CFAEF
:10938000744A45F8046CC5E904224FF47F02AC60CE
:10939000AC81AA6123462246214600946E486F4D57
:1093A0005AF092FA23462246214600946C485AF01D
:1093B0008BFA23462246214600946A485AF084FAE2
:1093C000234622462146009467485AF07DFA2346F8
:1093D00022462146009465485AF076FA23462246F2
:1093E0002146009462485AF06FFA234622462146ED
:1093F000009460485AF068FA2346224621460094B9
:109400005D485AF061FA23462246214600945B48A3
:109410005AF05AFA234622462146009458485AF0F8
:1094200053FA234622462146009456485AF04CFAF5
:10943000234622462146009453485AF045FA2346D3
:1094400022462146009451485AF03EFA23462246CD
:10945000214600944E485AF037FA234622462146C8
:1094600000944C485AF030FA234622462146009494
:1094700049485AF029FA2346224621460094474893
:109480005AF022FA234622462146009444485AF0D4
:109490001BFA444B2B612846434BEB6008F1B406A2
:1094A000424B6B61214640F8186B6D6045F2E862F3
:1094B00072F044FA2146362205F5AE4072F03EFACB
:1094C0003B4A3C4928466AF08BFC2346224621460B
:1094D000009471E0E81A0120F41A0120441D0120D3
:1094E0008C9600204C1D0120541D01205C1D012084
:1094F0006C1E0120741E0120C0F500207C1E01207E
:10950000841E01203CF60020901E012084210120B1
:1095100030F60020EC210120F8210120002201205A
:1095200024F600201C2201202422012018F600200D
:10953000302201203822012040220120482201202F
:10954000D022012008500A000F6A0020FC220120CE
:10955000B4220120F6DD0B0024230120A89700206F
:109560002C230120342301203C2301204823012007
:10957000502301205823012060230120682301206B
:10958000702301207C230120842301208C230120CF
:10959000942301209C230120A4230120AC2301203B
:1095A000A097002087640200DB620200DA0F0A0045
:1095B00000400020AD9F0300C448C54D5AF084F917
:1095C0002346224621460094C2485AF07DF923469C
:1095D000224621460094C0485AF076F92346224696
:1095E00021460094BD485AF06FF9BD48BD4ABE49B6
:1095F0008460C0E900006AF0F3FB2346224621465E
:109600000094BA485AF060F9234622462146009455
:10961000B7485AF059F92346224621460094B548E6
:109620005AF052F92346224621460094B2485AF095
:109630004BF92346224621460094B0485AF044F99B
:109640002346224621460094AD485AF03DF9234670
:10965000224621460094AB485AF036F9234622466A
:1096600021460094A8485AF02FF9A8489D4AA849D5
:10967000C463C0E90144C0E90344C0E90544C0E94A
:109680000744C0E90944C0E90B44C0E90D446AF04D
:10969000A7FB23462246214600949E485AF014F91F
:1096A00023462246214600949B485AF00DF99B4BD5
:1096B0002B6128469A4BEB6008F1CC0340F8183B2D
:1096C0006C6121466D604FF4FB5272F037F9214610
:1096D0001022944872F032F9824A93492846934DF9
:1096E0006AF07EFB924B2B612846924BEB6008F1AF
:1096F000E40340F8183B6C6121466D60202272F053
:109700001DF9AC63774A8C4928468C4D6AF068FB9A
:109710008B4B2B6128468B4BEB6008F1FC0340F828
:10972000183B6C6121466D604FF4F06272F006F9EF
:10973000C5F898476B4A844928466AF051FB23468E
:1097400022462146009481485AF0BEF8234622461C
:10975000214600947E485AF0B7F823462246214617
:1097600000947C485AF0B0F82346224621460094E3
:1097700079485AF0A9F823462246214600947748B2
:109780005AF0A2F8234622462146009474485AF023
:109790009BF8234622462146009472485AF094F8DA
:1097A00023462246214600946F485AF08DF82346FE
:1097B0002246214600946D485AF086F823462246F8
:1097C000214600946A485AF07FF8234622462146F3
:1097D000009468485AF078F82346224621460094BF
:1097E00065485AF071F823462246214600946348A2
:1097F0005AF06AF8234622462146009460485AF0FF
:1098000063F823462246214600945E485AF05CF8ED
:109810005D48214620F8024B102272F08FF8234653
:1098200022462146009459485AF04EF823462246D3
:109830002146009456485AF047F8214623462246CE
:10984000009454485AF040F85C205CF047FF05460D
:1098500006F037FF2B46504A43F8382BC5E90E3344
:1098600008F58A736B634D4B2C64C5E912344FF4D1
:1098700000734FF00208A5F85830494B6C656D64D1
:1098800085F8508085F85A806F62CC201D605CF0AE
:1098900025FF054606F015FF2B46424A43F8382BB4
:1098A000C5E90E3306F174036B633F4B2C6421460C
:1098B000C5E912347422A5F8504085F852406D6411
:1098C00005F1540072F03AF870E000BFB4230120B3
:1098D00034740020BC230120C8230120D824012097
:1098E000E024012000400020BD5B0600F0240120A0
:1098F000F8240120002501200C250120A4F50020DA
:10990000142501201C250120186C00209C680020D3
:10991000C72E03002425012028740020B56402000E
:10992000BF620200AC93002009790300486C00205C
:10993000AB640200D7620200DF780300886C00206D
:10994000A1640200D9620200B1780300B4F50020DE
:10995000E8EE00202C250120342501203C250120A3
:10996000442501204C250120542501205C2501209F
:10997000642501206C2501209CF500207425012020
:109980007C260120406C00202C6C002004F5002077
:10999000882601204CF40020C4480A00210103005D
:1099A000F8F3002070A30A003DEC0300C24BC5F899
:1099B000C840C5F8248058201D605CF08FFE054625
:1099C00006F07FFE2B46BD4A43F8382BC5E90E331F
:1099D000BB4B2C64C5E9123403236B628836B94B48
:1099E0002C65A5F8544085F856406E636D646C2074
:1099F0001D605CF073FE054606F063FE2B46B24A1E
:109A000043F8382BC5E90E33B04B6B63B04B2C6475
:109A1000C5E9123405F15C03C5E9153404236B6212
:109A2000AC4B2C651D6085F85C406D64AA4DAB4A5B
:109A30002B881380AA4A29781380AA4AAA4813803F
:109A4000AA4A1380AA4A1380AA4B6A781C705970DC
:109A50009A70214623462246009459F035FF23464A
:109A6000224621460094A44859F02EFF2346224660
:109A700021460094A14859F027FF2346224621465B
:109A800000949F4859F020FF234622462146009427
:109A90009C4859F019FF23462246214600949A48D3
:109AA00059F012FF2346224621460094974859F068
:109AB0000BFF2346224621460094954859F004FFA7
:109AC0002346224621460094924859F0FDFE234643
:109AD000224621460094904859F0F6FE234622463D
:109AE000214600948D4859F0EFFE23462246214638
:109AF00000948B4859F0E8FE234622462146009404
:109B0000884859F0E1FE23462246214600948648C3
:109B100059F0DAFE2346224621460094834859F044
:109B2000D3FE2346224621460094814859F0CCFEBC
:109B300023462246214600947E4859F0C5FE23461E
:109B40002246214600947C4859F0BEFE2346224618
:109B500021460094794859F0B7FE23462246214613
:109B60000094774859F0B0FE2346224621460094DF
:109B7000744859F0A9FE23462246214600947248B3
:109B800059F0A2FE23462246214600946F4859F020
:109B90009BFE23462246214600946D4859F094FED0
:109BA00023462246214600946A4859F08DFE2346FA
:109BB000224621460094684859F086FE23462246F4
:109BC00021460094654859F07FFE234622462146EF
:109BD0000094634859F078FE2346224621460094BB
:109BE000604859F071FE23462246214600945E48A3
:109BF00059F06AFE23462246214600945B4859F0FC
:109C000063FE2346224621460094594859F05CFEE3
:109C10002346224621460094564859F055FE2346D5
:109C2000224621460094544859F04EFE23462246CF
:109C300021460094514859F047FE234622462146CA
:109C400000944F4859F040FE234622462146009496
:109C50004C4859F039FE23462246214600944A4892
:109C600059F032FE2346224600942146474859F0D7
:109C70002BFE474B30240022013C1A7303F10E03E4
:109C8000FAD12346224621464248009459F01CFE50
:109C90004148424A42498460C0E900446AF0A0F861
:109CA00040483E4A4049047200F10803C0E90034CC
:109CB0006AF096F8234679E040F4002064B60A0082
:109CC0004F2F040044F4002054B60A00DCB60A000A
:109CD0003938040054F40020D32A012058F400201D
:109CE00032F400202CF40020942601202EF40020D1
:109CF00030F4002035F400209C260120A426012009
:109D0000AC260120B4260120C0260120C82601204F
:109D1000D0260120D8260120E0260120E8260120B7
:109D2000F0260120F8260120002701200827012025
:109D3000142701201C27012038F2002024270120AD
:109D40002C270120342701204427012050270120FF
:109D50005827012030F200206027012068270120C9
:109D600070270120782701208027012088270120E3
:109D70009027012098270120A0270120A827012053
:109D8000B0270120B8270120C0270120C8270120C3
:109D9000D0270120702A0120782A012000400020CD
:109DA000E9F20700842A0120E546090022462146FF
:109DB0003C48009459F088FD2346224621463A4803
:109DC000009459F081FD23462246214637480094ED
:109DD00059F07AFD2346224621463548009459F031
:109DE00073FD2346224621463248009459F06CFD0B
:109DF0002346224621463048009459F065FD23460B
:109E0000224621462D48009459F05EFD2346224605
:109E100021462B48009459F057FD234622462146FF
:109E20002848009459F050FD274A2849284869F0ED
:109E3000D7FF2346224621462648009459F044FD88
:109E40002548214A2549046069F0CAFF244B2C703B
:109E50001C705C709C702246234621466C70214821
:109E6000009459F031FD204811F0BCFE164A1F49FC
:109E70001D4869F0B5FF1E4811F0B4FE124A1B4997
:109E80001B4869F0ADFF0322214601205AF09CFFD8
:109E9000184B1860B0BB184B184A19480C213BF0FE
:109EA0008BFF00BF9C2A0120A42A0120AC2A01209C
:109EB000B42A0120BC2A012028F20020C42A012053
:109EC00000F20020F8F100200040002007F8030015
:109ED0009CF0002094F00020CC2A0120950B050076
:109EE000D02A0120605100208C5000206D0D03000D
:109EF0006851002038520020E80F0A00F20F0A00D3
:109F000032100A00AE4AAF49AF4DB04F184669F063
:109F100067FF2346224621460094AD4859F0D4FC01
:109F20002346224621460094AA4859F0CDFC2346F8
:109F3000224621460094A84859F0C6FC23462246F2
:109F400021460094A54859F0BFFC234622462146ED
:109F50000094A34859F0B8FC2346224621460094B9
:109F6000A04859F0B1FC23462246214600949E4861
:109F700059F0AAFC23462246214600949B4859F0FA
:109F8000A3FC2346224621460094994859F09CFCA4
:109F90002346224621460094964859F095FC2346D4
:109FA000224621460094944859F08EFC23462246CE
:109FB00021460094914859F087FC234622462146C9
:109FC00000948F4859F080FC234622462146009495
:109FD0008C4859F079FC23462246214600948A4851
:109FE00059F072FC894B8A4A9C60C3E90024894A73
:109FF000DA60894B894A9C60C3E90024884ADA60A8
:10A000008849894B8948C3E90242C3E90014884B57
:10A01000884A1A60884A5A60884A9A60884ADA6090
:10A02000884B894A9C60C3E90024884ADA60884BDF
:10A03000884A9C60C3E90024874ADA60874B884AD3
:10A040008849C3E90024884A9A60884ADA60884BC4
:10A05000884A9C60C3E90024874ADA60874A116015
:10A0600087498460C2E901148649D160864A8749DC
:10A07000116087495160874991608749D160C0E983
:10A0800000344F4A8549C0F8EC4080F8F04069F050
:10A09000A7FE2346224621460094814859F014FC2D
:10A0A0008048814B03610523037105F14C030026B1
:10A0B0004FF04008036205F15803C0E90934404AF3
:10A0C0007A4904730475846104778460056080F8BC
:10A0D0002D804463866369F083FE7548754B036188
:10A0E0002223037105F16403036005F1B0030362E9
:10A0F00005F1BC03436242F21073314A6E490473A6
:10A10000047584610477846080F82880C762C66320
:10A11000A0F8403080F84280476406638663466357
:10A12000846469F05DFE6548654B03610423037137
:10A1300005F1C803036005F58873214A614904737A
:10A140000475846104778460036269F049FE5E48A7
:10A150005E4B03610E23037105F58E73036005F5F5
:10A16000B473036205F5BA734362422380F8343056
:10A17000574B134A5749047304758461047784600C
:10A1800087638362C3620363C46369F029FE524834
:10A19000524B03611C23037105F5C073036005F581
:10A1A000E473C0E90834064A4D49047304758461B8
:10A1B0000477846069F014FE23462246214691E02C
:10A1C00000400020010D080088120A002C360120F2
:10A1D00084F00020D82A0120E02A0120E82A01206A
:10A1E000F02A0120246C0020FC2A0120042B0120ED
:10A1F000502B01205C2B0120682B0120702B0120AB
:10A20000F05200207C2B0120182C0120082C01206A
:10A21000C91808005E100A00202C0120AD180800A3
:10A2200067100A008F180800F82B0120302C01203D
:10A23000D82B01204D180800D9640200D764020011
:10A24000D9900A00A82B0120D56402006B100A00E7
:10A25000B82B0120F36602006E100A00E82B0120E3
:10A26000D3640200F7660200F566020073100A006C
:10A27000C82B0120BD6202007A100A00982B012031
:10A280007B1808007F100A00882B01206118080045
:10A290004F180800ED66020082100A009D6E030050
:10A2A00054500020544F002088100A00FD0603007F
:10A2B000904F00208F100A003B070300DC4F002066
:10A2C00096100A0039070300105000209D100A0064
:10A2D000CDCCCC3D370703005C500020A5100A0010
:10A2E000350703000094214859F0EEFA2346224630
:10A2F000214600941E4859F0E7FA2346224621469B
:10A3000000941C4859F0E0FA234622462146009466
:10A31000194859F0D9FA2346224621460094174895
:10A3200059F0D2FA2346224621460094144859F0A7
:10A33000CBFA2346224600942146124859F0C4FA2B
:10A34000114B83F8E44083F8E840104B4FF47A72E5
:10A350009A6005F5EA721A6005F5FE754FF47F42C2
:10A360005C601D619A8206B0BDE8F081242D012059
:10A370002C2D0120342D01204C4F0020A04E002018
:10A38000984E00203C2D0120AC4D0020404700207D
:10A3900007B503688DF807105B6801220DF107010E
:10A3A000984703B05DF804FBA0F1100000F032B94B
:10A3B000407DFF2801D058F00FBA704710B5437D9B
:10A3C000FF2B0CD0074A4FF4567000FB032001F01E
:10A3D00011FC044608B95CF0CDFD204610BD0020FC
:10A3E000FCE700BFE43201202DE9F74F437DFF2B4E
:10A3F00006460F4614462FD015464FF4567A4FF6B0
:10A40000FE7B15B3707D58F025FAF0B1737D134AC9
:10A4100001930AFB03294FF6FF7209F124095D45F8
:10A4200098BF2A4692B23946484601F047FB80461B
:10A43000484601F0DFFB3F28019B02D9184658F03F
:10A44000CBF9B5EB0805474403D1601B03B0BDE869
:10A45000F08F5CF08FFDD4E70020F7E7D4320120C5
:10A4600008B5437DFF2B07D0044A4FF4567000FB1C
:10A47000032001F0ADFB08BD0020FCE7F83201200D
:10A4800073B5437DFF2B14D04FF456745C430A4ED2
:10A4900004F1100001220DF10701304401F03EFAF1
:10A4A0000546301958F0ECF91DB19DF8070002B0CF
:10A4B00070BD4FF0FF30FAE7D432012073B5457D0F
:10A4C000FF2D03D14FF0FF3002B070BD254E4FF489
:10A4D000567303FB0563186A18B14FF0FF315AF049
:10A4E00005FE4FF4567202FB0562118B538B908A66
:10A4F00089B29BB2994236BFC3EB4002CA1A5218C6
:10A5000094B2E4B1A04209D281424FF456722CBFFA
:10A510000B1A0B1802FB05629BB2538398421ED99B
:10A520004FF4567101FB05610DF10700CA8A0969F4
:10A53000C2F30E0202FB031171F0D8F901244FF4AB
:10A54000567303FB0565286A20B100231A46194695
:10A550005AF060FC002CB5D09DF80700B4E71B1A38
:10A560009BB2DBE7D432012010B5194B5A7DFF2A8C
:10A570002CD11A7E52BB174C5A750121197694F8CA
:10A5800050110B2908D84A1C84F8502101F14802C7
:10A59000114844F822000A461A75B4F81821B4F894
:10A5A0001A3161690A489B1A9BB20A4494F81C113B
:10A5B00000F030F850B1B4F818311844636980B233
:10A5C000A4F81801588094F81C211A7110BD00BF1E
:10A5D000404700205C470020D8400A0010B5407D6D
:10A5E000FF2807D058F036F9044608B95CF0C2FCE1
:10A5F000204610BD0024FBE7034B9B68B3F5966F24
:10A6000001D158F099BA7047D432012009B900B984
:10A61000F2E770472DE9F047074692B09846154695
:10A62000002A00F090804B4B93F81C6193F81D11A9
:10A6300093F81EA1B21C83F81C214C1C8A1C83F8C1
:10A640001D2164F07F040AF1010241F08009E4B2A7
:10A6500083F81E214222002101A871F06FF9002D1C
:10A660006DD0B8F1410F73D940F20220ADF8080067
:10A6700040F20940ADF80C0040F20120ADF81000A6
:10A6800024208DF8160034480690731C0120DBB29C
:10A690008DF806608DF80E608DF81C008DF8266030
:10A6A0002E48397D8DF81E30032640F6083208907A
:10A6B0008DF8273040F224608DF82B608DF8313012
:10A6C00008260A230427ADF804208DF8141002226E
:10A6D0000521ADF824008DF82C6040F207508DF86C
:10A6E00034304FF4116640238DF807208DF8122086
:10A6F0008DF81510ADF828008DF83320ADF838002E
:10A700008DF83B208DF81F708DF82A90ADF82E60E3
:10A710008DF830708DF83AA08DF83C3007238DF815
:10A720003F308DF8401044F2020342220DEB070146
:10A7300028468DF84140ADF8423071F0D7F84220FC
:10A7400012B0BDE8F087924614469146164681E75E
:10A750000020F5E75C4700202001052424020205C3
:10A760007FB5204B204A03F110061446186859683B
:10A77000154603C50833B3422A46F7D11B4A1B8846
:10A78000106851682B8001AB03C3127A1A7004AAB7
:10A7900012E90700164B03C3194603F5887001F848
:10A7A0000829144AC4F818214FF48072A4F81C2117
:10A7B0000122616184F81E210021202271F0BEF87F
:10A7C00040F20943C4F820310B4BC4F824310B4B41
:10A7D000C4F828310023C4F82C31042384F8503104
:10A7E00004B070BDF3400A005C47002005410A0038
:10A7F0007447002009000001E7400A0075A50B001E
:10A80000F0B50546002004462B5D2E19002B68D0BC
:10A8100003F14002D2B2012A3DD9F42B3BD81A06EB
:10A820001BD40122A3F55846B6F5006F33D3B3F518
:10A83000803F14444FD31E2853DCA3F580334200DD
:10A840009E0A0A44C3F30903A6F52056A3F5105344
:10A8500021F8106002305380D6E703F0E002C02AEE
:10A860001BD103F01F03022206F1010C16441CF851
:10A87000017B07F0C00EBEF1800F0CD107F03F073F
:10A88000664547EA8313F2D1022A16D1A3F1800666
:10A89000B6F5F06FC6D30134B6E703F0F002E02A54
:10A8A00003D103F00F030322DEE703F0F802F02ADE
:10A8B000F1D103F007030422D6E7032A04D1A3F55C
:10A8C0000066B6F5784FE5E7A3F58032B2F5801F54
:10A8D000E1D20422A6E7202803D021F8103001306D
:10A8E00092E7F0BD0B6802490B610121184700BFD8
:10A8F000442D01202DE9F041174C184F80460025CA
:10A9000018262279EBB2511D994212DA3822002121
:10A91000134871F013F81022FF2104F1090071F0BF
:10A920000DF804F119001222BDE8F041FF2171F089
:10A9300005B89A4207D9226806FB032333B9BDE85C
:10A94000F041FDF73FBE9B1A06FB03735B68404670
:10A9500098470135D5E700BFF04800201C410A00A8
:10A96000F5480020F8B5124C266C00F07F07C509A9
:10A970004FF0FF3130465AF0B9FB04EB47032B444C
:10A9800025339A79C2F38004520708D59A7912F0D8
:10A99000010103BF9A7961F382029A7100240023B6
:10A9A0001A46194630465AF035FA2046F8BD00BF1F
:10A9B000F0480020F8B5194A00F07F0302EB43038A
:10A9C00003EBD01000F1250490F82B5015F0010591
:10A9D00021D190F82B305907C3F3800717D4166C98
:10A9E0004FF0FF3130465AF081FBA57915F0010593
:10A9F0000FD1A3795B0704D4A37943F00403A371B7
:10AA0000012500231A46194630465AF003FA284613
:10AA1000F8BD3D46F5E70025F9E700BFF048002006
:10AA200070B4827802F07F03082B07D9524B1B6861
:10AA3000DB0700D500BE002070BC70474F49C478CA
:10AA4000CD79818804F00304022CC1F30A010BD0F4
:10AA5000032C45D0012C11D1022D40F2FF3408BF48
:10AA60004FF48064A1420DE0022D0AD1B1F5007FC0
:10AA700009D0414B1B68DA0700D500BE70BCFDF75A
:10AA8000A9BD4029F5D83E4E5C0004EBD21406EB7C
:10AA90000414D5092181C17801F0030101292FD0C7
:10AAA0000120384900FA03F405BB03F10C06B0405D
:10AAB000C1F80403D1F8140503F594730443C1F8F5
:10AAC000144541F823502F4BC3F8182542F48072E7
:10AAD000C3F80C25BFF36F8FBFF34F8F0120ABE797
:10AAE000022D0CBF4FF480644024BBE70233984032
:10AAF000C1F80403D1F810351C43C1F81045E2E752
:10AB0000082B93D11F4BDDB9B6F8182112B1802262
:10AB1000C3F81C250022C3F85021D3F8002312F4F7
:10AB2000001208BFC3F85421164B4FF44012C3F86B
:10AB30000423D3F8142542F48072C3F81425C9E71E
:10AB40000022C3F82C21B6F8082112B18022C3F8E4
:10AB50001C250C4BD3F8002312F4001208BFC3F8D5
:10AB60005421094AC3F80423D3F8102542F4807213
:10AB7000C3F81025AEE700BFF0ED00E0F04800207C
:10AB8000484A0020007002400008200010B50B4B1E
:10AB900000F07F0203EB420303EBD0142534A379CA
:10ABA0009B0709D401F07AFAA37943F00203A37159
:10ABB000A37943F00103A37110BD00BFF04800204A
:10ABC00010B5104B04460146187801F023F80E4BDF
:10ABD00004F07F0103EB410303EBD41090F82B301A
:10ABE0006FF3410380F82B3090F82B306FF30003A4
:10ABF00080F82B3090F82B306FF3820380F82B30E5
:10AC000010BD00BF04400020F04800202DE9F843AB
:10AC1000DDE908890C4616461F460025AE4201DCD8
:10AC200001200EE06378052B04D1E37803F00303E1
:10AC3000BB4208D00D4B186810F0010001D000BED7
:10AC40000020BDE8F8832046FFF7EAFE18B9BDE80A
:10AC5000F843FDF7BFBCA378DA0914BF89F80030C8
:10AC600088F80030237801351C44D7E7F0ED00E088
:10AC70001FB5CDE902011149002308240193486C56
:10AC80008DF805403AB9134601A94FF0FF325AF04A
:10AC9000C1F804B010BD6A4601A900935AF053F9F7
:10ACA000009B002BF5D0064B4FF080525A6040BFFE
:10ACB000BFF34F8FBFF36F8FEBE700BFF04800206B
:10ACC00000ED00E02DE9FF414378484C023B05468A
:10ACD000042B12D8DFE803F003291B2271006379EB
:10ACE0006FF300036371637900226FF341036371B3
:10ACF000A271637962F382036371606C002961D190
:10AD00000B464FF0FF3229465AF084F82FE0637962
:10AD1000D8072CD5637943F00403EDE76379DA07AC
:10AD200025D563796FF38203E6E763795B0715D571
:10AD300063796FF3820363710278606C0023CDE95D
:10AD400001338DF80420052203938DF8052089B97D
:10AD50000B464FF0FF3201A95AF05CF8DFF89480FF
:10AD6000002618272279F3B2511D994214DA04B053
:10AD7000BDE8F0816A4601A900935AF0E4F8009B0F
:10AD8000002BEBD01A4B4FF080525A6040BFBFF3FC
:10AD90004F8FBFF36F8FE1E79A420AD9226807FB12
:10ADA000032323B15B6913B169682878984701369A
:10ADB000D8E79B1A07FB0383F4E7237A0133DBB25E
:10ADC00023729AE7002301AA294601935AF0BBF89F
:10ADD000019B002BCBD0064B4FF080525A6040BFF6
:10ADE000BFF34F8FBFF36F8FC1E700BFF048002064
:10ADF00000ED00E01C410A002DE9FF47474D0746E2
:10AE000000F07F0005EB400606EBD7162536B47937
:10AE100014F001044FEAD71E4FEA400306D0FDF7B5
:10AE2000D9FB0446204604B0BDE8F08796F806C07A
:10AE3000DFF800814CF0010C86F806C003EB0E0C25
:10AE40004FEA0C1908EB0C1C46469CF80BA0BAF113
:10AE5000000F17D0324A1168C90700D500BE2B4435
:10AE6000734493F82B106FF3000183F82B1093F8C1
:10AE70002B106FF3820183F82B101368DB07D1D5F9
:10AE800000BECFE748F80910ACF80420ACF8064043
:10AE900008BB02BB234BD3F88034C3F3C0139E45D9
:10AEA00019D0214800F02EFF204B59680394C1F3BC
:10AEB000080100394FF4E06318BF012101A8CDE972
:10AEC0000144ADF804308DF808708DF80940FFF7A3
:10AED000F9FE0124A6E70125BEF1000F1AD106EB09
:10AEE0004012D57218B9124800F00CFFF1E7BFF319
:10AEF0006F8FBFF34F8F937A03F0FF0443B1D37A80
:10AF000003F0FF05002B8DD082F80AE001F062F813
:10AF10002C4687E701F0E8F8FAE700BFF048002088
:10AF2000F0ED00E0007002405070024000ED00E0E3
:10AF30004C700240484A00202DE9F04FB54B1B7879
:10AF4000FF2B93B0834600F029844FF47A720023DC
:10AF500080024FEA9B516FF0D7FE012838BF0120D5
:10AF60000390AD4CBBF1FF3F606C26461BD0039BAA
:10AF7000BBF1000F14BF1A46002207A95AF03CF893
:10AF8000002800F00B849DF81D30013B072B00F2D8
:10AF9000B283DFE813F00A001C00B0031704260494
:10AFA0002B008D0332045A46E7E79DF81C00FFF79B
:10AFB000A1FC9A481422002170F0C0FC9DF82030BA
:10AFC000E371606C5AF028F90028CAD1E6E39DF8D5
:10AFD0001C00FFF78FFC91481422002170F0AEFC9A
:10AFE0008F4B002BEDD0AFF30080EAE7237A013BD3
:10AFF000DBB22372227A02F0FF03002AE1D16279E8
:10B00000DFF818829DF81C50C8F8103042F0010299
:10B01000627194F82B2063F3000284F82B2094F8DB
:10B020002B2063F3820284F82B2094F82C2063F306
:10B03000000284F82C2094F82C2063F382029DF8FF
:10B04000203084F82C2003F06002602A06D1754B72
:10B050001B68DD0740F1DF8200BEDCE2402A0AD136
:10B06000714BC8F8103008AA0121284657F0F6FCA9
:10B070000028A6D1CFE203F01F03012B00F03E828F
:10B08000022B00F08882002BE1D1202A20D19DF8EC
:10B0900024300F2B00F2BF821E442379717A99422B
:10B0A0000CD2236801EB410113EBC10100F0B38224
:10B0B00008AA0C312846FFF715FCD9E75A1D8A4229
:10B0C000C0F2A982594AC91A182303FB0121EFE7EC
:10B0D000002ABCD19DF82130092BB8D801A252F822
:10B0E00023F000BFE7B40200D5B402004FB0020065
:10B0F000C1B402004FB002000DB1020073B30200F0
:10B100004FB0020041B1020055B10200DDE9080173
:10B11000474BC8E90001D3F80014D3F8000400221B
:10B120000143C8E90222C3F80014C3F858214FF4C0
:10B130008002C3F80423637943F00203637140E79C
:10B14000A3798DF8383001230EAA08A9284656F0B5
:10B150006DFE36E79DF822300193019AA3799A4259
:10B1600000F08A80A379002B42D0324B8022C3F8B2
:10B170008420BFF34F8FBFF36F8F0127DFF8B080BC
:10B18000DFF8C0A0B94607F10C03BA1C09FA02F2B5
:10B1900009FA03F31343C8F80833BB0003F18043F3
:10B1A00003F51C33002159600AEB471099622022F5
:10B1B000013770F0C3FB082F4FF00001E3D11E4BA5
:10B1C000C8F808332022C8F81C151C48C8F82410F9
:10B1D000C8F8481070F0B2FBC8F81495C8F810957C
:10B1E000144B80225A60E7792846FFF783FBE7710A
:10B1F000019B002B00F0B780114B5A6912B15378B4
:10B20000022B21D0074B1B68DA077FF520AF00BE69
:10B210001DE700BF04400020F0480020442D01201D
:10B2200000000000F0ED00E05D2A08001C410A006B
:10B230000070024000E100E000083000484B0020B0
:10B240005C470020484A0020D379C3F38011C3F340
:10B2500040131B0143EA4113617921F030010B4394
:10B2600063715388D31802F109010293029B8B4248
:10B2700009D8B74B002B73D1019BA37108A92846AD
:10B2800056F090FD9DE64B780B2B03BF0B7891F8A1
:10B290000390C9184FF001094B78042BB2D1029BDF
:10B2A0005A1A92B24FF0000A37795FFA8AF87B1D7A
:10B2B0009845A7DC47452ED93768182303FB087744
:10B2C000002F9FD0BB682846CDE904129847082874
:10B2D000DDE9041241D982423FD3B9F1010F0AD10D
:10B2E000BB689C4A934208BF4FF002099A4A9342B6
:10B2F00008BF4FF002090022D3B2994512D8974AED
:10B30000084488421AD8954B1B79053398453FF776
:10B3100079AF0146AAE7924BA8EB0707182000FB7C
:10B320000737CFE78F783B4456FA83F301325F7AD1
:10B33000FF2F7FF467AF83F80980DDE74B78052B9B
:10B3400008D18F7807F07F0302EB430303EBD71399
:10B3500083F819800B781944D3E70AF1010AA3E7AF
:10B36000AFF3008088E77F4B002B85D0AFF30080E0
:10B3700082E7BDF82200030A5A1EC0B20E2A00F26C
:10B380004A81DFE812F00F001A002B004801480143
:10B3900091001A004801480148014801480148014C
:10B3A00048011600704A122308A9284656F03EFDAF
:10B3B0005EE66E4A32F80239F6E7022B06D16A4B96
:10B3C0005A69002A3FF443AE5388EDE7684B002BDF
:10B3D00000F02181AFF300800246F2E7624E60B1D7
:10B3E000032819D096F85031834240F21481483036
:10B3F00006F5AA7156F8200053E0D6F82031A6F8D9
:10B40000543101200130430043F44072A6F8522128
:10B4100003F0FE03574AC7E7D6F82C71002F3DD141
:10B420000AA857F08BFB0DF1280C0346B6463A46A6
:10B43000D1B28B420EF1040E2DD94F4F0DF13809C8
:10B4400007F1100A38687968C846A8E80300083789
:10B450005745C146F6D11CF8018B474F08F00F0144
:10B4600012A801440DF1380A11F8101CAEF852115F
:10B4700079683868D146A9E80300404908378F4207
:10B48000CA46F5D112A901EB1818013218F8101CA0
:10B49000AEF85011CCE75800C0B2B3E706F5AA7178
:10B4A0003846FFF7ADF9F7E7354B002B00F0B380D6
:10B4B000AFF300800246002800F0AD80037873E708
:10B4C000BDF82230012B40F0A680637943F00803D9
:10B4D0006371D3E6BDF82230012B40F09C80637984
:10B4E0006FF3C303F4E76379C3F340129B0803F0DF
:10B4F00002031343ADF83830022325E69DF82430CB
:10B500000F2B00F288801E442379717A994239D238
:10B51000236801EB410113EBC1017CD008AA0C3177
:10B520002846FFF7DFF900287FF44BAD9DF8203067
:10B5300013F060036FD19DF82120A2F10A010129C7
:10B5400069D80A2AC8F810307FF498AEF9E500BF30
:10B5500000000000B129080011220800F048002076
:10B560001C410A00000000005C47002018A40B00EA
:10B5700000000000AE480020D4D80B00E4D80B0037
:10B58000000000005A1D8A4245DBA24AC91A18234E
:10B5900003FB0121C2E79DF8240000F07F0CBCF101
:10B5A000080F3FF654AD06EB4C0707EBD01794F8A5
:10B5B00004E07F7E77454FEAD0114FEA4C0A16D25D
:10B5C000236807EB470703EBC70712BB9DF8212051
:10B5D00002F0FD0EBEF1010F24D0002A7FF437AD3A
:10B5E0005644314491F82B30C3F3400382E70EF107
:10B5F0000509B945C0F20981864BA7EB0E074FF04C
:10B60000180E0EFB0737002AE0D008AA07F10C013C
:10B6100050E5002FF9D1002000F040FD802000F01F
:10B620003DFDCEE4BDF822E0BEF1000F2BD1012A92
:10B630003BD106EB0A020A4425329279930722D5C0
:10B6400010F0770F11D0744A40F4807EC2F80C05D8
:10B65000C2F80CE5C2F8180519B90CF5947C42F84B
:10B660002C10BFF36F8FBFF34F8F5644314491F8C6
:10B670002B306FF3410381F82B3091F82B306FF3AF
:10B68000000381F82B30002F3FF49BAC08AA07F190
:10B690000C012846FFF726F90023C8F8103094F86B
:10B6A0002C30DE073FF58DACE8E5FFF76FFAEAE7EF
:10B6B0009DF8201001F07F0706EB470606EBD11638
:10B6C000CA0996F82B006FF3000086F82B0096F855
:10B6D0002B006FF3820086F82B00002F4FD14F4DC7
:10B6E0009DF81C602B78DDF82480B2EBD31F12D0BC
:10B6F000B8F1000F06D04A4B1B68DB077FF561AC41
:10B7000000BE5EE42B69002B3FF45BAC2A460321AC
:10B710003046984755E495F90030002B07DBA868C0
:10B7200000283FF44EAC3F49424670F0DFF8AA686B
:10B73000EB8942444344AA60EA889BB29A42EB8177
:10B7400002D0B8F13F0F16D82B696BB995F90030CC
:10B750000022002B1146B4BF38468020FFF74CFB77
:10B7600000287FF42EACC6E72C4A022130469847C9
:10B770000028EBD150E7304656F02CFBF0E7737E03
:10B78000227993420DD2226803EB430312EBC303E9
:10B790000FD1234B1B68D80700D500BE13B0BDE8FE
:10B7A000F08F501D9842F4DB1A489B1A182202FBB6
:10B7B00003031D699DF82120099B9DF81C00A847E3
:10B7C000FFF7FFBB6379D9077FF5FBAB164B002B67
:10B7D0003FF4F7AB6079C0F3C000AFF30080FFF730
:10B7E000F0BB6379DA077FF5ECAB104B002B3FF42D
:10B7F000E8ABAFF30080FFF7E4BB089B002B3FF4FE
:10B80000E0AB09989847FFF7DCBB002A7FF403AF51
:10B810001746DBE61C410A0000700240442D01205F
:10B82000F0ED00E0582D01200000000000000000B5
:10B830002DE9F743DFF8D88098F80030FF2B064653
:10B84000474648D1DFF8CC903822002109F10500A5
:10B8500070F074F809F14801012059F05FFB4D4682
:10B86000C9F8400040B9274B1B6813F0010F46D1BF
:10B87000002003B0BDE8F08300230093D8F808202F
:10B88000B8F80610B8F8040008F1100359F086FA69
:10B89000D8F80C10044659F0D7FCC9F844402CB92C
:10B8A000184B1B68DB07E3D500BEE1E7164B23B15D
:10B8B000281DAFF30080C9F80000DFF85C90002479
:10B8C0004FF018082879E3B2421D934205DD3E701F
:10B8D0000E4B80225A600120CBE7984208D9286895
:10B8E00008FB030038B9074A126812F0010FBEE7DF
:10B8F0001B1A08FB0390036898470134E2E700BE77
:10B90000B7E700BFF0ED00E00000000000E100E05C
:10B9100004400020F04800201C410A002DE9F047B7
:10B92000064600698846914618B14FF0FF3159F03C
:10B93000DDFB33897489B7889BB2A4B2A34236BFBA
:10B94000C4EB47051D1BED18ADB2F5B1AF4206D2F1
:10B95000BB422CBFDC1BDC19A4B274813D464D45B3
:10B9600028BF4D46A74229D9F2883168A7EB0409C0
:10B970001FFA89F9C2F30E0A4D4552460AFB04111B
:10B980001FD86A4340466FF0B1FF7389B28899B2FD
:10B9900015FA83F39BB299424FEA420201D89342CF
:10B9A00001DB9B1A9BB23069738120B100231A46D8
:10B9B000194659F02FFA2846BDE8F087E41BA4B2D7
:10B9C000D0E719FB0AF91FFA89F94A4640466FF099
:10B9D0008DFFEA1B224412FB0AF2316892B208EB97
:10B9E0000900D0E7F8B50446C0680F4616461D4664
:10B9F00018B14FF0FF3159F079FB206918B14FF0C1
:10BA0000FF3159F073FBED03E0682760002345F038
:10BA100001056381A680E580238118B11A46194685
:10BA200059F0F8F9206920B100231A46194659F057
:10BA3000F1F90120F8BD38B50446C0680D4618B1CB
:10BA40004FF0FF3159F052FB206918B14FF0FF3130
:10BA500059F04CFBE379E06865F3C713E37120B15B
:10BA600000231A46194659F0D5F9206920B1002360
:10BA70001A46194659F0CEF9012038BD10B50446D2
:10BA8000C06818B14FF0FF3159F030FB206918B190
:10BA90004FF0FF3159F02AFBE068002363812381D6
:10BAA00018B11A46194659F0B5F9206920B100239A
:10BAB0001A46194659F0AEF9012010BD2DE9F84F8C
:10BAC00007468846164642B3C06818B14FF0FF31AA
:10BAD00059F00CFBFA793D897B89B7F80490D209BB
