:020000022000DC
:106000000000042039340A0079340A00A9430A0048
:106010007D340A007F340A0081340A000000000049
:10602000000000000000000000000000DD320A0057
:1060300085340A0000000000FD320A0089340A009D
:1060400071360A008B340A00C1100A000DFD0900E8
:106050008B340A008B340A00D5120A008B340A00F4
:106060008B340A008B340A008B340A008B340A000C
:106070008B340A008B340A008B340A008B340A00FC
:106080008B340A006D300A008B340A008B340A000E
:106090008B340A008B340A0075030A008B340A0023
:1060A0008B340A008B340A008B340A008B340A00CC
:1060B0008B340A008B340A0000000000000000004E
:1060C0008B340A008B340A008B340A00153B0A001B
:1060D0008B340A008B340A008B340A00ADF80900B7
:1060E000CD100A008B340A008B340A000000000037
:1060F000000000008B340A0000000000453B0A004D
:10610000000000000000000000000000000000008F
:10611000000000000000000000000000000000007F
:10612000000000000000000000000000000000006F
:10613000000000000000000000000000000000005F
:10614000000000000000000000000000000000004F
:10615000000000000000000000000000000000003F
:10616000000000000000000000000000000000002F
:10617000000000000000000000000000000000001F
:10618000000000000000000000000000000000000F
:1061900000000000000000000000000000000000FF
:1061A00000000000000000000000000000000000EF
:1061B00000000000000000000000000000000000DF
:1061C00000000000000000000000000000000000CF
:1061D00000000000000000000000000000000000BF
:1061E00000000000000000000000000000000000AF
:1061F000000000000000000000000000000000009F
:1062000010B5054C237833B9044B13B10448AFF3F0
:1062100000800123237010BD004A00200000000010
:106220008C8A0D0008B5034B1BB103490348AFF33B
:10623000008008BD00000000044A00208C8A0D0088
:10624000A3F5803A704700BF174B002B08BF134BD4
:106250009D46FFF7F5FF00218B460F461348144A71
:10626000121A89F07BFD0E4B002B00D098470D4B86
:10627000002B00D098470020002104000D000D489D
:10628000002802D00C48AFF3008089F02DFC2000DC
:1062900029007DF013F989F03FF900BF00000800E4
:1062A000000000000000000000000420004A002060
:1062B0008CBE012000000000000000007047704705
:1062C000704770477047F0B59DF820C0BDF9186061
:1062D0009DF81C709DF824E0BDF9145004680595E4
:1062E000CDE908CECDE906676469A446BDE8F04073
:1062F00060478172704770472DE9F3411D4603687E
:10630000BDF820801B69044617460E469847CDE924
:10631000007822686B1E3344556A20461BB23A4609
:106320003146A84723689B6A204602B0BDE8F04189
:1063300018472DE9F3411C460368BDF820801B690E
:1063400005461646013C34440F4624B298472B6854
:10635000CDF8048000945C6A28463B4632463946B4
:10636000A0472B689B6A284602B0BDE8F041184759
:1063700070474020704720207047102070477047BA
:106380006FF0180070476FF0180070476FF018003A
:10639000704770476FF01800704700207047BBEEE1
:1063A000090A704784B004A800E90E006FF01800D5
:1063B00004B070476FF0180070476FF01800704716
:1063C0000368D3F8E03018470368D3F8DC30184787
:1063D0004AB116290B466FF00800A8BF1623834266
:1063E000B8BF034613700931C9B220292CBF6FF022
:1063F0000C0000207047836841601944C1607047F9
:1064000000207047002070471C3070470120704703
:10641000704724307047084A8B8992F8300108B1E0
:10642000422B08D0012B05D00A3B012B8CBF00204A
:106430000120704718467047A8850020006A431E57
:106440005842584170470020704747F2305070471B
:106450002038704790F84000831E584258417047DA
:106460002038704790F83C00831E584258417047CE
:1064700000207047007B704700207047006A431E71
:10648000584258417047024B93F85801704700BF7B
:10649000A8850020014B93F849017047A88500208A
:1064A0000020704720387047002070470120704757
:1064B0000020704700207047014B93F8620170473D
:1064C000A8850020704770474B6A032B01BF034B20
:1064D0001B68B3F850300384002070479C370120BC
:1064E000F2E7F1E71C307047002070470068096848
:1064F00003689B68184700207047C0F880117047F8
:1065000080ED5F0A704700207047006809680368E3
:106510009B6818470068096803689B68184700680B
:10652000096803689B68184770477047022A06D0BD
:10653000032A02D0012A00D10160002070470B68B5
:106540000360FAE7F2E7012A08BF01600020704704
:10655000F9E7F8E7F7E7F6E7F5E7F4E7F3E7F2E757
:10656000F1E7F0E7EFE7EEE7EDE7ECE7EBE7EAE787
:10657000E9E7E8E7E7E7E6E7E5E7E4E7E3E7E2E7B7
:10658000E1E7E0E7DFE7DEE7DDE7DCE7DBE7DAE7E7
:10659000D9E7D8E7D7E7D6E7D5E7D4E7D3E7D2E717
:1065A000D1E7D0E7CFE7CEE7CDE7CCE7CBE7CAE747
:1065B000C9E7C8E7C7E7C6E7C5E7022A06D0032A46
:1065C00002D0012A00D10160002070470B680360EF
:1065D000FAE7F2E7F1E7F0E7EFE7EEE7EDE770471C
:1065E000203870472038704701207047007B704783
:1065F00000207047012070477047704770470120A6
:1066000057F077BCFBE72DE9F04F2DED028B87B0FB
:1066100008EE100ABDF94870BDF94C809DF8509005
:106620009DF854A09DF858B0CDE900370C461546AA
:106630001E46CDE904AB1346CDE902890A46262160
:106640004AF09DFDCDE904ABCDE90289CDE90067B3
:1066500018EE100A2B46224624214AF090FD07B07E
:10666000BDEC028BBDE8F08F10B50C2104467CF028
:106670006DFF204610BD10B5342104467CF066FF46
:10668000204610BD024B0348198879F032BE00BF86
:10669000AA2D012028660120024B0348198879F0B1
:1066A00028BE00BFAA2D01202866012070B505462E
:1066B0000C464CB1E1682846FFF7F8FFA668204673
:1066C0007BF080F93446F4E770BD70B505460C46A2
:1066D0004CB1E1682846FFF7F8FFA66820467BF03A
:1066E00071F93446F4E770BD70B505460C464CB1FF
:1066F000E1682846FFF7F8FFA66820467BF062F9BC
:106700003446F4E770BD70B505460C464CB1E168FF
:106710002846FFF7F8FFA66820467BF053F9344679
:10672000F4E770BD10B50446006808B17BF04AF983
:10673000204610BD11B108307AF098BF704713B5EC
:106740000A4C2068403056F001FE206800210AF013
:1067500033FB074B01221A7000230193054B01A95B
:1067600018687BF051FB02B010BD00BFD03701208C
:106770005837012098560020E1E7E0E710B50446BD
:1067800078F020F9204610BD10B5046844B1201DF2
:1067900078F018F920461421BDE810407CF0D6BEF0
:1067A00010BD07B500680B680168019301EB031188
:1067B000C3680BB982F065FF036901AA04309847EA
:1067C00003B05DF804FBECE707B500680B680168EF
:1067D000019301EB0311C3680BB982F052FF036907
:1067E00001AA0430984703B05DF804FB07B50068C0
:1067F0000B68026801930C2101FB0321C3680BB9EC
:1068000082F03FFF036901AA0430984703B05DF8A6
:1068100004FBEBE707B500680B68026801930C21E5
:1068200001FB0321C3680BB982F02BFF036901AAA6
:106830000430984703B05DF804FBEBE7EAE7E9E7CB
:10684000034607B59A680191013A08469A6082F0BA
:106850003FFD019803B05DF804EB7BF0B3B87FB562
:10686000204B214A03F11006144618685968154652
:1068700003C50833B3422A46F7D11C4A1B88106867
:1068800051682B8001AB03C3127A1A7004AA12E973
:106890000700174B03C3194603F5887001F8082950
:1068A000144AC4F818214FF48072A4F81C21012264
:1068B000616184F81E210021202289F04FFA40F204
:1068C0000943C4F820310C4BC4F824310B4BC4F8F5
:1068D00028310023C4F82C31042384F8503104B04B
:1068E00070BD00BF7C5B0B001C4A00208E5B0B0060
:1068F000344A002009000001FF560B00B0540D007F
:10690000F0B50546002004462B5D2E19002B68D0FB
:1069100003F14002D2B2012A3DD9F42B3BD81A062A
:106920001BD40122A3F55846B6F5006F33D3B3F557
:10693000803F14444FD31E2853DCA3F5803342001C
:106940009E0A0A44C3F30903A6F52056A3F5105383
:1069500021F8106002305380D6E703F0E002C02A2D
:106960001BD103F01F03022206F1010C16441CF890
:10697000017B07F0C00EBEF1800F0CD107F03F077E
:10698000664547EA8313F2D1022A16D1A3F18006A5
:10699000B6F5F06FC6D30134B6E703F0F002E02A93
:1069A00003D103F00F030322DEE703F0F802F02A1D
:1069B000F1D103F007030422D6E7032A04D1A3F59B
:1069C0000066B6F5784FE5E7A3F58032B2F5801F93
:1069D000E1D20422A6E7202803D021F810300130AC
:1069E00092E7F0BDF0B501F1200C00254FF0000E4C
:1069F00051F8043B05F001055E1B52F8043B6EEBB9
:106A00004E07F41A67F10005614540F8044BEFD1D9
:106A100005F00100F0BD08B5D0E900031B1A6FF0C6
:106A20000040834202D1074882F006FE012B1A463D
:106A300038BF01229B1804D2002BACBF18466FF060
:106A4000004008BD0B570B0008B5D0E900031B1A26
:106A50009810094B43430948834202D1084882F009
:106A6000EBFD012B1A4638BF01229A1802D2904240
:106A700028BF104608BD00BFABAAAAAAAAAAAA0AA4
:106A80000B570B00034610B41B681C6808461146E0
:106A90002CB1A4469B685DF8044B0122604702209C
:106AA0005DF8044B704710B548B1046954B184686F
:106AB0000123A047002818BF6FF0020010BD6FF03F
:106AC0000A00FBE76FF00400F8E720B1024B8001F9
:106AD00043F0010318477047A05B0B00A4DF704729
:106AE000A3DF7047B2DF7047B1DF7047B0DF704798
:106AF00011DF70473DDF70473CDF704763DF704751
:106B000062DF7047A8DF704786DF704785DF704718
:106B100081DF704746DF70478ADF70477ADF704752
:106B2000A0DF7047007D7047407C7047007D704754
:106B3000B5DF704790DF70478FDF7047AEDF70477B
:106B4000ADDF7047ACDF7047ABDF7047AADF70473F
:106B500075DF704774DF704700231A4619467BF0D3
:106B60008BB84FF0FF317BF0F3B930B5294C0546B7
:106B70009DB0206DFFF7F5FF94F84C300195254648
:106B80007BB1254801AB02AA06A907F0A9FC04467F
:106B900078B1286DFFF7E0FFB4FA84F040091DB02A
:106BA00030BD04F10C0007F016F904460028E8D0C7
:106BB000EFE79DF80C30222B16D0174802AA06A941
:106BC00007F050FB04460028E3D19DF80C30222B3F
:106BD000DFD1114806AA12A907F02AF8041ED8DB53
:106BE0000BD10E4857F022FA0B4804AA11A906F05F
:106BF000B6FB04460028E0D0CBE71A9B0F931B9B03
:106C00001093002304481A4606A907F0AFF904467A
:106C1000BFE700BFD0520020DC52002025570B00F8
:106C200012DF70474B1E062B88BF0A46817A98BF39
:106C300008220231D208C9B249F02ABF4B1E062BE6
:106C400088BF0A46417A98BF08220231D208C9B2E9
:106C500049F01EBF4B1E062B88BF0A46017A98BF1B
:106C600008220231D208C9B249F012BF30B5044639
:106C700085B00A200D467AF05EFE0A4B0093032190
:106C80000023CDE901130393207923686A4642F07B
:106C9000EFF900B220B92946684645F006F800B27F
:106CA00005B030BD7013012030B5044685B0012019
:106CB0000D467AF040FE0A4B009303210023CDE9F4
:106CC00001130393207923686A4642F0D1F900B298
:106CD00020B92946684644F0E8FF00B205B030BD4F
:106CE0001C24012038B5437A04460D460BB94CF0FC
:106CF0005EF82046032280214BF0F2FFE27A204624
:106D00002A4381214BF0ECFF25732046BDE8384033
:106D10004BF0FDBF38B5437A04460D460BB94CF035
:106D200046F82046032280214BF0DAFF227B2046E2
:106D30002A4381214BF0D4FFE5722046BDE838405C
:106D40004BF0E5BF38B515461A4650B1C368AB42A3
:106D50000AD344682B46A047002818BF6FF00200F2
:106D600038BD6FF00A00FBE76FF00400F8E710B4DD
:106D70000446084611461A4623685C6824B1A446B6
:106D80009B685DF8044B604702205DF8044B704738
:106D900013B50446002146F044FC012301AA062154
:106DA0002046FFF7E4FF50B99DF8043001AA60F3D4
:106DB0004513062120468DF80430FFF763FE02B02C
:106DC00010BD37B504460D46002146F02AFC0123CC
:106DD00001AA06212046FFF7CAFF50B99DF80430EA
:106DE00001AA65F38613062120468DF80430FFF7CB
:106DF00049FE03B030BD38B5437C04460D4673B13F
:106E0000204643F0A7FA227A657220462A43A12140
:106E100043F044FA2046BDE8384043F050BA0349F5
:106E200043F060FA0028EBD138BD00BFEC450120EB
:106E300038B5437C04460D4673B1204643F08AFAC8
:106E4000627A257220462A43A12143F027FA204680
:106E5000BDE8384043F033BA024943F043FA002812
:106E6000EBD138BDEC4501201FB504688DF80C103E
:106E7000ACB103230021CDE9003103AB0122194657
:106E8000204609F0A8F89DF80D309DF80C001B0273
:106E900043EA00439DF80E00184304B010BD0323DD
:106EA000FF22CDE9003203AB01221946406848F0C9
:106EB0004BFAE8E71FB504688DF80C108CB102237B
:106EC0000021CDE9003103AB01221946204609F02B
:106ED00082F89DF80C009DF80D3043EA002004B0C4
:106EE00010BD0223FF22CDE9003203AB0122194677
:106EF000406848F029FAECE708B5FFF7DBFF40BA35
:106F000080B208BD1FB504688DF80C1064B1002371
:106F10000122CDE9002303AB1946204609F05BF8B6
:106F20009DF80C0004B010BD0122FF23CDE9002321
:106F300003AB1946406848F007FAF1E71FB504684B
:106F40008DF80D2064B10023CDE900338DF80C10CD
:106F50000123022203A9204609F00DF804B010BD58
:106F600001F07F0100948DF80C102346022203A942
:106F7000406848F00DFAF1E70078C0F3C20300F072
:106F800007029B0043EA421343EA901070471FB583
:106F900044688DF80C10ACB103230021CDE9003119
:106FA00003AB01221946204609F015F89DF80D3073
:106FB0009DF80C001B0243EA00439DF80E001843A5
:106FC00004B010BD0323FF22CDE9003203AB012240
:106FD0001946806848F0B8F9E8E71FB544688DF8AD
:106FE0000C109CB102230021CDE9003103AB01223A
:106FF0001946204608F0EFFF9DF80C309DF80D0073
:1070000040EA032040BA80B204B010BD0223FF2240
:10701000CDE9003203AB01221946806848F094F9AB
:10702000EAE71FB544688DF80C1064B10023012213
:10703000CDE9002303AB1946204608F0CCFF9DF8AC
:107040000C0004B010BD0122FF23CDE9002303ABE7
:107050001946806848F078F9F1E71FB544688DF863
:107060000D2064B10023CDE900338DF80C1001230D
:10707000022203A9204608F07EFF04B010BD01F0F3
:107080007F0100948DF80C102346022203A980682A
:1070900048F07EF9F1E7836903B118471846704755
:1070A0000378642223F0020303704068B0FBF2F01F
:1070B000B0FBF2F302FB1300C0B27047037C0BB9C4
:1070C00003707047836843600378C16043F0030333
:1070D0000370002303747047037819B143F004036D
:1070E0000370704703F0FB03FAE770474BDF70470C
:1070F00033DF704732DF7047BFF34F8F0549064BD0
:10710000CA6802F4E0621343CB60BFF34F8F00BF45
:10711000FDE700BF00ED00E00400FA0508B17AF0D9
:1071200051BC704710B5044615F0DEFB08B123884A
:10713000838110BD425C0144487840EA02207047D8
:107140000B4B10B51C6810F015FC236801461B683A
:1071500020469847044640B119F0A8F828B194F8A1
:107160002D3013B104F12D0010BD0248FCE700BF23
:10717000C493002029570B00034B1A79062A0CBF31
:1071800093F898000020704790900020064B1879E3
:1071900000F0FB03022B04D0A0F10B03584258412E
:1071A00070470120704700BF90900020094B10B538
:1071B0001C6864B1606810F0C7FB38B194F86401D2
:1071C00094F86E3198422CBF0020012010BD20465B
:1071D000FCE700BF0CF2002010B50446006882F006
:1071E000E3F82060204610BD38B5044608200D465F
:1071F0007CF0A6F92B68436023680360206038BDEB
:1072000070B505460C464CB1E1682846FFF7F8FF1B
:10721000A66820467AF0D6FB3446F4E770BD10B578
:107220000446006882F09AF82060204610BD83680A
:1072300010B504462BB10322014698470023C4E948
:107240000233204610BD8B6873B5164604460D1DEB
:1072500001225BB130681A69904234BF9868D868DF
:107260001D4634BF012200220346F2E7019552B1C8
:10727000CA68AA4204D1C4E90035204602B070BDF4
:1072800001A8FFF7A9FF019A3368116999424FF0ED
:107290000003F0D3C4E90023EFE770B505460C46C0
:1072A0004CB1E1682846FFF7F8FFA66820467AF05F
:1072B00089FB3446F4E770BD38B504460068844263
:1072C00004D005687AF07EFB2846F8E738BD70B533
:1072D000046805460E46AC4207D0A06803683146F4
:1072E0009B68984710B92468F5E7002070BD70B519
:1072F000046805460E46AC4207D0A06803683146D4
:107300009B68984710B92468F5E7002070BD08B560
:10731000054B984201D982F089F90C235843BDE806
:1073200008407CF00DB900BFAAAAAA0A08B17AF0F9
:1073300049BB70478B6873B5164604460D1D012284
:107340005BB130881A8A904234BF9868D8681D466D
:1073500034BF012200220346F2E7019552B1CA6808
:10736000AA4204D1C4E90035204602B070BD01A88C
:10737000FFF732FF019A3388118A99424FF00003D8
:10738000F0D3C4E90023EFE78B6873B516460446D3
:107390000D1D01225BB130881A8A904234BF986873
:1073A000D8681D4634BF012200220346F2E701954A
:1073B00052B1CA68AA4204D1C4E90035204602B0DD
:1073C00070BD01A8FFF708FF019A3388118A99421E
:1073D0004FF00003F0D3C4E90023EFE770B5054692
:1073E0000C464CB1E1682846FFF7F8FFA668204636
:1073F0007AF0E8FA3446F4E770BD10B50C4650B1A7
:1074000038F0E0FD38B1043050E8003F234440E854
:107410000032002AF8D110BD10B50138029C0F28A7
:1074200000F28480DFE800F05E8236281A145808E3
:107430004A6D7073797D8044DFED427A9FED427A28
:10744000002908BFF0EE477AC2ED007A052261E01C
:10745000DFED3E7A9FED3E7A0029F2E7DFED3B7AE1
:107460009FED3B7A002908BFF0EE477AC2ED007A23
:1074700005222270082242E0DFED347A9FED347A53
:10748000002908BFF0EE477AC2ED007A052222708B
:10749000092234E0DFED2D7A9FED2D7A002908BF17
:1074A000F0EE477AC2ED007A052222700A2226E029
:1074B000DFED247A9FED247A0029E2E7DFED217ADF
:1074C0009FED217A002908BFF0EE477AC2ED007ADD
:1074D000082222700B2212E0DFED1E7A9FED1E7A49
:1074E0000029F0E7DFED1B7A9FED1B7A002908BF2A
:1074F000F0EE477AC2ED007A082222700C221A7050
:1075000010BD16491160C1E714491160CCE7144958
:107510001160062222700722F1E71149116006224C
:10752000A7E71049116091E70E49F7E7DFED077A09
:107530009FED077A002908BFF0EE477AC2ED007A86
:107540000522C6E70020CB440000FA4300204B444C
:1075500000007A430020CB430000FA420000FA42C8
:1075600000007A429A9979411FB5002303930023C2
:107570008DF80B308DF80A300DF10A03009303AA41
:107580000DF10B03FFF748FF9DED030A05B05DF811
:1075900004FB38B504460C200D467BF0D1FF2B6868
:1075A0008360214681F08DFEA3680133A36038BD5E
:1075B00038B504460C200D467BF0C2FF2B68836073
:1075C000214681F07EFEA3680133A36038BDF8B583
:1075D0000D460168044606468C420FD08A682B6827
:1075E0000F689A4208D101F108039D4203D020465A
:1075F000FFF726F900E00E463946EDE7B44205D024
:1076000031462046BDE8F840FFF71AB9F8BDF8B595
:107610000D460168044606468C420FD08A682B68E6
:107620000F689A4208D101F108039D4203D0204619
:10763000FFF706F900E00E463946EDE7B44205D003
:1076400031462046BDE8F840FFF7FAB8F8BD2DE90D
:10765000F047D0E90487436AD0E902A904463D1DFA
:107660001E1DAE4204D955F8040B7AF0ABF9F8E7C9
:10767000C4E906A9C4E90887BDE8F0872DE9F04709
:10768000D0E90487436AD0E902A904463D1D1E1DC6
:10769000AE4204D955F8040B7AF094F9F8E7C4E93E
:1076A00006A9C4E90887BDE8F087036870B50446F9
:1076B00063B1436A45691E1DAE4204D955F8040BF7
:1076C0007AF080F9F8E720687AF07CF9204670BDFE
:1076D000036870B5044663B1436A45691E1DAE4236
:1076E00004D955F8040B7AF06DF9F8E720687AF0C0
:1076F00069F9204670BD50F8183B834202D0184605
:107700007AF060B9704710B50446FFF7D5FD002345
:10771000C4E90044A36010BDB0F1005F08B501D317
:1077200081F084FFBDE8084080007BF009BF08B10C
:107730007AF048B97047026962B1836850F8231043
:10774000013303F0010348BF5B42013A83600261E9
:10775000084670471146FBE7826A10B582B1036A9A
:1077600050F823400133594201F0070103F00703A9
:1077700002F1FF3258BF4B4203628262204610BDC5
:107780001446FBE7026962B1836850F823100133A5
:1077900003F0010348BF5B42013A8360026108467F
:1077A00070471146FBE7826C10B582B1036C50F84C
:1077B00023400133594201F00F0103F00F0302F19E
:1077C000FF3258BF4B4203648264204610BD14460A
:1077D000FBE70146014815F0ADB800BFF099002065
:1077E0002DE9F347CB68DFF8649001930E1D07463F
:1077F0000C4635464FF0FF38DDF804A0564510D052
:10780000DAF81010D9F80430994206D038460FF053
:1078100049FE804584BF5546804601A8FFF7FFFC1E
:10782000EAE7AE4210D001A80195FFF7F8FC314617
:10783000284681F017FE7AF0C5F86369013B636161
:10784000012002B0BDE8F0870020FAE7708900202F
:107850002DE9F347CB68DFF8649001930E1D0746CE
:107860000C4635464FF0FF38DDF804A0564510D0E1
:10787000DAF81010D9F80430994206D038460FF0E3
:1078800011FE804584BF5546804601A8FFF7C7FC1E
:10789000EAE7AE4210D001A80195FFF7C0FC3146DF
:1078A000284681F0DFFD7AF08DF86369013B636162
:1078B000012002B0BDE8F0870020FAE770890020BF
:1078C0002DE9F347CB68DFF8649001930E1D07465E
:1078D0000C4635464FF0FF38DDF804A0564510D071
:1078E000DAF81010D9F80430994206D038460FF073
:1078F000D9FD804584BF5546804601A8FFF78FFC1F
:10790000EAE7AE4210D001A80195FFF788FC3146A6
:10791000284681F0A7FD7AF055F86369013B636161
:10792000012002B0BDE8F0870020FAE7708900204E
:107930002DE9F347CB68DFF8649001930E1D0746ED
:107940000C4635464FF0FF38DDF804A0564510D000
:10795000DAF81010D9F80430994206D038460FF002
:10796000A1FD804584BF5546804601A8FFF757FC1E
:10797000EAE7AE4210D001A80195FFF750FC31466E
:10798000284681F06FFD7AF01DF86369013B636161
:10799000012002B0BDE8F0870020FAE770890020DE
:1079A0008B6873B5164604460D1D01225BB1306825
:1079B0001A69904234BF9868D8681D4634BF0122C6
:1079C00000220346F2E7019552B1CA68AA4204D1E7
:1079D000C4E90035204602B070BD01A8FFF7FCFBEA
:1079E000019A3368116999424FF00003F0D3C4E95A
:1079F0000023EFE78B6873B5164604460D1D012280
:107A00005BB130681A69904234BF9868D8681D46E7
:107A100034BF012200220346F2E7019552B1CA6841
:107A2000AA4204D1C4E90035204602B070BD01A8C5
:107A3000FFF7D2FB019A3368116999424FF00003B6
:107A4000F0D3C4E90023EFE78B6873B5164604460C
:107A50000D1D01225BB130681A69904234BF9868ED
:107A6000D8681D4634BF012200220346F2E7019583
:107A700052B1CA68AA4204D1C4E90035204602B016
:107A800070BD01A8FFF7A8FB019A336811699942FC
:107A90004FF00003F0D3C4E90023EFE78B6873B520
:107AA000164604460D1D01225BB130681A699042EA
:107AB00034BF9868D8681D4634BF012200220346AF
:107AC000F2E7019552B1CA68AA4204D1C4E900356F
:107AD000204602B070BD01A8FFF77EFB019A336813
:107AE000116999424FF00003F0D3C4E90023EFE796
:107AF00030B5031D826818463AB115690C68A54275
:107B00002ABF1046D2689268F6E7834204D009681B
:107B10000269914238BF184630BD30B5031D8268F6
:107B200018463AB115690C68A5422ABF1046D268BA
:107B30009268F6E7834204D009680269914238BF2F
:107B4000184630BD30B5031D826818463AB1156934
:107B50000C68A5422ABF1046D2689268F6E78342B5
:107B600004D009680269914238BF184630BD30B56B
:107B7000031D826818463AB115690C68A5422ABFF0
:107B80001046D2689268F6E7834204D00968026919
:107B9000914238BF184630BD37B54B690192272B4B
:107BA00005460C460AD901A92046FFF7E0FF231D30
:107BB000834203D121462846FFF7BAFE03B030BD09
:107BC00010B581680446FEF771FD0023221DC4E94B
:107BD0000322A360636110BD10B581680446FEF7FF
:107BE00074FD0023221DC4E90322A360636110BD5C
:107BF00010B581680446FEF777FD0023221DC4E915
:107C00000322A360636110BD10B581680446FEF7CE
:107C10007AFD0023221DC4E90322A360636110BD25
:107C20002DE9F84300F10409846805464E46ECB19D
:107C300023690868834204D2E368344626461C461A
:107C4000F5E7A368FAD8E26843B1196988428ABFA8
:107C5000D968996823461C460B46F5E73AB1136983
:107C6000984236BF1646D2689268F7E73446EB680A
:107C7000D5F81480A34209D1B14507D12846FFF7B2
:107C8000C3FF6869A8EB0000BDE8F883A642F8D0FE
:107C9000204681F076FB49460746204681F0E2FB0C
:107CA00079F090FE6B69013B6B613C46EEE708B1F1
:107CB00079F088BE7047B0F1005F13B501D381F051
:107CC000B5FC8200104601927BF03AFC019A00213B
:107CD000044688F043F8204602B010BD42680B46C7
:107CE00004318A4210B5044604D01846521A88F06E
:107CF0001BF803466268043A6260184610BD814270
:107D000010B51346A1EB000405D0014622461846E3
:107D100088F00AF80346181910BD38B50346D3E9B0
:107D20000035ED1A6FF06043AC10A3EBA5058D4252
:107D3000104601D281F080FCA14238BF2146601874
:107D400003D2984228BF184638BD1846FCE708B150
:107D500079F038BE704710B504460068FFF7F7FFAA
:107D6000204610BD08281BD00A281CD010281DD082
:107D700015281ED01F281FD02A2820D03E2821D009
:107D8000C82822D0B0F5C87F22D0B0F5487F22D0D5
:107D9000B0F5C86F22D007EE900AB8EE670A7047B8
:107DA0009FED100A70479FED100A70479FED0F0A74
:107DB00070479FED0F0A70479FED0E0A70479FEDC9
:107DC0000E0A70479FED0D0A70479FED0D0A704730
:107DD0009FED0C0A70479FED0C0A70479FED0B0A50
:107DE000704700BF9A99F940666626419A99794191
:107DF0006666A6410000FA41CDCC264200007A42D8
:107E000000204B430020CB4300204B440020CB44B8
:107E100010B103685B681847704710B103681B69AD
:107E20001847704710B50446006808B1FFF7F5FF22
:107E3000204610BD10B103681B691847704710B188
:107E400003685B6818477047036801600BB1184608
:107E5000F5E7704710B103685B681847704770B565
:107E600005460C464CB1E1682846FFF7F8FFA668C6
:107E7000204679F0A7FD3446F4E770BD70B504687C
:107E800005460E46AC4207D0A068036831469B68A1
:107E9000984710B92468F5E7002070BD2DE9F84F28
:107EA000D0E90087A7EB0804A310234C5C43234BC5
:107EB0009C4206468946934602D1214881F0BCFB8C
:107EC000012C224638BF0122A418A1EB080531D2AB
:107ED00044B19C4228BF1C460C2060437BF030FB21
:107EE000824600E0A2469BE807000AEB0503002D4E
:107EF00083E8070004DD2A464146504687F014FF18
:107F0000A7EB09070C35002F554404DD3A464946D6
:107F1000284687F0FBFE3D44B8F1000F02D04046F2
:107F200079F050FD0C2000FB04A4C6E900A5B46064
:107F3000BDE8F88F1C46CFE7ABAAAAAAAAAAAA0A4C
:107F40000B570B002DE9F84F064689469346FEF77E
:107F500062FDD6E900A8071EA9EB0A0428D001DAC1
:107F600081F064FB7BF0ECFA05469BF800302B5562
:107F7000002C04DD22465146284687F0D5FEA8EBAA
:107F800009080134B8F1000F2C4404DD424649468B
:107F9000204687F0BBFE4444BAF1000F02D05046A1
:107FA00079F010FDC6E900543D44B560BDE8F88F96
:107FB0003D46DAE72DE9F041064688461546174664
:107FC0000446444509D02146384681F043FE204608
:107FD00081F056FD18341837F3E7A01BC408044895
:107FE000444324F06044182000FB0450BDE8F081B5
:107FF000ABAAAA0A10B50C1A002C134605DD0146DF
:108000002246184687F090FE0346181910BDB0F1BD
:10801000005F08B501D381F009FBBDE8084080008E
:108020007BF08EBA08B179F0CDBC7047B1F1005F3A
:10803000F8B504460E4602D3104881F0FDFA0268F6
:1080400083689B1AB1EBA30F14D94768BF1A91B18B
:108050000846FFF7DCFF05462A46D4E90001FFF792
:10806000C9FF2068FFF7DEFF2F44256005EB86057A
:108070006760A560F8BD0D46EEE700BF2D570B0009
:1080800008B179F09FBC70472DE9F843D0E901436E
:108090009C420746894607D00B6844F8043B44607D
:1080A00078680438BDE8F883D0F800806FF060424B
:1080B000A4EB0804B2EBA40F4FEAA40302D11648C4
:1080C00081F0BAFA012B1D4638BF0125ED1821D2E7
:1080D0003DB1954228BF1546A8007BF031FA06460F
:1080E00000E02E46D9F800303351002C04DD224642
:1080F0004146304687F018FE04343444B8F1000F8E
:1081000002D0404679F05EFC06EB8505C7E90064C5
:10811000BD60C5E71546DFE70B570B0038B50346D2
:10812000D3E90035ED1A6FF06043AC10A3EBA50561
:108130008D42104601D281F07FFAA14238BF21461C
:10814000601803D2984228BF184638BD1846FCE78D
:108150002DE9F84F05460F4691460121134AFFF7D6
:10816000DDFFD5E9008A0646A7EB080BD8B1FFF77B
:108170004EFF0446D9F8003044F80B302246394609
:108180004046FFF737FF5146021D3846FFF732FFE2
:1081900007464046FFF746FFC5E9004704EB860463
:1081A000AC60BDE8F88F0446E4E700BF0B570B0056
:1081B000D0E90032934218BF4360704710B50446BF
:1081C0000068FFF72FFF204610BD30B50D688368AB
:1081D00085B0D0E9004205604D68456003938D6825
:1081E00085600023C1E900338B6001A8CDE901421D
:1081F000FFF7E4FF05B030BDD0E900239A4209D172
:10820000C3681A1F53F8043C436003F5FC73C26053
:108210008360036003681C3B0360704713B50B4623
:108220000246D0E900016C4684E8030093E80300AD
:1082300082E8030094E8030083E8030098689168EB
:1082400090609960D168D868D060D96002B010BDE4
:1082500010B50378DB07044604D579F061FBE368C9
:10826000C01A10BD4FF0FF30FBE708B5064B074AB8
:108270001868074900F61C7075F054FFBDE8084007
:108280000E200CF0A5BB00BFC43A01203D570B00E7
:1082900056570B0070B5046805460E46AC4207D031
:1082A000A068036831469B68984710B92468F5E7D1
:1082B000002070BD10B50B4904460B48FFF7EAFFDC
:1082C00068B123681D2B0BD801332360074B084A84
:1082D0001868084900F61C7075F024FF012010BDD5
:1082E0000020FCE7148D0B00C8240120C43A0120B3
:1082F0005C570B0079570B0070B5046805460E46B5
:10830000AC4207D0A068036831469B68984710B913
:108310002468F5E7002070BD10B5D0E90043144A89
:10832000E31A9B1002FB0312002A1BDB112A04DC58
:108330001C2303FB0141016010BD122392FBF3F3E8
:10834000C16801EB830451F82310C46001F5FC748B
:108350008460122404FB13231C2202FB03134160DC
:108360000360E9E7D3431221B3FBF1F3DB43E7E713
:10837000B76DDBB6CA68C3689B1AD0E90020121A31
:1083800007489B109210424310B5013B122404FB96
:1083900003238A680968521A921000FB023010BD4C
:1083A000B76DDBB62DE9F04704460F4600F1080132
:1083B0001830FFF7DFFF3C4B984202D13B4881F079
:1083C0003BF9626A20686368111AA3EBA1010129D5
:1083D00025D86169A2EB01084FEAA806B51CB3EBEA
:1083E000450F3CD95D1B6D0800EB8505131DA942A7
:1083F000A3EB01022CD9994202D0284687F094FCC5
:108400002B68E36003F5FC73236105EB08036362EB
:1084100055F80830E36103F5FC73656123624FF49E
:10842000FC70656A7BF08CF868603D460FCDA669EC
:108430000FC695E80700636A86E807001A1D5B68A7
:10844000626203F5FC72E3612262A361BDE8F0871A
:108450009942D5D008F10400801A2844CEE703F1F0
:108460000209012B2CBF994409F10109B9F1005F00
:1084700001D381F0DBF84FEA89007BF061F8626A92
:108480006169A9EB050504326D089142824600EB53
:10849000850503D0521A284687F046FC206879F0FB
:1084A00091FAC4E900A9ABE7244992047F570B0075
:1084B00073B5044616460D4619B912B10D4881F040
:1084C000B8F8731B0F2B019307D9002201A920468E
:1084D00081F0B4FA019B2060A360324629462068EF
:1084E00081F03CFB019B226863600021D15402B003
:1084F00070BD00BFAF570B00FFF7DABF036870B560
:10850000044663B1436A45691E1DAE4204D955F85D
:10851000040B79F057FAF8E7206879F053FA20460F
:1085200070BD036882681C339342036008D1C3683E
:108530001A1D5B68C26003F5FC72436082600360D1
:10854000704744DF704743DF704742DF7047064B98
:108550001868043B1B68082B04D103288CBF00203B
:10856000012070470020704734010010024B1B6847
:10857000DB0700D500BE7047F0ED00E0034B1B6841
:10858000DB0700D500BE0020704700BFF0ED00E023
:1085900037B50446142001917AF0D2FF01990546BF
:1085A00018F026F9256003B030BD022A70B50546E3
:1085B00007D0032A13D0012A01D10B6803600020E1
:1085C00070BD0C6814207AF0BBFF2146064651F8B6
:1085D000043B40F8043B16F057FC2E60EFE7FEF733
:1085E000D3F8ECE7E1E7022A70B5054607D0032A85
:1085F00013D0012A01D10B680360002070BD0C6804
:1086000014207AF09DFF2146064651F8043B40F8BD
:10861000043B16F039FC2E60EFE7FEF7B5F8ECE707
:10862000022A70B5054607D0032A13D0012A01D1CA
:108630000B680360002070BD0C6814207AF080FF86
:108640002146064651F8043B40F8043B16F01CFC5A
:108650002E60EFE7FEF798F8ECE7E1E7022A70B545
:10866000054607D0032A13D0012A01D10B68036005
:10867000002070BD0C6814207AF062FF2146064687
:1086800051F8043B40F8043B16F0FEFB2E60EFE788
:10869000FEF77AF8ECE7E1E7E0E7DFE71FB504462D
:1086A000684616F0F1FB21466846FFF7B7FD6846BD
:1086B00076F088F9204604B010BD00BF014B93F856
:1086C00058017047A8850020014B93F84901704775
:1086D000A8850020014B93F862017047A88500200F
:1086E0002DE9F041DFF8C883C64BC74DC74E404661
:1086F00094B0442240F80C3B0021002487F02EFB6C
:10870000C34BC8F8083008F1540188F80440012030
:1087100079F036FBBF4BC8F85000C8F80030BE4AAD
:10872000BE49404680F0C8FDBD48BB4ABD49C0F8BF
:1087300084404FF40053A0F88030BB4BC0F8883021
:10874000A0F89C4080F0B8FDB84B0822DC60C3E97B
:1087500001441A701C82B64BB64A1C705C70B64B52
:1087600001271A60B54A1F71D2F8B4101973D2F8F4
:10877000AC109973D2F8B0105973DC731C829C60F2
:10878000AF4BB0491C711960516F1973D16899735F
:10879000926F5A739C60DC731C821923C5E90055E3
:1087A000AC60AC812B614FF47A732B62AE61C5F87B
:1087B0002880C5E90C44AC73AC82EC6185F82C4090
:1087C0008022214605F17C0085F8384085F8784004
:1087D00087F0C4FA8822214605F1FC0087F0BEFA32
:1087E0008D4A9949284680F067FD98488A4A9849F9
:1087F0008460C0E9000080F05FFD9648864A944995
:108800008460C0E9000080F057FD9348824A904997
:108810008460C0E9000080F04FFD904874F018FFBC
:108820007D4A8F498D4880F047FD4FF4A4707AF05F
:1088300087FE06F124030546202240F8043B21462A
:1088400087F08CFA6C621022214605F1280087F02F
:1088500085FA2122214605F1380087F07FFA20228F
:10886000214605F1590087F079FA2022214605F1C9
:10887000790087F073FA20222146C5F89C4005F163
:10888000A00087F06BFA85F8C04005F1C40074F0D1
:10889000DFFE2022214605F1C80087F05FFA202282
:1088A000214605F1E80087F059FA2022214605F516
:1088B000847087F053FA2022214605F5947087F0E2
:1088C0004DFA06F168032B60664B67481D6006F1A0
:1088D000AC08664B10930EA9CDF838808DF83E4059
:1088E000ADF83C40119447F051F94B4A60495E485D
:1088F000604D80F0E1FC604B604810930EA9CDF80C
:1089000038808DF83E40ADF83C40119404F016FAE2
:10891000414A5B49594880F0CFFC5A4B5A48109362
:108920000EA9CDF838808DF83E40ADF83C4011944A
:1089300004F004FA384A5249534880F0BDFC534BC6
:10894000534810930EA9CDF838808DF83E40ADF80D
:108950003C40119404F0F2F92F4A49494C4880F008
:10896000ABFC4C4B4C4810930EA9CDF838808DF8D9
:108970003E40ADF83C40119404F0E0F9264A4049ED
:10898000454880F099FC41F60A030EA92846CDF827
:108990003880ADF83C30CDE910448DF83E7047F09A
:1089A000F5F8284606F1BC0340F8183B242221467E
:1089B00087F0D4F9394BEB611523C5E90F4485F8ED
:1089C0003D30374BEB62052385F84130354B2B6347
:1089D000132385F8423085F844402846324D0E4A2C
:1089E000324980F069FC41F60F030EA92846CDF804
:1089F0003880ADF83C30CDE910448DF83E7047F03A
:108A0000C5F857E0E0910B00C80B0120E8570B00B8
:108A100064400020F0910B00004000206DF0020047
:108A2000C893002039BF030080EE3600C813012030
:108A30009824012000F00240A024012094530D004E
:108A4000B424012000300240B3660400C824012091
:108A5000C9DE0700D4240120E024012000250120E4
:108A600043D6090004250120C02701201A530D0018
:108A7000D7EF0700482801202B530D0008250120BF
:108A800061CD02003B530D000029012009530D0068
:108A9000582B0120F8520D0060250120B0540D0024
:108AA00000560B0006560B0090280120D5EF07005A
:108AB000D0520020284606F1D00340F8183B0EA9FA
:108AC00042F61923ADF83C30CDF83880CDE910449A
:108AD0008DF83E7004F032F92846BC4DBC4ABD49C1
:108AE00080F0EAFBBC4BCDF838800EA928461093E5
:108AF0008DF83E40ADF83C40119447F047F82846C9
:108B000006F1E40340F8183B0EA9B44B1093CDF8DE
:108B100038808DF83E40ADF83C40119404F00EF9D9
:108B2000AB4AAF49284680F0C7FB23462246214680
:108B3000AC48009477F098FDAB48AC4D74F088FDDC
:108B4000A34AAB49A84880F0B7FBAA48A04AAA4963
:108B5000046080F0B1FBA9489D4AA749046080F0F9
:108B6000ABFBA74B2B61A74BEB602846A64B6B6179
:108B700006F1F80340F8183B6D6045F2C0722146DB
:108B800087F0ECF836222146A04887F0E7F828461F
:108B90009F4D8F4A9F4980F08FFB28464FF4D0723B
:108BA000214600F8044B87F0D9F84FF4D0722146E3
:108BB00005F5D27087F0D2F89748854A97498460C6
:108BC000C0E9000080F078FB9548964D804A9649B0
:108BD000C463C0E90144C0E90344C0E90544C0E9F5
:108BE0000744C0E90944C0E90B44C0E90D4480F0E2
:108BF00063FB8E4B2B6128468D4BEB6006F588732B
:108C000040F8183B6D606C614FF4FB52214687F0D1
:108C1000A5F810222146874887F0A0F86C4A8649BB
:108C20002846864D80F048FB854B2B612846854BB6
:108C3000EB6006F5947340F8183B6D606C61202280
:108C4000214687F08BF8624A7F49AC6328467F4D06
:108C500080F032FB7E4B2B6128467E4BEB6006F5A5
:108C6000A07340F8183B6D606C614FF4F0622146D0
:108C700087F074F8564A7849C5F89847284680F036
:108C80001BFB76481022214620F8024B87F066F83D
:108C900073494F4A734880F00FFB5C207AF050FC18
:108CA000054607F02AFD2B466F4A43F8382BC5E9E5
:108CB0000E3306F5AC736B636C4B2C64C5E9123450
:108CC0004FF400734FF00208A5F85830684B6D64FC
:108CD00085F850806C6585F85A806F62CC201D60E5
:108CE0007AF02EFC054607F008FD2B46614A43F852
:108CF000382BC5E90E3306F5B6736B635E4B2C64F7
:108D000021467422C5E912346D642C6505F15400C6
:108D100087F024F8594BC5F8C840C5F8248058207E
:108D20001D607AF00DFC054607F0E7FC2B46544A1F
:108D300043F8382BC5E90E33524B2C64C5E9123485
:108D400003236B6206F5C0764F4B6E636D642C6532
:108D5000A5F8544085F856406C201D607AF0F0FB71
:108D6000054607F0CAFC2B46484A43F8382BC5E9AC
:108D70000E33474B6B63474B474E484A4848317860
:108D80002C64C5E9123405F15C03C5E915340423EC
:108D90006B62444B6D641D6033881380424A2C65BE
:108DA0001380424A85F85C401380414A84601380F6
:108DB000404A1380404B727859709A701C70044A74
:108DC0003E49C0E9004480F077FA79E0D8270120D5
:108DD00000400020D9EF0700A9720C00B9720C0006
:108DE000DBEF070034830020B0130120F09900204E
:108DF00043D60900F00F0120398006006C130120D2
:108E0000ED640200D96502001A560B00C8F100207B
:108E1000A8960020D9C6030004110120C9DE07006E
:108E20004090002094610020C17503001F6502007E
:108E3000D36502000C81002015540300B0590020B6
:108E400015650200D5650200EB530300F0590020C0
:108E50000B650200D7650200BD5303009E59002038
:108E6000C77309006437012014940B004902030002
:108E7000503701207C0A0C0089B00400983701208B
:108E800044DF0B0033E803009C370120702C0D00F9
:108E9000E82C0D00E9770900A73A0120803701206E
:108EA000B80B0120A437012083370120743701203B
:108EB00076370120783701208637012025670200A8
:108EC0004B484C4A4C49846080F0F6F94B48494A7B
:108ED0004B49846080F0F0F94A48464A4A49846028
:108EE000C0E9004480F0E8F94848424A48498460B3
:108EF000C0E9004480F0E0F946483E4A44498460B5
:108F0000C0E9004480F0D8F943483A4A43498460B4
:108F1000C0E9004480F0D0F9414B3025013D1C737D
:108F200003F10E03FAD13F48324A37498560C0E960
:108F3000005580F0C1F93C482E4A3C49057200F1C9
:108F40000803C0E9003580F0B7F93948394C294A9F
:108F500039498560C0E9005580F0AEF90127142237
:108F60002946C4E90055A56004F10C0086F0F6FE20
:108F7000204A324932482565C4E90855C4E90A55F2
:108F8000C4E90C55C4E90E55C4E91055C4E912559D
:108F900084F8547080F090F92A48164A2A490560EE
:108FA00080F08AF9294B2A481D705D709D703570DC
:108FB00075701DF089FE0F4A2649254880F07CF91E
:108FC00025481DF081FE0B4A2249234880F074F9A0
:108FD00003222946384678F029FE204B18600028E5
:108FE00044D11F4B1F4A20480C2155F089F800BF7F
:108FF000B0560020004000207D6702007859002014
:109000007D6702001C11012029CE090028110120D2
:10901000950704003C110120481101209507040028
:10902000DC3701207C3A0120883A0120899C0A0023
:10903000E40E0120140F0120577D0200257E02005E
:10904000500D0120A03A012039800600A43A0120E9
:10905000F45400201D0E0300C8550020985600202F
:1090600028560B0032560B0072560B00974A98494F
:10907000984C994F184680F01FF9984B984A9D607C
:10908000C3E90025974ADA60974B984A9D60C3E987
:109090000025974ADA609749974B9848C3E90252EE
:1090A000C3E90015964B974A1A60974A5A60974A47
:1090B0009A60974ADA60974B974A9D60C3E900250A
:1090C000964ADA60964B974A9D60C3E90025964A16
:1090D000DA60964B964A9749C3E90025964A9A600A
:1090E000964ADA60964B974A9D60C3E90025964AF6
:1090F000DA60964A116096498560C2E90115954982
:10910000D160954A954911609549516095499160A2
:109110009549D160C0E900356C4A9449C0F8EC50DB
:1091200080F8F05080F0C8F89148924B0361052315
:10913000037104F14C0300264FF04008036204F170
:109140005803C0E90935614A8B4905730575856186
:1091500005778560046080F82D804563866380F024
:10916000ABF88648864B03612223037104F1640344
:10917000036004F1B003036204F1BC03436242F2F2
:109180001073524A7F4905730575856105778560BF
:1091900080F82880C762C663A0F8403080F842801B
:1091A0004764066386634663856480F085F8764885
:1091B000764B03610423037104F1C803036004F5D3
:1091C0008873424A72490573057585610577856024
:1091D000036280F071F86F486F4B03610E230371D7
:1091E00004F58E73036004F5B473036204F5BA7377
:1091F0004362422380F83430684B344A684905732F
:10920000057585610577856087638362C362036343
:10921000C56380F051F86348634B03611C230371FD
:1092200004F5C073036004F5E473604E274A604997
:109230000573C0E90835057585610577856080F09F
:109240003BF85C4902A806F00FFA304606F02CF90C
:1092500006F13003C6E90A3502AA0EA8564986F877
:10926000305006F04BF955490EA880F0FDFE01463E
:1092700008A880F0EFFC08A906F1280080F00AFD9C
:1092800008A880F0FDFB0EA880F0FAFB06F092F92A
:1092900002A880F0F5FB0D4A4949304680F00CF8F1
:1092A000484B83F8E45083F8E850474B4FF47A7208
:1092B0009A6004F5EA721A6004F5FE744FF47F4276
:1092C0005D601C619A8214B0BDE8F081004000200E
:1092D00091D609007C590B00EC450120F03B0120A0
:1092E0002DE509009E560B00003C012011E5090008
:1092F000A7560B00F3E40900E03B0120103C0120DD
:10930000C03B0120A9EA0900FB650200F9650200E3
:1093100057E70B00903B012085EA0900AB560B0094
:10932000A03B01205DEA0900AE560B00D03B0120B6
:1093300039EA09000DEA090005660200B3560B0080
:10934000B03B0120BD620200BA560B00803B0120F9
:10935000DFE40900BF560B00703B0120D7E909008C
:10936000CDE40900FF650200C2560B00B54A0300B8
:10937000C4530020C8560B003507030000540020DA
:10938000CF560B00730703004C540020D6560B0039
:109390007107030080540020DD560B00CDCCCC3D7E
:1093A0006F070300C4540020E5560B0074530020DF
:1093B0006D070300BBAE0B00EE560B00F9560B0019
:1093C000DDFA0200E4510020B04B002007B503682D
:1093D0008DF807105B6801220DF10701984703B073
:1093E0005DF804FBA0F1100000F032B9407DFF28C9
:1093F00001D076F0C1B8704710B5437DFF2B0CD07B
:10940000074A4FF4567000FB032001F04FFB04465F
:1094100008B97AF0E3FC204610BD0020FCE700BF4D
:10942000A44201202DE9F74F437DFF2B06460F464E
:1094300014462FD015464FF4567A4FF6FE7B15B3DF
:10944000707D76F0D7F8F0B1737D134A01930AFB73
:1094500003294FF6FF7209F124095D4598BF2A469A
:1094600092B23946484601F085FA8046484601F0F6
:109470001DFB3F28019B02D9184676F07DF8B5EB1D
:109480000805474403D1601B03B0BDE8F08F7AF0B4
:10949000A5FCD4E70020F7E79442012008B5437DFE
:1094A000FF2B07D0044A4FF4567000FB032001F055
:1094B000EBFA08BD0020FCE7B842012073B5437DFC
:1094C000FF2B14D04FF456745C430A4E04F1100085
:1094D00001220DF10701304401F07CF905463019F5
:1094E00076F09EF81DB19DF8070002B070BD4FF0F8
:1094F000FF30FAE79442012073B5457DFF2D03D17B
:109500004FF0FF3002B070BD254E4FF4567303FB91
:109510000563186A18B14FF0FF3178F019FD4FF468
:10952000567202FB0562118B538B908A89B29BB2F3
:10953000994236BFC3EB4002CA1A521894B2E4B142
:10954000A04209D281424FF456722CBF0B1A0B185D
:1095500002FB05629BB2538398421ED94FF45671A9
:1095600001FB05610DF10700CA8A0969C2F30E0209
:1095700002FB031186F0CAFB01244FF4567303FB70
:109580000565286A20B100231A46194678F074FB55
:10959000002CB5D09DF80700B4E71B1A9BB2DBE79F
:1095A0009442012010B5194B5A7DFF2A2CD11A7E06
:1095B00052BB174C5A750121197694F850110B299A
:1095C00008D84A1C84F8502101F14802114844F897
:1095D00022000A461A75B4F81821B4F81A316169E4
:1095E0000A489B1A9BB20A4494F81C1100F030F808
:1095F00050B1B4F818311844636980B2A4F8180166
:10960000588094F81C211A7110BD00BFB04B002087
:109610001C4A0020648C0B0010B5407DFF2807D049
:1096200075F0E8FF044608B97AF0D8FB204610BD73
:109630000024FBE7034B9B68B3F5966F01D176F0EE
:109640004BB970479442012009B900B9F2E770475D
:109650002DE9F047074692B098461546002A00F0DB
:1096600090804B4B93F81C6193F81D1193F81EA149
:10967000B21C83F81C214C1C8A1C83F81D2164F049
:109680007F040AF1010241F08009E4B283F81E214F
:109690004222002101A886F061FB002D6DD0B8F1B7
:1096A000410F73D940F20220ADF8080040F20940A2
:1096B000ADF80C0040F20120ADF8100024208DF828
:1096C000160034480690731C0120DBB28DF806604A
:1096D0008DF80E608DF81C008DF826602E48397DBF
:1096E0008DF81E30032640F6083208908DF827309A
:1096F00040F224608DF82B608DF8313008260A2363
:109700000427ADF804208DF8141002220521ADF8CD
:1097100024008DF82C6040F207508DF834304FF45F
:10972000116640238DF807208DF812208DF8151052
:10973000ADF828008DF83320ADF838008DF83B20C7
:109740008DF81F708DF82A90ADF82E608DF830706E
:109750008DF83AA08DF83C3007238DF83F308DF816
:10976000401044F2020342220DEB070128468DF817
:109770004140ADF8423086F0C9FA422012B0BDE84F
:10978000F087924614469146164681E70020F5E799
:109790001C4A002020010524240202050B6802490E
:1097A0000B610121184700BF043D01202DE9F04164
:1097B000174C184F8046002518262279EBB2511D10
:1097C000994212DA38220021134886F0C7FA102293
:1097D000FF2104F1090086F0C1FA04F119001222F8
:1097E000BDE8F041FF2186F0B9BA9A4207D9226854
:1097F00006FB032333B9BDE8F041FEF7B7BE9B1A61
:1098000006FB03735B68404698470135D5E700BF08
:10981000CC4B0020808C0B00D14B0020F8B5124CB3
:10982000266C00F07F07C5094FF0FF31304678F015
:109830008FFB04EB47032B4425339A79C2F3800452
:10984000520708D59A7912F0010103BF9A7961F3A2
:1098500082029A71002400231A461946304678F095
:109860000BFA2046F8BD00BFCC4B0020F8B5194AD2
:1098700000F07F0302EB430303EBD01000F125045B
:1098800090F82B5015F0010521D190F82B30590795
:10989000C3F3800717D4166C4FF0FF31304678F0D1
:1098A00057FBA57915F001050FD1A3795B0704D407
:1098B000A37943F00403A371012500231A46194636
:1098C000304678F0D9F92846F8BD3D46F5E7002541
:1098D000F9E700BFCC4B002070B4827802F07F0320
:1098E000082B07D9524B1B68DB0700D500BE0020B0
:1098F00070BC70474F49C478CD79818804F0030467
:10990000022CC1F30A010BD0032C45D0012C11D13C
:10991000022D40F2FF3408BF4FF48064A1420DE0F5
:10992000022D0AD1B1F5007F09D0414B1B68DA073F
:1099300000D500BE70BCFEF721BE4029F5D83E4ED2
:109940005C0004EBD21406EB0414D5092181C17824
:1099500001F0030101292FD00120384900FA03F456
:1099600005BB03F10C06B040C1F80403D1F814059F
:1099700003F594730443C1F8144541F823502F4B69
:10998000C3F8182542F48072C3F80C25BFF36F8F1B
:10999000BFF34F8F0120ABE7022D0CBF4FF4806463
:1099A0004024BBE702339840C1F80403D1F81035D6
:1099B0001C43C1F81045E2E7082B93D11F4BDDB9DA
:1099C000B6F8182112B18022C3F81C250022C3F872
:1099D0005021D3F8002312F4001208BFC3F8542119
:1099E000164B4FF44012C3F80423D3F8142542F465
:1099F0008072C3F81425C9E70022C3F82C21B6F8F9
:109A0000082112B18022C3F81C250C4BD3F8002387
:109A100012F4001208BFC3F85421094AC3F8042302
:109A2000D3F8102542F48072C3F81025AEE700BFCA
:109A3000F0ED00E0CC4B0020244D002000700240EF
:109A40000008200010B50B4B00F07F0203EB42032F
:109A500003EBD0142534A3799B0709D401F07AFADB
:109A6000A37943F00203A371A37943F00103A37127
:109A700010BD00BFCC4B002010B5104B0446014672
:109A8000187801F023F80E4B04F07F0103EB41033B
:109A900003EBD41090F82B306FF3410380F82B3098
:109AA00090F82B306FF3000380F82B3090F82B30B8
:109AB0006FF3820380F82B3010BD00BF04400020FC
:109AC000CC4B00202DE9F843DDE908890C46164609
:109AD0001F460025AE4201DC01200EE06378052B15
:109AE00004D1E37803F00303BB4208D00D4B1868A0
:109AF00010F0010001D000BE0020BDE8F883204630
:109B0000FFF7EAFE18B9BDE8F843FEF737BDA378C2
:109B1000DA0914BF89F8003088F80030237801355D
:109B20001C44D7E7F0ED00E01FB5CDE90201114973
:109B3000002308240193486C8DF805403AB9134678
:109B400001A94FF0FF3278F097F804B010BD6A46D3
:109B500001A9009378F029F9009B002BF5D0064B62
:109B60004FF080525A6040BFBFF34F8FBFF36F8FEB
:109B7000EBE700BFCC4B002000ED00E02DE9FF41FA
:109B80004378484C023B0546042B12D8DFE803F02B
:109B900003291B22710063796FF3000363716379FA
:109BA00000226FF341036371A271637962F3820350
:109BB0006371606C002961D10B464FF0FF3229467A
:109BC00078F05AF82FE06379D8072CD5637943F001
:109BD0000403EDE76379DA0725D563796FF3820330
:109BE000E6E763795B0715D563796FF382036371E9
:109BF0000278606C0023CDE901338DF80420052242
:109C000003938DF8052089B90B464FF0FF3201A967
:109C100078F032F8DFF89480002618272279F3B222
:109C2000511D994214DA04B0BDE8F0816A4601A9D9
:109C3000009378F0BAF8009B002BEBD01A4B4FF052
:109C400080525A6040BFBFF34F8FBFF36F8FE1E781
:109C50009A420AD9226807FB032323B15B6913B137
:109C60006968287898470136D8E79B1A07FB038371
:109C7000F4E7237A0133DBB223729AE7002301AAC7
:109C80002946019378F091F8019B002BCBD0064B2D
:109C90004FF080525A6040BFBFF34F8FBFF36F8FBA
:109CA000C1E700BFCC4B002000ED00E0808C0B0032
:109CB0002DE9FF47474D074600F07F0005EB4006C2
:109CC00006EBD7162536B47914F001044FEAD71EF7
:109CD0004FEA400306D0FEF751FC0446204604B08C
:109CE000BDE8F08796F806C0DFF800814CF0010C63
:109CF00086F806C003EB0E0C4FEA0C1908EB0C1C9F
:109D000046469CF80BA0BAF1000F17D0324A1168F2
:109D1000C90700D500BE2B44734493F82B106FF392
:109D2000000183F82B1093F82B106FF3820183F856
:109D30002B101368DB07D1D500BECFE748F8091018
:109D4000ACF80420ACF8064008BB02BB234BD3F8A8
:109D50008034C3F3C0139E4519D0214800F02EFF74
:109D6000204B59680394C1F3080100394FF4E063B4
:109D700018BF012101A8CDE90144ADF804308DF8E8
:109D800008708DF80940FFF7F9FE0124A6E70125C8
:109D9000BEF1000F1AD106EB4012D57218B9124865
:109DA00000F00CFFF1E7BFF36F8FBFF34F8F937A93
:109DB00003F0FF0443B1D37A03F0FF05002B8DD0ED
:109DC00082F80AE001F062F82C4687E701F0E8F833
:109DD000FAE700BFCC4B0020F0ED00E0007002403D
:109DE0005070024000ED00E04C700240244D002015
:109DF0002DE9F04FB54B1B78FF2B93B0834600F055
:109E000029844FF47A72002380024FEA9B5185F037
:109E1000ADF8012838BF01200390AD4CBBF1FF3FE6
:109E2000606C26461BD0039BBBF1000F14BF1A4683
:109E3000002207A978F012F8002800F00B849DF8A2
:109E40001D30013B072B00F2B283DFE813F00A005C
:109E50001C00B003170426042B008D0332045A465D
:109E6000E7E79DF81C00FFF7A1FC9A4814220021A7
:109E700085F074FF9DF82030E371606C78F0FEF897
:109E80000028CAD1E6E39DF81C00FFF78FFC91483B
:109E90001422002185F062FF8F4B002BEDD0AFF331
:109EA0000080EAE7237A013BDBB22372227A02F0D8
:109EB000FF03002AE1D16279DFF818829DF81C5077
:109EC000C8F8103042F00102627194F82B2063F35D
:109ED000000284F82B2094F82B2063F3820284F88C
:109EE0002B2094F82C2063F3000284F82C2094F8A3
:109EF0002C2063F382029DF8203084F82C2003F09C
:109F00006002602A06D1754B1B68DD0740F1DF82D5
:109F100000BEDCE2402A0AD1714BC8F8103008AA12
:109F20000121284675F06AFC0028A6D1CFE203F093
:109F30001F03012B00F03E82022B00F08882002BD1
:109F4000E1D1202A20D19DF824300F2B00F2BF82CE
:109F50001E442379717A99420CD2236801EB4101A6
:109F600013EBC10100F0B38208AA0C312846FFF7B9
:109F700015FCD9E75A1D8A42C0F2A982594AC91A6A
:109F8000182303FB0121EFE7002ABCD19DF8213003
:109F9000092BB8D801A252F823F000BF9FA30200FA
:109FA0008DA30200079F020079A30200079F020011
:109FB000C59F02002BA20200079F0200F99F02002A
:109FC0000DA00200DDE90801474BC8E90001D3F804
:109FD0000014D3F8000400220143C8E90222C3F8A8
:109FE0000014C3F858214FF48002C3F804236379A6
:109FF00043F00203637140E7A3798DF83830012301
:10A000000EAA08A9284674F0E1FD36E79DF8223033
:10A010000193019AA3799A4200F08A80A379002BD8
:10A0200042D0324B8022C3F88420BFF34F8FBFF35E
:10A030006F8F0127DFF8B080DFF8C0A0B94607F1C5
:10A040000C03BA1C09FA02F209FA03F31343C8F825
:10A050000833BB0003F1804303F51C330021596032
:10A060000AEB471099622022013785F077FE082F0E
:10A070004FF00001E3D11E4BC8F808332022C8F886
:10A080001C151C48C8F82410C8F8481085F066FE56
:10A09000C8F81495C8F81095144B80225A60E779D7
:10A0A0002846FFF783FBE771019B002B00F0B78088
:10A0B000114B5A6912B15378022B21D0074B1B6800
:10A0C000DA077FF520AF00BE1DE700BF0440002087
:10A0D000CC4B0020043D012000000000F0ED00E02A
:10A0E000FDF70900808C0B000070024000E100E0E9
:10A0F00000083000244E00201C4A0020244D00207F
:10A10000D379C3F38011C3F340131B0143EA411316
:10A11000617921F030010B4363715388D31802F148
:10A1200009010293029B8B4209D8B74B002B73D1D4
:10A13000019BA37108A9284674F004FD9DE64B78A5
:10A140000B2B03BF0B7891F80390C9184FF001094E
:10A150004B78042BB2D1029B5A1A92B24FF0000AEC
:10A1600037795FFA8AF87B1D9845A7DC47452ED9D9
:10A170003768182303FB0877002F9FD0BB68284659
:10A18000CDE9041298470828DDE9041241D982423A
:10A190003FD3B9F1010F0AD1BB689C4A934208BF73
:10A1A0004FF002099A4A934208BF4FF00209002279
:10A1B000D3B2994512D8974A084488421AD8954B89
:10A1C0001B79053398453FF779AF0146AAE7924BD3
:10A1D000A8EB0707182000FB0737CFE78F783B4431
:10A1E00056FA83F301325F7AFF2F7FF467AF83F86B
:10A1F0000980DDE74B78052B08D18F7807F07F03C6
:10A2000002EB430303EBD71383F819800B7819444F
:10A21000D3E70AF1010AA3E7AFF3008088E77F4B99
:10A22000002B85D0AFF3008082E7BDF82200030A3F
:10A230005A1EC0B20E2A00F24A81DFE812F00F0067
:10A240001A002B004801480191001A0048014801FA
:10A25000480148014801480148011600704A12238C
:10A2600008A9284674F0B2FC5EE66E4A32F802395C
:10A27000F6E7022B06D16A4B5A69002A3FF443AE37
:10A280005388EDE7684B002B00F02181AFF300808D
:10A290000246F2E7624E60B1032819D096F85031B9
:10A2A000834240F21481483006F5AA7156F8200026
:10A2B00053E0D6F82031A6F8543101200130430094
:10A2C00043F44072A6F8522103F0FE03574AC7E751
:10A2D000D6F82C71002F3DD10AA875F0FFFA0DF1C8
:10A2E000280C0346B6463A46D1B28B420EF1040E14
:10A2F0002DD94F4F0DF1380907F1100A38687968E8
:10A30000C846A8E8030008375745C146F6D11CF8EF
:10A31000018B474F08F00F0112A801440DF1380AD4
:10A3200011F8101CAEF8521179683868D146A9E8C6
:10A330000300404908378F42CA46F5D112A901EB04
:10A340001818013218F8101CAEF85011CCE758005C
:10A35000C0B2B3E706F5AA713846FCF7D1FAF7E7C1
:10A36000354B002B00F0B380AFF30080024600288D
:10A3700000F0AD80037873E7BDF82230012B40F088
:10A38000A680637943F008036371D3E6BDF82230F9
:10A39000012B40F09C8063796FF3C303F4E763798A
:10A3A000C3F340129B0803F002031343ADF83830A7
:10A3B000022325E69DF824300F2B00F288801E44EE
:10A3C0002379717A994239D2236801EB410113EB69
:10A3D000C1017CD008AA0C312846FFF7DFF900281C
:10A3E0007FF44BAD9DF8203013F060036FD19DF8E2
:10A3F0002120A2F10A01012969D80A2AC8F81030DF
:10A400007FF498AEF9E500BF0000000051F70900A5
:10A41000B1EF0900CC4B0020808C0B000000000045
:10A420001C4A00204D530D00000000006E4B002020
:10A43000EC840D00FC840D00000000005A1D8A42CF
:10A4400045DBA24AC91A182303FB0121C2E79DF884
:10A45000240000F07F0CBCF1080F3FF654AD06EB72
:10A460004C0707EBD01794F804E07F7E77454FEA5E
:10A47000D0114FEA4C0A16D2236807EB470703EBCB
:10A48000C70712BB9DF8212002F0FD0EBEF1010F9F
:10A4900024D0002A7FF437AD5644314491F82B3054
:10A4A000C3F3400382E70EF10509B945C0F2098103
:10A4B000864BA7EB0E074FF0180E0EFB0737002A4E
:10A4C000E0D008AA07F10C0150E5002FF9D10020D7
:10A4D00000F040FD802000F03DFDCEE4BDF822E01C
:10A4E000BEF1000F2BD1012A3BD106EB0A020A4430
:10A4F00025329279930722D510F0770F11D0744A44
:10A5000040F4807EC2F80C05C2F80CE5C2F81805CC
:10A5100019B90CF5947C42F82C10BFF36F8FBFF380
:10A520004F8F5644314491F82B306FF3410381F83B
:10A530002B3091F82B306FF3000381F82B30002F74
:10A540003FF49BAC08AA07F10C012846FFF726F957
:10A550000023C8F8103094F82C30DE073FF58DAC9E
:10A56000E8E5FFF76FFAEAE79DF8201001F07F07B2
:10A5700006EB470606EBD116CA0996F82B006FF3D7
:10A58000000086F82B0096F82B006FF3820086F807
:10A590002B00002F4FD14F4D9DF81C602B78DDF81C
:10A5A0002480B2EBD31F12D0B8F1000F06D04A4B73
:10A5B0001B68DB077FF561AC00BE5EE42B69002BF6
:10A5C0003FF45BAC2A4603213046984755E495F9A1
:10A5D0000030002B07DBA86800283FF44EAC3F4951
:10A5E000424685F093FBAA68EB8942444344AA6043
:10A5F000EA889BB29A42EB8102D0B8F13F0F16D89D
:10A600002B696BB995F900300022002B1146B4BFBD
:10A6100038468020FFF74CFB00287FF42EACC6E7BD
:10A620002C4A0221304698470028EBD150E73046AB
:10A6300074F0A0FAF0E7737E227993420DD222687B
:10A6400003EB430312EBC3030FD1234B1B68D80763
:10A6500000D500BE13B0BDE8F08F501D9842F4DB6A
:10A660001A489B1A182202FB03031D699DF821203A
:10A67000099B9DF81C00A847FFF7FFBB6379D9072A
:10A680007FF5FBAB164B002B3FF4F7AB6079C0F3C3
:10A69000C000AFF30080FFF7F0BB6379DA077FF506
:10A6A000ECAB104B002B3FF4E8ABAFF30080FFF7AF
:10A6B000E4BB089B002B3FF4E0AB09989847FFF7F9
:10A6C000DCBB002A7FF403AF1746DBE6808C0B006F
:10A6D00000700240043D0120F0ED00E0183D012033
:10A6E00000000000000000002DE9F743DFF8D880EB
:10A6F00098F80030FF2B0646474648D1DFF8CC904B
:10A700003822002109F1050085F028FB09F14801F4
:10A71000012077F035FB4D46C9F8400040B9274B82
:10A720001B6813F0010F46D1002003B0BDE8F08391
:10A7300000230093D8F80820B8F80610B8F80400F1
:10A7400008F1100377F05CFAD8F80C10044677F0A3
:10A75000ADFCC9F844402CB9184B1B68DB07E3D5A6
:10A7600000BEE1E7164B23B1281DAFF30080C9F806
:10A770000000DFF85C9000244FF018082879E3B25D
:10A78000421D934205DD3E700E4B80225A6001202F
:10A79000CBE7984208D9286808FB030038B9074A74
:10A7A000126812F0010FBEE71B1A08FB0390036842
:10A7B00098470134E2E700BEB7E700BFF0ED00E0E4
:10A7C0000000000000E100E004400020CC4B00202D
:10A7D000808C0B002DE9F0470646006988469146BB
:10A7E00018B14FF0FF3177F0B3FB33897489B78824
:10A7F0009BB2A4B2A34236BFC4EB47051D1BED18A4
:10A80000ADB2F5B1AF4206D2BB422CBFDC1BDC19A6
:10A81000A4B274813D464D4528BF4D46A74229D973
:10A82000F2883168A7EB04091FFA89F9C2F30E0A0E
:10A830004D4552460AFB04111FD86A43404685F035
:10A8400065FA7389B28899B215FA83F39BB299427B
:10A850004FEA420201D8934201DB9B1A9BB2306956
:10A86000738120B100231A46194677F005FA28466D
:10A87000BDE8F087E41BA4B2D0E719FB0AF91FFA80
:10A8800089F94A46404685F041FAEA1B224412FB08
:10A890000AF2316892B208EB0900D0E7F8B5044635
:10A8A000C0680F4616461D4618B14FF0FF3177F0CD
:10A8B0004FFB206918B14FF0FF3177F049FBED03F2
:10A8C000E0682760002345F001056381A680E580EC
:10A8D000238118B11A46194677F0CEF9206920B1C4
:10A8E00000231A46194677F0C7F90120F8BD38B59C
:10A8F0000446C0680D4618B14FF0FF3177F028FBD1
:10A90000206918B14FF0FF3177F022FBE379E0685E
:10A9100065F3C713E37120B100231A46194677F097
:10A92000ABF9206920B100231A46194677F0A4F943
:10A93000012038BD10B50446C06818B14FF0FF3192
:10A9400077F006FB206918B14FF0FF3177F000FB7C
:10A95000E06800236381238118B11A46194677F015
:10A960008BF9206920B100231A46194677F084F943
:10A97000012010BD2DE9F84F07468846164642B320
:10A98000C06818B14FF0FF3177F0E2FAFA793D89EB
:10A990007B89B7F80490D209ADB29BB21CD19D421D
:10A9A00039BFC3EB49046419EB1A9CB238BFA4B297
:10A9B000A14586BFA9EB0404A4B20024A64228BF87
:10A9C000264656BBF86820B100231A46194677F090
:10A9D00053F93046BDE8F88FF9884E45C1F30E01B2
:10A9E00006D3A6EB090601FB06881D464E46E8E79E
:10A9F0009D424FEA490136BFCA1AEA1A521992B269
:10AA000032448A4209DB09EB0305AD1BADB2AB4210
:10AA100001D8A94201DC6D1AADB22C46A1451DD961
:10AA2000FA883868A9EB040A1FFA8AFAC2F30E0BF7
:10AA3000B2455A460BFB040014D37243414685F0DD
:10AA400065F97319BA889BB2AB424FEA420201D34F
:10AA5000934201DB9B1A9BB23B81B3E7A4EB090451
:10AA6000A4B2DBE71AFB0BFA1FFA8AFA52464146F8
:10AA700085F04CF9A6EB0903234413FB0BF238686D
:10AA800092B208EB0A01DAE78288038940899BB217
:10AA900080B2834236BFC0EB4200181AC01880B2A1
:10AAA000824286BF101A80B2002070470389428913
:10AAB00081889BB292B2934236BFC2EB41029B1A8D
:10AAC0009B1898B2884228BF0846704770B501F0BD
:10AAD0007F05082D2A4B2B4C4FEAD11123D00122A0
:10AAE00002FA05F0C043A1B905F10C06B240C3F863
:10AAF0000823D3F814251040C3F8140501EB4501D1
:10AB000004EB01110023CB72BFF36F8FBFF34F8FA4
:10AB100070BDAE1CB240C3F80823D3F81025104016
:10AB2000C3F81005EAE704EB01120020A2F80801BF
:10AB3000D1B94FF48012C3F80823D3F8142522F4B6
:10AB40008072C3F81425C3F850110D4BB4F80801F6
:10AB50000022C3F81C25B4F81821C24204BF4FF4E8
:10AB60000012C3F80823C9E74FF40062C3F80823B2
:10AB7000D3F8102522F48072C3F81025E5E700BF52
:10AB800000700240244D002001230360BFF36F8F4B
:10AB9000BFF34F8F074B984202D0043B984207D136
:10ABA000BFF35B8F044B002283F82021BFF35B8F40
:10ABB000704700BF50700240244D002010B40D4B70
:10ABC000BFF35B8F01464FF00104D3E84F2FC3E87A
:10ABD0004C4FBCF1000FF8D1BFF35B8F12F0FF0FA9
:10ABE00005D005485DF8044B0122FEF79DBF5DF8D6
:10ABF000044BC9E7444E0020BDAB020043F20403FE
:10AC000007B51A68094B9A424FF000000AD18DF837
:10AC100007000DF10700FCF703F89DF80700003866
:10AC200018BF012003B05DF804FB00BFDBE5B151A4
:10AC300007B5FFF7E3FF58B1002301A80193FDF723
:10AC400080FC0198003818BF012003B05DF804FBB8
:10AC50004FF08043D3F80C24D3F80C0410F4803068
:10AC600018BF02F00100F0E701281FB5044600F00C
:10AC7000B980022853D0002842D1774BD3F8002561
:10AC8000002A3DD14FF48002C3F808234FF400623C
:10AC9000C3F80024BFF36F8FBFF34F8F6F4B1B6858
:10ACA000082B10D16E4B1B68032B0CD86D4AD35C5C
:10ACB0004BB16D4B6D4A1868032118BB49F27530D2
:10ACC000186011601860FDF742FC48B1664B684A95
:10ACD0001868C021C0B949F2753018601160186059
:10ACE0005D4B0124C3F80045BFF36F8FBFF34F8F57
:10ACF000FFF79EFF20B9FFF781FF38B1FDF725FC74
:10AD000004B010BD1160DEE71160E9E7594B18602F
:10AD10001B680193019B4FF080431C60F0E74E4C91
:10AD2000D4F804351BB1FFF783FF0028E8D1D4F82D
:10AD300000341B05FBD54FF40063C4F80034BFF3A7
:10AD40006F8FBFF34F8FFDF702FC48B1464B484A67
:10AD50001868002840D149F27531196010601960F7
:10AD60003E4B1B68082B0FD13D4B1B68032B0BD8A8
:10AD70003C4AD35C43B13C4B3C4A186878BB49F22F
:10AD80007531196010601960FDF7E1FB48B13A4B6D
:10AD900040F2E3721A6040225A60BFF36F8FBFF334
:10ADA0004F8F2D4C354880220121C4F81C25C4F852
:10ADB00004133349C1F884210078FF2800D04A6089
:10ADC000FFF736FF0028FBD00123C4F80435BFF39A
:10ADD0006F8FBFF34F8F93E700231360C0E700230B
:10ADE0001360D1E71C4BD3F80025002A88D000223D
:10ADF000C3F80425BFF36F8FBFF34F8F2049802026
:10AE0000C1F88400BFF34F8FBFF36F8FD3F80013E7
:10AE1000C3F80813C3F80025BFF36F8FBFF34F8F3C
:10AE2000FFF7ECFEA0B1FDF78EFB164B5968C1F39E
:10AE3000080100230039CDE90133039318BF012134
:10AE40004FF4007301A8ADF80430FEF797FE57E702
:10AE50000D4B1C60E9E700BF00700240300100109C
:10AE600034010010108D0B0000EC064014ED06407C
:10AE700014EC06400001004000780240044000202D
:10AE800000E100E000ED00E004000040F0B42B4AD7
:10AE9000BFF35B8F02F590734FF00104D3E84F1FAF
:10AEA000C3E8454F002DF9D1BFF35B8F11F0FF0FC1
:10AEB00014460BD0224B5A68C2F30802003A0146EE
:10AEC000F0BC204818BF0122FEF72EBE08281E49FC
:10AED00019D1D1F8C034D80308D5BFF35B8F002354
:10AEE00084F82031BFF35B8FF0BC704792F80B0100
:10AEF0000028F2D0D2F800211448C1F8A027C1F8E8
:10AF0000A437F0BC40E602EB401500F5947346010F
:10AF100051F82340EF88AB88DB1B9BB2A4B2A3425D
:10AF200028BF23469459142202FB0011C1F80047A0
:10AF3000C1F80437064B03EB8000E2E7244D002004
:10AF400000ED00E09DAF020000700240487002403A
:10AF50002870024010F07F0108B507D10D4B012287
:10AF60005A65BFF36F8FBFF34F8F08BD0829F8D024
:10AF7000084B40F48072C3F81825C309F1D1064A82
:10AF800002EB4112907A0028EBD093720846FFF74B
:10AF90007DFFE6E700700240244D0020C0B275E757
:10AFA0000C4B03EB4013D98A9A8A521A198B92B22E
:10AFB0008A4228BF0A4619691423434303F1804398
:10AFC00003F51C33C3F80016C3F80426024B03EB49
:10AFD0008000F3E5244D0020047002402DE9F04F7D
:10AFE000C34BC44AD3F80013002385B01C4601208C
:10AFF0001D4621FA03F6F6070BD552F8236046B139
:10B0000000FA03F6344342F82350BFF36F8FBFF3C7
:10B010004F8F0133192BECD1E7073BD5B44B0122FD
:10B02000C3F81425C3F8102500221546930003F138
:10B03000804303F51C330132082A5D609D62F5D11F
:10B04000AB4B5D629D64C3F85851D3F80024D3F82C
:10B0500000140A43C3F80024D3F80023C3F80823DC
:10B06000A54AC3F80423A54B4FF492720021184659
:10B0700084F074FE4022028302814FF48073012128
:10B0800001A8CDE901550395ADF804308DF80850BD
:10B09000FEF774FD14F4006F984D08D0944BD3F86C
:10B0A000A8369BB2A5F81631012385F81C31A602FB
:10B0B00004F4800736D58E4ED6F8143513F4807319
:10B0C00008D01FB1D6F80034D80702D40820FFF703
:10B0D000DDFE0123D6F81025D10540F15D8195F8FC
:10B0E0001C319BB1B5F8163100229BB2CDE901228B
:10B0F00085F81C2103934FF4E0628823012101A805
:10B10000ADF80420ADF80830FEF738FD0023CDE996
:10B110000133039301214FF4407301A8ADF80430CB
:10B12000FEF72CFD002F37D0714BD3F8006440F2AE
:10B1300001723240C3F80024F2050DD50121C3F895
:10B140002C150023CDE90133039301A84FF480634C
:10B15000ADF80430FEF712FD77050FD5644B0122E0
:10B16000C3F808259A65D3F8002312F4001208BF2B
:10B17000C3F854214FF40012C3F80423B0050BD5D3
:10B180000023CDE90133039301214FF4A06301A80B
:10B19000ADF80430FEF7F2FC21023BD5544BD3F856
:10B1A00080E4D3F88424D3F88814D3F88C74D3F8CB
:10B1B0009064D3F894045FFA81FCD3F89814D3F820
:10B1C0009C341EF07F0F5FFA8EF8D2B2FFB2F6B257
:10B1D000C0B2C9B2DBB201D1052A1BD04FF0000EBC
:10B1E000ADF806E08DF80D004FF4C06E8DF80E102E
:10B1F00001A80121ADF804E08DF808808DF8092040
:10B200008DF80AC08DF80B708DF80C608DF80F303A
:10B21000FEF7B4FC3A4B23406BB1BFF35B8F95F85C
:10B220002031BFF35B8F002B40F0BE80354B1B6895
:10B23000DA0700D500BEDFF8C480DFF8B490DFF88D
:10B24000CCB0474600264FF0140A06F10C0324FA4E
:10B2500003F3DB07F1B224D50AFB06933A68D3F86F
:10B26000083705EB461C12FA83F23A60BCF806E098
:10B2700098B273449BB2082E4FEA4612ACF80630DF
:10B2800000F09A803B89834240F09680BCF80630FB
:10B29000B8889BB2984240F28F8011B95846FFF7A8
:10B2A0008DFC0136092E07F12007CED1164B234025
:10B2B000002B00F089800E4BD3F86C74C3F86C74CB
:10B2C000BFF36F8FBFF34F8F14F4806408D0D3F8AF
:10B2D0008044D3F880341906C4F3C01440F18D8043
:10B2E0004FF00009DFF808A000264FF0140B0FE024
:10B2F00000700240007102400514C001244D00207E
:10B30000FCFB1F00F0ED00E0000400014C70024067
:10B3100027FA06F3DA07F0B201D4D6B9CCB10BFBA9
:10B3200006A3D8F81020D3F8083652FA83F2C8F8EA
:10B33000102005EB4612D18A89B251FA83F39BB2F1
:10B34000D382D38AB8F814109BB2994258D9FFF728
:10B3500027FE0136082E08F12008D9D10024012645
:10B3600004F1100327FA03F3DB07E0B203D47CB93E
:10B37000B9F1000F0CD005EB44116301CA7A002A21
:10B3800053D0CA88898892B291424ED9FFF77EFD88
:10B390000134082CE4D117E0002B7FF4B7AE4FF452
:10B3A0000013C6F80833B1E60023BFF35B8F85F8BE
:10B3B0002031BFF35B8F3EE72A44D37A3BB91C4B65
:10B3C0001B68D80700D500BE05B0BDE8F08FD38854
:10B3D000BB800023D372D2884FF4E060CDE9013303
:10B3E00092B2ADF804008DF8081001A80121039273
:10B3F0008DF80930FEF7C2FB53E74FF0010971E702
:10B40000D28A00234FF4E06160F07F00CDE9013380
:10B4100092B2ADF804108DF80800012101A8039242
:10B420008DF80930FEF7AAFB93E72B449E72AFE735
:10B43000F0ED00E0034B43F602229A87002283F8E6
:10B440003E207047484E002010B4114B02209A6BEA
:10B4500083F82C10996883F8300093F83C008A1A1E
:10B460009A6220B942F205049C8783F83E0059B1E4
:10B4700052B11A7B5DF8044BD20914BF93F82E0029
:10B4800093F82F00FEF7DEBA5DF8044B704700BF5B
:10B49000484E002038B5134C0546607B74F0B0F977
:10B4A00048B942F2077384F83E00A3872846012179
:10B4B000BDE83840C8E7A268A36B94F82F00D21A01
:10B4C000B2F5007F28BF4FF4007292B204F1400140
:10B4D000FEF7EEFB20B9044B1B68DB0700D500BE6E
:10B4E00038BD00BF484E0020F0ED00E008B5FFF782
:10B4F000A1FFBDE808400121A6E702484022002143
:10B5000084F02CBC484E002002484022002184F0E8
:10B5100025BC00BF484E00202DE9F041AC4C0D4643
:10B5200094F8301001298AB0074600F042810329BF
:10B5300000F07381002945D194F82F20AA4201D050
:10B54000012011E01F2B03D12268A24B9A420ED09A
:10B5500094F82E00042384F83030FEF773FA94F840
:10B560002F00FEF76FFA00200AB0BDE8F0819A4B79
:10B5700023626368A26884F82C10C4E909310123AE
:10B5800084F83030E37BC4E90D2103F0FD01282964
:10B590003FD1E18A49BA89B23AB9002900F0038162
:10B5A00002213846FFF750FF0CE0282B27D1207BE3
:10B5B000C009F5D0A1B38A42F2D3282B25D1384651
:10B5C000FFF794FF94F83030022BB9D194F82E0095
:10B5D000824B00F07F0203EB420303EBD0132033D6
:10B5E0009B799B07ACD4A368A26B934240F23B814A
:10B5F000217BC90900F03781FEF724FAA0E72A2B46
:10B60000D8D1207BC009D5D0CAE73846FFF742FF22
:10B61000D8E7A2B1217BC90911D1B2F5007F01D9C8
:10B620000121BEE76E4992B22846FEF741FB002891
:10B63000C8D16C4B1B68DC0795D500BE94E7252B61
:10B6400094F80D8006D8192B0ED8032B75D0122B29
:10B650003FD093B394F83C30002BE1D142F2050285
:10B66000A28784F83E30DBE71A3B0B2BF2D801A20D
:10B6700052F823F021B70200A5B6020055B6020029
:10B6800055B6020055B6020055B6020055B6020086
:10B6900055B6020055B60200C9B6020055B6020002
:10B6A000BBB60200E17C4046C1F3400301F0010259
:10B6B000090974F0A8F8002871D194F83C30002BE7
:10B6C000C8D1FFF7B7FEC5E70023CDE901330393E7
:10B6D000F3E7454B424E0021CDE901314FF02038D0
:10B6E0001F231022202105A88DF80830CDE90388FA
:10B6F00001AD84F033FBCDF824800FCD0FC60FCD04
:10B700000FC62420C6F80080A268002A88D0824292
:10B7100028BF02466263324994F82E0092B284E751
:10B72000404674F06DF880F00103DBB2DB0543F0B6
:10B730000303019323640420E6E71222002101A8F9
:10B7400084F00CFB94F83C0094F83D1094F83E20F3
:10B750008DF81010F0238DF804304FF0000360F3E3
:10B7600003038DF806300A238DF80B308DF8112075
:10B7700001AD0FCD1A4E0FC62B6833801B4BB3B1F2
:10B780004FF40072A6F110014046AFF30080002391
:10B790009842A38784F83E30FFF65CAFB4D1A3682B
:10B7A000002B7FF43DAF022384F830300AE71220EB
:10B7B000EDE7A56BE27B2B44282AA36303D1626BE0
:10B7C0009A42F0D9FBE62A2A12D1FFF733FEE8E6C7
:10B7D000484E00205553424355534253D14B00200D
:10B7E000884E0020F0ED00E0008002020000000022
:10B7F000237BDB0906D142F20502A28784F83E30A2
:10B80000FFF722FED4E90D329A42CCD21C4B1B68C2
:10B81000DA077FF5D7AE00BED4E694F82E20AA4210
:10B820007FF4D0AE0D2B7FF4CDAEE37B282B09D077
:10B830002A2B14D0134B53B1607B04F10F01AFF3EB
:10B84000008004E0104B13B1607BAFF30080002355
:10B850000E4994F82F0084F830301F22E5E6607B13
:10B8600073F0D0FFF3E79B1AA362094903230D226B
:10B8700084F83030FEF71CFA00287FF461AED8E679
:10B88000F0ED00E00000000000000000484E002045
:10B89000684E0020012973B50646154613D113786A
:10B8A00003F07F02022A42D16C78012C3FD16A88D2
:10B8B000002A3CD13749A88891F83030042BC0B217
:10B8C00003D1FEF7BFF8012017E091F82E20904237
:10B8D00015D1022BF7D18A6B8B689B1A8B620323DD
:10B8E00081F830300D222031FEF7E2F90028EAD14C
:10B8F000294B1B68DB074AD500BE02B070BD91F82A
:10B900002F40A042DFD1002BDDD1244A04F07F0379
:10B9100002EB430303EBD41320339A79D107D2D43B
:10B920009B799A07CFD41B491F222046DCE703F0FE
:10B930006003202B2BD16B78FE2B13D0FF2B26D14D
:10B940006B8823BBE9888AB20ABB124B30469987C1
:10B950002946C3E90D2283F8302083F83E2073F096
:10B96000F1F8B0E76B8893B9EC88012C0FD18DF812
:10B97000074073F04AFF50B1431E8DF807300DF1B8
:10B98000070223462946304673F020F99BE7002042
:10B99000B3E700BF484E0020F0ED00E0D14B00209F
:10B9A00037B54B79082B02D0002003B030BD8B791E
:10B9B000062BF9D1CB79502BF6D1162A05D8174B87
:10B9C0001B68D907F0D500BEEEE7154C8B7884F8DC
:10B9D0002D3004F12E030D78019304F12F03009311
:10B9E00002231A462944FEF76DF828B90B4B1B6851
:10B9F000DA07D9D500BED8E7002394F82F0084F8E1
:10BA000030301F222146FEF753F920B9034B1B6843
:10BA1000DB0700D500BE1720C7E700BFF0ED00E050
:10BA2000484E00208278884202D28378934200D028
:10BA30007047037818448142F5D94378042BF2D03B
:10BA40000B2BF6D1EFE7884202D24378934200D124
:10BA5000704703781844F6E738B514461D46884207
:10BA600001D3084638BD8378A34202D1C378AB42E4
:10BA7000F8D0037804221844FFF7E5FFEFE710B58C
:10BA80001446884201D3084610BD837803F0FD02B6
:10BA9000052A01D0112B02D1C378A342F4D0037838
:10BAA00024221844FFF7CFFFEBE738B50A4D1446C0
:10BAB000884201D3084638BD8378112B06D825FA71
:10BAC00003F3DB0702D5C378A342F4D00378242222
:10BAD0001844FFF7B8FFEBE750100200C3883BB1F2
