:020000022000DC
:10600000000004203976080079760800A58508008C
:106010007D7608007F760800817608000000000089
:10602000000000000000000000000000DD74080017
:106030008576080000000000FD74080089760800DD
:106040006D7808008B760800A1530800DD3F08003A
:106050008B7608008B760800B55508008B76080013
:106060008B7608008B7608008B7608008B7608000C
:106070008B7608008B7608008B7608008B760800FC
:106080008B7608006D7208008B7608008B7608000E
:106090008B7608008B760800454608008B76080052
:1060A0008B7608008B7608008B7608008B760800CC
:1060B0008B7608008B7608000000000000000000CE
:1060C0008B7608008B7608008B760800117D08001F
:1060D0008B7608008B7608008B7608007D3B0800E5
:1060E000AD5308008B7608008B7608000000000096
:1060F000000000008B76080000000000417D0800D1
:10610000000000000000000000000000000000008F
:10611000000000000000000000000000000000007F
:10612000000000000000000000000000000000006F
:10613000000000000000000000000000000000005F
:10614000000000000000000000000000000000004F
:10615000000000000000000000000000000000003F
:10616000000000000000000000000000000000002F
:10617000000000000000000000000000000000001F
:10618000000000000000000000000000000000000F
:1061900000000000000000000000000000000000FF
:1061A00000000000000000000000000000000000EF
:1061B00000000000000000000000000000000000DF
:1061C00000000000000000000000000000000000CF
:1061D00000000000000000000000000000000000BF
:1061E00000000000000000000000000000000000AF
:1061F000000000000000000000000000000000009F
:1062000010B5054C237833B9044B13B10448AFF3F0
:1062100000800123237010BDD04500200000000045
:1062200054F50B0008B5034B1BB103490348AFF30A
:10623000008008BD00000000D445002054F50B008C
:10624000A3F5803A704700BF174B002B08BF134BD4
:106250009D46FFF7F5FF00218B460F461348144A71
:10626000121A76F03BF90E4B002B00D098470D4BDD
:10627000002B00D098470020002104000D000D489D
:10628000002802D00C48AFF3008075F0EFFF20002B
:10629000290061F013FA75F001FD00BF000008004D
:1062A000000000000000000000000420D045002095
:1062B000E4B6012000000000000000007047022A40
:1062C00006D0032A02D0012A00D1016000207047C5
:1062D0000B680360FAE7F2E7F1E7F0E77047704711
:1062E000008A704741827047817270477047402032
:1062F0007047202070471020704770476FF01800DB
:1063000070476FF0180070476FF0180070477047C3
:10631000002070476FF01800704700207047BBEEF8
:10632000090A704784B004A800E90E006FF0180055
:1063300004B070476FF0180070476FF01800704796
:106340000368D3F8E03018470368D3F8DC30184707
:10635000806D70474AB116290B466FF00800A8BF40
:1063600016238342B8BF034613700931C9B22029EE
:106370002CBF6FF00C000020704783684160194407
:10638000C160704700207047808B70473220704793
:10639000012070477047084A8B8992F8300108B194
:1063A000422B08D0012B05D00A3B012B8CBF0020CB
:1063B0000120704718467047E0870020006A431E9E
:1063C0005842584170470020704790F83C00831EA7
:1063D00058425841704790F83800831E584258413F
:1063E000704700207047006A431E5842584170476A
:1063F000007B704700207047007B70477047024B5E
:1064000093F85801704700BFE0870020014B93F8D4
:1064100049017047E0870020002070470020704746
:10642000012070470020704700207047014B93F80F
:1064300062017047E0870020704770474B6A032B6A
:1064400001BF034B1B68B3F85030838300207047B3
:106450009CF90020F2E7F1E7002070472FE7012ABE
:1064600003D0022A03D0002070470160FBE70B68CD
:106470000360F8E7F3E70068096803689B6818475A
:1064800000207047C0F88011704780ED5F0A7047A8
:10649000002070470068096803689B681847006817
:1064A000096803689B6818470068096803689B6867
:1064B0001847704770470120704770477047704712
:1064C00070477047012041F0C6BCFBE7FAE7F9E7E7
:1064D00070B505460C464CB1E1682846FFF7F8FF59
:1064E000A66820465FF06EFB3446F4E770BD70B5D9
:1064F00005460C464CB1E1682846FFF7F8FFA66850
:1065000020465FF05FFB3446F4E770BD70B505468A
:106510000C464CB1E1682846FFF7F8FFA668204614
:106520005FF050FB3446F4E770BD70B505460C468D
:106530004CB1E1682846FFF7F8FFA66820465FF0F7
:1065400041FB3446F4E770BD10B50C21044661F000
:10655000FDF8204610BD10B53421044661F0F6F870
:10656000204610BD024B034819885EF02AB800BFD0
:106570000C580020E85A0120024B034819885EF0AD
:1065800020B800BF0C580020E85A012011B1083093
:106590005FF0C5B97047034607B59A680191013AA3
:1065A00008469A606EF05CFC019803B05DF804EB5D
:1065B0005FF008BB70B5134E96F8E84014B10124A3
:1065C000204670BD012586F8E85064F073F9002874
:1065D000F6D196F8E430002BF1D14FF4BF5086F895
:1065E000E4505FF0D3FA05460028E9D00146304672
:1065F00063F0C8F80446B4FA84F428465FF0E2FA7F
:106600006409DDE7EC45002038B50A4C94F8E83021
:1066100073B1002584F8E85064F080F994F8E43010
:1066200033B184F8E4502046BDE8384063F00EB939
:1066300038BD00BFEC450020F0B501F1200C00256D
:106640004FF0000E51F8043B05F001055E1B52F8B7
:10665000043B6EEB4E07F41A67F10005614540F804
:10666000044BEFD105F00100F0BD70B5046805469C
:106670000E46A54207D0A068036831469B6898473C
:1066800010B92468F5E7002070BD034610B41B68FC
:106690005C68084611462CB1A4469B685DF8044B23
:1066A0000122604702205DF8044B7047034610B496
:1066B0001B681C68084611462CB1A4469B685DF80F
:1066C000044B0122604702205DF8044B704713B56C
:1066D0000446002131F078FE01AA06212046FFF78A
:1066E000D4FF50B99DF8043001AA60F34513062188
:1066F00020468DF80430FFF7D9FF02B010BD13B566
:106700000446002131F060FE01AA06212046FFF771
:10671000BCFF50B99DF8043001AA60F3861306212E
:1067200020468DF80430FFF7C1FF02B010BD10B550
:1067300048B1046954B184680123A047002818BFF8
:106740006FF0020010BD6FF00A00FBE76FF004006D
:10675000F8E720B1024B800143F00103184770476E
:10676000E0200A00F5E7F4E7A4DF7047A3DF7047F5
:10677000B2DF7047B1DF7047B0DF704711DF70479D
:106780003DDF70473CDF704763DF704762DF704773
:10679000A8DF704786DF704785DF704781DF70476D
:1067A00046DF70478ADF70477ADF7047A0DF7047A7
:1067B000007D7047407C7047007D7047B5DF7047B3
:1067C00090DF70478FDF7047AEDF7047ADDF7047F7
:1067D000ACDF7047ABDF7047AADF704775DF7047EB
:1067E00074DF704700231A4619465FF045BB4FF02F
:1067F000FF315FF0ADBC30B5294C05469DB0206D32
:10680000FFF7F5FF94F84C30019525467BB12548FC
:1068100001AB02AA06A908F007FA044678B1286D70
:10682000FFF7E0FFB4FA84F040091DB030BD04F179
:106830000C0007F074FE04460028E8D0EFE79DF84E
:106840000C30222B16D0174802AA06A908F0AEF881
:1068500004460028E3D19DF80C30222BDFD11148EB
:1068600006AA12A907F088FD041ED8DB0BD10E483A
:1068700041F08EFB0B4804AA11A907F014F9044655
:106880000028E0D0CBE71A9B0F931B9B10930023AB
:1068900004481A4606A907F00DFF0446BFE700BFEB
:1068A000B04E0020BC4E0020BE1C0A0012DF704714
:1068B0004B1E062B88BF0A46817A98BF08220231F8
:1068C000D208C9B234F01EBD4B1E062B88BF0A4643
:1068D000417A98BF08220231D208C9B234F012BD01
:1068E0004B1E062B88BF0A46017A98BF0822023148
:1068F000D208C9B234F006BD30B5044685B00A20CE
:106900000D465FF018F90A4B009303210023CDE9EF
:1069100001130393207923686A462CF03DFE00B2F0
:1069200020B9294668462FF07EFD00B205B030BD83
:10693000B0FB002030B5044685B001200D465FF065
:10694000FAF80A4B009303210023CDE901130393C6
:10695000207923686A462CF01FFE00B220B9294630
:1069600068462FF060FD00B205B030BDB41C0120B8
:1069700038B5437A04460D460BB937F038F820464F
:106980000322802136F0CCFFE27A20462A4381217F
:1069900036F0C6FF25732046BDE8384036F0D7BF35
:1069A00038B5437A04460D460BB937F020F8204637
:1069B0000322802136F0B4FF227B20462A43812126
:1069C00036F0AEFFE5722046BDE8384036F0BFBF76
:1069D00038B515461A4650B1C368AB420AD344686D
:1069E0002B46A047002818BF6FF0020038BD6FF09B
:1069F0000A00FBE76FF00400F8E738B5437C044673
:106A00000D4673B120462EF0F1FE227A65722046C3
:106A10002A43A1212EF08EFE2046BDE838402EF0FC
:106A20009ABE03492EF0AAFE0028EBD138BD00BF64
:106A3000AC3A012038B5437C04460D4673B120467C
:106A40002EF0D4FE627A257220462A43A1212EF030
:106A500071FE2046BDE838402EF07DBE02492EF082
:106A60008DFE0028EBD138BDAC3A01201FB504687B
:106A70008DF80C10ACB103230022CDE9003203AB3A
:106A800001221946204609F068FA9DF80D309DF85C
:106A90000C001B0243EA00439DF80E00184304B0AB
:106AA00010BD0323009303AB01221946406809F08F
:106AB0005DF9EAE71FB504688DF80C108CB102236C
:106AC0000022CDE9003203AB01221946204609F02D
:106AD00044FA9DF80C009DF80D3043EA002004B004
:106AE00010BD0223009303AB01221946406809F050
:106AF0003DF9EEE708B5FFF7DDFF40BA80B208BD0B
:106B00001FB504688DF80C1064B100230122CDE993
:106B1000002303AB1946204609F01FFA9DF80C002C
:106B200004B010BD0122009203AB1946406809F081
:106B30001DF9F3E71FB504688DF80D2064B100233B
:106B4000CDE900338DF80C100123022203A9204661
:106B500009F0D3F904B010BD01F07F0100948DF865
:106B60000C102346022203A9406809F01FF9F1E73F
:106B70000078C0F3C20300F007029B0043EA42130F
:106B800043EA901070471FB544688DF80C10ACB103
:106B900003230022CDE9003203AB0122194620462F
:106BA00009F0DBF99DF80D309DF80C001B0243EA5B
:106BB00000439DF80E00184304B010BD032300935A
:106BC00003AB01221946806809F0D0F8EAE71FB547
:106BD00044688DF80C109CB102230022CDE90032EC
:106BE00003AB01221946204609F0B7F99DF80C3095
:106BF0009DF80D0040EA032040BA80B204B010BDF9
:106C00000223009303AB01221946806809F0AEF815
:106C1000ECE71FB544688DF80C1064B10023012225
:106C2000CDE9002303AB1946204609F096F99DF8FB
:106C30000C0004B010BD0122009203AB194680681D
:106C400009F094F8F3E71FB544688DF80D2064B19E
:106C50000023CDE900338DF80C100123022203A993
:106C6000204609F04AF904B010BD01F07F010094FC
:106C70008DF80C102346022203A9806809F096F8CB
:106C8000F1E7836903B11847184670470378642217
:106C900023F0020303704068B0FBF2F0B0FBF2F3A4
:106CA00002FB1300C0B27047037C0BB9037070473E
:106CB000836843600378C16043F0030303700023DB
:106CC00003747047037819B143F0040303707047ED
:106CD00003F0FB03FAE74BDF704733DF704732DF27
:106CE0007047BFF34F8F0549054BCA6802F4E06255
:106CF0001343CB60BFF34F8F00BFFDE700ED00E013
:106D00000400FA0538B504460068844204D00568DA
:106D10005EF058FF2846F8E738BD10B5044613F07A
:106D2000CBFF08B12388838110BD0B4B10B51C68C5
:106D30000EF0A0FF236801461B68204698470446D2
:106D400040B10CF061F828B194F82D3013B104F182
:106D50002D0010BD0148FCE700960020C21C0A006F
:106D6000034B1A79062A0CBF93F89800002070474D
:106D7000C8920020064B187900F0FB03022B04D0C8
:106D8000A0F10B035842584170470120704700BFE3
:106D9000C8920020094B10B51C6864B160680EF001
:106DA00053FF38B194F8640194F86E3198422CBFC7
:106DB0000020012010BD2046FCE700BF44F4002065
:106DC00010B5044600686EF0B7F82060204610BD8C
:106DD00038B5044608200D4660F0B2FC2B684360CD
:106DE00023680360206038BD70B505460C464CB181
:106DF000E1682846FFF7F8FFA66820465EF0E2FE4D
:106E00003446F4E770BD10B5044600686EF06EF8C5
:106E10002060204610BD8B6873B5164604460D1DD4
:106E200001225BB130681A69904234BF9868D86813
:106E30001D4634BF012200220346F2E7019552B1FC
:106E4000CA68AA4204D1C4E90035204602B070BD28
:106E500001A8FFF7B5FF019A3368116999424FF015
:106E60000003F0D3C4E90023EFE770B505460C46F4
:106E70004CB1E1682846FFF7F8FFA66820465EF0AF
:106E8000A1FE3446F4E770BD38B504460C200D462B
:106E900060F056FC2B68836021466DF0DAFFA36832
:106EA0000133A36038BD38B504460C200D4660F0B0
:106EB00047FC2B68836021466DF0CBFFA36801334C
:106EC000A36038BD70B5046805460E46AC4207D0D5
:106ED000A068036831469B68984710B92468F5E7B5
:106EE000002070BD8B6873B5164604460D1D012247
:106EF0005BB130881A8A904234BF9868D8681D46C2
:106F000034BF012200220346F2E7019552B1CA685C
:106F1000AA4204D1C4E90035204602B070BD01A8E0
:106F2000FFF74EFF019A3388118A99424FF0000310
:106F3000F0D3C4E90023EFE78B6873B51646044627
:106F40000D1D01225BB130881A8A904234BF9868C7
:106F5000D8681D4634BF012200220346F2E701959E
:106F600052B1CA68AA4204D1C4E90035204602B031
:106F700070BD01A8FFF724FF019A3388118A994256
:106F80004FF00003F0D3C4E90023EFE770B50546E6
:106F90000C464CB1E1682846FFF7F8FFA66820468A
:106FA0005EF010FE3446F4E770BD10B50C4650B1EB
:106FB00020F076F938B1043050E8003F234440E82F
:106FC0000032002AF8D110BD10B50138029C0F28FC
:106FD00000F28480DFE800F05E8236281A14580838
:106FE0004A6D7073797D8044DFED427A9FED427A7D
:106FF000002908BFF0EE477AC2ED007A052261E071
:10700000DFED3E7A9FED3E7A0029F2E7DFED3B7A35
:107010009FED3B7A002908BFF0EE477AC2ED007A77
:1070200005222270082242E0DFED347A9FED347AA7
:10703000002908BFF0EE477AC2ED007A05222270DF
:10704000092234E0DFED2D7A9FED2D7A002908BF6B
:10705000F0EE477AC2ED007A052222700A2226E07D
:10706000DFED247A9FED247A0029E2E7DFED217A33
:107070009FED217A002908BFF0EE477AC2ED007A31
:10708000082222700B2212E0DFED1E7A9FED1E7A9D
:107090000029F0E7DFED1B7A9FED1B7A002908BF7E
:1070A000F0EE477AC2ED007A082222700C221A70A4
:1070B00010BD16491160C1E714491160CCE71449AD
:1070C0001160062222700722F1E7114911600622A1
:1070D000A7E71049116091E70E49F7E7DFED077A5E
:1070E0009FED077A002908BFF0EE477AC2ED007ADB
:1070F0000522C6E70020CB440000FA4300204B44A1
:1071000000007A430020CB430000FA420000FA421C
:1071100000007A429A997941F8B50D460168044613
:1071200006468C420FD08A682B680F689A4208D1B5
:1071300001F108039D4203D02046FFF72CFA00E03E
:107140000E463946EDE7B44205D031462046BDE84B
:10715000F840FFF720BAF8BDF8B50D4601680446BF
:1071600006468C420FD08A682B680F689A4208D175
:1071700001F108039D4203D02046FFF70CFA00E01E
:107180000E463946EDE7B44205D031462046BDE80B
:10719000F840FFF700BAF8BD2DE9F047D0E90487C1
:1071A000436AD0E902A904463D1D1E1DAE4204D922
:1071B00055F8040B5EF006FDF8E7C4E906A9C4E93A
:1071C0000887BDE8F0872DE9F047D0E90487436AD6
:1071D000D0E902A904463D1D1E1DAE4204D955F852
:1071E000040B5EF0EFFCF8E7C4E906A9C4E90887E0
:1071F000BDE8F087036870B5044663B1436A45692A
:107200001E1DAE4204D955F8040B5EF0DBFCF8E716
:1072100020685EF0D7FC204670BD036870B5044658
:1072200063B1436A45691E1DAE4204D955F8040B8B
:107230005EF0C8FCF8E720685EF0C4FC204670BD34
:1072400050F8183B834202D018465EF0BBBC704732
:1072500010B50446FFF756FD0023C4E90044A360BF
:1072600010BDD0E90032934218BF43607047B0F1BF
:10727000005F08B501D36DF0A1FFBDE808408000B4
:1072800060F05EBA08B15EF09DBC7047026962B101
:10729000836850F82310013303F0010348BF5B42B9
:1072A000013A83600261084670471146FBE7826A33
:1072B00010B582B1036A50F823400133594201F0FE
:1072C000070103F0070302F1FF3258BF4B4203628C
:1072D0008262204610BD1446FBE7026962B18368F2
:1072E00050F82310013303F0010348BF5B42013A19
:1072F00083600261084670471146FBE7826C10B557
:1073000082B1036C50F823400133594201F00F0160
:1073100003F00F0302F1FF3258BF4B420364826453
:10732000204610BD1446FBE70146014813F0EABCB5
:10733000209C00202DE9F347CB68DFF8649001938F
:107340000E1D07460C4635464FF0FF38DDF804A009
:10735000564510D0DAF81010D9F80430994206D00A
:1073600038460EF06DFB804584BF5546804601A827
:10737000FFF749FDEAE7AE4210D001A80195FFF7FB
:1073800042FD314628466DF035FE5EF01BFC636918
:10739000013B6361012002B0BDE8F0870020FAE7FD
:1073A000A88B00202DE9F347CB68DFF864900193A8
:1073B0000E1D07460C4635464FF0FF38DDF804A099
:1073C000564510D0DAF81010D9F80430994206D09A
:1073D00038460EF035FB804584BF5546804601A8EF
:1073E000FFF711FDEAE7AE4210D001A80195FFF7C3
:1073F0000AFD314628466DF0FDFD5EF0E3FB636952
:10740000013B6361012002B0BDE8F0870020FAE78C
:10741000A88B00202DE9F347CB68DFF86490019337
:107420000E1D07460C4635464FF0FF38DDF804A028
:10743000564510D0DAF81010D9F80430994206D029
:1074400038460EF0FDFA804584BF5546804601A8B7
:10745000FFF7D9FCEAE7AE4210D001A80195FFF78B
:10746000D2FC314628466DF0C5FD5EF0ABFB63698A
:10747000013B6361012002B0BDE8F0870020FAE71C
:10748000A88B00202DE9F347CB68DFF864900193C7
:107490000E1D07460C4635464FF0FF38DDF804A0B8
:1074A000564510D0DAF81010D9F80430994206D0B9
:1074B00038460EF0C5FA804584BF5546804601A87F
:1074C000FFF7A1FCEAE7AE4210D001A80195FFF753
:1074D0009AFC314628466DF08DFD5EF073FB6369C2
:1074E000013B6361012002B0BDE8F0870020FAE7AC
:1074F000A88B00208B6873B5164604460D1D01222B
:107500005BB130681A69904234BF9868D8681D46EC
:1075100034BF012200220346F2E7019552B1CA6846
:10752000AA4204D1C4E90035204602B070BD01A8CA
:10753000FFF746FC019A3368116999424FF0000346
:10754000F0D3C4E90023EFE78B6873B51646044611
:107550000D1D01225BB130681A69904234BF9868F2
:10756000D8681D4634BF012200220346F2E7019588
:1075700052B1CA68AA4204D1C4E90035204602B01B
:1075800070BD01A8FFF71CFC019A3368116999428C
:107590004FF00003F0D3C4E90023EFE78B6873B525
:1075A000164604460D1D01225BB130681A699042EF
:1075B00034BF9868D8681D4634BF012200220346B4
:1075C000F2E7019552B1CA68AA4204D1C4E9003574
:1075D000204602B070BD01A8FFF7F2FB019A3368A4
:1075E000116999424FF00003F0D3C4E90023EFE79B
:1075F0008B6873B5164604460D1D01225BB13068D9
:107600001A69904234BF9868D8681D4634BF012279
:1076100000220346F2E7019552B1CA68AA4204D19A
:10762000C4E90035204602B070BD01A8FFF7C8FBD1
:10763000019A3368116999424FF00003F0D3C4E90D
:107640000023EFE730B5031D826818463AB115698B
:107650000C68A5422ABF1046D2689268F6E78342BA
:1076600004D009680269914238BF184630BD30B570
:10767000031D826818463AB115690C68A5422ABFF5
:107680001046D2689268F6E7834204D0096802691E
:10769000914238BF184630BD30B5031D8268184688
:1076A0003AB115690C68A5422ABF1046D2689268A3
:1076B000F6E7834204D009680269914238BF184650
:1076C00030BD30B5031D826818463AB115690C68A3
:1076D000A5422ABF1046D2689268F6E7834204D0DA
:1076E00009680269914238BF184630BD37B54B6909
:1076F0000192272B05460C460AD901A92046FFF71F
:10770000E0FF231D834203D121462846FFF7BAFE3E
:1077100003B030BD10B581680446FEF7D9FE0023E2
:10772000221DC4E90322A360636110BD10B5816806
:107730000446FEF7DCFE0023221DC4E90322A360F9
:10774000636110BD10B581680446FEF7DFFE0023BB
:10775000221DC4E90322A360636110BD10B58168D6
:107760000446FEF7E2FE0023221DC4E90322A360C3
:10777000636110BD2DE9F84300F1040984680546F2
:107780004E46ECB123690868834204D2E36834466C
:1077900026461C46F5E7A368FAD8E26843B11969A2
:1077A00088428ABFD968996823461C460B46F5E78C
:1077B0003AB11369984236BF1646D2689268F7E725
:1077C0003446EB68D5F81480A34209D1B14507D1FE
:1077D0002846FFF7C3FF6869A8EB0000BDE8F883FF
:1077E000A642F8D020466DF094FB49460746204655
:1077F0006DF000FC5EF0E6F96B69013B6B613C46A5
:10780000EEE708B15EF0DEB97047B0F1005F13B586
:1078100001D36DF0D3FC8200104601925FF090FF1F
:10782000019A0021044674F059FE204602B010BDB2
:1078300042680B4604318A4210B5044604D018460B
:10784000521A74F031FE03466268043A62601846C8
:1078500010BD10B103685B681847704710B103682A
:107860005B681847704710B103685B68184770473A
:1078700010B103681B691847704710B103685B6853
:107880001847704770B505460C464CB1E16828466C
:10789000FFF7F8FFA66820465EF094F93446F4E757
:1078A00070BD70B5046805460E46AC4207D0A068AE
:1078B000036831469B68984710B92468F5E70020B3
:1078C00070BD10B50378DB07044604D55EF028F9D7
:1078D000E368C01A10BD4FF0FF30FBE773B50446F4
:1078E00016460D4619B912B10D486DF06AFC731BAE
:1078F0000F2B019307D9002201A920466DF066FEE7
:10790000019B2060A3603246294620686DF09DFEF1
:10791000019B226863600021D15402B070BD00BF9A
:10792000C61C0A00FFF7DABF08B5064B064A1868FE
:10793000064900F61C7009F011FDBDE808400E2054
:107940000AF05CBDE42F0120F01C0A00091D0A00AA
:1079500070B5046805460E46AC4207D0A0680368BF
:1079600031469B68984710B92468F5E7002070BD40
:1079700010B50B4904460B48FFF7EAFF68B12368CE
:107980001D2B0BD801332360074B084A18680849A0
:1079900000F61C7009F0E2FC012010BD0020FCE79D
:1079A0007C4D0A006C1D0120E42F01200F1D0A00F0
:1079B0002C1D0A0070B5046805460E46AC4207D07F
:1079C000A068036831469B68984710B92468F5E7BA
:1079D000002070BD44DF704743DF704742DF7047CF
:1079E000064B1868043B1B68082B04D103288CBF86
:1079F0000020012070470020704700BF34010010B4
:107A0000024B1B68DB0700D500BE7047F0ED00E0BD
:107A1000034B1B68DB0700D500BE0020704700BF8A
:107A2000F0ED00E0014B93F858017047E08700202B
:107A3000014B93F849017047E0870020014B93F810
:107A400062017047E08700202DE9F041C84EC94B24
:107A5000C94DDFF8DC83304686B0442240F80C3B49
:107A60000021002474F03AFDC44BB360347106F178
:107A7000540101205EF084FAC14B30653360C14A85
:107A8000C14930466DF0E0F9234622462146009474
:107A9000BE485CF051FF2346224621460094BC4874
:107AA0005CF04AFF2346224621460094B9485CF028
:107AB00043FF2346224621460094B7485CF03CFF32
:107AC0002346224621460094B4485CF035FF234605
:107AD000224621460094B2485CF02EFF23462246FF
:107AE00021460094AF485CF027FF234622462146FA
:107AF0000094AD485CF020FFAC485CF015FF2346D5
:107B0000224621460094AA485CF016FF23462246EE
:107B100021460094A7485CF00FFFA748994AA7495F
:107B2000C0F884404FF40053A0F88030A44BC0F854
:107B30008830A0F89C406DF087F9A24BA248DC6029
:107B40000822C3E901441A701C82A04BA04A1C7091
:107B50005C70A04B01271A609F4A1F71D2F8B410C5
:107B60001973D2F8AC109973D2F8B0105973DC7352
:107B70001C829C60994B9A491C711960516F197352
:107B8000D1689973926F9C605A73DC731C82224691
:107B90002346214600945CF0CFFE19232B614FF45D
:107BA0007A732B62C5E90C44AC60AC81AC73AC82D7
:107BB000EC61C5F81880AE6285F82C402146C5E915
:107BC0000055802205F17C0085F8384085F8784022
:107BD00074F084FC2146882205F1FC0074F07EFCE0
:107BE000684A804928466DF02FF9234622462146EF
:107BF00000947D485CF0A0FE234622462146009476
:107C00007A485CF099FE7A485E4A7A498460C0E915
:107C100000006DF019F978485A4A76498460C0E945
:107C200000006DF011F97548564A72498460C0E948
:107C300000006DF009F92346224621460094704861
:107C40005CF07AFE23462246214600946D485CF0A3
:107C500073FE23462246214600946B485CF06CFE7E
:107C6000234622462146009468485CF065FE234680
:107C700022462146009466485CF05EFE234622467A
:107C80002146009463485CF057FE23462246214675
:107C9000009461485CF050FE234622462146009441
:107CA0005E485CF049FE23462246214600945C482B
:107CB0005CF042FE5B485AF03BF8324A5A49594858
:107CC0006DF0C2F8234622462146009457485CF0E6
:107CD00033FE4FF4A4705FF033FD08F12403054632
:107CE000214640F8043B202274F0F8FB6C622146E8
:107CF000102205F1280074F0F1FB2146212205F144
:107D0000380074F0EBFB2146202205F1590074F095
:107D1000E5FB2146202205F1790074F0DFFB2146C6
:107D2000C5F89C40202205F1A00074F0D7FB85F82F
:107D3000C04005F1C40059F0FBFF2146202205F1A7
:107D4000C80074F0CBFB2146202205F1E80074F056
:107D5000C5FB2146202205F5847074F0BFFB214647
:107D6000202205F5947074F0B9FB08F1680361E016
:107D7000B04E0020CC510A0048F40020644000209E
:107D8000DC510A0000400020B5F7020078FB00201B
:107D900068FA0020440C012064FB00204C0C0120F8
:107DA000640C01206C0C0120ECFA002070FA002019
:107DB000740C0120448300200496002091A203004B
:107DC00080EE360024FC0020CCF50020301D012080
:107DD00000F002403C1D012098BB0B00501D01200B
:107DE000003002409FCA0300641D0120841D012051
:107DF0006C1D01202D7E0600781D01208C1D0120A8
:107E0000981D0120A01D0120A81D0120B01D0120EA
:107E1000C81D0120D41D0120DC1D0120E41D01200E
:107E2000EC1D0120F41D0120231D0800F81D012078
:107E3000481D0A002B60BD4BBD481D6022462346ED
:107E40002146009408F1AC065CF076FDB94BBA48C7
:107E5000049302A902968DF80E40ADF80C400594EB
:107E600032F0B6FAB54AB649B348B64D6CF0ECFFFD
:107E7000B54BB648049302A902968DF80E40ADF8B2
:107E80000C40059405F0ACFAAC4AB149AF486CF02F
:107E9000DBFFB04BB048049302A902968DF80E4068
:107EA000ADF80C40059405F09BFAA44AA849AA48ED
:107EB0006CF0CAFFA94BAA48049302A902968DF858
:107EC0000E40ADF80C40059405F08AFA9B4AA04993
:107ED000A3486CF0B9FFA34BA348049302A90296F0
:107EE0008DF80E40ADF80C40059405F079FA934AF0
:107EF00097499D486CF0A8FF41F60A0302A928465D
:107F0000CDE904440296ADF80C308DF80E7032F0D5
:107F10005FFA284608F1BC03214640F8183B2422AA
:107F200074F0DCFA914BEB611523C5E90F4485F839
:107F30003D308F4BEB62052385F841308D4B2B6331
:107F4000132385F8444085F8423028468A4D7B4A01
:107F50008A496CF079FF41F60F0302A92846CDE962
:107F600004440296ADF80C308DF80E7032F030FA01
:107F7000284608F1D00340F8183B02A942F619231D
:107F8000ADF80C30CDE9044402968DF80E7005F082
:107F900027FA28467A4D694A7A496CF055FF7A4BA0
:107FA000029602A9284604938DF80E40ADF80C40C5
:107FB000059432F00DFA284608F1E40340F8183B26
:107FC00002A9724B049302968DF80E40ADF80C4056
:107FD000059405F005FA594A6D496E4E28466CF035
:107FE00033FF23462246214600946B486B4D5CF0DC
:107FF000A3FC234622462146009469485CF09CFC81
:10800000234622462146009466485CF095FC2346B0
:1080100022462146009464485CF08EFC23462246AA
:108020002146009461485CF087FC234622462146A5
:1080300000945F485CF080FC234622462146009471
:108040005C485CF079FC23462246214600945A485D
:108050005CF072FC234622462146009457485CF0AF
:108060006BFC234622462146009455485CF064FC94
:10807000234622462146009452485CF05DFC23468C
:1080800022462146009450485CF056FC2346224686
:10809000214600944D485CF04FFC4D4859F048FE95
:1080A000264A4C494A486CF0CFFE234622462146D8
:1080B000009449485CF040FC234622462146009447
:1080C00046485CF039FC2346224621460094444849
:1080D0005CF032FC234622462146009441485CF085
:1080E0002BFC23462246214600943F485CF024FCAA
:1080F00023462246214600943C485CF01DFC234662
:108100002246214600943A485CF016FC234622465B
:108110002146009437485CF00FFC23462246214656
:10812000009435485CF008FC234667E0001E0120FF
:10813000A45B00201DBB0B008458002000400020E1
:10814000771D03000C5900202EBB0B0000530020AC
:1081500005D402003EBB0B00B45700200CBB0B0043
:1081600054590020FBBA0B0058530020ADBC0B0043
:10817000D01B0A00D61B0A0010580020751D0300F2
:108180009C580020791D030021170B0031170B00AC
:108190007B1D03004827012008FB0020C826012082
:1081A000041E01200C1E0120141E01201C1E012093
:1081B000241E01202C1E0120341E01203C1E012003
:1081C00068850020441E01204C1E0120C0F90020BB
:1081D000C8F90020231D0800541E01205C1E012048
:1081E000641E01206C1E0120741E0120801E0120CF
:1081F0008C1E0120981E0120A01E0120224621462F
:108200000094C4485CF098FB234622462146009423
:10821000C1485CF091FB2346224621460094BF48AA
:108220005CF08AFB2346224621460094BC485CF061
:1082300083FB2346224621460094BA485CF07CFB2F
:108240002346224621460094B7485CF075FB23463E
:10825000224621460094B5485CF06EFB2346224638
:1082600021460094B2485CF067FB23462246214633
:108270000094B0485CF060FB2346224621460094FF
:10828000AD485CF059FB2346224621460094AB489A
:108290005CF052FB2346224621460094A8485CF03D
:1082A0004BFB2346224621460094A6485CF044FB43
:1082B0002346224621460094A3485CF03DFB23461A
:1082C000224621460094A1485CF036FB2346224614
:1082D000214600949E485CF02FFB2346224621460F
:1082E00000949C485CF028FB2346224621460094DB
:1082F00099485CF021FB234622462146009497488A
:108300005CF01AFB234622462146009494485CF018
:1083100013FB234622462146009492485CF00CFB56
:1083200023462246214600948F485CF005FB2346F5
:108330002246214600948D485CF0FEFA23462246F0
:10834000214600948A485CF0F7FA234622462146EB
:10835000009488485CF0F0FA2346224621460094B7
:1083600085485CF0E9FA234622462146009483487A
:108370005CF0E2FA234622462146009480485CF0F5
:10838000DBFA23462246214600947E485CF0D4FA6C
:1083900023462246214600947B485CF0CDFA2346D2
:1083A00022462146009479485CF0C6FA23462246CC
:1083B0002146009476485CF0BFFA234622462146C7
:1083C000009474485CF0B8FA234622462146009493
:1083D00071485CF0B1FA23462246214600946F486A
:1083E0005CF0AAFA23462246214600946C485CF0D1
:1083F000A3FA23462246214600946A485CF09CFA80
:10840000234622462146009467485CF095FA2346AD
:1084100022462146009465485CF08EFA23462246A7
:108420002146009462485CF087FA234622462146A2
:10843000009460485CF080FA23462246214600946E
:108440005D485CF079FA23462246214600945B4859
:108450005CF072FA234622462146009458485CF0AC
:108460006BFA234622462146009456485CF064FA93
:10847000234622462146009453485CF05DFA234689
:1084800022462146009451485CF056FA2346224683
:10849000214600944E485CF04FFA2346224621467E
:1084A00000944C485CF048FA23462246214600944A
:1084B00049485CF041FA2346224621460094474849
:1084C0005CF03AFA234622462146009444485CF088
:1084D00033FA234622462146009442485CF02CFAA7
:1084E00023462246214600943F485CF025FA234665
:1084F0002246214600943D485CF01EFA3C483D4A25
:108500003D4904606CF0A0FC2346224621460094BD
:1085100074E000BFA81E0120B01E0120B81E01207B
:10852000C01E0120C81E0120D01E0120D81E01201F
:1085300018FC00200CFC0020E01E0120EC1E012095
:10854000F41E0120FC1E0120041F01200C1F01202D
:10855000141F01201C1F0120241F01202C1F01209B
:10856000E4F50020341F01203C1F0120441F01209E
:108570004C1F0120541F01205C1F0120641F01209B
:108580006C1F01207C1F0120841F01208C1F0120F3
:10859000941F01209C1F0120A81F0120B01F012053
:1085A000B81F0120C01F0120C81F0120D01F0120BB
:1085B000D81F0120E01F0120E81F0120F01F01202B
:1085C000F81F0120042001200C200120142001208C
:1085D0001C200120242001202C20012034200120F7
:1085E000F4FB00203C20012044200120ECFB002073
:1085F000E8FB0020004000207D2B0500C3485CF014
:108600009BF92346224621460094C1485CF094F928
:10861000C048C14AC14904606CF016FC234622469A
:1086200021460094BE485CF087F923462246214645
:108630000094BC485CF080F9234622462146009411
:10864000B9485CF079F92346224621460094B748A0
:108650005CF072F92346224621460094B4485CF04F
:108660006BF92346224621460094B2485CF064F937
:108670002346224621460094AF485CF05DF923462C
:10868000224621460094AD485CF056F92346224626
:1086900021460094AA485CF04FF923462246214621
:1086A0000094A8485CF048F92346224621460094ED
:1086B000A5485CF041F92346224621460094A34890
:1086C0005CF03AF92346224621460094A0485CF02B
:1086D00033F923462246214600949E485CF02CF94B
:1086E00023462246214600949B485CF025F9234608
:1086F00022462146009499485CF01EF92346224602
:108700002146009496485CF017F9234622462146FC
:10871000009494485CF010F92346224621460094C8
:1087200091485CF009F923462246214600948F487F
:108730005CF002F923462246214600948C485CF006
:10874000FBF823462246214600948A485CF0F4F860
:10875000234622462146009487485CF0EDF82346E4
:1087600022462146009485485CF0E6F823462246DE
:108770002146009482485CF0DFF8234622462146D9
:10878000009480485CF0D8F82346224621460094A5
:108790007D485CF0D1F823462246214600947B4870
:1087A0005CF0CAF8234622462146009478485CF0E3
:1087B000C3F8224621462346009476485CF0BCF874
:1087C00030464EF0F7FA744B2C71AB6005F10C009B
:1087D0005CF0AAF840F23953C5E905344EF660233F
:1087E000C5E907342E606D4B6D4EAB606C626D4D0C
:1087F00030464EF0DFFA28465CF096F86A4A45F8B3
:10880000046CC5E904224FF47F02AC60AC81AA611C
:1088100023462246214600946448654D5CF08CF85E
:10882000234622462146009462485CF085F82346A0
:1088300022462146009460485CF07EF8234622469A
:10884000214600945D485CF077F823462246214695
:1088500000945B485CF070F8234622462146009461
:1088600058485CF069F82346224621460094564851
:108870005CF062F8234622462146009453485CF09F
:108880005BF8234622462146009451485CF054F898
:1088900023462246214600944E485CF04DF823467C
:1088A0002246214600944C485CF046F82346224676
:1088B0002146009449485CF03FF823462246214671
:1088C000009447485CF038F823462246214600943D
:1088D00044485CF031F82346224621460094424841
:1088E0005CF02AF823462246214600943F485CF07B
:1088F00023F823462246214600943D485CF01CF8AC
:10890000234622462146009474E000BFE0FB00208D
:10891000A8FB0020A4FB0020004000207D2B0500C8
:108920004C20012058200120602001206C200120D3
:10893000BC220120A4960020C4220120CC220120C8
:10894000D4220120DC220120E42201201CFB002093
:10895000EC220120F422012098FB002000230120BA
:10896000F42501208CFB00205C26012068260120D4
:108970007026012080FB00208C26012094260120F7
:108980006CFB0020A0260120A8260120B026012093
:10899000B826012040270120B6690A00EF93002085
:1089A0006C270120242701202EF50B00942701209D
:1089B000209C00209C270120A4270120AC27012017
:1089C000B8270120C0270120C8270120D027012077
:1089D000D8270120E0270120EC270120F4270120DF
:1089E000FC270120042801200C2801201428012044
:1089F0001C280120C3485BF09FFFC34B2B61284616
:108A0000C24BEB6008F1F806C14B6B61214640F8A0
:108A1000186B6D6045F2C07273F060FD214636221E
:108A2000BC4873F05BFD2846BB4DBC4ABC496CF0AA
:108A30000BFA2846214600F8044B4FF4D07273F02D
:108A40004DFD21464FF4D07205F5D27073F046FD0E
:108A50002346224621460094B248B34D5BF06CFF9A
:108A60002346224621460094B0485BF065FF23462A
:108A7000224621460094AE485BF05EFF2346224624
:108A800021460094AB485BF057FFAB48A34AAB4983
:108A90008460C0E900006CF0D7F9234622462146E5
:108AA0000094A7485BF048FF2346224621460094E5
:108AB000A4485BF041FF2346224621460094A24889
:108AC0005BF03AFF23462246214600949F485BF024
:108AD00033FF23462246214600949D485BF02CFF3D
:108AE00023462246214600949A485BF025FF234600
:108AF00022462146009498485BF01EFF9748874A1B
:108B00009749C463C0E90144C0E90344C0E905448E
:108B1000C0E90744C0E90944C0E90B44C0E90D4479
:108B20006CF092F923462246214600948D485BF072
:108B300003FF23462246214600948B485BF0FCFE4F
:108B40008A4B2B6128468A4BEB6008F5887340F806
:108B5000183B6C6121466D604FF4FB5273F0BEFC14
:108B600021461022834873F0B9FC6C4A824928469A
:108B7000824D6CF069F9824B2B612846814BEB608A
:108B800008F5947340F8183B6C6121466D60202213
:108B900073F0A4FCAC63614A7B4928467B4D6CF0C2
:108BA00053F97B4B2B6128467A4BEB6008F5A07399
:108BB00040F8183B6C6121466D604FF4F06273F031
:108BC0008DFCC5F89847554A734928466CF03CF926
:108BD000234622462146009470485BF0ADFE2346B2
:108BE0002246214600946E485BF0A6FE23462246AC
:108BF000214600946B485BF09FFE234622462146A7
:108C0000009469485BF098FE234622462146009472
:108C100066485BF091FE2346224621460094644854
:108C20005BF08AFE234622462146009461485BF0B1
:108C300083FE23462246214600945F485BF07CFE7B
:108C400023462246214600945C485BF075FE23468D
:108C50002246214600945A485BF06EFE2346224687
:108C60002146009457485BF067FE23462246214682
:108C7000009455485BF060FE23462246214600944E
:108C800052485BF059FE2346224621460094504844
:108C90005BF052FE23462246214600944D485BF08D
:108CA0004BFE4D48214620F8024B102273F016FC73
:108CB000234622462146009448485BF03DFE234669
:108CC00022462146009446485BF036FE2346224663
:108CD0002146009443485BF02FFE43490F4A434826
:108CE0006CF0B2F85C205EF02BFD054607F031FD1C
:108CF0002B463F4A43F8382BC5E90E3308F5AC73D1
:108D00006B6377E0189C002077640200DB6202004E
:108D1000EA1B0A00F8F30020D09800200040002051
:108D200095AA030024280120BC6300202C280120E0
:108D30003828012048290120502901202D7E0600D5
:108D40006029012068290120702901207C29012047
:108D500000FB002084290120F89500207892002053
:108D6000A35A03008C290120B0630020A9640200EB
:108D7000BF620200348300207D2E0300D05B002000
:108D80009F640200D7620200532E0300105C002093
:108D900095640200D9620200252E030010FB00201A
:108DA00038F40020942901209C290120A4290120C5
:108DB000AC290120B4290120BC290120C4290120AB
:108DC000CC290120D4290120F8FA0020DC29012037
:108DD000E42A0120C85B0020B45B002060FA002078
:108DE000F02A0120A4F90020E1490400ACF9002098
:108DF00094540A00C44B2C64C5E912344FF4007338
:108E00004FF00208A5F85830C04B6C656D6485F8CA
:108E1000508085F85A806F62CC201D605EF090FC17
:108E2000054607F096FC2B46B94A43F8382BC5E9AE
:108E30000E3306F174036B63B64B2C642146C5E90F
:108E400012347422A5F8504085F852406D6405F143
:108E5000540073F043FBB04BC5F8C840C5F82480FC
:108E600058201D605EF06CFC054607F072FC2B4636
:108E7000AA4A43F8382BC5E90E33A94B2C64C5E93F
:108E8000123403236B628836A64B2C65A5F8544038
:108E900085F856406E636D646C201D605EF050FC7A
:108EA000054607F056FC2B469F4A43F8382BC5E988
:108EB0000E339E4B6B639E4B2C64C5E9123405F157
:108EC0005C03C5E9153404236B629A4B2C651D6065
:108ED00085F85C406D64984D984A2B881380984AB9
:108EE00029781380974A98481380984A1380984AA3
:108EF0001380984B6A781C7059709A7021462346EB
:108F0000224600945BF018FD234622462146009439
:108F100091485BF011FD23462246214600948F487C
:108F20005BF00AFD23462246214600948C485BF004
:108F300003FD23462246214600948A485BF0FCFC50
:108F4000234622462146009487485BF0F5FC2346E1
:108F500022462146009485485BF0EEFC23462246DB
:108F60002146009482485BF0E7FC234622462146D6
:108F7000009480485BF0E0FC2346224621460094A2
:108F80007D485BF0D9FC23462246214600947B486D
:108F90005BF0D2FC234622462146009478485BF0E1
:108FA000CBFC234622462146009476485BF0C4FC65
:108FB000234622462146009473485BF0BDFC2346BD
:108FC00022462146009471485BF0B6FC23462246B7
:108FD000214600946E485BF0AFFC234622462146B2
:108FE00000946C485BF0A8FC23462246214600947E
:108FF00069485BF0A1FC234622462146009467485D
:109000005BF09AFC234622462146009464485BF0BC
:1090100093FC234622462146009462485BF08CFC78
:1090200023462246214600945F485BF085FC234698
:109030002246214600945D485BF07EFC2346224692
:10904000214600945A485BF077FC2346224621468D
:10905000009458485BF070FC234622462146009459
:1090600055485BF069FC234622462146009453484C
:109070005BF062FC234622462146009450485BF098
:109080005BFC23462246214600944E485BF054FC8C
:1090900023462246214600944B485BF04DFC234674
:1090A00022462146009449485BF046FC234622466E
:1090B0002146009446485BF03FFC23462246214669
:1090C000009444485BF038FC234622462146009435
:1090D00041485BF031FC23462246214600943F483C
:1090E0005BF02AFC23462246214600943C485BF074
:1090F00023FC23462246214600943A485BF01CFCA0
:109100002346224670E000BFB101030050F9002061
:10911000CCB50A0061FD030098F9002024C90A00BB
:109120004F4104009CF9002014C90A009CC90A00A0
:10913000494A0400B0F900204B2F0120B4F9002067
:109140008AF9002084F90020FC2A012086F90020F9
:1091500088F900208DF90020042B01200C2B012020
:10916000142B01201C2B0120282B0120302B012047
:10917000382B0120402B0120482B0120502B0120AF
:10918000582B0120602B0120682B0120702B01201F
:109190007C2B0120842B012088F700208C2B0120C0
:1091A000942B01209C2B0120AC2B0120B82B0120FB
:1091B000C02B012080F70020C82B0120D02B0120DC
:1091C000D82B0120E02B0120E82B0120F02B0120DF
:1091D000F82B0120002C0120082C0120102C01204C
:1091E000182C0120202C0120214600945A485BF0C5
:1091F000A3FB234622460094214658485BF09CFB83
:10920000574B30240022013C1A7303F10E03FAD1AC
:10921000234622462146534800945BF08DFB52487A
:10922000524A53498460C0E900446BF00DFE514836
:109230004E4A5149047200F10803C0E900346BF052
:1092400003FE2346224621464C4800945BF074FB03
:109250002346224621464A4800945BF06DFB234694
:1092600022462146474800945BF066FB234622468F
:109270002146454800945BF05FFB23462246214689
:10928000424800945BF058FB234622462146404862
:1092900000945BF051FB2346224621463D48009452
:1092A0005BF04AFB2346224621463B4800945BF094
:1092B00043FB234622462146384800945BF03CFBA2
:1092C000234622462146364800945BF035FB234670
:1092D00022462146334800945BF02EFB234A324954
:1092E00032486BF0B1FD23462246214630480094B7
:1092F0005BF022FB2F481D4A2F4904606BF0A4FD50
:109300002E4B2C701C705C709C70224623462146AC
:109310006C702B4800945BF00FFB2A4813F080FC24
:10932000124A294927486BF08FFD284813F078FC32
:109330000E4A254925486BF087FD0322214601206E
:109340005CF074FD224B1860002849D1214B224A61
:1093500022480C213EF078FE282C0120302C0120E0
:10936000382C0120D82E0120E02E012000400020C2
:109370002D1A0800EC2E01204D570900042F012062
:109380000C2F0120142F01201C2F0120242F01203D
:109390002C2F0120342F012078F700203C2F0120B2
:1093A00050F7002048F7002027090400ECF50020C2
:1093B000DCF50020442F01207D2B0500482F0120E3
:1093C0006851002094500020FD0D030070510020D2
:1093D00040520020F81B0A00021C0A00421C0A002E
:1093E000AE4AAF49AF4DB04F18466BF02DFD234646
:1093F000224621460094AD485BF09EFA2346224661
:1094000021460094AA485BF097FA2346224621465B
:109410000094A8485BF090FA234622462146009427
:10942000A5485BF089FA2346224621460094A348CA
:109430005BF082FA2346224621460094A0485BF066
:109440007BFA23462246214600949E485BF074FA3C
:1094500023462246214600949B485BF06DFA234642
:1094600022462146009499485BF066FA234622463C
:109470002146009496485BF05FFA23462246214637
:10948000009494485BF058FA234622462146009403
:1094900091485BF051FA23462246214600948F48BA
:1094A0005BF04AFA23462246214600948C485BF042
:1094B00043FA23462246214600948A485BF03CFA50
:1094C000894B8A4A9C60C3E90024894ADA60894B47
:1094D000894A9C60C3E90024884ADA608849894B3C
:1094E0008948C3E90242C3E90014884B884A1A60DC
:1094F000884A5A60884A9A60884ADA60884B894A62
:109500009C60C3E90024884ADA60884B884A9C60E2
:10951000C3E90024874ADA60874B884A8849C3E94F
:109520000024884A9A60884ADA60884B884A9C609E
:10953000C3E90024874ADA60874A1160874984605A
:10954000C2E901148649D160864A8749116087497A
:109550005160874991608749D160C0E900344F4A22
:109560008549C0F8EC4080F8F0406BF06DFC234674
:1095700022462146009481485BF0DEF98048814B09
:1095800003610523037105F14C0300264FF04008E9
:10959000036205F15803C0E90934404A7A4904736B
:1095A0000475846104778460056080F82D804463CD
:1095B00086636BF049FC7548754B03612223037188
:1095C00005F16403036005F1B003036205F1BC0318
:1095D000436242F21073314A6E4904730475846128
:1095E0000477846080F82880C762C663A0F84030A2
:1095F00080F84280476406638663466384646BF048
:1096000023FC6548654B03610423037105F1C8031E
:10961000036005F58873214A614904730475846108
:109620000477846003626BF00FFC5E485E4B03615D
:109630000E23037105F58E73036005F5B4730362A1
:1096400005F5BA734362422380F83430574B134A0E
:109650005749047304758461047784608763836267
:10966000C3620363C4636BF0EFFB5248524B036168
:109670001C23037105F5C073036005F5E473C0E9AD
:109680000834064A4D490473047584610477846084
:109690006BF0DAFB23462246214691E00040002091
:1096A000711D0800DC1E0A00AC3A0120D4F5002030
:1096B000502F0120582F0120602F0120682F0120FA
:1096C000AC5B0020742F01207C2F0120C82F0120CB
:1096D000DC2F0120E82F0120F02F0120F85200207C
:1096E000FC2F012098300120883001203929080002
:1096F0006E1C0A00A03001201D290800771C0A00FA
:10970000FF28080078300120B030012058300120B7
:10971000BD280800C1640200BF640200E7970A0088
:1097200028300120BD6402007B1C0A003830012073
:10973000CB6402007E1C0A0068300120BB6402007A
:10974000CF640200CD640200831C0A00483001206F
:10975000BD6202008A1C0A0018300120EB280800B4
:109760008F1C0A0008300120D1280800BF280800FB
:10977000C5640200921C0A00E12403005C50002032
:109780005C4F0020981C0A008D070300984F0020B2
:109790009F1C0A00CB070300E44F0020A61C0A0010
:1097A000C907030018500020AD1C0A00CDCCCC3DE9
:1097B000C707030064500020B51C0A00C50703005A
:1097C000009421485BF0B8F82346224621460094D5
:1097D0001E485BF0B1F823462246214600941C48FF
:1097E0005BF0AAF8234622462146009419485BF014
:1097F000A3F8234622462146009417485BF09CF8C4
:10980000234622462146009414485BF095F82346EF
:1098100022460094214612485BF08EF8114B83F8E3
:10982000E44083F8E840104B4FF47A729A6005F5F3
:10983000EA721A6005F5FE754FF47F425C601D61A7
:109840009A8206B0BDE8F081A4310120AC3101203C
:10985000B4310120544F0020A84E0020A04E00201B
:10986000BC310120EC450020D846002007B5036834
:109870008DF807105B6801220DF10701984703B0CE
:109880005DF804FBA0F1100000F032B9407DFF2824
:1098900001D059F0D9BF704710B5437DFF2B0CD0D4
:1098A000074A4FF4567000FB032001F011FC0446F8
:1098B00008B95EF091FB204610BD0020FCE700BF18
:1098C000643701202DE9F74F437DFF2B06460F46F5
:1098D00014462FD015464FF4567A4FF6FE7B15B33B
:1098E000707D59F0EFFFF0B1737D134A01930AFBCD
:1098F00003294FF6FF7209F124095D4598BF2A46F6
:1099000092B23946484601F047FB8046484601F08E
:10991000DFFB3F28019B02D9184659F095FFB5EBB4
:109920000805474403D1601B03B0BDE8F08F5EF02B
:1099300053FBD4E70020F7E75437012008B5437DF7
:10994000FF2B07D0044A4FF4567000FB032001F0B0
:10995000ADFB08BD0020FCE77837012073B5437DDF
:10996000FF2B14D04FF456745C430A4E04F11000E0
:1099700001220DF10701304401F03EFA054630198D
:1099800059F0B6FF1DB19DF8070002B070BD4FF051
:10999000FF30FAE75437012073B5457DFF2D03D121
:1099A0004FF0FF3002B070BD254E4FF4567303FBED
:1099B0000563186A18B14FF0FF315CF0C9FB4FF432
:1099C000567202FB0562118B538B908A89B29BB24F
:1099D000994236BFC3EB4002CA1A521894B2E4B19E
:1099E000A04209D281424FF456722CBF0B1A0B18B9
:1099F00002FB05629BB2538398421ED94FF4567105
:109A000001FB05610DF10700CA8A0969C2F30E0264
:109A100002FB031172F03AFD01244FF4567303FB6D
:109A20000565286A20B100231A4619465CF024FA1D
:109A3000002CB5D09DF80700B4E71B1A9BB2DBE7FA
:109A40005437012010B5194B5A7DFF2A2CD11A7EAC
:109A500052BB174C5A750121197694F850110B29F5
:109A600008D84A1C84F8502101F14802114844F8F2
:109A700022000A461A75B4F81821B4F81A3161693F
:109A80000A489B1A9BB20A4494F81C1100F030F863
:109A900050B1B4F818311844636980B2A4F81801C1
:109AA000588094F81C211A7110BD00BFD8460020C0
:109AB000F4460020A44C0A0010B5407DFF2807D0D2
:109AC00059F000FF044608B95EF086FA204610BD42
:109AD0000024FBE7034B9B68B3F5966F01D15AF066
:109AE00063B870475437012009B900B9F2E77047ED
:109AF0002DE9F047074692B098461546002A00F037
:109B000090804B4B93F81C6193F81D1193F81EA1A4
:109B1000B21C83F81C214C1C8A1C83F81D2164F0A4
:109B20007F040AF1010241F08009E4B283F81E21AA
:109B30004222002101A872F0D1FC002D6DD0B8F1B5
:109B4000410F73D940F20220ADF8080040F20940FD
:109B5000ADF80C0040F20120ADF8100024208DF883
:109B6000160034480690731C0120DBB28DF80660A5
:109B70008DF80E608DF81C008DF826602E48397D1A
:109B80008DF81E30032640F6083208908DF82730F5
:109B900040F224608DF82B608DF8313008260A23BE
:109BA0000427ADF804208DF8141002220521ADF829
:109BB00024008DF82C6040F207508DF834304FF4BB
:109BC000116640238DF807208DF812208DF81510AE
:109BD000ADF828008DF83320ADF838008DF83B2023
:109BE0008DF81F708DF82A90ADF82E608DF83070CA
:109BF0008DF83AA08DF83C3007238DF83F308DF872
:109C0000401044F2020342220DEB070128468DF872
:109C10004140ADF8423072F039FC422012B0BDE84C
:109C2000F087924614469146164681E70020F5E7F4
:109C3000F446002020010524240202057FB5204BB4
:109C4000204A03F11006144618685968154603C5E2
:109C50000833B3422A46F7D11B4A1B881068516863
:109C60002B8001AB03C3127A1A7004AA12E9070011
:109C7000164B03C3194603F5887001F80829144AE6
:109C8000C4F818214FF48072A4F81C2101226161EC
:109C900084F81E210021202272F020FC40F20943AA
:109CA000C4F820310B4BC4F824310B4BC4F82831D5
:109CB0000023C4F82C31042384F8503104B070BD63
:109CC000BF4C0A00F4460020D14C0A000C4700208B
:109CD00009000001B34C0A00ADBC0B00F0B505460D
:109CE000002004462B5D2E19002B68D003F14002A2
:109CF000D2B2012A3DD9F42B3BD81A061BD401223B
:109D0000A3F55846B6F5006F33D3B3F5803F14443E
:109D10004FD31E2853DCA3F5803342009E0A0A4429
:109D2000C3F30903A6F52056A3F5105321F81060DC
:109D300002305380D6E703F0E002C02A1BD103F0C3
:109D40001F03022206F1010C16441CF8017B07F0E8
:109D5000C00EBEF1800F0CD107F03F07664547EA01
:109D60008313F2D1022A16D1A3F18006B6F5F06F63
:109D7000C6D30134B6E703F0F002E02A03D103F0C2
:109D80000F030322DEE703F0F802F02AF1D103F01B
:109D900007030422D6E7032A04D1A3F50066B6F52B
:109DA000784FE5E7A3F58032B2F5801FE1D20422B7
:109DB000A6E7202803D021F81030013092E7F0BD4B
:109DC0000B6802490B610121184700BFC431012013
:109DD0002DE9F041174C184F8046002518262279AE
:109DE000EBB2511D994212DA38220021134872F069
:109DF00075FB1022FF2104F1090072F06FFB04F1E2
:109E000019001222BDE8F041FF2172F067BB9A42AF
:109E100007D9226806FB032333B9BDE8F041FDF7FB
:109E2000EFBD9B1A06FB03735B68404698470135FC
:109E3000D5E700BF88480020E84C0A008D48002084
:109E4000F8B5124C266C00F07F07C5094FF0FF31C2
:109E500030465CF07DF904EB47032B4425339A79B7
:109E6000C2F38004520708D59A7912F0010103BFAA
:109E70009A7961F382029A71002400231A461946E6
:109E800030465BF0F9FF2046F8BD00BF884800204F
:109E9000F8B5194A00F07F0302EB430303EBD0103F
:109EA00000F1250490F82B5015F0010521D190F810
:109EB0002B305907C3F3800717D4166C4FF0FF31CE
:109EC00030465CF045F9A57915F001050FD1A3796D
:109ED0005B0704D4A37943F00403A3710125002395
:109EE0001A46194630465BF0C7FF2846F8BD3D4686
:109EF000F5E70025F9E700BF8848002070B48278B4
:109F000002F07F03082B07D9524B1B68DB0700D5F3
:109F100000BE002070BC70474F49C478CD7981885D
:109F200004F00304022CC1F30A010BD0032C45D02A
:109F3000012C11D1022D40F2FF3408BF4FF4806490
:109F4000A1420DE0022D0AD1B1F5007F09D0414BAD
:109F50001B68DA0700D500BE70BCFDF759BD40296B
:109F6000F5D83E4E5C0004EBD21406EB0414D50980
:109F70002181C17801F0030101292FD00120384946
:109F800000FA03F405BB03F10C06B040C1F804036A
:109F9000D1F8140503F594730443C1F8144541F84E
:109FA00023502F4BC3F8182542F48072C3F80C25B8
:109FB000BFF36F8FBFF34F8F0120ABE7022D0CBFB4
:109FC0004FF480644024BBE702339840C1F8040397
:109FD000D1F810351C43C1F81045E2E7082B93D1A6
:109FE0001F4BDDB9B6F8182112B18022C3F81C2529
:109FF0000022C3F85021D3F8002312F4001208BF46
:10A00000C3F85421164B4FF44012C3F80423D3F87D
:10A01000142542F48072C3F81425C9E70022C3F85E
:10A020002C21B6F8082112B18022C3F81C250C4B54
:10A03000D3F8002312F4001208BFC3F85421094AD0
:10A04000C3F80423D3F8102542F48072C3F8102516
:10A05000AEE700BFF0ED00E088480020E0490020B6
:10A06000007002400008200010B50B4B00F07F028A
:10A0700003EB420303EBD0142534A3799B0709D4E7
:10A0800001F07AFAA37943F00203A371A37943F0B4
:10A090000103A37110BD00BF8848002010B5104B0C
:10A0A00004460146187801F023F80E4B04F07F01B6
:10A0B00003EB410303EBD41090F82B306FF3410313
:10A0C00080F82B3090F82B306FF3000380F82B30A2
:10A0D00090F82B306FF3820380F82B3010BD00BF57
:10A0E00004400020884800202DE9F843DDE9088974
:10A0F0000C4616461F460025AE4201DC01200EE04C
:10A100006378052B04D1E37803F00303BB4208D046
:10A110000D4B186810F0010001D000BE0020BDE812
:10A12000F8832046FFF7EAFE18B9BDE8F843FDF7CB
:10A130006FBCA378DA0914BF89F8003088F80030C2
:10A14000237801351C44D7E7F0ED00E01FB5CDE9D9
:10A1500002011149002308240193486C8DF8054041
:10A160003AB9134601A94FF0FF325BF085FE04B007
:10A1700010BD6A4601A900935BF017FF009B002BFE
:10A18000F5D0064B4FF080525A6040BFBFF34F8F5F
:10A19000BFF36F8FEBE700BF8848002000ED00E0C1
:10A1A0002DE9FF414378484C023B0546042B12D869
:10A1B000DFE803F003291B22710063796FF30003CA
:10A1C0006371637900226FF341036371A271637954
:10A1D00062F382036371606C002961D10B464FF01A
:10A1E000FF3229465BF048FE2FE06379D8072CD573
:10A1F000637943F00403EDE76379DA0725D56379E2
:10A200006FF38203E6E763795B0715D563796FF334
:10A21000820363710278606C0023CDE901338DF80D
:10A220000420052203938DF8052089B90B464FF0D1
:10A23000FF3201A95BF020FEDFF89480002618278A
:10A240002279F3B2511D994214DA04B0BDE8F081CD
:10A250006A4601A900935BF0A8FE009B002BEBD09F
:10A260001A4B4FF080525A6040BFBFF34F8FBFF37D
:10A270006F8FE1E79A420AD9226807FB032323B1D3
:10A280005B6913B16968287898470136D8E79B1A4B
:10A2900007FB0383F4E7237A0133DBB223729AE7E7
:10A2A000002301AA294601935BF07FFE019B002B4E
:10A2B000CBD0064B4FF080525A6040BFBFF34F8F58
:10A2C000BFF36F8FC1E700BF8848002000ED00E0BA
:10A2D000E84C0A002DE9FF47474D074600F07F0094
:10A2E00005EB400606EBD7162536B47914F00104C9
:10A2F0004FEAD71E4FEA400306D0FDF789FB04461C
:10A30000204604B0BDE8F08796F806C0DFF800816B
:10A310004CF0010C86F806C003EB0E0C4FEA0C194A
:10A3200008EB0C1C46469CF80BA0BAF1000F17D0A6
:10A33000324A1168C90700D500BE2B44734493F814
:10A340002B106FF3000183F82B1093F82B106FF391
:10A35000820183F82B101368DB07D1D500BECFE74D
:10A3600048F80910ACF80420ACF8064008BB02BB62
:10A37000234BD3F88034C3F3C0139E4519D0214832
:10A3800000F02EFF204B59680394C1F308010039F7
:10A390004FF4E06318BF012101A8CDE90144ADF8F5
:10A3A00004308DF808708DF80940FFF7F9FE01249C
:10A3B000A6E70125BEF1000F1AD106EB4012D572B7
:10A3C00018B9124800F00CFFF1E7BFF36F8FBFF32D
:10A3D0004F8F937A03F0FF0443B1D37A03F0FF0564
:10A3E000002B8DD082F80AE001F062F82C4687E756
:10A3F00001F0E8F8FAE700BF88480020F0ED00E03F
:10A40000007002405070024000ED00E04C700240CD
:10A41000E04900202DE9F04FB54B1B78FF2B93B09E
:10A42000834600F029844FF47A72002380024FEAB9
:10A430009B5171F035FA012838BF01200390AD4CD3
:10A44000BBF1FF3F606C26461BD0039BBBF1000FA6
:10A4500014BF1A46002207A95BF000FE002800F096
:10A460000B849DF81D30013B072B00F2B283DFE81F
:10A4700013F00A001C00B003170426042B008D0300
:10A4800032045A46E7E79DF81C00FFF7A1FC9A4802
:10A490001422002172F022F89DF82030E371606CE4
:10A4A0005BF0ECFE0028CAD1E6E39DF81C00FFF744
:10A4B0008FFC91481422002172F010F88F4B002B72
:10A4C000EDD0AFF30080EAE7237A013BDBB22372E1
:10A4D000227A02F0FF03002AE1D16279DFF81882C4
:10A4E0009DF81C50C8F8103042F00102627194F8D7
:10A4F0002B2063F3000284F82B2094F82B2063F3C5
:10A50000820284F82B2094F82C2063F3000284F854
:10A510002C2094F82C2063F382029DF8203084F8DC
:10A520002C2003F06002602A06D1754B1B68DD0702
:10A5300040F1DF8200BEDCE2402A0AD1714BC8F84C
:10A54000103008AA0121284659F0C0FA0028A6D1E7
:10A55000CFE203F01F03012B00F03E82022B00F03C
:10A560008882002BE1D1202A20D19DF824300F2BA6
:10A5700000F2BF821E442379717A99420CD223687B
:10A5800001EB410113EBC10100F0B38208AA0C31C9
:10A590002846FFF715FCD9E75A1D8A42C0F2A98266
:10A5A000594AC91A182303FB0121EFE7002ABCD13D
:10A5B0009DF82130092BB8D801A252F823F000BF32
:10A5C000C3A90200B1A902002BA502009DA90200A7
:10A5D0002BA50200E9A502004FA802002BA502004E
:10A5E0001DA6020031A60200DDE90801474BC8E9BB
:10A5F0000001D3F80014D3F8000400220143C8E995
:10A600000222C3F80014C3F858214FF48002C3F8A3
:10A610000423637943F00203637140E7A3798DF863
:10A62000383001230EAA08A9284658F037FC36E72F
:10A630009DF822300193019AA3799A4200F08A8012
:10A64000A379002B42D0324B8022C3F88420BFF381
:10A650004F8FBFF36F8F0127DFF8B080DFF8C0A006
:10A66000B94607F10C03BA1C09FA02F209FA03F31E
:10A670001343C8F80833BB0003F1804303F51C33D0
:10A68000002159600AEB471099622022013771F0CE
:10A6900025FF082F4FF00001E3D11E4BC8F8083307
:10A6A0002022C8F81C151C48C8F82410C8F8481007
:10A6B00071F014FFC8F81495C8F81095144B802257
:10A6C0005A60E7792846FFF783FBE771019B002B6F
:10A6D00000F0B780114B5A6912B15378022B21D088
:10A6E000074B1B68DA077FF520AF00BE1DE700BFF0
:10A6F0000440002088480020C431012000000000F0
:10A70000F0ED00E0CD3A0800E84C0A00007002408D
:10A7100000E100E000083000E04A0020F44600209C
:10A72000E0490020D379C3F38011C3F340131B0128
:10A7300043EA4113617921F030010B43637153887F
:10A74000D31802F109010293029B8B4209D8B74B3F
:10A75000002B73D1019BA37108A9284658F05AFB1E
:10A760009DE64B780B2B03BF0B7891F80390C9182B
:10A770004FF001094B78042BB2D1029B5A1A92B2C6
:10A780004FF0000A37795FFA8AF87B1D9845A7DCFD
:10A7900047452ED93768182303FB0877002F9FD031
:10A7A000BB682846CDE9041298470828DDE9041261
:10A7B00041D982423FD3B9F1010F0AD1BB689C4A0B
:10A7C000934208BF4FF002099A4A934208BF4FF0E4
:10A7D00002090022D3B2994512D8974A0844884208
:10A7E0001AD8954B1B79053398453FF779AF014649
:10A7F000AAE7924BA8EB0707182000FB0737CFE723
:10A800008F783B4456FA83F301325F7AFF2F7FF44F
:10A8100067AF83F80980DDE74B78052B08D18F7887
:10A8200007F07F0302EB430303EBD71383F8198090
:10A830000B781944D3E70AF1010AA3E7AFF30080CC
:10A8400088E77F4B002B85D0AFF3008082E7BDF80F
:10A850002200030A5A1EC0B20E2A00F24A81DFE823
:10A8600012F00F001A002B004801480191001A0055
:10A8700048014801480148014801480148011600C3
:10A88000704A122308A9284658F008FB5EE66E4A73
:10A8900032F80239F6E7022B06D16A4B5A69002AD0
:10A8A0003FF443AE5388EDE7684B002B00F0218165
:10A8B000AFF300800246F2E7624E60B1032819D080
:10A8C00096F85031834240F21481483006F5AA715F
:10A8D00056F8200053E0D6F82031A6F85431012074
:10A8E0000130430043F44072A6F8522103F0FE0306
:10A8F000574AC7E7D6F82C71002F3DD10AA859F066
:10A9000055F90DF1280C0346B6463A46D1B28B42B2
:10A910000EF1040E2DD94F4F0DF1380907F1100A31
:10A9200038687968C846A8E8030008375745C14623
:10A93000F6D11CF8018B474F08F00F0112A8014413
:10A940000DF1380A11F8101CAEF852117968386808
:10A95000D146A9E80300404908378F42CA46F5D1DD
:10A9600012A901EB1818013218F8101CAEF850119A
:10A97000CCE75800C0B2B3E706F5AA713846FFF736
:10A98000ADF9F7E7354B002B00F0B380AFF3008053
:10A990000246002800F0AD80037873E7BDF822304E
:10A9A000012B40F0A680637943F008036371D3E67E
:10A9B000BDF82230012B40F09C8063796FF3C30314
:10A9C000F4E76379C3F340129B0803F002031343D7
:10A9D000ADF83830022325E69DF824300F2B00F225
:10A9E00088801E442379717A994239D2236801EB19
:10A9F000410113EBC1017CD008AA0C312846FFF7B6
:10AA0000DFF900287FF44BAD9DF8203013F0600390
:10AA10006FD19DF82120A2F10A01012969D80A2AE3
:10AA2000C8F810307FF498AEF9E500BF00000000D0
:10AA3000213A08008132080088480020E84C0A00CA
:10AA400000000000F446002050BB0B000000000096
:10AA5000464800200CF00B001CF00B00000000002A
:10AA60005A1D8A4245DBA24AC91A182303FB012159
:10AA7000C2E79DF8240000F07F0CBCF1080F3FF600
:10AA800054AD06EB4C0707EBD01794F804E07F7E3B
:10AA900077454FEAD0114FEA4C0A16D2236807EBEC
:10AAA000470703EBC70712BB9DF8212002F0FD0EFC
:10AAB000BEF1010F24D0002A7FF437AD5644314453
:10AAC00091F82B30C3F3400382E70EF10509B94535
:10AAD000C0F20981864BA7EB0E074FF0180E0EFB54
:10AAE0000737002AE0D008AA07F10C0150E5002F33
:10AAF000F9D1002000F040FD802000F03DFDCEE4C3
:10AB0000BDF822E0BEF1000F2BD1012A3BD106EBAC
:10AB10000A020A4425329279930722D510F0770F62
:10AB200011D0744A40F4807EC2F80C05C2F80CE5DE
:10AB3000C2F8180519B90CF5947C42F82C10BFF333
:10AB40006F8FBFF34F8F5644314491F82B306FF322
:10AB5000410381F82B3091F82B306FF3000381F81B
:10AB60002B30002F3FF49BAC08AA07F10C012846BC
:10AB7000FFF726F90023C8F8103094F82C30DE07D0
:10AB80003FF58DACE8E5FFF76FFAEAE79DF8201096
:10AB900001F07F0706EB470606EBD116CA0996F8C7
:10ABA0002B006FF3000086F82B0096F82B006FF354
:10ABB000820086F82B00002F4FD14F4D9DF81C606E
:10ABC0002B78DDF82480B2EBD31F12D0B8F1000F40
:10ABD00006D04A4B1B68DB077FF561AC00BE5EE424
:10ABE0002B69002B3FF45BAC2A4603213046984783
:10ABF00055E495F90030002B07DBA86800283FF4E6
:10AC00004EAC3F49424671F041FCAA68EB89424490
:10AC10004344AA60EA889BB29A42EB8102D0B8F121
:10AC20003F0F16D82B696BB995F900300022002B25
:10AC30001146B4BF38468020FFF74CFB00287FF454
:10AC40002EACC6E72C4A0221304698470028EBD1AB
:10AC500050E7304658F0F6F8F0E7737E22799342D9
:10AC60000DD2226803EB430312EBC3030FD1234B36
:10AC70001B68D80700D500BE13B0BDE8F08F501D8B
:10AC80009842F4DB1A489B1A182202FB03031D6941
:10AC90009DF82120099B9DF81C00A847FFF7FFBBEA
:10ACA0006379D9077FF5FBAB164B002B3FF4F7AB6D
:10ACB0006079C0F3C000AFF30080FFF7F0BB6379A9
:10ACC000DA077FF5ECAB104B002B3FF4E8ABAFF3AA
:10ACD0000080FFF7E4BB089B002B3FF4E0AB099832
:10ACE0009847FFF7DCBB002A7FF403AF1746DBE68B
:10ACF000E84C0A0000700240C4310120F0ED00E091
:10AD0000D831012000000000000000002DE9F743C9
:10AD1000DFF8D88098F80030FF2B0646474648D128
:10AD2000DFF8CC903822002109F1050071F0D6FB44
:10AD300009F1480101205BF023F94D46C9F84000B4
:10AD400040B9274B1B6813F0010F46D1002003B018
:10AD5000BDE8F08300230093D8F80820B8F8061067
:10AD6000B8F8040008F110035BF04AF8D8F80C10AA
:10AD700004465BF09BFAC9F844402CB9184B1B6899
:10AD8000DB07E3D500BEE1E7164B23B1281DAFF387
:10AD90000080C9F80000DFF85C9000244FF018082C
:10ADA0002879E3B2421D934205DD3E700E4B8022AE
:10ADB0005A600120CBE7984208D9286808FB0300B5
:10ADC00038B9074A126812F0010FBEE71B1A08FBD8
:10ADD0000390036898470134E2E700BEB7E700BF7D
:10ADE000F0ED00E00000000000E100E00440002081
:10ADF00088480020E84C0A002DE9F0470646006923
:10AE00008846914618B14FF0FF315BF0A1F93389C4
:10AE10007489B7889BB2A4B2A34236BFC4EB47057E
:10AE20001D1BED18ADB2F5B1AF4206D2BB422CBF2F
:10AE3000DC1BDC19A4B274813D464D4528BF4D464C
:10AE4000A74229D9F2883168A7EB04091FFA89F9CA
:10AE5000C2F30E0A4D4552460AFB04111FD86A433D
:10AE6000404671F013FB7389B28899B215FA83F3E7
:10AE70009BB299424FEA420201D8934201DB9B1AEE
:10AE80009BB23069738120B100231A4619465AF0EB
:10AE9000F3FF2846BDE8F087E41BA4B2D0E719FB16
:10AEA0000AF91FFA89F94A46404671F0EFFAEA1B9F
:10AEB000224412FB0AF2316892B208EB0900D0E793
:10AEC000F8B50446C0680F4616461D4618B14FF047
:10AED000FF315BF03DF9206918B14FF0FF315BF0B5
:10AEE00037F9ED03E0682760002345F00105638131
:10AEF000A680E580238118B11A4619465AF0BCFF96
:10AF0000206920B100231A4619465AF0B5FF0120E6
:10AF1000F8BD38B50446C0680D4618B14FF0FF3192
:10AF20005BF016F9206918B14FF0FF315BF010F9B2
:10AF3000E379E06865F3C713E37120B100231A4693
:10AF400019465AF099FF206920B100231A46194684
:10AF50005AF092FF012038BD10B50446C06818B100
:10AF60004FF0FF315BF0F4F8206918B14FF0FF317A
:10AF70005BF0EEF8E06800236381238118B11A4684
:10AF800019465AF079FF206920B100231A46194664
:10AF90005AF072FF012010BD2DE9F84F0746884690
:10AFA000164642B3C06818B14FF0FF315BF0D0F8DD
:10AFB000FA793D897B89B7F80490D209ADB29BB28A
:10AFC0001CD19D4239BFC3EB49046419EB1A9CB2F2
:10AFD00038BFA4B2A14586BFA9EB0404A4B20024E3
:10AFE000A64228BF264656BBF86820B100231A4661
:10AFF00019465AF041FF3046BDE8F88FF9884E45B2
:10B00000C1F30E0106D3A6EB090601FB06881D4617
:10B010004E46E8E79D424FEA490136BFCA1AEA1A8E
:10B02000521992B232448A4209DB09EB0305AD1B87
:10B03000ADB2AB4201D8A94201DC6D1AADB22C46CB
:10B04000A1451DD9FA883868A9EB040A1FFA8AFAC3
:10B05000C2F30E0BB2455A460BFB040014D37243E5
:10B06000414671F013FA7319BA889BB2AB424FEAAA
:10B07000420201D3934201DB9B1A9BB23B81B3E7AF
:10B08000A4EB0904A4B2DBE71AFB0BFA1FFA8AFA55
:10B090005246414671F0FAF9A6EB0903234413FB2B
:10B0A0000BF2386892B208EB0A01DAE7828803896A
:10B0B00040899BB280B2834236BFC0EB4200181A6F
:10B0C000C01880B2824286BF101A80B2002070473A
:10B0D0000389428981889BB292B2934236BFC2EB08
:10B0E00041029B1A9B1898B2884228BF08467047B5
:10B0F00070B501F07F05082D2A4B2B4C4FEAD1117A
:10B1000023D0012202FA05F0C043A1B905F10C06D3
:10B11000B240C3F80823D3F814251040C3F814052F
:10B1200001EB450104EB01110023CB72BFF36F8FDC
:10B13000BFF34F8F70BDAE1CB240C3F80823D3F8E5
:10B1400010251040C3F81005EAE704EB01120020B7
:10B15000A2F80801D1B94FF48012C3F80823D3F83C
:10B16000142522F48072C3F81425C3F850110D4B36
:10B17000B4F808010022C3F81C25B4F81821C24213
:10B1800004BF4FF40012C3F80823C9E74FF400626C
:10B19000C3F80823D3F8102522F48072C3F81025D1
:10B1A000E5E700BF00700240E04900200123036092
:10B1B000BFF36F8FBFF34F8F074B984202D0043B12
:10B1C000984207D1BFF35B8F044B002283F8202104
:10B1D000BFF35B8F704700BF50700240E049002012
:10B1E00010B40D4BBFF35B8F01464FF00104D3E861
:10B1F0004F2FC3E84C4FBCF1000FF8D1BFF35B8F6A
:10B2000012F0FF0F05D005485DF8044B0122FEF750
:10B210009DBF5DF8044BC9E7004B0020E1B102007F
:10B2200043F2040307B51A68094B9A424FF0000035
:10B230000AD18DF807000DF10700FBF737FB9DF8E9
:10B240000700003818BF012003B05DF804FB00BF01
:10B25000DBE5B15107B5FFF7E3FF58B1002301A8C3
:10B260000193FCF7B7FB0198003818BF012003B029
:10B270005DF804FB4FF08043D3F80C24D3F80C04A2
:10B2800010F4803018BF02F00100F0E701281FB56C
:10B29000044600F0B980022853D0002842D1774BF1
:10B2A000D3F80025002A3DD14FF48002C3F80823CB
:10B2B0004FF40062C3F80024BFF36F8FBFF34F8FCA
:10B2C0006F4B1B68082B10D16E4B1B68032B0CD8DF
:10B2D0006D4AD35C4BB16D4B6D4A1868032118BBA6
:10B2E00049F27530186011601860FCF779FB48B1BD
:10B2F000664B684A1868C021C0B949F275301860B9
:10B30000116018605D4B0124C3F80045BFF36F8FD7
:10B31000BFF34F8FFFF79EFF20B9FFF781FF38B1D2
:10B32000FCF75CFB04B010BD1160DEE71160E9E7DB
:10B33000594B18601B680193019B4FF080431C60C0
:10B34000F0E74E4CD4F804351BB1FFF783FF00281B
:10B35000E8D1D4F800341B05FBD54FF40063C4F8E2
:10B360000034BFF36F8FBFF34F8FFCF739FB48B149
:10B37000464B484A1868002840D149F27531196097
:10B38000106019603E4B1B68082B0FD13D4B1B68AA
:10B39000032B0BD83C4AD35C43B13C4B3C4A186866
:10B3A00078BB49F27531196010601960FCF718FB21
:10B3B00048B13A4B40F2E3721A6040225A60BFF340
:10B3C0006F8FBFF34F8F2D4C354880220121C4F879
:10B3D0001C25C4F804133349C1F884210078FF28E0
:10B3E00000D04A60FFF736FF0028FBD00123C4F8E5
:10B3F0000435BFF36F8FBFF34F8F93E700231360C4
:10B40000C0E700231360D1E71C4BD3F80025002AC6
:10B4100088D00022C3F80425BFF36F8FBFF34F8F8E
:10B4200020498020C1F88400BFF34F8FBFF36F8F96
:10B43000D3F80013C3F80813C3F80025BFF36F8FC8
:10B44000BFF34F8FFFF7ECFEA0B1FCF7C5FA164B28
:10B450005968C1F3080100230039CDE90133039392
:10B4600018BF01214FF4007301A8ADF80430FEF7B6
:10B4700097FE57E70D4B1C60E9E700BF00700240E4
:10B480003001001034010010784D0A0000EC064035
:10B4900014ED064014EC0640000100400078024024
:10B4A0000440002000E100E000ED00E00400004066
:10B4B000F0B42B4ABFF35B8F02F590734FF0010499
:10B4C000D3E84F1FC3E8454F002DF9D1BFF35B8F81
:10B4D00011F0FF0F14460BD0224B5A68C2F308023A
:10B4E000003A0146F0BC204818BF0122FEF72EBEEC
:10B4F00008281E4919D1D1F8C034D80308D5BFF3A4
:10B500005B8F002384F82031BFF35B8FF0BC704762
:10B5100092F80B010028F2D0D2F800211448C1F8AB
:10B52000A027C1F8A437F0BC40E602EB401500F5B7
:10B530009473460151F82340EF88AB88DB1B9BB224
:10B54000A4B2A34228BF23469459142202FB00113F
:10B55000C1F80047C1F80437064B03EB8000E2E76F
:10B56000E049002000ED00E0C1B50200007002409B
:10B57000487002402870024010F07F0108B507D1E2
:10B580000D4B01225A65BFF36F8FBFF34F8F08BD7C
:10B590000829F8D0084B40F48072C3F81825C30975
:10B5A000F1D1064A02EB4112907A0028EBD0937257
:10B5B0000846FFF77DFFE6E700700240E049002003
:10B5C000C0B275E70C4B03EB4013D98A9A8A521A22
:10B5D000198B92B28A4228BF0A4619691423434341
:10B5E00003F1804303F51C33C3F80016C3F80426A7
:10B5F000024B03EB8000F3E5E049002004700240B9
:10B600002DE9F04FC34BC44AD3F80013002385B093
:10B610001C4601201D4621FA03F6F6070BD552F809
:10B62000236046B100FA03F6344342F82350BFF3D7
:10B630006F8FBFF34F8F0133192BECD1E7073BD549
:10B64000B44B0122C3F81425C3F810250022154677
:10B65000930003F1804303F51C330132082A5D6037
:10B660009D62F5D1AB4B5D629D64C3F85851D3F830
:10B670000024D3F800140A43C3F80024D3F80023AD
:10B68000C3F80823A54AC3F80423A54B4FF49272CC
:10B690000021184670F022FF4022028302814FF4FD
:10B6A0008073012101A8CDE901550395ADF804305F
:10B6B0008DF80850FEF774FD14F4006F984D08D013
:10B6C000944BD3F8A8369BB2A5F81631012385F820
:10B6D0001C31A60204F4800736D58E4ED6F81435F8
:10B6E00013F4807308D01FB1D6F80034D80702D401
:10B6F0000820FFF7DDFE0123D6F81025D10540F123
:10B700005D8195F81C319BB1B5F8163100229BB2D2
:10B71000CDE9012285F81C2103934FF4E0628823D0
:10B72000012101A8ADF80420ADF80830FEF738FD7E
:10B730000023CDE90133039301214FF4407301A8A5
:10B74000ADF80430FEF72CFD002F37D0714BD3F845
:10B75000006440F201723240C3F80024F2050DD5B6
:10B760000121C3F82C150023CDE90133039301A86F
:10B770004FF48063ADF80430FEF712FD77050FD566
:10B78000644B0122C3F808259A65D3F8002312F40C
:10B79000001208BFC3F854214FF40012C3F8042369
:10B7A000B0050BD50023CDE90133039301214FF4FC
:10B7B000A06301A8ADF80430FEF7F2FC21023BD5EE
:10B7C000544BD3F880E4D3F88424D3F88814D3F806
:10B7D0008C74D3F89064D3F894045FFA81FCD3F8A6
:10B7E0009814D3F89C341EF07F0F5FFA8EF8D2B213
:10B7F000FFB2F6B2C0B2C9B2DBB201D1052A1BD08A
:10B800004FF0000EADF806E08DF80D004FF4C06E5D
:10B810008DF80E1001A80121ADF804E08DF8088024
:10B820008DF809208DF80AC08DF80B708DF80C602A
:10B830008DF80F30FEF7B4FC3A4B23406BB1BFF3E9
:10B840005B8F95F82031BFF35B8F002B40F0BE80FB
:10B85000354B1B68DA0700D500BEDFF8C480DFF87F
:10B86000B490DFF8CCB0474600264FF0140A06F13A
:10B870000C0324FA03F3DB07F1B224D50AFB069389
:10B880003A68D3F8083705EB461C12FA83F23A609F
:10B89000BCF806E098B273449BB2082E4FEA4612F9
:10B8A000ACF8063000F09A803B89834240F09680E5
:10B8B000BCF80630B8889BB2984240F28F8011B92C
:10B8C0005846FFF78DFC0136092E07F12007CED12F
:10B8D000164B2340002B00F089800E4BD3F86C747C
:10B8E000C3F86C74BFF36F8FBFF34F8F14F4806491
:10B8F00008D0D3F88044D3F880341906C4F3C014B8
:10B9000040F18D804FF00009DFF808A000264FF0CD
:10B91000140B0FE000700240007102400514C001DA
:10B92000E0490020FCFB1F00F0ED00E000040001F6
:10B930004C70024027FA06F3DA07F0B201D4D6B908
:10B94000CCB10BFB06A3D8F81020D3F8083652FA76
:10B9500083F2C8F8102005EB4612D18A89B251FA59
:10B9600083F39BB2D382D38AB8F814109BB2994266
:10B9700058D9FFF727FE0136082E08F12008D9D143
:10B980000024012604F1100327FA03F3DB07E0B2D9
:10B9900003D47CB9B9F1000F0CD005EB441163015D
:10B9A000CA7A002A53D0CA88898892B291424ED965
:10B9B000FFF77EFD0134082CE4D117E0002B7FF463
:10B9C000B7AE4FF40013C6F80833B1E60023BFF357
:10B9D0005B8F85F82031BFF35B8F3EE72A44D37A33
:10B9E0003BB91C4B1B68D80700D500BE05B0BDE8AD
:10B9F000F08FD388BB800023D372D2884FF4E060ED
:10BA0000CDE9013392B2ADF804008DF8081001A819
:10BA1000012103928DF80930FEF7C2FB53E74FF086
:10BA2000010971E7D28A00234FF4E06160F07F00E2
:10BA3000CDE9013392B2ADF804108DF80800012170
:10BA400001A803928DF80930FEF7AAFB93E72B4477
:10BA50009E72AFE7F0ED00E0034B43F602229A87B7
:10BA6000002283F83E207047044B002010B4114B95
:10BA700002209A6B83F82C10996883F8300093F8B1
:10BA80003C008A1A9A6220B942F205049C8783F826
:10BA90003E0059B152B11A7B5DF8044BD20914BF74
:10BAA00093F82E0093F82F00FEF7DEBA5DF8044BF2
:10BAB000704700BF044B002038B5134C0546607B2F
:10BAC00058F006F848B942F2077384F83E00A3879D
:10BAD00028460121BDE83840C8E7A268A36B94F866
